{
	"contracts/Exchange.sol": {
		"Exchange": {
			"abi": [
				{
					"inputs": [
						{
							"internalType": "address",
							"name": "_TGOLDToken",
							"type": "address"
						}
					],
					"stateMutability": "nonpayable",
					"type": "constructor"
				},
				{
					"inputs": [],
					"name": "AddressZeroError",
					"type": "error"
				},
				{
					"inputs": [],
					"name": "InputAmountNotGreaterThanZero",
					"type": "error"
				},
				{
					"inputs": [],
					"name": "InsufficientERC20Input",
					"type": "error"
				},
				{
					"inputs": [],
					"name": "InvalidReserveQuantity",
					"type": "error"
				},
				{
					"inputs": [],
					"name": "OutputAmountLessThanMinimumAmount",
					"type": "error"
				},
				{
					"inputs": [],
					"name": "SendFailed",
					"type": "error"
				},
				{
					"anonymous": false,
					"inputs": [
						{
							"indexed": true,
							"internalType": "address",
							"name": "owner",
							"type": "address"
						},
						{
							"indexed": true,
							"internalType": "address",
							"name": "spender",
							"type": "address"
						},
						{
							"indexed": false,
							"internalType": "uint256",
							"name": "value",
							"type": "uint256"
						}
					],
					"name": "Approval",
					"type": "event"
				},
				{
					"anonymous": false,
					"inputs": [
						{
							"indexed": true,
							"internalType": "address",
							"name": "from",
							"type": "address"
						},
						{
							"indexed": true,
							"internalType": "address",
							"name": "to",
							"type": "address"
						},
						{
							"indexed": false,
							"internalType": "uint256",
							"name": "value",
							"type": "uint256"
						}
					],
					"name": "Transfer",
					"type": "event"
				},
				{
					"inputs": [],
					"name": "TGOLDTokenAddress",
					"outputs": [
						{
							"internalType": "address",
							"name": "",
							"type": "address"
						}
					],
					"stateMutability": "view",
					"type": "function"
				},
				{
					"inputs": [
						{
							"internalType": "uint256",
							"name": "_tokensSold",
							"type": "uint256"
						},
						{
							"internalType": "uint256",
							"name": "_minEth",
							"type": "uint256"
						}
					],
					"name": "TGOLDTokensToEth",
					"outputs": [],
					"stateMutability": "nonpayable",
					"type": "function"
				},
				{
					"inputs": [
						{
							"internalType": "uint256",
							"name": "_amount",
							"type": "uint256"
						}
					],
					"name": "addLiquidity",
					"outputs": [
						{
							"internalType": "uint256",
							"name": "",
							"type": "uint256"
						}
					],
					"stateMutability": "payable",
					"type": "function"
				},
				{
					"inputs": [
						{
							"internalType": "address",
							"name": "owner",
							"type": "address"
						},
						{
							"internalType": "address",
							"name": "spender",
							"type": "address"
						}
					],
					"name": "allowance",
					"outputs": [
						{
							"internalType": "uint256",
							"name": "",
							"type": "uint256"
						}
					],
					"stateMutability": "view",
					"type": "function"
				},
				{
					"inputs": [
						{
							"internalType": "address",
							"name": "spender",
							"type": "address"
						},
						{
							"internalType": "uint256",
							"name": "amount",
							"type": "uint256"
						}
					],
					"name": "approve",
					"outputs": [
						{
							"internalType": "bool",
							"name": "",
							"type": "bool"
						}
					],
					"stateMutability": "nonpayable",
					"type": "function"
				},
				{
					"inputs": [
						{
							"internalType": "address",
							"name": "account",
							"type": "address"
						}
					],
					"name": "balanceOf",
					"outputs": [
						{
							"internalType": "uint256",
							"name": "",
							"type": "uint256"
						}
					],
					"stateMutability": "view",
					"type": "function"
				},
				{
					"inputs": [],
					"name": "decimals",
					"outputs": [
						{
							"internalType": "uint8",
							"name": "",
							"type": "uint8"
						}
					],
					"stateMutability": "view",
					"type": "function"
				},
				{
					"inputs": [
						{
							"internalType": "address",
							"name": "spender",
							"type": "address"
						},
						{
							"internalType": "uint256",
							"name": "subtractedValue",
							"type": "uint256"
						}
					],
					"name": "decreaseAllowance",
					"outputs": [
						{
							"internalType": "bool",
							"name": "",
							"type": "bool"
						}
					],
					"stateMutability": "nonpayable",
					"type": "function"
				},
				{
					"inputs": [
						{
							"internalType": "uint256",
							"name": "_minTokens",
							"type": "uint256"
						}
					],
					"name": "ethToTGOLDTokens",
					"outputs": [],
					"stateMutability": "payable",
					"type": "function"
				},
				{
					"inputs": [
						{
							"internalType": "uint256",
							"name": "inputAmount",
							"type": "uint256"
						},
						{
							"internalType": "uint256",
							"name": "inputReserve",
							"type": "uint256"
						},
						{
							"internalType": "uint256",
							"name": "outputReserve",
							"type": "uint256"
						}
					],
					"name": "getAmountOfTokens",
					"outputs": [
						{
							"internalType": "uint256",
							"name": "",
							"type": "uint256"
						}
					],
					"stateMutability": "pure",
					"type": "function"
				},
				{
					"inputs": [],
					"name": "getReserve",
					"outputs": [
						{
							"internalType": "uint256",
							"name": "",
							"type": "uint256"
						}
					],
					"stateMutability": "view",
					"type": "function"
				},
				{
					"inputs": [
						{
							"internalType": "address",
							"name": "spender",
							"type": "address"
						},
						{
							"internalType": "uint256",
							"name": "addedValue",
							"type": "uint256"
						}
					],
					"name": "increaseAllowance",
					"outputs": [
						{
							"internalType": "bool",
							"name": "",
							"type": "bool"
						}
					],
					"stateMutability": "nonpayable",
					"type": "function"
				},
				{
					"inputs": [],
					"name": "name",
					"outputs": [
						{
							"internalType": "string",
							"name": "",
							"type": "string"
						}
					],
					"stateMutability": "view",
					"type": "function"
				},
				{
					"inputs": [
						{
							"internalType": "uint256",
							"name": "_amount",
							"type": "uint256"
						}
					],
					"name": "removeLiquidity",
					"outputs": [
						{
							"internalType": "uint256",
							"name": "",
							"type": "uint256"
						},
						{
							"internalType": "uint256",
							"name": "",
							"type": "uint256"
						}
					],
					"stateMutability": "nonpayable",
					"type": "function"
				},
				{
					"inputs": [],
					"name": "symbol",
					"outputs": [
						{
							"internalType": "string",
							"name": "",
							"type": "string"
						}
					],
					"stateMutability": "view",
					"type": "function"
				},
				{
					"inputs": [],
					"name": "totalSupply",
					"outputs": [
						{
							"internalType": "uint256",
							"name": "",
							"type": "uint256"
						}
					],
					"stateMutability": "view",
					"type": "function"
				},
				{
					"inputs": [
						{
							"internalType": "address",
							"name": "to",
							"type": "address"
						},
						{
							"internalType": "uint256",
							"name": "amount",
							"type": "uint256"
						}
					],
					"name": "transfer",
					"outputs": [
						{
							"internalType": "bool",
							"name": "",
							"type": "bool"
						}
					],
					"stateMutability": "nonpayable",
					"type": "function"
				},
				{
					"inputs": [
						{
							"internalType": "address",
							"name": "from",
							"type": "address"
						},
						{
							"internalType": "address",
							"name": "to",
							"type": "address"
						},
						{
							"internalType": "uint256",
							"name": "amount",
							"type": "uint256"
						}
					],
					"name": "transferFrom",
					"outputs": [
						{
							"internalType": "bool",
							"name": "",
							"type": "bool"
						}
					],
					"stateMutability": "nonpayable",
					"type": "function"
				}
			],
			"devdoc": {
				"events": {
					"Approval(address,address,uint256)": {
						"details": "Emitted when the allowance of a `spender` for an `owner` is set by a call to {approve}. `value` is the new allowance."
					},
					"Transfer(address,address,uint256)": {
						"details": "Emitted when `value` tokens are moved from one account (`from`) to another (`to`). Note that `value` may be zero."
					}
				},
				"kind": "dev",
				"methods": {
					"TGOLDTokensToEth(uint256,uint256)": {
						"details": "Swaps TGOLD Tokens for Eth to buy _minEth when selling _tokensSold no payable this time, ERC20 token amount will be one of the 2 parameters of this function"
					},
					"addLiquidity(uint256)": {
						"details": "Adds liquidity to the exchange."
					},
					"allowance(address,address)": {
						"details": "See {IERC20-allowance}."
					},
					"approve(address,uint256)": {
						"details": "See {IERC20-approve}. NOTE: If `amount` is the maximum `uint256`, the allowance is not updated on `transferFrom`. This is semantically equivalent to an infinite approval. Requirements: - `spender` cannot be the zero address."
					},
					"balanceOf(address)": {
						"details": "See {IERC20-balanceOf}."
					},
					"decimals()": {
						"details": "Returns the number of decimals used to get its user representation. For example, if `decimals` equals `2`, a balance of `505` tokens should be displayed to a user as `5.05` (`505 / 10 ** 2`). Tokens usually opt for a value of 18, imitating the relationship between Ether and Wei. This is the default value returned by this function, unless it's overridden. NOTE: This information is only used for _display_ purposes: it in no way affects any of the arithmetic of the contract, including {IERC20-balanceOf} and {IERC20-transfer}."
					},
					"decreaseAllowance(address,uint256)": {
						"details": "Atomically decreases the allowance granted to `spender` by the caller. This is an alternative to {approve} that can be used as a mitigation for problems described in {IERC20-approve}. Emits an {Approval} event indicating the updated allowance. Requirements: - `spender` cannot be the zero address. - `spender` must have allowance for the caller of at least `subtractedValue`."
					},
					"ethToTGOLDTokens(uint256)": {
						"details": "Swaps Eth for TGOLD Tokens payable bcz we're accepting Ether in the contract for swapping with TG Tokens to buy _minTokens when selling (payable) Eth"
					},
					"getAmountOfTokens(uint256,uint256,uint256)": {
						"details": "returns the amount of Eth/TG tokens that are required to be returned to the user/trader upon swap"
					},
					"getReserve()": {
						"details": "Returns the amount of `TGOLD Tokens` held by the Exchange.sol contract (not user)"
					},
					"increaseAllowance(address,uint256)": {
						"details": "Atomically increases the allowance granted to `spender` by the caller. This is an alternative to {approve} that can be used as a mitigation for problems described in {IERC20-approve}. Emits an {Approval} event indicating the updated allowance. Requirements: - `spender` cannot be the zero address."
					},
					"name()": {
						"details": "Returns the name of the token."
					},
					"removeLiquidity(uint256)": {
						"details": "Returns the amount Eth/TGOLD tokens that would be returned to the user in the swap of TG LP tokens with user-funds"
					},
					"symbol()": {
						"details": "Returns the symbol of the token, usually a shorter version of the name."
					},
					"totalSupply()": {
						"details": "See {IERC20-totalSupply}."
					},
					"transfer(address,uint256)": {
						"details": "See {IERC20-transfer}. Requirements: - `to` cannot be the zero address. - the caller must have a balance of at least `amount`."
					},
					"transferFrom(address,address,uint256)": {
						"details": "See {IERC20-transferFrom}. Emits an {Approval} event indicating the updated allowance. This is not required by the EIP. See the note at the beginning of {ERC20}. NOTE: Does not update the allowance if the current allowance is the maximum `uint256`. Requirements: - `from` and `to` cannot be the zero address. - `from` must have a balance of at least `amount`. - the caller must have allowance for ``from``'s tokens of at least `amount`."
					}
				},
				"version": 1
			},
			"evm": {
				"assembly": "    /* \"contracts/Exchange.sol\":119:14313  contract Exchange is ERC20 {... */\n  mstore(0x40, 0x80)\n    /* \"contracts/Exchange.sol\":569:868  constructor (address _TGOLDToken) ERC20 (\"TGOLD LP Token\", \"TGLP\") {... */\n  callvalue\n  dup1\n  iszero\n  tag_1\n  jumpi\n  0x00\n  dup1\n  revert\ntag_1:\n  pop\n  mload(0x40)\n  sub(codesize, bytecodeSize)\n  dup1\n  bytecodeSize\n  dup4\n  codecopy\n  dup2\n  dup2\n  add\n  0x40\n  mstore\n  dup2\n  add\n  swap1\n  tag_2\n  swap2\n  swap1\n  tag_3\n  jump\t// in\ntag_2:\n    /* \"@openzeppelin/contracts/token/ERC20/ERC20.sol\":1980:2093  constructor(string memory name_, string memory symbol_) {... */\n  mload(0x40)\n  dup1\n  0x40\n  add\n  0x40\n  mstore\n  dup1\n  0x0e\n  dup2\n  mstore\n  0x20\n  add\n  0x54474f4c44204c5020546f6b656e000000000000000000000000000000000000\n  dup2\n  mstore\n  pop\n  mload(0x40)\n  dup1\n  0x40\n  add\n  0x40\n  mstore\n  dup1\n  0x04\n  dup2\n  mstore\n  0x20\n  add\n  0x54474c5000000000000000000000000000000000000000000000000000000000\n  dup2\n  mstore\n  pop\n    /* \"@openzeppelin/contracts/token/ERC20/ERC20.sol\":2054:2059  name_ */\n  dup2\n    /* \"@openzeppelin/contracts/token/ERC20/ERC20.sol\":2046:2051  _name */\n  0x03\n    /* \"@openzeppelin/contracts/token/ERC20/ERC20.sol\":2046:2059  _name = name_ */\n  swap1\n  dup2\n  tag_7\n  swap2\n  swap1\n  tag_8\n  jump\t// in\ntag_7:\n  pop\n    /* \"@openzeppelin/contracts/token/ERC20/ERC20.sol\":2079:2086  symbol_ */\n  dup1\n    /* \"@openzeppelin/contracts/token/ERC20/ERC20.sol\":2069:2076  _symbol */\n  0x04\n    /* \"@openzeppelin/contracts/token/ERC20/ERC20.sol\":2069:2086  _symbol = symbol_ */\n  swap1\n  dup2\n  tag_9\n  swap2\n  swap1\n  tag_8\n  jump\t// in\ntag_9:\n  pop\n    /* \"@openzeppelin/contracts/token/ERC20/ERC20.sol\":1980:2093  constructor(string memory name_, string memory symbol_) {... */\n  pop\n  pop\n    /* \"contracts/Exchange.sol\":763:764  0 */\n  0x00\n    /* \"contracts/Exchange.sol\":740:765  _TGOLDToken == address(0) */\n  0xffffffffffffffffffffffffffffffffffffffff\n  and\n    /* \"contracts/Exchange.sol\":740:751  _TGOLDToken */\n  dup2\n    /* \"contracts/Exchange.sol\":740:765  _TGOLDToken == address(0) */\n  0xffffffffffffffffffffffffffffffffffffffff\n  and\n  sub\n    /* \"contracts/Exchange.sol\":737:819  if(_TGOLDToken == address(0)) {... */\n  tag_11\n  jumpi\n    /* \"contracts/Exchange.sol\":789:807  AddressZeroError() */\n  mload(0x40)\n  0x92863bea00000000000000000000000000000000000000000000000000000000\n  dup2\n  mstore\n  0x04\n  add\n  mload(0x40)\n  dup1\n  swap2\n  sub\n  swap1\n  revert\n    /* \"contracts/Exchange.sol\":737:819  if(_TGOLDToken == address(0)) {... */\ntag_11:\n    /* \"contracts/Exchange.sol\":849:860  _TGOLDToken */\n  dup1\n    /* \"contracts/Exchange.sol\":829:846  TGOLDTokenAddress */\n  0x05\n  0x00\n    /* \"contracts/Exchange.sol\":829:860  TGOLDTokenAddress = _TGOLDToken */\n  0x0100\n  exp\n  dup2\n  sload\n  dup2\n  0xffffffffffffffffffffffffffffffffffffffff\n  mul\n  not\n  and\n  swap1\n  dup4\n  0xffffffffffffffffffffffffffffffffffffffff\n  and\n  mul\n  or\n  swap1\n  sstore\n  pop\n    /* \"contracts/Exchange.sol\":569:868  constructor (address _TGOLDToken) ERC20 (\"TGOLD LP Token\", \"TGLP\") {... */\n  pop\n    /* \"contracts/Exchange.sol\":119:14313  contract Exchange is ERC20 {... */\n  jump(tag_12)\n    /* \"#utility.yul\":88:205   */\ntag_14:\n    /* \"#utility.yul\":197:198   */\n  0x00\n    /* \"#utility.yul\":194:195   */\n  dup1\n    /* \"#utility.yul\":187:199   */\n  revert\n    /* \"#utility.yul\":334:460   */\ntag_16:\n    /* \"#utility.yul\":371:378   */\n  0x00\n    /* \"#utility.yul\":411:453   */\n  0xffffffffffffffffffffffffffffffffffffffff\n    /* \"#utility.yul\":404:409   */\n  dup3\n    /* \"#utility.yul\":400:454   */\n  and\n    /* \"#utility.yul\":389:454   */\n  swap1\n  pop\n    /* \"#utility.yul\":334:460   */\n  swap2\n  swap1\n  pop\n  jump\t// out\n    /* \"#utility.yul\":466:562   */\ntag_17:\n    /* \"#utility.yul\":503:510   */\n  0x00\n    /* \"#utility.yul\":532:556   */\n  tag_46\n    /* \"#utility.yul\":550:555   */\n  dup3\n    /* \"#utility.yul\":532:556   */\n  tag_16\n  jump\t// in\ntag_46:\n    /* \"#utility.yul\":521:556   */\n  swap1\n  pop\n    /* \"#utility.yul\":466:562   */\n  swap2\n  swap1\n  pop\n  jump\t// out\n    /* \"#utility.yul\":568:690   */\ntag_18:\n    /* \"#utility.yul\":641:665   */\n  tag_48\n    /* \"#utility.yul\":659:664   */\n  dup2\n    /* \"#utility.yul\":641:665   */\n  tag_17\n  jump\t// in\ntag_48:\n    /* \"#utility.yul\":634:639   */\n  dup2\n    /* \"#utility.yul\":631:666   */\n  eq\n    /* \"#utility.yul\":621:684   */\n  tag_49\n  jumpi\n    /* \"#utility.yul\":680:681   */\n  0x00\n    /* \"#utility.yul\":677:678   */\n  dup1\n    /* \"#utility.yul\":670:682   */\n  revert\n    /* \"#utility.yul\":621:684   */\ntag_49:\n    /* \"#utility.yul\":568:690   */\n  pop\n  jump\t// out\n    /* \"#utility.yul\":696:839   */\ntag_19:\n    /* \"#utility.yul\":753:758   */\n  0x00\n    /* \"#utility.yul\":784:790   */\n  dup2\n    /* \"#utility.yul\":778:791   */\n  mload\n    /* \"#utility.yul\":769:791   */\n  swap1\n  pop\n    /* \"#utility.yul\":800:833   */\n  tag_51\n    /* \"#utility.yul\":827:832   */\n  dup2\n    /* \"#utility.yul\":800:833   */\n  tag_18\n  jump\t// in\ntag_51:\n    /* \"#utility.yul\":696:839   */\n  swap3\n  swap2\n  pop\n  pop\n  jump\t// out\n    /* \"#utility.yul\":845:1196   */\ntag_3:\n    /* \"#utility.yul\":915:921   */\n  0x00\n    /* \"#utility.yul\":964:966   */\n  0x20\n    /* \"#utility.yul\":952:961   */\n  dup3\n    /* \"#utility.yul\":943:950   */\n  dup5\n    /* \"#utility.yul\":939:962   */\n  sub\n    /* \"#utility.yul\":935:967   */\n  slt\n    /* \"#utility.yul\":932:1051   */\n  iszero\n  tag_53\n  jumpi\n    /* \"#utility.yul\":970:1049   */\n  tag_54\n  tag_14\n  jump\t// in\ntag_54:\n    /* \"#utility.yul\":932:1051   */\ntag_53:\n    /* \"#utility.yul\":1090:1091   */\n  0x00\n    /* \"#utility.yul\":1115:1179   */\n  tag_55\n    /* \"#utility.yul\":1171:1178   */\n  dup5\n    /* \"#utility.yul\":1162:1168   */\n  dup3\n    /* \"#utility.yul\":1151:1160   */\n  dup6\n    /* \"#utility.yul\":1147:1169   */\n  add\n    /* \"#utility.yul\":1115:1179   */\n  tag_19\n  jump\t// in\ntag_55:\n    /* \"#utility.yul\":1105:1179   */\n  swap2\n  pop\n    /* \"#utility.yul\":1061:1189   */\n  pop\n    /* \"#utility.yul\":845:1196   */\n  swap3\n  swap2\n  pop\n  pop\n  jump\t// out\n    /* \"#utility.yul\":1202:1301   */\ntag_20:\n    /* \"#utility.yul\":1254:1260   */\n  0x00\n    /* \"#utility.yul\":1288:1293   */\n  dup2\n    /* \"#utility.yul\":1282:1294   */\n  mload\n    /* \"#utility.yul\":1272:1294   */\n  swap1\n  pop\n    /* \"#utility.yul\":1202:1301   */\n  swap2\n  swap1\n  pop\n  jump\t// out\n    /* \"#utility.yul\":1307:1487   */\ntag_21:\n    /* \"#utility.yul\":1355:1432   */\n  0x4e487b7100000000000000000000000000000000000000000000000000000000\n    /* \"#utility.yul\":1352:1353   */\n  0x00\n    /* \"#utility.yul\":1345:1433   */\n  mstore\n    /* \"#utility.yul\":1452:1456   */\n  0x41\n    /* \"#utility.yul\":1449:1450   */\n  0x04\n    /* \"#utility.yul\":1442:1457   */\n  mstore\n    /* \"#utility.yul\":1476:1480   */\n  0x24\n    /* \"#utility.yul\":1473:1474   */\n  0x00\n    /* \"#utility.yul\":1466:1481   */\n  revert\n    /* \"#utility.yul\":1493:1673   */\ntag_22:\n    /* \"#utility.yul\":1541:1618   */\n  0x4e487b7100000000000000000000000000000000000000000000000000000000\n    /* \"#utility.yul\":1538:1539   */\n  0x00\n    /* \"#utility.yul\":1531:1619   */\n  mstore\n    /* \"#utility.yul\":1638:1642   */\n  0x22\n    /* \"#utility.yul\":1635:1636   */\n  0x04\n    /* \"#utility.yul\":1628:1643   */\n  mstore\n    /* \"#utility.yul\":1662:1666   */\n  0x24\n    /* \"#utility.yul\":1659:1660   */\n  0x00\n    /* \"#utility.yul\":1652:1667   */\n  revert\n    /* \"#utility.yul\":1679:1999   */\ntag_23:\n    /* \"#utility.yul\":1723:1729   */\n  0x00\n    /* \"#utility.yul\":1760:1761   */\n  0x02\n    /* \"#utility.yul\":1754:1758   */\n  dup3\n    /* \"#utility.yul\":1750:1762   */\n  div\n    /* \"#utility.yul\":1740:1762   */\n  swap1\n  pop\n    /* \"#utility.yul\":1807:1808   */\n  0x01\n    /* \"#utility.yul\":1801:1805   */\n  dup3\n    /* \"#utility.yul\":1797:1809   */\n  and\n    /* \"#utility.yul\":1828:1846   */\n  dup1\n    /* \"#utility.yul\":1818:1899   */\n  tag_60\n  jumpi\n    /* \"#utility.yul\":1884:1888   */\n  0x7f\n    /* \"#utility.yul\":1876:1882   */\n  dup3\n    /* \"#utility.yul\":1872:1889   */\n  and\n    /* \"#utility.yul\":1862:1889   */\n  swap2\n  pop\n    /* \"#utility.yul\":1818:1899   */\ntag_60:\n    /* \"#utility.yul\":1946:1948   */\n  0x20\n    /* \"#utility.yul\":1938:1944   */\n  dup3\n    /* \"#utility.yul\":1935:1949   */\n  lt\n    /* \"#utility.yul\":1915:1933   */\n  dup2\n    /* \"#utility.yul\":1912:1950   */\n  sub\n    /* \"#utility.yul\":1909:1993   */\n  tag_61\n  jumpi\n    /* \"#utility.yul\":1965:1983   */\n  tag_62\n  tag_22\n  jump\t// in\ntag_62:\n    /* \"#utility.yul\":1909:1993   */\ntag_61:\n    /* \"#utility.yul\":1730:1999   */\n  pop\n    /* \"#utility.yul\":1679:1999   */\n  swap2\n  swap1\n  pop\n  jump\t// out\n    /* \"#utility.yul\":2005:2146   */\ntag_24:\n    /* \"#utility.yul\":2054:2058   */\n  0x00\n    /* \"#utility.yul\":2077:2080   */\n  dup2\n    /* \"#utility.yul\":2069:2080   */\n  swap1\n  pop\n    /* \"#utility.yul\":2100:2103   */\n  dup2\n    /* \"#utility.yul\":2097:2098   */\n  0x00\n    /* \"#utility.yul\":2090:2104   */\n  mstore\n    /* \"#utility.yul\":2134:2138   */\n  0x20\n    /* \"#utility.yul\":2131:2132   */\n  0x00\n    /* \"#utility.yul\":2121:2139   */\n  keccak256\n    /* \"#utility.yul\":2113:2139   */\n  swap1\n  pop\n    /* \"#utility.yul\":2005:2146   */\n  swap2\n  swap1\n  pop\n  jump\t// out\n    /* \"#utility.yul\":2152:2245   */\ntag_25:\n    /* \"#utility.yul\":2189:2195   */\n  0x00\n    /* \"#utility.yul\":2236:2238   */\n  0x20\n    /* \"#utility.yul\":2231:2233   */\n  0x1f\n    /* \"#utility.yul\":2224:2229   */\n  dup4\n    /* \"#utility.yul\":2220:2234   */\n  add\n    /* \"#utility.yul\":2216:2239   */\n  div\n    /* \"#utility.yul\":2206:2239   */\n  swap1\n  pop\n    /* \"#utility.yul\":2152:2245   */\n  swap2\n  swap1\n  pop\n  jump\t// out\n    /* \"#utility.yul\":2251:2358   */\ntag_26:\n    /* \"#utility.yul\":2295:2303   */\n  0x00\n    /* \"#utility.yul\":2345:2350   */\n  dup3\n    /* \"#utility.yul\":2339:2343   */\n  dup3\n    /* \"#utility.yul\":2335:2351   */\n  shl\n    /* \"#utility.yul\":2314:2351   */\n  swap1\n  pop\n    /* \"#utility.yul\":2251:2358   */\n  swap3\n  swap2\n  pop\n  pop\n  jump\t// out\n    /* \"#utility.yul\":2364:2757   */\ntag_27:\n    /* \"#utility.yul\":2433:2439   */\n  0x00\n    /* \"#utility.yul\":2483:2484   */\n  0x08\n    /* \"#utility.yul\":2471:2481   */\n  dup4\n    /* \"#utility.yul\":2467:2485   */\n  mul\n    /* \"#utility.yul\":2506:2603   */\n  tag_67\n    /* \"#utility.yul\":2536:2602   */\n  0xffffffffffffffffffffffffffffffffffffffffffffffffffffffffffffffff\n    /* \"#utility.yul\":2525:2534   */\n  dup3\n    /* \"#utility.yul\":2506:2603   */\n  tag_26\n  jump\t// in\ntag_67:\n    /* \"#utility.yul\":2624:2663   */\n  tag_68\n    /* \"#utility.yul\":2654:2662   */\n  dup7\n    /* \"#utility.yul\":2643:2652   */\n  dup4\n    /* \"#utility.yul\":2624:2663   */\n  tag_26\n  jump\t// in\ntag_68:\n    /* \"#utility.yul\":2612:2663   */\n  swap6\n  pop\n    /* \"#utility.yul\":2696:2700   */\n  dup1\n    /* \"#utility.yul\":2692:2701   */\n  not\n    /* \"#utility.yul\":2685:2690   */\n  dup5\n    /* \"#utility.yul\":2681:2702   */\n  and\n    /* \"#utility.yul\":2672:2702   */\n  swap4\n  pop\n    /* \"#utility.yul\":2745:2749   */\n  dup1\n    /* \"#utility.yul\":2735:2743   */\n  dup7\n    /* \"#utility.yul\":2731:2750   */\n  and\n    /* \"#utility.yul\":2724:2729   */\n  dup5\n    /* \"#utility.yul\":2721:2751   */\n  or\n    /* \"#utility.yul\":2711:2751   */\n  swap3\n  pop\n    /* \"#utility.yul\":2440:2757   */\n  pop\n  pop\n    /* \"#utility.yul\":2364:2757   */\n  swap4\n  swap3\n  pop\n  pop\n  pop\n  jump\t// out\n    /* \"#utility.yul\":2763:2840   */\ntag_28:\n    /* \"#utility.yul\":2800:2807   */\n  0x00\n    /* \"#utility.yul\":2829:2834   */\n  dup2\n    /* \"#utility.yul\":2818:2834   */\n  swap1\n  pop\n    /* \"#utility.yul\":2763:2840   */\n  swap2\n  swap1\n  pop\n  jump\t// out\n    /* \"#utility.yul\":2846:2906   */\ntag_29:\n    /* \"#utility.yul\":2874:2877   */\n  0x00\n    /* \"#utility.yul\":2895:2900   */\n  dup2\n    /* \"#utility.yul\":2888:2900   */\n  swap1\n  pop\n    /* \"#utility.yul\":2846:2906   */\n  swap2\n  swap1\n  pop\n  jump\t// out\n    /* \"#utility.yul\":2912:3054   */\ntag_30:\n    /* \"#utility.yul\":2962:2971   */\n  0x00\n    /* \"#utility.yul\":2995:3048   */\n  tag_72\n    /* \"#utility.yul\":3013:3047   */\n  tag_73\n    /* \"#utility.yul\":3022:3046   */\n  tag_74\n    /* \"#utility.yul\":3040:3045   */\n  dup5\n    /* \"#utility.yul\":3022:3046   */\n  tag_28\n  jump\t// in\ntag_74:\n    /* \"#utility.yul\":3013:3047   */\n  tag_29\n  jump\t// in\ntag_73:\n    /* \"#utility.yul\":2995:3048   */\n  tag_28\n  jump\t// in\ntag_72:\n    /* \"#utility.yul\":2982:3048   */\n  swap1\n  pop\n    /* \"#utility.yul\":2912:3054   */\n  swap2\n  swap1\n  pop\n  jump\t// out\n    /* \"#utility.yul\":3060:3135   */\ntag_31:\n    /* \"#utility.yul\":3103:3106   */\n  0x00\n    /* \"#utility.yul\":3124:3129   */\n  dup2\n    /* \"#utility.yul\":3117:3129   */\n  swap1\n  pop\n    /* \"#utility.yul\":3060:3135   */\n  swap2\n  swap1\n  pop\n  jump\t// out\n    /* \"#utility.yul\":3141:3410   */\ntag_32:\n    /* \"#utility.yul\":3251:3290   */\n  tag_77\n    /* \"#utility.yul\":3282:3289   */\n  dup4\n    /* \"#utility.yul\":3251:3290   */\n  tag_30\n  jump\t// in\ntag_77:\n    /* \"#utility.yul\":3312:3403   */\n  tag_78\n    /* \"#utility.yul\":3361:3402   */\n  tag_79\n    /* \"#utility.yul\":3385:3401   */\n  dup3\n    /* \"#utility.yul\":3361:3402   */\n  tag_31\n  jump\t// in\ntag_79:\n    /* \"#utility.yul\":3353:3359   */\n  dup5\n    /* \"#utility.yul\":3346:3350   */\n  dup5\n    /* \"#utility.yul\":3340:3351   */\n  sload\n    /* \"#utility.yul\":3312:3403   */\n  tag_27\n  jump\t// in\ntag_78:\n    /* \"#utility.yul\":3306:3310   */\n  dup3\n    /* \"#utility.yul\":3299:3404   */\n  sstore\n    /* \"#utility.yul\":3217:3410   */\n  pop\n    /* \"#utility.yul\":3141:3410   */\n  pop\n  pop\n  pop\n  jump\t// out\n    /* \"#utility.yul\":3416:3489   */\ntag_33:\n    /* \"#utility.yul\":3461:3464   */\n  0x00\n    /* \"#utility.yul\":3416:3489   */\n  swap1\n  jump\t// out\n    /* \"#utility.yul\":3495:3684   */\ntag_34:\n    /* \"#utility.yul\":3572:3604   */\n  tag_82\n  tag_33\n  jump\t// in\ntag_82:\n    /* \"#utility.yul\":3613:3678   */\n  tag_83\n    /* \"#utility.yul\":3671:3677   */\n  dup2\n    /* \"#utility.yul\":3663:3669   */\n  dup5\n    /* \"#utility.yul\":3657:3661   */\n  dup5\n    /* \"#utility.yul\":3613:3678   */\n  tag_32\n  jump\t// in\ntag_83:\n    /* \"#utility.yul\":3548:3684   */\n  pop\n    /* \"#utility.yul\":3495:3684   */\n  pop\n  pop\n  jump\t// out\n    /* \"#utility.yul\":3690:3876   */\ntag_35:\n    /* \"#utility.yul\":3750:3870   */\ntag_85:\n    /* \"#utility.yul\":3767:3770   */\n  dup2\n    /* \"#utility.yul\":3760:3765   */\n  dup2\n    /* \"#utility.yul\":3757:3771   */\n  lt\n    /* \"#utility.yul\":3750:3870   */\n  iszero\n  tag_87\n  jumpi\n    /* \"#utility.yul\":3821:3860   */\n  tag_88\n    /* \"#utility.yul\":3858:3859   */\n  0x00\n    /* \"#utility.yul\":3851:3856   */\n  dup3\n    /* \"#utility.yul\":3821:3860   */\n  tag_34\n  jump\t// in\ntag_88:\n    /* \"#utility.yul\":3794:3795   */\n  0x01\n    /* \"#utility.yul\":3787:3792   */\n  dup2\n    /* \"#utility.yul\":3783:3796   */\n  add\n    /* \"#utility.yul\":3774:3796   */\n  swap1\n  pop\n    /* \"#utility.yul\":3750:3870   */\n  jump(tag_85)\ntag_87:\n    /* \"#utility.yul\":3690:3876   */\n  pop\n  pop\n  jump\t// out\n    /* \"#utility.yul\":3882:4425   */\ntag_36:\n    /* \"#utility.yul\":3983:3985   */\n  0x1f\n    /* \"#utility.yul\":3978:3981   */\n  dup3\n    /* \"#utility.yul\":3975:3986   */\n  gt\n    /* \"#utility.yul\":3972:4418   */\n  iszero\n  tag_90\n  jumpi\n    /* \"#utility.yul\":4017:4055   */\n  tag_91\n    /* \"#utility.yul\":4049:4054   */\n  dup2\n    /* \"#utility.yul\":4017:4055   */\n  tag_24\n  jump\t// in\ntag_91:\n    /* \"#utility.yul\":4101:4130   */\n  tag_92\n    /* \"#utility.yul\":4119:4129   */\n  dup5\n    /* \"#utility.yul\":4101:4130   */\n  tag_25\n  jump\t// in\ntag_92:\n    /* \"#utility.yul\":4091:4099   */\n  dup2\n    /* \"#utility.yul\":4087:4131   */\n  add\n    /* \"#utility.yul\":4284:4286   */\n  0x20\n    /* \"#utility.yul\":4272:4282   */\n  dup6\n    /* \"#utility.yul\":4269:4287   */\n  lt\n    /* \"#utility.yul\":4266:4315   */\n  iszero\n  tag_93\n  jumpi\n    /* \"#utility.yul\":4305:4313   */\n  dup2\n    /* \"#utility.yul\":4290:4313   */\n  swap1\n  pop\n    /* \"#utility.yul\":4266:4315   */\ntag_93:\n    /* \"#utility.yul\":4328:4408   */\n  tag_94\n    /* \"#utility.yul\":4384:4406   */\n  tag_95\n    /* \"#utility.yul\":4402:4405   */\n  dup6\n    /* \"#utility.yul\":4384:4406   */\n  tag_25\n  jump\t// in\ntag_95:\n    /* \"#utility.yul\":4374:4382   */\n  dup4\n    /* \"#utility.yul\":4370:4407   */\n  add\n    /* \"#utility.yul\":4357:4368   */\n  dup3\n    /* \"#utility.yul\":4328:4408   */\n  tag_35\n  jump\t// in\ntag_94:\n    /* \"#utility.yul\":3987:4418   */\n  pop\n  pop\n    /* \"#utility.yul\":3972:4418   */\ntag_90:\n    /* \"#utility.yul\":3882:4425   */\n  pop\n  pop\n  pop\n  jump\t// out\n    /* \"#utility.yul\":4431:4548   */\ntag_37:\n    /* \"#utility.yul\":4485:4493   */\n  0x00\n    /* \"#utility.yul\":4535:4540   */\n  dup3\n    /* \"#utility.yul\":4529:4533   */\n  dup3\n    /* \"#utility.yul\":4525:4541   */\n  shr\n    /* \"#utility.yul\":4504:4541   */\n  swap1\n  pop\n    /* \"#utility.yul\":4431:4548   */\n  swap3\n  swap2\n  pop\n  pop\n  jump\t// out\n    /* \"#utility.yul\":4554:4723   */\ntag_38:\n    /* \"#utility.yul\":4598:4604   */\n  0x00\n    /* \"#utility.yul\":4631:4682   */\n  tag_98\n    /* \"#utility.yul\":4679:4680   */\n  0x00\n    /* \"#utility.yul\":4675:4681   */\n  not\n    /* \"#utility.yul\":4667:4672   */\n  dup5\n    /* \"#utility.yul\":4664:4665   */\n  0x08\n    /* \"#utility.yul\":4660:4673   */\n  mul\n    /* \"#utility.yul\":4631:4682   */\n  tag_37\n  jump\t// in\ntag_98:\n    /* \"#utility.yul\":4627:4683   */\n  not\n    /* \"#utility.yul\":4712:4716   */\n  dup1\n    /* \"#utility.yul\":4706:4710   */\n  dup4\n    /* \"#utility.yul\":4702:4717   */\n  and\n    /* \"#utility.yul\":4692:4717   */\n  swap2\n  pop\n    /* \"#utility.yul\":4605:4723   */\n  pop\n    /* \"#utility.yul\":4554:4723   */\n  swap3\n  swap2\n  pop\n  pop\n  jump\t// out\n    /* \"#utility.yul\":4728:5023   */\ntag_39:\n    /* \"#utility.yul\":4804:4808   */\n  0x00\n    /* \"#utility.yul\":4950:4979   */\n  tag_100\n    /* \"#utility.yul\":4975:4978   */\n  dup4\n    /* \"#utility.yul\":4969:4973   */\n  dup4\n    /* \"#utility.yul\":4950:4979   */\n  tag_38\n  jump\t// in\ntag_100:\n    /* \"#utility.yul\":4942:4979   */\n  swap2\n  pop\n    /* \"#utility.yul\":5012:5015   */\n  dup3\n    /* \"#utility.yul\":5009:5010   */\n  0x02\n    /* \"#utility.yul\":5005:5016   */\n  mul\n    /* \"#utility.yul\":4999:5003   */\n  dup3\n    /* \"#utility.yul\":4996:5017   */\n  or\n    /* \"#utility.yul\":4988:5017   */\n  swap1\n  pop\n    /* \"#utility.yul\":4728:5023   */\n  swap3\n  swap2\n  pop\n  pop\n  jump\t// out\n    /* \"#utility.yul\":5028:6423   */\ntag_8:\n    /* \"#utility.yul\":5145:5182   */\n  tag_102\n    /* \"#utility.yul\":5178:5181   */\n  dup3\n    /* \"#utility.yul\":5145:5182   */\n  tag_20\n  jump\t// in\ntag_102:\n    /* \"#utility.yul\":5247:5265   */\n  0xffffffffffffffff\n    /* \"#utility.yul\":5239:5245   */\n  dup2\n    /* \"#utility.yul\":5236:5266   */\n  gt\n    /* \"#utility.yul\":5233:5289   */\n  iszero\n  tag_103\n  jumpi\n    /* \"#utility.yul\":5269:5287   */\n  tag_104\n  tag_21\n  jump\t// in\ntag_104:\n    /* \"#utility.yul\":5233:5289   */\ntag_103:\n    /* \"#utility.yul\":5313:5351   */\n  tag_105\n    /* \"#utility.yul\":5345:5349   */\n  dup3\n    /* \"#utility.yul\":5339:5350   */\n  sload\n    /* \"#utility.yul\":5313:5351   */\n  tag_23\n  jump\t// in\ntag_105:\n    /* \"#utility.yul\":5398:5465   */\n  tag_106\n    /* \"#utility.yul\":5458:5464   */\n  dup3\n    /* \"#utility.yul\":5450:5456   */\n  dup3\n    /* \"#utility.yul\":5444:5448   */\n  dup6\n    /* \"#utility.yul\":5398:5465   */\n  tag_36\n  jump\t// in\ntag_106:\n    /* \"#utility.yul\":5492:5493   */\n  0x00\n    /* \"#utility.yul\":5516:5520   */\n  0x20\n    /* \"#utility.yul\":5503:5520   */\n  swap1\n  pop\n    /* \"#utility.yul\":5548:5550   */\n  0x1f\n    /* \"#utility.yul\":5540:5546   */\n  dup4\n    /* \"#utility.yul\":5537:5551   */\n  gt\n    /* \"#utility.yul\":5565:5566   */\n  0x01\n    /* \"#utility.yul\":5560:6178   */\n  dup2\n  eq\n  tag_108\n  jumpi\n    /* \"#utility.yul\":6222:6223   */\n  0x00\n    /* \"#utility.yul\":6239:6245   */\n  dup5\n    /* \"#utility.yul\":6236:6313   */\n  iszero\n  tag_109\n  jumpi\n    /* \"#utility.yul\":6288:6297   */\n  dup3\n    /* \"#utility.yul\":6283:6286   */\n  dup8\n    /* \"#utility.yul\":6279:6298   */\n  add\n    /* \"#utility.yul\":6273:6299   */\n  mload\n    /* \"#utility.yul\":6264:6299   */\n  swap1\n  pop\n    /* \"#utility.yul\":6236:6313   */\ntag_109:\n    /* \"#utility.yul\":6339:6406   */\n  tag_110\n    /* \"#utility.yul\":6399:6405   */\n  dup6\n    /* \"#utility.yul\":6392:6397   */\n  dup3\n    /* \"#utility.yul\":6339:6406   */\n  tag_39\n  jump\t// in\ntag_110:\n    /* \"#utility.yul\":6333:6337   */\n  dup7\n    /* \"#utility.yul\":6326:6407   */\n  sstore\n    /* \"#utility.yul\":6195:6417   */\n  pop\n    /* \"#utility.yul\":5530:6417   */\n  jump(tag_107)\n    /* \"#utility.yul\":5560:6178   */\ntag_108:\n    /* \"#utility.yul\":5612:5616   */\n  0x1f\n    /* \"#utility.yul\":5608:5617   */\n  not\n    /* \"#utility.yul\":5600:5606   */\n  dup5\n    /* \"#utility.yul\":5596:5618   */\n  and\n    /* \"#utility.yul\":5646:5683   */\n  tag_111\n    /* \"#utility.yul\":5678:5682   */\n  dup7\n    /* \"#utility.yul\":5646:5683   */\n  tag_24\n  jump\t// in\ntag_111:\n    /* \"#utility.yul\":5705:5706   */\n  0x00\n    /* \"#utility.yul\":5719:5927   */\ntag_112:\n    /* \"#utility.yul\":5733:5740   */\n  dup3\n    /* \"#utility.yul\":5730:5731   */\n  dup2\n    /* \"#utility.yul\":5727:5741   */\n  lt\n    /* \"#utility.yul\":5719:5927   */\n  iszero\n  tag_114\n  jumpi\n    /* \"#utility.yul\":5812:5821   */\n  dup5\n    /* \"#utility.yul\":5807:5810   */\n  dup10\n    /* \"#utility.yul\":5803:5822   */\n  add\n    /* \"#utility.yul\":5797:5823   */\n  mload\n    /* \"#utility.yul\":5789:5795   */\n  dup3\n    /* \"#utility.yul\":5782:5824   */\n  sstore\n    /* \"#utility.yul\":5863:5864   */\n  0x01\n    /* \"#utility.yul\":5855:5861   */\n  dup3\n    /* \"#utility.yul\":5851:5865   */\n  add\n    /* \"#utility.yul\":5841:5865   */\n  swap2\n  pop\n    /* \"#utility.yul\":5910:5912   */\n  0x20\n    /* \"#utility.yul\":5899:5908   */\n  dup6\n    /* \"#utility.yul\":5895:5913   */\n  add\n    /* \"#utility.yul\":5882:5913   */\n  swap5\n  pop\n    /* \"#utility.yul\":5756:5760   */\n  0x20\n    /* \"#utility.yul\":5753:5754   */\n  dup2\n    /* \"#utility.yul\":5749:5761   */\n  add\n    /* \"#utility.yul\":5744:5761   */\n  swap1\n  pop\n    /* \"#utility.yul\":5719:5927   */\n  jump(tag_112)\ntag_114:\n    /* \"#utility.yul\":5955:5961   */\n  dup7\n    /* \"#utility.yul\":5946:5953   */\n  dup4\n    /* \"#utility.yul\":5943:5962   */\n  lt\n    /* \"#utility.yul\":5940:6119   */\n  iszero\n  tag_115\n  jumpi\n    /* \"#utility.yul\":6013:6022   */\n  dup5\n    /* \"#utility.yul\":6008:6011   */\n  dup10\n    /* \"#utility.yul\":6004:6023   */\n  add\n    /* \"#utility.yul\":5998:6024   */\n  mload\n    /* \"#utility.yul\":6056:6104   */\n  tag_116\n    /* \"#utility.yul\":6098:6102   */\n  0x1f\n    /* \"#utility.yul\":6090:6096   */\n  dup10\n    /* \"#utility.yul\":6086:6103   */\n  and\n    /* \"#utility.yul\":6075:6084   */\n  dup3\n    /* \"#utility.yul\":6056:6104   */\n  tag_38\n  jump\t// in\ntag_116:\n    /* \"#utility.yul\":6048:6054   */\n  dup4\n    /* \"#utility.yul\":6041:6105   */\n  sstore\n    /* \"#utility.yul\":5963:6119   */\n  pop\n    /* \"#utility.yul\":5940:6119   */\ntag_115:\n    /* \"#utility.yul\":6165:6166   */\n  0x01\n    /* \"#utility.yul\":6161:6162   */\n  0x02\n    /* \"#utility.yul\":6153:6159   */\n  dup9\n    /* \"#utility.yul\":6149:6163   */\n  mul\n    /* \"#utility.yul\":6145:6167   */\n  add\n    /* \"#utility.yul\":6139:6143   */\n  dup9\n    /* \"#utility.yul\":6132:6168   */\n  sstore\n    /* \"#utility.yul\":5567:6178   */\n  pop\n  pop\n  pop\n    /* \"#utility.yul\":5530:6417   */\ntag_107:\n  pop\n    /* \"#utility.yul\":5120:6423   */\n  pop\n  pop\n  pop\n    /* \"#utility.yul\":5028:6423   */\n  pop\n  pop\n  jump\t// out\n    /* \"contracts/Exchange.sol\":119:14313  contract Exchange is ERC20 {... */\ntag_12:\n  dataSize(sub_0)\n  dup1\n  dataOffset(sub_0)\n  0x00\n  codecopy\n  0x00\n  return\nstop\n\nsub_0: assembly {\n        /* \"contracts/Exchange.sol\":119:14313  contract Exchange is ERC20 {... */\n      mstore(0x40, 0x80)\n      jumpi(tag_1, lt(calldatasize, 0x04))\n      shr(0xe0, calldataload(0x00))\n      dup1\n      0x51c6590a\n      gt\n      tag_20\n      jumpi\n      dup1\n      0x95d89b41\n      gt\n      tag_21\n      jumpi\n      dup1\n      0x95d89b41\n      eq\n      tag_15\n      jumpi\n      dup1\n      0x9c8f9f23\n      eq\n      tag_16\n      jumpi\n      dup1\n      0xa457c2d7\n      eq\n      tag_17\n      jumpi\n      dup1\n      0xa9059cbb\n      eq\n      tag_18\n      jumpi\n      dup1\n      0xdd62ed3e\n      eq\n      tag_19\n      jumpi\n      jump(tag_1)\n    tag_21:\n      dup1\n      0x51c6590a\n      eq\n      tag_11\n      jumpi\n      dup1\n      0x59bf5d39\n      eq\n      tag_12\n      jumpi\n      dup1\n      0x70a08231\n      eq\n      tag_13\n      jumpi\n      dup1\n      0x7386479e\n      eq\n      tag_14\n      jumpi\n      jump(tag_1)\n    tag_20:\n      dup1\n      0x1ffa582d\n      gt\n      tag_22\n      jumpi\n      dup1\n      0x1ffa582d\n      eq\n      tag_6\n      jumpi\n      dup1\n      0x23b872dd\n      eq\n      tag_7\n      jumpi\n      dup1\n      0x313ce567\n      eq\n      tag_8\n      jumpi\n      dup1\n      0x39509351\n      eq\n      tag_9\n      jumpi\n      dup1\n      0x3ee12bd1\n      eq\n      tag_10\n      jumpi\n      jump(tag_1)\n    tag_22:\n      dup1\n      0x0465b2f5\n      eq\n      tag_2\n      jumpi\n      dup1\n      0x06fdde03\n      eq\n      tag_3\n      jumpi\n      dup1\n      0x095ea7b3\n      eq\n      tag_4\n      jumpi\n      dup1\n      0x18160ddd\n      eq\n      tag_5\n      jumpi\n    tag_1:\n      0x00\n      dup1\n      revert\n        /* \"contracts/Exchange.sol\":12816:14306  function TGOLDTokensToEth(uint256 _tokensSold, uint256 _minEth) public {... */\n    tag_2:\n      callvalue\n      dup1\n      iszero\n      tag_23\n      jumpi\n      0x00\n      dup1\n      revert\n    tag_23:\n      pop\n      tag_24\n      0x04\n      dup1\n      calldatasize\n      sub\n      dup2\n      add\n      swap1\n      tag_25\n      swap2\n      swap1\n      tag_26\n      jump\t// in\n    tag_25:\n      tag_27\n      jump\t// in\n    tag_24:\n      stop\n        /* \"@openzeppelin/contracts/token/ERC20/ERC20.sol\":2158:2256  function name() public view virtual override returns (string memory) {... */\n    tag_3:\n      callvalue\n      dup1\n      iszero\n      tag_28\n      jumpi\n      0x00\n      dup1\n      revert\n    tag_28:\n      pop\n      tag_29\n      tag_30\n      jump\t// in\n    tag_29:\n      mload(0x40)\n      tag_31\n      swap2\n      swap1\n      tag_32\n      jump\t// in\n    tag_31:\n      mload(0x40)\n      dup1\n      swap2\n      sub\n      swap1\n      return\n        /* \"@openzeppelin/contracts/token/ERC20/ERC20.sol\":4444:4641  function approve(address spender, uint256 amount) public virtual override returns (bool) {... */\n    tag_4:\n      callvalue\n      dup1\n      iszero\n      tag_33\n      jumpi\n      0x00\n      dup1\n      revert\n    tag_33:\n      pop\n      tag_34\n      0x04\n      dup1\n      calldatasize\n      sub\n      dup2\n      add\n      swap1\n      tag_35\n      swap2\n      swap1\n      tag_36\n      jump\t// in\n    tag_35:\n      tag_37\n      jump\t// in\n    tag_34:\n      mload(0x40)\n      tag_38\n      swap2\n      swap1\n      tag_39\n      jump\t// in\n    tag_38:\n      mload(0x40)\n      dup1\n      swap2\n      sub\n      swap1\n      return\n        /* \"@openzeppelin/contracts/token/ERC20/ERC20.sol\":3255:3361  function totalSupply() public view virtual override returns (uint256) {... */\n    tag_5:\n      callvalue\n      dup1\n      iszero\n      tag_40\n      jumpi\n      0x00\n      dup1\n      revert\n    tag_40:\n      pop\n      tag_41\n      tag_42\n      jump\t// in\n    tag_41:\n      mload(0x40)\n      tag_43\n      swap2\n      swap1\n      tag_44\n      jump\t// in\n    tag_43:\n      mload(0x40)\n      dup1\n      swap2\n      sub\n      swap1\n      return\n        /* \"contracts/Exchange.sol\":11352:12573  function ethToTGOLDTokens(uint256 _minTokens) public payable {... */\n    tag_6:\n      tag_45\n      0x04\n      dup1\n      calldatasize\n      sub\n      dup2\n      add\n      swap1\n      tag_46\n      swap2\n      swap1\n      tag_47\n      jump\t// in\n    tag_46:\n      tag_48\n      jump\t// in\n    tag_45:\n      stop\n        /* \"@openzeppelin/contracts/token/ERC20/ERC20.sol\":5203:5459  function transferFrom(address from, address to, uint256 amount) public virtual override returns (bool) {... */\n    tag_7:\n      callvalue\n      dup1\n      iszero\n      tag_49\n      jumpi\n      0x00\n      dup1\n      revert\n    tag_49:\n      pop\n      tag_50\n      0x04\n      dup1\n      calldatasize\n      sub\n      dup2\n      add\n      swap1\n      tag_51\n      swap2\n      swap1\n      tag_52\n      jump\t// in\n    tag_51:\n      tag_53\n      jump\t// in\n    tag_50:\n      mload(0x40)\n      tag_54\n      swap2\n      swap1\n      tag_39\n      jump\t// in\n    tag_54:\n      mload(0x40)\n      dup1\n      swap2\n      sub\n      swap1\n      return\n        /* \"@openzeppelin/contracts/token/ERC20/ERC20.sol\":3104:3195  function decimals() public view virtual override returns (uint8) {... */\n    tag_8:\n      callvalue\n      dup1\n      iszero\n      tag_55\n      jumpi\n      0x00\n      dup1\n      revert\n    tag_55:\n      pop\n      tag_56\n      tag_57\n      jump\t// in\n    tag_56:\n      mload(0x40)\n      tag_58\n      swap2\n      swap1\n      tag_59\n      jump\t// in\n    tag_58:\n      mload(0x40)\n      dup1\n      swap2\n      sub\n      swap1\n      return\n        /* \"@openzeppelin/contracts/token/ERC20/ERC20.sol\":5854:6088  function increaseAllowance(address spender, uint256 addedValue) public virtual returns (bool) {... */\n    tag_9:\n      callvalue\n      dup1\n      iszero\n      tag_60\n      jumpi\n      0x00\n      dup1\n      revert\n    tag_60:\n      pop\n      tag_61\n      0x04\n      dup1\n      calldatasize\n      sub\n      dup2\n      add\n      swap1\n      tag_62\n      swap2\n      swap1\n      tag_36\n      jump\t// in\n    tag_62:\n      tag_63\n      jump\t// in\n    tag_61:\n      mload(0x40)\n      tag_64\n      swap2\n      swap1\n      tag_39\n      jump\t// in\n    tag_64:\n      mload(0x40)\n      dup1\n      swap2\n      sub\n      swap1\n      return\n        /* \"contracts/Exchange.sol\":528:560  address public TGOLDTokenAddress */\n    tag_10:\n      callvalue\n      dup1\n      iszero\n      tag_65\n      jumpi\n      0x00\n      dup1\n      revert\n    tag_65:\n      pop\n      tag_66\n      tag_67\n      jump\t// in\n    tag_66:\n      mload(0x40)\n      tag_68\n      swap2\n      swap1\n      tag_69\n      jump\t// in\n    tag_68:\n      mload(0x40)\n      dup1\n      swap2\n      sub\n      swap1\n      return\n        /* \"contracts/Exchange.sol\":1310:6806  function addLiquidity(uint256 _amount) public payable returns (uint256) {... */\n    tag_11:\n      tag_70\n      0x04\n      dup1\n      calldatasize\n      sub\n      dup2\n      add\n      swap1\n      tag_71\n      swap2\n      swap1\n      tag_47\n      jump\t// in\n    tag_71:\n      tag_72\n      jump\t// in\n    tag_70:\n      mload(0x40)\n      tag_73\n      swap2\n      swap1\n      tag_44\n      jump\t// in\n    tag_73:\n      mload(0x40)\n      dup1\n      swap2\n      sub\n      swap1\n      return\n        /* \"contracts/Exchange.sol\":993:1170  function getReserve() public view returns (uint256) {... */\n    tag_12:\n      callvalue\n      dup1\n      iszero\n      tag_74\n      jumpi\n      0x00\n      dup1\n      revert\n    tag_74:\n      pop\n      tag_75\n      tag_76\n      jump\t// in\n    tag_75:\n      mload(0x40)\n      tag_77\n      swap2\n      swap1\n      tag_44\n      jump\t// in\n    tag_77:\n      mload(0x40)\n      dup1\n      swap2\n      sub\n      swap1\n      return\n        /* \"@openzeppelin/contracts/token/ERC20/ERC20.sol\":3419:3544  function balanceOf(address account) public view virtual override returns (uint256) {... */\n    tag_13:\n      callvalue\n      dup1\n      iszero\n      tag_78\n      jumpi\n      0x00\n      dup1\n      revert\n    tag_78:\n      pop\n      tag_79\n      0x04\n      dup1\n      calldatasize\n      sub\n      dup2\n      add\n      swap1\n      tag_80\n      swap2\n      swap1\n      tag_81\n      jump\t// in\n    tag_80:\n      tag_82\n      jump\t// in\n    tag_79:\n      mload(0x40)\n      tag_83\n      swap2\n      swap1\n      tag_44\n      jump\t// in\n    tag_83:\n      mload(0x40)\n      dup1\n      swap2\n      sub\n      swap1\n      return\n        /* \"contracts/Exchange.sol\":9933:11078  function getAmountOfTokens(... */\n    tag_14:\n      callvalue\n      dup1\n      iszero\n      tag_84\n      jumpi\n      0x00\n      dup1\n      revert\n    tag_84:\n      pop\n      tag_85\n      0x04\n      dup1\n      calldatasize\n      sub\n      dup2\n      add\n      swap1\n      tag_86\n      swap2\n      swap1\n      tag_87\n      jump\t// in\n    tag_86:\n      tag_88\n      jump\t// in\n    tag_85:\n      mload(0x40)\n      tag_89\n      swap2\n      swap1\n      tag_44\n      jump\t// in\n    tag_89:\n      mload(0x40)\n      dup1\n      swap2\n      sub\n      swap1\n      return\n        /* \"@openzeppelin/contracts/token/ERC20/ERC20.sol\":2369:2471  function symbol() public view virtual override returns (string memory) {... */\n    tag_15:\n      callvalue\n      dup1\n      iszero\n      tag_90\n      jumpi\n      0x00\n      dup1\n      revert\n    tag_90:\n      pop\n      tag_91\n      tag_92\n      jump\t// in\n    tag_91:\n      mload(0x40)\n      tag_93\n      swap2\n      swap1\n      tag_32\n      jump\t// in\n    tag_93:\n      mload(0x40)\n      dup1\n      swap2\n      sub\n      swap1\n      return\n        /* \"contracts/Exchange.sol\":6963:9796  function removeLiquidity(uint _amount) public returns (uint , uint) {... */\n    tag_16:\n      callvalue\n      dup1\n      iszero\n      tag_94\n      jumpi\n      0x00\n      dup1\n      revert\n    tag_94:\n      pop\n      tag_95\n      0x04\n      dup1\n      calldatasize\n      sub\n      dup2\n      add\n      swap1\n      tag_96\n      swap2\n      swap1\n      tag_47\n      jump\t// in\n    tag_96:\n      tag_97\n      jump\t// in\n    tag_95:\n      mload(0x40)\n      tag_98\n      swap3\n      swap2\n      swap1\n      tag_99\n      jump\t// in\n    tag_98:\n      mload(0x40)\n      dup1\n      swap2\n      sub\n      swap1\n      return\n        /* \"@openzeppelin/contracts/token/ERC20/ERC20.sol\":6575:7002  function decreaseAllowance(address spender, uint256 subtractedValue) public virtual returns (bool) {... */\n    tag_17:\n      callvalue\n      dup1\n      iszero\n      tag_100\n      jumpi\n      0x00\n      dup1\n      revert\n    tag_100:\n      pop\n      tag_101\n      0x04\n      dup1\n      calldatasize\n      sub\n      dup2\n      add\n      swap1\n      tag_102\n      swap2\n      swap1\n      tag_36\n      jump\t// in\n    tag_102:\n      tag_103\n      jump\t// in\n    tag_101:\n      mload(0x40)\n      tag_104\n      swap2\n      swap1\n      tag_39\n      jump\t// in\n    tag_104:\n      mload(0x40)\n      dup1\n      swap2\n      sub\n      swap1\n      return\n        /* \"@openzeppelin/contracts/token/ERC20/ERC20.sol\":3740:3929  function transfer(address to, uint256 amount) public virtual override returns (bool) {... */\n    tag_18:\n      callvalue\n      dup1\n      iszero\n      tag_105\n      jumpi\n      0x00\n      dup1\n      revert\n    tag_105:\n      pop\n      tag_106\n      0x04\n      dup1\n      calldatasize\n      sub\n      dup2\n      add\n      swap1\n      tag_107\n      swap2\n      swap1\n      tag_36\n      jump\t// in\n    tag_107:\n      tag_108\n      jump\t// in\n    tag_106:\n      mload(0x40)\n      tag_109\n      swap2\n      swap1\n      tag_39\n      jump\t// in\n    tag_109:\n      mload(0x40)\n      dup1\n      swap2\n      sub\n      swap1\n      return\n        /* \"@openzeppelin/contracts/token/ERC20/ERC20.sol\":3987:4136  function allowance(address owner, address spender) public view virtual override returns (uint256) {... */\n    tag_19:\n      callvalue\n      dup1\n      iszero\n      tag_110\n      jumpi\n      0x00\n      dup1\n      revert\n    tag_110:\n      pop\n      tag_111\n      0x04\n      dup1\n      calldatasize\n      sub\n      dup2\n      add\n      swap1\n      tag_112\n      swap2\n      swap1\n      tag_113\n      jump\t// in\n    tag_112:\n      tag_114\n      jump\t// in\n    tag_111:\n      mload(0x40)\n      tag_115\n      swap2\n      swap1\n      tag_44\n      jump\t// in\n    tag_115:\n      mload(0x40)\n      dup1\n      swap2\n      sub\n      swap1\n      return\n        /* \"contracts/Exchange.sol\":12816:14306  function TGOLDTokensToEth(uint256 _tokensSold, uint256 _minEth) public {... */\n    tag_27:\n        /* \"contracts/Exchange.sol\":12938:12955  uint256 ethBought */\n      0x00\n        /* \"contracts/Exchange.sol\":12958:13316  getAmountOfTokens(          // 1% swap/trade fee taken care of in this f() above... */\n      tag_117\n        /* \"contracts/Exchange.sol\":13048:13059  _tokensSold */\n      dup4\n        /* \"contracts/Exchange.sol\":13070:13082  getReserve() */\n      tag_118\n        /* \"contracts/Exchange.sol\":13070:13080  getReserve */\n      tag_76\n        /* \"contracts/Exchange.sol\":13070:13082  getReserve() */\n      jump\t// in\n    tag_118:\n        /* \"contracts/Exchange.sol\":13197:13218  address(this).balance */\n      selfbalance\n        /* \"contracts/Exchange.sol\":12958:12975  getAmountOfTokens */\n      tag_88\n        /* \"contracts/Exchange.sol\":12958:13316  getAmountOfTokens(          // 1% swap/trade fee taken care of in this f() above... */\n      jump\t// in\n    tag_117:\n        /* \"contracts/Exchange.sol\":12938:13316  uint256 ethBought = getAmountOfTokens(          // 1% swap/trade fee taken care of in this f() above... */\n      swap1\n      pop\n        /* \"contracts/Exchange.sol\":13433:13440  _minEth */\n      dup2\n        /* \"contracts/Exchange.sol\":13421:13430  ethBought */\n      dup2\n        /* \"contracts/Exchange.sol\":13421:13440  ethBought < _minEth */\n      lt\n        /* \"contracts/Exchange.sol\":13418:13503  if(ethBought < _minEth) {... */\n      iszero\n      tag_119\n      jumpi\n        /* \"contracts/Exchange.sol\":13460:13495  OutputAmountLessThanMinimumAmount() */\n      mload(0x40)\n      0xf77fa5e700000000000000000000000000000000000000000000000000000000\n      dup2\n      mstore\n      0x04\n      add\n      mload(0x40)\n      dup1\n      swap2\n      sub\n      swap1\n      revert\n        /* \"contracts/Exchange.sol\":13418:13503  if(ethBought < _minEth) {... */\n    tag_119:\n        /* \"contracts/Exchange.sol\":13915:13932  TGOLDTokenAddress */\n      0x05\n      0x00\n      swap1\n      sload\n      swap1\n      0x0100\n      exp\n      swap1\n      div\n      0xffffffffffffffffffffffffffffffffffffffff\n      and\n        /* \"contracts/Exchange.sol\":13909:13941  ERC20(TGOLDTokenAddress).approve */\n      0xffffffffffffffffffffffffffffffffffffffff\n      and\n      0x095ea7b3\n        /* \"contracts/Exchange.sol\":13950:13954  this */\n      address\n        /* \"contracts/Exchange.sol\":13957:13968  _tokensSold */\n      dup6\n        /* \"contracts/Exchange.sol\":13909:13969  ERC20(TGOLDTokenAddress).approve(address(this), _tokensSold) */\n      mload(0x40)\n      dup4\n      0xffffffff\n      and\n      0xe0\n      shl\n      dup2\n      mstore\n      0x04\n      add\n      tag_120\n      swap3\n      swap2\n      swap1\n      tag_121\n      jump\t// in\n    tag_120:\n      0x20\n      mload(0x40)\n      dup1\n      dup4\n      sub\n      dup2\n      0x00\n      dup8\n      gas\n      call\n      iszero\n      dup1\n      iszero\n      tag_123\n      jumpi\n      returndatasize\n      0x00\n      dup1\n      returndatacopy\n      revert(0x00, returndatasize)\n    tag_123:\n      pop\n      pop\n      pop\n      pop\n      mload(0x40)\n      returndatasize\n      not(0x1f)\n      0x1f\n      dup3\n      add\n      and\n      dup3\n      add\n      dup1\n      0x40\n      mstore\n      pop\n      dup2\n      add\n      swap1\n      tag_124\n      swap2\n      swap1\n      tag_125\n      jump\t// in\n    tag_124:\n      pop\n        /* \"contracts/Exchange.sol\":13984:14001  TGOLDTokenAddress */\n      0x05\n      0x00\n      swap1\n      sload\n      swap1\n      0x0100\n      exp\n      swap1\n      div\n      0xffffffffffffffffffffffffffffffffffffffff\n      and\n        /* \"contracts/Exchange.sol\":13978:14015  ERC20(TGOLDTokenAddress).transferFrom */\n      0xffffffffffffffffffffffffffffffffffffffff\n      and\n      0x23b872dd\n        /* \"contracts/Exchange.sol\":14016:14028  _msgSender() */\n      tag_126\n        /* \"contracts/Exchange.sol\":14016:14026  _msgSender */\n      tag_127\n        /* \"contracts/Exchange.sol\":14016:14028  _msgSender() */\n      jump\t// in\n    tag_126:\n        /* \"contracts/Exchange.sol\":14038:14042  this */\n      address\n        /* \"contracts/Exchange.sol\":14045:14056  _tokensSold */\n      dup7\n        /* \"contracts/Exchange.sol\":13978:14057  ERC20(TGOLDTokenAddress).transferFrom(_msgSender(), address(this), _tokensSold) */\n      mload(0x40)\n      dup5\n      0xffffffff\n      and\n      0xe0\n      shl\n      dup2\n      mstore\n      0x04\n      add\n      tag_128\n      swap4\n      swap3\n      swap2\n      swap1\n      tag_129\n      jump\t// in\n    tag_128:\n      0x20\n      mload(0x40)\n      dup1\n      dup4\n      sub\n      dup2\n      0x00\n      dup8\n      gas\n      call\n      iszero\n      dup1\n      iszero\n      tag_131\n      jumpi\n      returndatasize\n      0x00\n      dup1\n      returndatacopy\n      revert(0x00, returndatasize)\n    tag_131:\n      pop\n      pop\n      pop\n      pop\n      mload(0x40)\n      returndatasize\n      not(0x1f)\n      0x1f\n      dup3\n      add\n      and\n      dup3\n      add\n      dup1\n      0x40\n      mstore\n      pop\n      dup2\n      add\n      swap1\n      tag_132\n      swap2\n      swap1\n      tag_125\n      jump\t// in\n    tag_132:\n      pop\n        /* \"contracts/Exchange.sol\":14136:14148  bool success */\n      0x00\n        /* \"contracts/Exchange.sol\":14154:14166  _msgSender() */\n      tag_133\n        /* \"contracts/Exchange.sol\":14154:14164  _msgSender */\n      tag_127\n        /* \"contracts/Exchange.sol\":14154:14166  _msgSender() */\n      jump\t// in\n    tag_133:\n        /* \"contracts/Exchange.sol\":14154:14171  _msgSender().call */\n      0xffffffffffffffffffffffffffffffffffffffff\n      and\n        /* \"contracts/Exchange.sol\":14179:14188  ethBought */\n      dup3\n        /* \"contracts/Exchange.sol\":14154:14193  _msgSender().call{value: ethBought}(\"\") */\n      mload(0x40)\n      tag_134\n      swap1\n      tag_135\n      jump\t// in\n    tag_134:\n      0x00\n      mload(0x40)\n      dup1\n      dup4\n      sub\n      dup2\n      dup6\n      dup8\n      gas\n      call\n      swap3\n      pop\n      pop\n      pop\n      returndatasize\n      dup1\n      0x00\n      dup2\n      eq\n      tag_138\n      jumpi\n      mload(0x40)\n      swap2\n      pop\n      and(add(returndatasize, 0x3f), not(0x1f))\n      dup3\n      add\n      0x40\n      mstore\n      returndatasize\n      dup3\n      mstore\n      returndatasize\n      0x00\n      0x20\n      dup5\n      add\n      returndatacopy\n      jump(tag_137)\n    tag_138:\n      0x60\n      swap2\n      pop\n    tag_137:\n      pop\n        /* \"contracts/Exchange.sol\":14135:14193  (bool success, ) = _msgSender().call{value: ethBought}(\"\") */\n      pop\n      swap1\n      pop\n        /* \"contracts/Exchange.sol\":14253:14260  success */\n      dup1\n        /* \"contracts/Exchange.sol\":14248:14300  if (!success) {... */\n      tag_139\n      jumpi\n        /* \"contracts/Exchange.sol\":14280:14292  SendFailed() */\n      mload(0x40)\n      0x81063e5100000000000000000000000000000000000000000000000000000000\n      dup2\n      mstore\n      0x04\n      add\n      mload(0x40)\n      dup1\n      swap2\n      sub\n      swap1\n      revert\n        /* \"contracts/Exchange.sol\":14248:14300  if (!success) {... */\n    tag_139:\n        /* \"contracts/Exchange.sol\":12887:14306  {... */\n      pop\n      pop\n        /* \"contracts/Exchange.sol\":12816:14306  function TGOLDTokensToEth(uint256 _tokensSold, uint256 _minEth) public {... */\n      pop\n      pop\n      jump\t// out\n        /* \"@openzeppelin/contracts/token/ERC20/ERC20.sol\":2158:2256  function name() public view virtual override returns (string memory) {... */\n    tag_30:\n        /* \"@openzeppelin/contracts/token/ERC20/ERC20.sol\":2212:2225  string memory */\n      0x60\n        /* \"@openzeppelin/contracts/token/ERC20/ERC20.sol\":2244:2249  _name */\n      0x03\n        /* \"@openzeppelin/contracts/token/ERC20/ERC20.sol\":2237:2249  return _name */\n      dup1\n      sload\n      tag_141\n      swap1\n      tag_142\n      jump\t// in\n    tag_141:\n      dup1\n      0x1f\n      add\n      0x20\n      dup1\n      swap2\n      div\n      mul\n      0x20\n      add\n      mload(0x40)\n      swap1\n      dup2\n      add\n      0x40\n      mstore\n      dup1\n      swap3\n      swap2\n      swap1\n      dup2\n      dup2\n      mstore\n      0x20\n      add\n      dup3\n      dup1\n      sload\n      tag_143\n      swap1\n      tag_142\n      jump\t// in\n    tag_143:\n      dup1\n      iszero\n      tag_144\n      jumpi\n      dup1\n      0x1f\n      lt\n      tag_145\n      jumpi\n      0x0100\n      dup1\n      dup4\n      sload\n      div\n      mul\n      dup4\n      mstore\n      swap2\n      0x20\n      add\n      swap2\n      jump(tag_144)\n    tag_145:\n      dup3\n      add\n      swap2\n      swap1\n      0x00\n      mstore\n      keccak256(0x00, 0x20)\n      swap1\n    tag_146:\n      dup2\n      sload\n      dup2\n      mstore\n      swap1\n      0x01\n      add\n      swap1\n      0x20\n      add\n      dup1\n      dup4\n      gt\n      tag_146\n      jumpi\n      dup3\n      swap1\n      sub\n      0x1f\n      and\n      dup3\n      add\n      swap2\n    tag_144:\n      pop\n      pop\n      pop\n      pop\n      pop\n      swap1\n      pop\n        /* \"@openzeppelin/contracts/token/ERC20/ERC20.sol\":2158:2256  function name() public view virtual override returns (string memory) {... */\n      swap1\n      jump\t// out\n        /* \"@openzeppelin/contracts/token/ERC20/ERC20.sol\":4444:4641  function approve(address spender, uint256 amount) public virtual override returns (bool) {... */\n    tag_37:\n        /* \"@openzeppelin/contracts/token/ERC20/ERC20.sol\":4527:4531  bool */\n      0x00\n        /* \"@openzeppelin/contracts/token/ERC20/ERC20.sol\":4543:4556  address owner */\n      dup1\n        /* \"@openzeppelin/contracts/token/ERC20/ERC20.sol\":4559:4571  _msgSender() */\n      tag_148\n        /* \"@openzeppelin/contracts/token/ERC20/ERC20.sol\":4559:4569  _msgSender */\n      tag_127\n        /* \"@openzeppelin/contracts/token/ERC20/ERC20.sol\":4559:4571  _msgSender() */\n      jump\t// in\n    tag_148:\n        /* \"@openzeppelin/contracts/token/ERC20/ERC20.sol\":4543:4571  address owner = _msgSender() */\n      swap1\n      pop\n        /* \"@openzeppelin/contracts/token/ERC20/ERC20.sol\":4581:4613  _approve(owner, spender, amount) */\n      tag_149\n        /* \"@openzeppelin/contracts/token/ERC20/ERC20.sol\":4590:4595  owner */\n      dup2\n        /* \"@openzeppelin/contracts/token/ERC20/ERC20.sol\":4597:4604  spender */\n      dup6\n        /* \"@openzeppelin/contracts/token/ERC20/ERC20.sol\":4606:4612  amount */\n      dup6\n        /* \"@openzeppelin/contracts/token/ERC20/ERC20.sol\":4581:4589  _approve */\n      tag_150\n        /* \"@openzeppelin/contracts/token/ERC20/ERC20.sol\":4581:4613  _approve(owner, spender, amount) */\n      jump\t// in\n    tag_149:\n        /* \"@openzeppelin/contracts/token/ERC20/ERC20.sol\":4630:4634  true */\n      0x01\n        /* \"@openzeppelin/contracts/token/ERC20/ERC20.sol\":4623:4634  return true */\n      swap2\n      pop\n      pop\n        /* \"@openzeppelin/contracts/token/ERC20/ERC20.sol\":4444:4641  function approve(address spender, uint256 amount) public virtual override returns (bool) {... */\n      swap3\n      swap2\n      pop\n      pop\n      jump\t// out\n        /* \"@openzeppelin/contracts/token/ERC20/ERC20.sol\":3255:3361  function totalSupply() public view virtual override returns (uint256) {... */\n    tag_42:\n        /* \"@openzeppelin/contracts/token/ERC20/ERC20.sol\":3316:3323  uint256 */\n      0x00\n        /* \"@openzeppelin/contracts/token/ERC20/ERC20.sol\":3342:3354  _totalSupply */\n      sload(0x02)\n        /* \"@openzeppelin/contracts/token/ERC20/ERC20.sol\":3335:3354  return _totalSupply */\n      swap1\n      pop\n        /* \"@openzeppelin/contracts/token/ERC20/ERC20.sol\":3255:3361  function totalSupply() public view virtual override returns (uint256) {... */\n      swap1\n      jump\t// out\n        /* \"contracts/Exchange.sol\":11352:12573  function ethToTGOLDTokens(uint256 _minTokens) public payable {... */\n    tag_48:\n        /* \"contracts/Exchange.sol\":11420:11440  uint256 tokenReserve */\n      0x00\n        /* \"contracts/Exchange.sol\":11443:11455  getReserve() */\n      tag_153\n        /* \"contracts/Exchange.sol\":11443:11453  getReserve */\n      tag_76\n        /* \"contracts/Exchange.sol\":11443:11455  getReserve() */\n      jump\t// in\n    tag_153:\n        /* \"contracts/Exchange.sol\":11420:11455  uint256 tokenReserve = getReserve() */\n      swap1\n      pop\n        /* \"contracts/Exchange.sol\":11681:11701  uint256 tokensBought */\n      0x00\n        /* \"contracts/Exchange.sol\":11704:12095  getAmountOfTokens(       // 1% swap/trade fee taken care of in this f() above... */\n      tag_154\n        /* \"contracts/Exchange.sol\":11791:11800  msg.value */\n      callvalue\n        /* \"contracts/Exchange.sol\":11835:11844  msg.value */\n      callvalue\n        /* \"contracts/Exchange.sol\":11811:11832  address(this).balance */\n      selfbalance\n        /* \"contracts/Exchange.sol\":11811:11844  address(this).balance - msg.value */\n      tag_155\n      swap2\n      swap1\n      tag_156\n      jump\t// in\n    tag_155:\n        /* \"contracts/Exchange.sol\":11951:11963  tokenReserve */\n      dup5\n        /* \"contracts/Exchange.sol\":11704:11721  getAmountOfTokens */\n      tag_88\n        /* \"contracts/Exchange.sol\":11704:12095  getAmountOfTokens(       // 1% swap/trade fee taken care of in this f() above... */\n      jump\t// in\n    tag_154:\n        /* \"contracts/Exchange.sol\":11681:12095  uint256 tokensBought = getAmountOfTokens(       // 1% swap/trade fee taken care of in this f() above... */\n      swap1\n      pop\n        /* \"contracts/Exchange.sol\":12219:12229  _minTokens */\n      dup3\n        /* \"contracts/Exchange.sol\":12204:12216  tokensBought */\n      dup2\n        /* \"contracts/Exchange.sol\":12204:12229  tokensBought < _minTokens */\n      lt\n        /* \"contracts/Exchange.sol\":12201:12292  if(tokensBought < _minTokens) {... */\n      iszero\n      tag_157\n      jumpi\n        /* \"contracts/Exchange.sol\":12249:12284  OutputAmountLessThanMinimumAmount() */\n      mload(0x40)\n      0xf77fa5e700000000000000000000000000000000000000000000000000000000\n      dup2\n      mstore\n      0x04\n      add\n      mload(0x40)\n      dup1\n      swap2\n      sub\n      swap1\n      revert\n        /* \"contracts/Exchange.sol\":12201:12292  if(tokensBought < _minTokens) {... */\n    tag_157:\n        /* \"contracts/Exchange.sol\":12511:12528  TGOLDTokenAddress */\n      0x05\n      0x00\n      swap1\n      sload\n      swap1\n      0x0100\n      exp\n      swap1\n      div\n      0xffffffffffffffffffffffffffffffffffffffff\n      and\n        /* \"contracts/Exchange.sol\":12505:12538  ERC20(TGOLDTokenAddress).transfer */\n      0xffffffffffffffffffffffffffffffffffffffff\n      and\n      0xa9059cbb\n        /* \"contracts/Exchange.sol\":12539:12551  _msgSender() */\n      tag_158\n        /* \"contracts/Exchange.sol\":12539:12549  _msgSender */\n      tag_127\n        /* \"contracts/Exchange.sol\":12539:12551  _msgSender() */\n      jump\t// in\n    tag_158:\n        /* \"contracts/Exchange.sol\":12553:12565  tokensBought */\n      dup4\n        /* \"contracts/Exchange.sol\":12505:12566  ERC20(TGOLDTokenAddress).transfer(_msgSender(), tokensBought) */\n      mload(0x40)\n      dup4\n      0xffffffff\n      and\n      0xe0\n      shl\n      dup2\n      mstore\n      0x04\n      add\n      tag_159\n      swap3\n      swap2\n      swap1\n      tag_121\n      jump\t// in\n    tag_159:\n      0x20\n      mload(0x40)\n      dup1\n      dup4\n      sub\n      dup2\n      0x00\n      dup8\n      gas\n      call\n      iszero\n      dup1\n      iszero\n      tag_161\n      jumpi\n      returndatasize\n      0x00\n      dup1\n      returndatacopy\n      revert(0x00, returndatasize)\n    tag_161:\n      pop\n      pop\n      pop\n      pop\n      mload(0x40)\n      returndatasize\n      not(0x1f)\n      0x1f\n      dup3\n      add\n      and\n      dup3\n      add\n      dup1\n      0x40\n      mstore\n      pop\n      dup2\n      add\n      swap1\n      tag_162\n      swap2\n      swap1\n      tag_125\n      jump\t// in\n    tag_162:\n      pop\n        /* \"contracts/Exchange.sol\":11413:12573  {... */\n      pop\n      pop\n        /* \"contracts/Exchange.sol\":11352:12573  function ethToTGOLDTokens(uint256 _minTokens) public payable {... */\n      pop\n      jump\t// out\n        /* \"@openzeppelin/contracts/token/ERC20/ERC20.sol\":5203:5459  function transferFrom(address from, address to, uint256 amount) public virtual override returns (bool) {... */\n    tag_53:\n        /* \"@openzeppelin/contracts/token/ERC20/ERC20.sol\":5300:5304  bool */\n      0x00\n        /* \"@openzeppelin/contracts/token/ERC20/ERC20.sol\":5316:5331  address spender */\n      dup1\n        /* \"@openzeppelin/contracts/token/ERC20/ERC20.sol\":5334:5346  _msgSender() */\n      tag_164\n        /* \"@openzeppelin/contracts/token/ERC20/ERC20.sol\":5334:5344  _msgSender */\n      tag_127\n        /* \"@openzeppelin/contracts/token/ERC20/ERC20.sol\":5334:5346  _msgSender() */\n      jump\t// in\n    tag_164:\n        /* \"@openzeppelin/contracts/token/ERC20/ERC20.sol\":5316:5346  address spender = _msgSender() */\n      swap1\n      pop\n        /* \"@openzeppelin/contracts/token/ERC20/ERC20.sol\":5356:5394  _spendAllowance(from, spender, amount) */\n      tag_165\n        /* \"@openzeppelin/contracts/token/ERC20/ERC20.sol\":5372:5376  from */\n      dup6\n        /* \"@openzeppelin/contracts/token/ERC20/ERC20.sol\":5378:5385  spender */\n      dup3\n        /* \"@openzeppelin/contracts/token/ERC20/ERC20.sol\":5387:5393  amount */\n      dup6\n        /* \"@openzeppelin/contracts/token/ERC20/ERC20.sol\":5356:5371  _spendAllowance */\n      tag_166\n        /* \"@openzeppelin/contracts/token/ERC20/ERC20.sol\":5356:5394  _spendAllowance(from, spender, amount) */\n      jump\t// in\n    tag_165:\n        /* \"@openzeppelin/contracts/token/ERC20/ERC20.sol\":5404:5431  _transfer(from, to, amount) */\n      tag_167\n        /* \"@openzeppelin/contracts/token/ERC20/ERC20.sol\":5414:5418  from */\n      dup6\n        /* \"@openzeppelin/contracts/token/ERC20/ERC20.sol\":5420:5422  to */\n      dup6\n        /* \"@openzeppelin/contracts/token/ERC20/ERC20.sol\":5424:5430  amount */\n      dup6\n        /* \"@openzeppelin/contracts/token/ERC20/ERC20.sol\":5404:5413  _transfer */\n      tag_168\n        /* \"@openzeppelin/contracts/token/ERC20/ERC20.sol\":5404:5431  _transfer(from, to, amount) */\n      jump\t// in\n    tag_167:\n        /* \"@openzeppelin/contracts/token/ERC20/ERC20.sol\":5448:5452  true */\n      0x01\n        /* \"@openzeppelin/contracts/token/ERC20/ERC20.sol\":5441:5452  return true */\n      swap2\n      pop\n      pop\n        /* \"@openzeppelin/contracts/token/ERC20/ERC20.sol\":5203:5459  function transferFrom(address from, address to, uint256 amount) public virtual override returns (bool) {... */\n      swap4\n      swap3\n      pop\n      pop\n      pop\n      jump\t// out\n        /* \"@openzeppelin/contracts/token/ERC20/ERC20.sol\":3104:3195  function decimals() public view virtual override returns (uint8) {... */\n    tag_57:\n        /* \"@openzeppelin/contracts/token/ERC20/ERC20.sol\":3162:3167  uint8 */\n      0x00\n        /* \"@openzeppelin/contracts/token/ERC20/ERC20.sol\":3186:3188  18 */\n      0x12\n        /* \"@openzeppelin/contracts/token/ERC20/ERC20.sol\":3179:3188  return 18 */\n      swap1\n      pop\n        /* \"@openzeppelin/contracts/token/ERC20/ERC20.sol\":3104:3195  function decimals() public view virtual override returns (uint8) {... */\n      swap1\n      jump\t// out\n        /* \"@openzeppelin/contracts/token/ERC20/ERC20.sol\":5854:6088  function increaseAllowance(address spender, uint256 addedValue) public virtual returns (bool) {... */\n    tag_63:\n        /* \"@openzeppelin/contracts/token/ERC20/ERC20.sol\":5942:5946  bool */\n      0x00\n        /* \"@openzeppelin/contracts/token/ERC20/ERC20.sol\":5958:5971  address owner */\n      dup1\n        /* \"@openzeppelin/contracts/token/ERC20/ERC20.sol\":5974:5986  _msgSender() */\n      tag_171\n        /* \"@openzeppelin/contracts/token/ERC20/ERC20.sol\":5974:5984  _msgSender */\n      tag_127\n        /* \"@openzeppelin/contracts/token/ERC20/ERC20.sol\":5974:5986  _msgSender() */\n      jump\t// in\n    tag_171:\n        /* \"@openzeppelin/contracts/token/ERC20/ERC20.sol\":5958:5986  address owner = _msgSender() */\n      swap1\n      pop\n        /* \"@openzeppelin/contracts/token/ERC20/ERC20.sol\":5996:6060  _approve(owner, spender, allowance(owner, spender) + addedValue) */\n      tag_172\n        /* \"@openzeppelin/contracts/token/ERC20/ERC20.sol\":6005:6010  owner */\n      dup2\n        /* \"@openzeppelin/contracts/token/ERC20/ERC20.sol\":6012:6019  spender */\n      dup6\n        /* \"@openzeppelin/contracts/token/ERC20/ERC20.sol\":6049:6059  addedValue */\n      dup6\n        /* \"@openzeppelin/contracts/token/ERC20/ERC20.sol\":6021:6046  allowance(owner, spender) */\n      tag_173\n        /* \"@openzeppelin/contracts/token/ERC20/ERC20.sol\":6031:6036  owner */\n      dup6\n        /* \"@openzeppelin/contracts/token/ERC20/ERC20.sol\":6038:6045  spender */\n      dup10\n        /* \"@openzeppelin/contracts/token/ERC20/ERC20.sol\":6021:6030  allowance */\n      tag_114\n        /* \"@openzeppelin/contracts/token/ERC20/ERC20.sol\":6021:6046  allowance(owner, spender) */\n      jump\t// in\n    tag_173:\n        /* \"@openzeppelin/contracts/token/ERC20/ERC20.sol\":6021:6059  allowance(owner, spender) + addedValue */\n      tag_174\n      swap2\n      swap1\n      tag_175\n      jump\t// in\n    tag_174:\n        /* \"@openzeppelin/contracts/token/ERC20/ERC20.sol\":5996:6004  _approve */\n      tag_150\n        /* \"@openzeppelin/contracts/token/ERC20/ERC20.sol\":5996:6060  _approve(owner, spender, allowance(owner, spender) + addedValue) */\n      jump\t// in\n    tag_172:\n        /* \"@openzeppelin/contracts/token/ERC20/ERC20.sol\":6077:6081  true */\n      0x01\n        /* \"@openzeppelin/contracts/token/ERC20/ERC20.sol\":6070:6081  return true */\n      swap2\n      pop\n      pop\n        /* \"@openzeppelin/contracts/token/ERC20/ERC20.sol\":5854:6088  function increaseAllowance(address spender, uint256 addedValue) public virtual returns (bool) {... */\n      swap3\n      swap2\n      pop\n      pop\n      jump\t// out\n        /* \"contracts/Exchange.sol\":528:560  address public TGOLDTokenAddress */\n    tag_67:\n      0x05\n      0x00\n      swap1\n      sload\n      swap1\n      0x0100\n      exp\n      swap1\n      div\n      0xffffffffffffffffffffffffffffffffffffffff\n      and\n      dup2\n      jump\t// out\n        /* \"contracts/Exchange.sol\":1310:6806  function addLiquidity(uint256 _amount) public payable returns (uint256) {... */\n    tag_72:\n        /* \"contracts/Exchange.sol\":1373:1380  uint256 */\n      0x00\n        /* \"contracts/Exchange.sol\":1393:1410  uint256 liquidity */\n      dup1\n        /* \"contracts/Exchange.sol\":1475:1493  uint256 ethBalance */\n      0x00\n        /* \"contracts/Exchange.sol\":1496:1517  address(this).balance */\n      selfbalance\n        /* \"contracts/Exchange.sol\":1475:1517  uint256 ethBalance = address(this).balance */\n      swap1\n      pop\n        /* \"contracts/Exchange.sol\":1682:1707  uint256 TGOLDTokenReserve */\n      0x00\n        /* \"contracts/Exchange.sol\":1710:1722  getReserve() */\n      tag_177\n        /* \"contracts/Exchange.sol\":1710:1720  getReserve */\n      tag_76\n        /* \"contracts/Exchange.sol\":1710:1722  getReserve() */\n      jump\t// in\n    tag_177:\n        /* \"contracts/Exchange.sol\":1682:1722  uint256 TGOLDTokenReserve = getReserve() */\n      swap1\n      pop\n        /* \"contracts/Exchange.sol\":1846:1862  ERC20 TGOLDToken */\n      0x00\n        /* \"contracts/Exchange.sol\":1871:1888  TGOLDTokenAddress */\n      0x05\n      0x00\n      swap1\n      sload\n      swap1\n      0x0100\n      exp\n      swap1\n      div\n      0xffffffffffffffffffffffffffffffffffffffff\n      and\n        /* \"contracts/Exchange.sol\":1846:1889  ERC20 TGOLDToken = ERC20(TGOLDTokenAddress) */\n      swap1\n      pop\n        /* \"contracts/Exchange.sol\":2142:2143  0 */\n      0x00\n        /* \"contracts/Exchange.sol\":2121:2138  TGOLDTokenReserve */\n      dup3\n        /* \"contracts/Exchange.sol\":2121:2143  TGOLDTokenReserve == 0 */\n      sub\n        /* \"contracts/Exchange.sol\":2118:6743  if(TGOLDTokenReserve == 0) {... */\n      tag_178\n      jumpi\n        /* \"contracts/Exchange.sol\":2479:2489  TGOLDToken */\n      dup1\n        /* \"contracts/Exchange.sol\":2479:2497  TGOLDToken.approve */\n      0xffffffffffffffffffffffffffffffffffffffff\n      and\n      0x095ea7b3\n        /* \"contracts/Exchange.sol\":2506:2510  this */\n      address\n        /* \"contracts/Exchange.sol\":2513:2520  _amount */\n      dup9\n        /* \"contracts/Exchange.sol\":2479:2521  TGOLDToken.approve(address(this), _amount) */\n      mload(0x40)\n      dup4\n      0xffffffff\n      and\n      0xe0\n      shl\n      dup2\n      mstore\n      0x04\n      add\n      tag_179\n      swap3\n      swap2\n      swap1\n      tag_121\n      jump\t// in\n    tag_179:\n      0x20\n      mload(0x40)\n      dup1\n      dup4\n      sub\n      dup2\n      0x00\n      dup8\n      gas\n      call\n      iszero\n      dup1\n      iszero\n      tag_181\n      jumpi\n      returndatasize\n      0x00\n      dup1\n      returndatacopy\n      revert(0x00, returndatasize)\n    tag_181:\n      pop\n      pop\n      pop\n      pop\n      mload(0x40)\n      returndatasize\n      not(0x1f)\n      0x1f\n      dup3\n      add\n      and\n      dup3\n      add\n      dup1\n      0x40\n      mstore\n      pop\n      dup2\n      add\n      swap1\n      tag_182\n      swap2\n      swap1\n      tag_125\n      jump\t// in\n    tag_182:\n      pop\n        /* \"contracts/Exchange.sol\":2580:2590  TGOLDToken */\n      dup1\n        /* \"contracts/Exchange.sol\":2580:2603  TGOLDToken.transferFrom */\n      0xffffffffffffffffffffffffffffffffffffffff\n      and\n      0x23b872dd\n        /* \"contracts/Exchange.sol\":2604:2616  _msgSender() */\n      tag_183\n        /* \"contracts/Exchange.sol\":2604:2614  _msgSender */\n      tag_127\n        /* \"contracts/Exchange.sol\":2604:2616  _msgSender() */\n      jump\t// in\n    tag_183:\n        /* \"contracts/Exchange.sol\":2626:2630  this */\n      address\n        /* \"contracts/Exchange.sol\":2633:2640  _amount */\n      dup10\n        /* \"contracts/Exchange.sol\":2580:2641  TGOLDToken.transferFrom(_msgSender(), address(this), _amount) */\n      mload(0x40)\n      dup5\n      0xffffffff\n      and\n      0xe0\n      shl\n      dup2\n      mstore\n      0x04\n      add\n      tag_184\n      swap4\n      swap3\n      swap2\n      swap1\n      tag_129\n      jump\t// in\n    tag_184:\n      0x20\n      mload(0x40)\n      dup1\n      dup4\n      sub\n      dup2\n      0x00\n      dup8\n      gas\n      call\n      iszero\n      dup1\n      iszero\n      tag_186\n      jumpi\n      returndatasize\n      0x00\n      dup1\n      returndatacopy\n      revert(0x00, returndatasize)\n    tag_186:\n      pop\n      pop\n      pop\n      pop\n      mload(0x40)\n      returndatasize\n      not(0x1f)\n      0x1f\n      dup3\n      add\n      and\n      dup3\n      add\n      dup1\n      0x40\n      mstore\n      pop\n      dup2\n      add\n      swap1\n      tag_187\n      swap2\n      swap1\n      tag_125\n      jump\t// in\n    tag_187:\n      pop\n        /* \"contracts/Exchange.sol\":3473:3483  ethBalance */\n      dup3\n        /* \"contracts/Exchange.sol\":3461:3483  liquidity = ethBalance */\n      swap4\n      pop\n        /* \"contracts/Exchange.sol\":3692:3722  _mint(_msgSender(), liquidity) */\n      tag_188\n        /* \"contracts/Exchange.sol\":3698:3710  _msgSender() */\n      tag_189\n        /* \"contracts/Exchange.sol\":3698:3708  _msgSender */\n      tag_127\n        /* \"contracts/Exchange.sol\":3698:3710  _msgSender() */\n      jump\t// in\n    tag_189:\n        /* \"contracts/Exchange.sol\":3712:3721  liquidity */\n      dup6\n        /* \"contracts/Exchange.sol\":3692:3697  _mint */\n      tag_190\n        /* \"contracts/Exchange.sol\":3692:3722  _mint(_msgSender(), liquidity) */\n      jump\t// in\n    tag_188:\n        /* \"contracts/Exchange.sol\":2118:6743  if(TGOLDTokenReserve == 0) {... */\n      jump(tag_191)\n    tag_178:\n        /* \"contracts/Exchange.sol\":4658:4676  uint256 ethReserve */\n      0x00\n        /* \"contracts/Exchange.sol\":4692:4701  msg.value */\n      callvalue\n        /* \"contracts/Exchange.sol\":4679:4689  ethBalance */\n      dup5\n        /* \"contracts/Exchange.sol\":4679:4701  ethBalance - msg.value */\n      tag_192\n      swap2\n      swap1\n      tag_156\n      jump\t// in\n    tag_192:\n        /* \"contracts/Exchange.sol\":4658:4701  uint256 ethReserve = ethBalance - msg.value */\n      swap1\n      pop\n        /* \"contracts/Exchange.sol\":5405:5429  uint256 TGOLDTokenAmount */\n      0x00\n        /* \"contracts/Exchange.sol\":5455:5472  TGOLDTokenReserve */\n      dup4\n        /* \"contracts/Exchange.sol\":5443:5453  ethReserve */\n      dup3\n        /* \"contracts/Exchange.sol\":5433:5442  msg.value */\n      callvalue\n        /* \"contracts/Exchange.sol\":5433:5453  msg.value/ethReserve */\n      tag_193\n      swap2\n      swap1\n      tag_194\n      jump\t// in\n    tag_193:\n        /* \"contracts/Exchange.sol\":5432:5472  (msg.value/ethReserve)*TGOLDTokenReserve */\n      tag_195\n      swap2\n      swap1\n      tag_196\n      jump\t// in\n    tag_195:\n        /* \"contracts/Exchange.sol\":5405:5472  uint256 TGOLDTokenAmount = (msg.value/ethReserve)*TGOLDTokenReserve */\n      swap1\n      pop\n        /* \"contracts/Exchange.sol\":5673:5689  TGOLDTokenAmount */\n      dup1\n        /* \"contracts/Exchange.sol\":5663:5670  _amount */\n      dup9\n        /* \"contracts/Exchange.sol\":5663:5689  _amount < TGOLDTokenAmount */\n      lt\n        /* \"contracts/Exchange.sol\":5660:5749  if(_amount < TGOLDTokenAmount) {... */\n      iszero\n      tag_197\n      jumpi\n        /* \"contracts/Exchange.sol\":5713:5737  InsufficientERC20Input() */\n      mload(0x40)\n      0xe1332eae00000000000000000000000000000000000000000000000000000000\n      dup2\n      mstore\n      0x04\n      add\n      mload(0x40)\n      dup1\n      swap2\n      sub\n      swap1\n      revert\n        /* \"contracts/Exchange.sol\":5660:5749  if(_amount < TGOLDTokenAmount) {... */\n    tag_197:\n        /* \"contracts/Exchange.sol\":5916:5926  TGOLDToken */\n      dup3\n        /* \"contracts/Exchange.sol\":5916:5939  TGOLDToken.transferFrom */\n      0xffffffffffffffffffffffffffffffffffffffff\n      and\n      0x23b872dd\n        /* \"contracts/Exchange.sol\":5940:5952  _msgSender() */\n      tag_198\n        /* \"contracts/Exchange.sol\":5940:5950  _msgSender */\n      tag_127\n        /* \"contracts/Exchange.sol\":5940:5952  _msgSender() */\n      jump\t// in\n    tag_198:\n        /* \"contracts/Exchange.sol\":5962:5966  this */\n      address\n        /* \"contracts/Exchange.sol\":5969:5985  TGOLDTokenAmount */\n      dup5\n        /* \"contracts/Exchange.sol\":5916:5986  TGOLDToken.transferFrom(_msgSender(), address(this), TGOLDTokenAmount) */\n      mload(0x40)\n      dup5\n      0xffffffff\n      and\n      0xe0\n      shl\n      dup2\n      mstore\n      0x04\n      add\n      tag_199\n      swap4\n      swap3\n      swap2\n      swap1\n      tag_129\n      jump\t// in\n    tag_199:\n      0x20\n      mload(0x40)\n      dup1\n      dup4\n      sub\n      dup2\n      0x00\n      dup8\n      gas\n      call\n      iszero\n      dup1\n      iszero\n      tag_201\n      jumpi\n      returndatasize\n      0x00\n      dup1\n      returndatacopy\n      revert(0x00, returndatasize)\n    tag_201:\n      pop\n      pop\n      pop\n      pop\n      mload(0x40)\n      returndatasize\n      not(0x1f)\n      0x1f\n      dup3\n      add\n      and\n      dup3\n      add\n      dup1\n      0x40\n      mstore\n      pop\n      dup2\n      add\n      swap1\n      tag_202\n      swap2\n      swap1\n      tag_125\n      jump\t// in\n    tag_202:\n      pop\n        /* \"contracts/Exchange.sol\":6273:6283  ethReserve */\n      dup2\n        /* \"contracts/Exchange.sol\":6263:6272  msg.value */\n      callvalue\n        /* \"contracts/Exchange.sol\":6263:6283  msg.value/ethReserve */\n      tag_203\n      swap2\n      swap1\n      tag_194\n      jump\t// in\n    tag_203:\n        /* \"contracts/Exchange.sol\":6246:6259  totalSupply() */\n      tag_204\n        /* \"contracts/Exchange.sol\":6246:6257  totalSupply */\n      tag_42\n        /* \"contracts/Exchange.sol\":6246:6259  totalSupply() */\n      jump\t// in\n    tag_204:\n        /* \"contracts/Exchange.sol\":6246:6284  totalSupply() * (msg.value/ethReserve) */\n      tag_205\n      swap2\n      swap1\n      tag_196\n      jump\t// in\n    tag_205:\n        /* \"contracts/Exchange.sol\":6234:6284  liquidity = totalSupply() * (msg.value/ethReserve) */\n      swap6\n      pop\n        /* \"contracts/Exchange.sol\":6436:6466  _mint(_msgSender(), liquidity) */\n      tag_206\n        /* \"contracts/Exchange.sol\":6442:6454  _msgSender() */\n      tag_207\n        /* \"contracts/Exchange.sol\":6442:6452  _msgSender */\n      tag_127\n        /* \"contracts/Exchange.sol\":6442:6454  _msgSender() */\n      jump\t// in\n    tag_207:\n        /* \"contracts/Exchange.sol\":6456:6465  liquidity */\n      dup8\n        /* \"contracts/Exchange.sol\":6436:6441  _mint */\n      tag_190\n        /* \"contracts/Exchange.sol\":6436:6466  _mint(_msgSender(), liquidity) */\n      jump\t// in\n    tag_206:\n        /* \"contracts/Exchange.sol\":3747:6743  {... */\n      pop\n      pop\n        /* \"contracts/Exchange.sol\":2118:6743  if(TGOLDTokenReserve == 0) {... */\n    tag_191:\n        /* \"contracts/Exchange.sol\":6760:6769  liquidity */\n      dup4\n        /* \"contracts/Exchange.sol\":6753:6769  return liquidity */\n      swap5\n      pop\n      pop\n      pop\n      pop\n      pop\n        /* \"contracts/Exchange.sol\":1310:6806  function addLiquidity(uint256 _amount) public payable returns (uint256) {... */\n      swap2\n      swap1\n      pop\n      jump\t// out\n        /* \"contracts/Exchange.sol\":993:1170  function getReserve() public view returns (uint256) {... */\n    tag_76:\n        /* \"contracts/Exchange.sol\":1036:1043  uint256 */\n      0x00\n        /* \"contracts/Exchange.sol\":1069:1086  TGOLDTokenAddress */\n      0x05\n      0x00\n      swap1\n      sload\n      swap1\n      0x0100\n      exp\n      swap1\n      div\n      0xffffffffffffffffffffffffffffffffffffffff\n      and\n        /* \"contracts/Exchange.sol\":1063:1097  ERC20(TGOLDTokenAddress).balanceOf */\n      0xffffffffffffffffffffffffffffffffffffffff\n      and\n      0x70a08231\n        /* \"contracts/Exchange.sol\":1106:1110  this */\n      address\n        /* \"contracts/Exchange.sol\":1063:1112  ERC20(TGOLDTokenAddress).balanceOf(address(this)) */\n      mload(0x40)\n      dup3\n      0xffffffff\n      and\n      0xe0\n      shl\n      dup2\n      mstore\n      0x04\n      add\n      tag_209\n      swap2\n      swap1\n      tag_69\n      jump\t// in\n    tag_209:\n      0x20\n      mload(0x40)\n      dup1\n      dup4\n      sub\n      dup2\n      dup7\n      gas\n      staticcall\n      iszero\n      dup1\n      iszero\n      tag_211\n      jumpi\n      returndatasize\n      0x00\n      dup1\n      returndatacopy\n      revert(0x00, returndatasize)\n    tag_211:\n      pop\n      pop\n      pop\n      pop\n      mload(0x40)\n      returndatasize\n      not(0x1f)\n      0x1f\n      dup3\n      add\n      and\n      dup3\n      add\n      dup1\n      0x40\n      mstore\n      pop\n      dup2\n      add\n      swap1\n      tag_212\n      swap2\n      swap1\n      tag_213\n      jump\t// in\n    tag_212:\n        /* \"contracts/Exchange.sol\":1056:1112  return ERC20(TGOLDTokenAddress).balanceOf(address(this)) */\n      swap1\n      pop\n        /* \"contracts/Exchange.sol\":993:1170  function getReserve() public view returns (uint256) {... */\n      swap1\n      jump\t// out\n        /* \"@openzeppelin/contracts/token/ERC20/ERC20.sol\":3419:3544  function balanceOf(address account) public view virtual override returns (uint256) {... */\n    tag_82:\n        /* \"@openzeppelin/contracts/token/ERC20/ERC20.sol\":3493:3500  uint256 */\n      0x00\n        /* \"@openzeppelin/contracts/token/ERC20/ERC20.sol\":3519:3528  _balances */\n      dup1\n        /* \"@openzeppelin/contracts/token/ERC20/ERC20.sol\":3519:3537  _balances[account] */\n      0x00\n        /* \"@openzeppelin/contracts/token/ERC20/ERC20.sol\":3529:3536  account */\n      dup4\n        /* \"@openzeppelin/contracts/token/ERC20/ERC20.sol\":3519:3537  _balances[account] */\n      0xffffffffffffffffffffffffffffffffffffffff\n      and\n      0xffffffffffffffffffffffffffffffffffffffff\n      and\n      dup2\n      mstore\n      0x20\n      add\n      swap1\n      dup2\n      mstore\n      0x20\n      add\n      0x00\n      keccak256\n      sload\n        /* \"@openzeppelin/contracts/token/ERC20/ERC20.sol\":3512:3537  return _balances[account] */\n      swap1\n      pop\n        /* \"@openzeppelin/contracts/token/ERC20/ERC20.sol\":3419:3544  function balanceOf(address account) public view virtual override returns (uint256) {... */\n      swap2\n      swap1\n      pop\n      jump\t// out\n        /* \"contracts/Exchange.sol\":9933:11078  function getAmountOfTokens(... */\n    tag_88:\n        /* \"contracts/Exchange.sol\":10071:10078  uint256 */\n      0x00\n        /* \"contracts/Exchange.sol\":10187:10188  0 */\n      dup1\n        /* \"contracts/Exchange.sol\":10172:10184  inputReserve */\n      dup4\n        /* \"contracts/Exchange.sol\":10172:10188  inputReserve < 0 */\n      lt\n        /* \"contracts/Exchange.sol\":10172:10209  inputReserve < 0 || outputReserve < 0 */\n      dup1\n      tag_216\n      jumpi\n      pop\n        /* \"contracts/Exchange.sol\":10208:10209  0 */\n      0x00\n        /* \"contracts/Exchange.sol\":10192:10205  outputReserve */\n      dup3\n        /* \"contracts/Exchange.sol\":10192:10209  outputReserve < 0 */\n      lt\n        /* \"contracts/Exchange.sol\":10172:10209  inputReserve < 0 || outputReserve < 0 */\n    tag_216:\n        /* \"contracts/Exchange.sol\":10169:10269  if(inputReserve < 0 || outputReserve < 0) {... */\n      iszero\n      tag_217\n      jumpi\n        /* \"contracts/Exchange.sol\":10233:10257  InvalidReserveQuantity() */\n      mload(0x40)\n      0xe11dbcc200000000000000000000000000000000000000000000000000000000\n      dup2\n      mstore\n      0x04\n      add\n      mload(0x40)\n      dup1\n      swap2\n      sub\n      swap1\n      revert\n        /* \"contracts/Exchange.sol\":10169:10269  if(inputReserve < 0 || outputReserve < 0) {... */\n    tag_217:\n        /* \"contracts/Exchange.sol\":10423:10449  uint256 inputAmountWithFee */\n      0x00\n        /* \"contracts/Exchange.sol\":10469:10472  100 */\n      0x64\n        /* \"contracts/Exchange.sol\":10465:10467  99 */\n      0x63\n        /* \"contracts/Exchange.sol\":10453:10464  inputAmount */\n      dup7\n        /* \"contracts/Exchange.sol\":10453:10467  inputAmount*99 */\n      tag_218\n      swap2\n      swap1\n      tag_196\n      jump\t// in\n    tag_218:\n        /* \"contracts/Exchange.sol\":10452:10472  (inputAmount*99)/100 */\n      tag_219\n      swap2\n      swap1\n      tag_194\n      jump\t// in\n    tag_219:\n        /* \"contracts/Exchange.sol\":10423:10472  uint256 inputAmountWithFee = (inputAmount*99)/100 */\n      swap1\n      pop\n        /* \"contracts/Exchange.sol\":10907:10924  uint256 numerator */\n      0x00\n        /* \"contracts/Exchange.sol\":10943:10961  inputAmountWithFee */\n      dup2\n        /* \"contracts/Exchange.sol\":10927:10940  outputReserve */\n      dup5\n        /* \"contracts/Exchange.sol\":10927:10961  outputReserve * inputAmountWithFee */\n      tag_220\n      swap2\n      swap1\n      tag_196\n      jump\t// in\n    tag_220:\n        /* \"contracts/Exchange.sol\":10907:10961  uint256 numerator = outputReserve * inputAmountWithFee */\n      swap1\n      pop\n        /* \"contracts/Exchange.sol\":10972:10991  uint256 denominator */\n      0x00\n        /* \"contracts/Exchange.sol\":11009:11027  inputAmountWithFee */\n      dup3\n        /* \"contracts/Exchange.sol\":10994:11006  inputReserve */\n      dup7\n        /* \"contracts/Exchange.sol\":10994:11027  inputReserve + inputAmountWithFee */\n      tag_221\n      swap2\n      swap1\n      tag_175\n      jump\t// in\n    tag_221:\n        /* \"contracts/Exchange.sol\":10972:11027  uint256 denominator = inputReserve + inputAmountWithFee */\n      swap1\n      pop\n        /* \"contracts/Exchange.sol\":11059:11070  denominator */\n      dup1\n        /* \"contracts/Exchange.sol\":11047:11056  numerator */\n      dup3\n        /* \"contracts/Exchange.sol\":11047:11070  numerator / denominator */\n      tag_222\n      swap2\n      swap1\n      tag_194\n      jump\t// in\n    tag_222:\n        /* \"contracts/Exchange.sol\":11040:11070  return numerator / denominator */\n      swap4\n      pop\n      pop\n      pop\n      pop\n        /* \"contracts/Exchange.sol\":9933:11078  function getAmountOfTokens(... */\n      swap4\n      swap3\n      pop\n      pop\n      pop\n      jump\t// out\n        /* \"@openzeppelin/contracts/token/ERC20/ERC20.sol\":2369:2471  function symbol() public view virtual override returns (string memory) {... */\n    tag_92:\n        /* \"@openzeppelin/contracts/token/ERC20/ERC20.sol\":2425:2438  string memory */\n      0x60\n        /* \"@openzeppelin/contracts/token/ERC20/ERC20.sol\":2457:2464  _symbol */\n      0x04\n        /* \"@openzeppelin/contracts/token/ERC20/ERC20.sol\":2450:2464  return _symbol */\n      dup1\n      sload\n      tag_224\n      swap1\n      tag_142\n      jump\t// in\n    tag_224:\n      dup1\n      0x1f\n      add\n      0x20\n      dup1\n      swap2\n      div\n      mul\n      0x20\n      add\n      mload(0x40)\n      swap1\n      dup2\n      add\n      0x40\n      mstore\n      dup1\n      swap3\n      swap2\n      swap1\n      dup2\n      dup2\n      mstore\n      0x20\n      add\n      dup3\n      dup1\n      sload\n      tag_225\n      swap1\n      tag_142\n      jump\t// in\n    tag_225:\n      dup1\n      iszero\n      tag_226\n      jumpi\n      dup1\n      0x1f\n      lt\n      tag_227\n      jumpi\n      0x0100\n      dup1\n      dup4\n      sload\n      div\n      mul\n      dup4\n      mstore\n      swap2\n      0x20\n      add\n      swap2\n      jump(tag_226)\n    tag_227:\n      dup3\n      add\n      swap2\n      swap1\n      0x00\n      mstore\n      keccak256(0x00, 0x20)\n      swap1\n    tag_228:\n      dup2\n      sload\n      dup2\n      mstore\n      swap1\n      0x01\n      add\n      swap1\n      0x20\n      add\n      dup1\n      dup4\n      gt\n      tag_228\n      jumpi\n      dup3\n      swap1\n      sub\n      0x1f\n      and\n      dup3\n      add\n      swap2\n    tag_226:\n      pop\n      pop\n      pop\n      pop\n      pop\n      swap1\n      pop\n        /* \"@openzeppelin/contracts/token/ERC20/ERC20.sol\":2369:2471  function symbol() public view virtual override returns (string memory) {... */\n      swap1\n      jump\t// out\n        /* \"contracts/Exchange.sol\":6963:9796  function removeLiquidity(uint _amount) public returns (uint , uint) {... */\n    tag_97:\n        /* \"contracts/Exchange.sol\":7018:7022  uint */\n      0x00\n        /* \"contracts/Exchange.sol\":7025:7029  uint */\n      dup1\n        /* \"contracts/Exchange.sol\":7120:7121  0 */\n      0x00\n        /* \"contracts/Exchange.sol\":7110:7117  _amount */\n      dup4\n        /* \"contracts/Exchange.sol\":7110:7121  _amount <=0 */\n      gt\n        /* \"contracts/Exchange.sol\":7107:7180  if(_amount <=0) {... */\n      tag_230\n      jumpi\n        /* \"contracts/Exchange.sol\":7141:7172  InputAmountNotGreaterThanZero() */\n      mload(0x40)\n      0xd039524300000000000000000000000000000000000000000000000000000000\n      dup2\n      mstore\n      0x04\n      add\n      mload(0x40)\n      dup1\n      swap2\n      sub\n      swap1\n      revert\n        /* \"contracts/Exchange.sol\":7107:7180  if(_amount <=0) {... */\n    tag_230:\n        /* \"contracts/Exchange.sol\":7188:7203  uint ethReserve */\n      0x00\n        /* \"contracts/Exchange.sol\":7206:7227  address(this).balance */\n      selfbalance\n        /* \"contracts/Exchange.sol\":7188:7227  uint ethReserve = address(this).balance */\n      swap1\n      pop\n        /* \"contracts/Exchange.sol\":7264:7281  uint _totalSupply */\n      0x00\n        /* \"contracts/Exchange.sol\":7284:7297  totalSupply() */\n      tag_231\n        /* \"contracts/Exchange.sol\":7284:7295  totalSupply */\n      tag_42\n        /* \"contracts/Exchange.sol\":7284:7297  totalSupply() */\n      jump\t// in\n    tag_231:\n        /* \"contracts/Exchange.sol\":7264:7297  uint _totalSupply = totalSupply() */\n      swap1\n      pop\n        /* \"contracts/Exchange.sol\":7771:7785  uint ethAmount */\n      0x00\n        /* \"contracts/Exchange.sol\":7812:7824  _totalSupply */\n      dup2\n        /* \"contracts/Exchange.sol\":7802:7809  _amount */\n      dup7\n        /* \"contracts/Exchange.sol\":7789:7799  ethReserve */\n      dup5\n        /* \"contracts/Exchange.sol\":7789:7809  ethReserve * _amount */\n      tag_232\n      swap2\n      swap1\n      tag_196\n      jump\t// in\n    tag_232:\n        /* \"contracts/Exchange.sol\":7788:7824  (ethReserve * _amount)/ _totalSupply */\n      tag_233\n      swap2\n      swap1\n      tag_194\n      jump\t// in\n    tag_233:\n        /* \"contracts/Exchange.sol\":7771:7824  uint ethAmount = (ethReserve * _amount)/ _totalSupply */\n      swap1\n      pop\n        /* \"contracts/Exchange.sol\":8334:8355  uint TGOLDTokenAmount */\n      0x00\n        /* \"contracts/Exchange.sol\":8384:8396  _totalSupply */\n      dup3\n        /* \"contracts/Exchange.sol\":8374:8381  _amount */\n      dup8\n        /* \"contracts/Exchange.sol\":8359:8371  getReserve() */\n      tag_234\n        /* \"contracts/Exchange.sol\":8359:8369  getReserve */\n      tag_76\n        /* \"contracts/Exchange.sol\":8359:8371  getReserve() */\n      jump\t// in\n    tag_234:\n        /* \"contracts/Exchange.sol\":8359:8381  getReserve() * _amount */\n      tag_235\n      swap2\n      swap1\n      tag_196\n      jump\t// in\n    tag_235:\n        /* \"contracts/Exchange.sol\":8358:8396  (getReserve() * _amount)/ _totalSupply */\n      tag_236\n      swap2\n      swap1\n      tag_194\n      jump\t// in\n    tag_236:\n        /* \"contracts/Exchange.sol\":8334:8396  uint TGOLDTokenAmount = (getReserve() * _amount)/ _totalSupply */\n      swap1\n      pop\n        /* \"contracts/Exchange.sol\":8742:8770  _burn(_msgSender(), _amount) */\n      tag_237\n        /* \"contracts/Exchange.sol\":8748:8760  _msgSender() */\n      tag_238\n        /* \"contracts/Exchange.sol\":8748:8758  _msgSender */\n      tag_127\n        /* \"contracts/Exchange.sol\":8748:8760  _msgSender() */\n      jump\t// in\n    tag_238:\n        /* \"contracts/Exchange.sol\":8762:8769  _amount */\n      dup9\n        /* \"contracts/Exchange.sol\":8742:8747  _burn */\n      tag_239\n        /* \"contracts/Exchange.sol\":8742:8770  _burn(_msgSender(), _amount) */\n      jump\t// in\n    tag_237:\n        /* \"contracts/Exchange.sol\":9050:9062  bool success */\n      0x00\n        /* \"contracts/Exchange.sol\":9068:9080  _msgSender() */\n      tag_240\n        /* \"contracts/Exchange.sol\":9068:9078  _msgSender */\n      tag_127\n        /* \"contracts/Exchange.sol\":9068:9080  _msgSender() */\n      jump\t// in\n    tag_240:\n        /* \"contracts/Exchange.sol\":9068:9085  _msgSender().call */\n      0xffffffffffffffffffffffffffffffffffffffff\n      and\n        /* \"contracts/Exchange.sol\":9093:9102  ethAmount */\n      dup4\n        /* \"contracts/Exchange.sol\":9068:9107  _msgSender().call{value: ethAmount}(\"\") */\n      mload(0x40)\n      tag_241\n      swap1\n      tag_135\n      jump\t// in\n    tag_241:\n      0x00\n      mload(0x40)\n      dup1\n      dup4\n      sub\n      dup2\n      dup6\n      dup8\n      gas\n      call\n      swap3\n      pop\n      pop\n      pop\n      returndatasize\n      dup1\n      0x00\n      dup2\n      eq\n      tag_244\n      jumpi\n      mload(0x40)\n      swap2\n      pop\n      and(add(returndatasize, 0x3f), not(0x1f))\n      dup3\n      add\n      0x40\n      mstore\n      returndatasize\n      dup3\n      mstore\n      returndatasize\n      0x00\n      0x20\n      dup5\n      add\n      returndatacopy\n      jump(tag_243)\n    tag_244:\n      0x60\n      swap2\n      pop\n    tag_243:\n      pop\n        /* \"contracts/Exchange.sol\":9049:9107  (bool success, ) = _msgSender().call{value: ethAmount}(\"\") */\n      pop\n      swap1\n      pop\n        /* \"contracts/Exchange.sol\":9182:9189  success */\n      dup1\n        /* \"contracts/Exchange.sol\":9177:9229  if (!success) {... */\n      tag_245\n      jumpi\n        /* \"contracts/Exchange.sol\":9209:9221  SendFailed() */\n      mload(0x40)\n      0x81063e5100000000000000000000000000000000000000000000000000000000\n      dup2\n      mstore\n      0x04\n      add\n      mload(0x40)\n      dup1\n      swap2\n      sub\n      swap1\n      revert\n        /* \"contracts/Exchange.sol\":9177:9229  if (!success) {... */\n    tag_245:\n        /* \"contracts/Exchange.sol\":9649:9666  TGOLDTokenAddress */\n      0x05\n      0x00\n      swap1\n      sload\n      swap1\n      0x0100\n      exp\n      swap1\n      div\n      0xffffffffffffffffffffffffffffffffffffffff\n      and\n        /* \"contracts/Exchange.sol\":9643:9676  ERC20(TGOLDTokenAddress).transfer */\n      0xffffffffffffffffffffffffffffffffffffffff\n      and\n      0xa9059cbb\n        /* \"contracts/Exchange.sol\":9677:9689  _msgSender() */\n      tag_246\n        /* \"contracts/Exchange.sol\":9677:9687  _msgSender */\n      tag_127\n        /* \"contracts/Exchange.sol\":9677:9689  _msgSender() */\n      jump\t// in\n    tag_246:\n        /* \"contracts/Exchange.sol\":9691:9707  TGOLDTokenAmount */\n      dup5\n        /* \"contracts/Exchange.sol\":9643:9708  ERC20(TGOLDTokenAddress).transfer(_msgSender(), TGOLDTokenAmount) */\n      mload(0x40)\n      dup4\n      0xffffffff\n      and\n      0xe0\n      shl\n      dup2\n      mstore\n      0x04\n      add\n      tag_247\n      swap3\n      swap2\n      swap1\n      tag_121\n      jump\t// in\n    tag_247:\n      0x20\n      mload(0x40)\n      dup1\n      dup4\n      sub\n      dup2\n      0x00\n      dup8\n      gas\n      call\n      iszero\n      dup1\n      iszero\n      tag_249\n      jumpi\n      returndatasize\n      0x00\n      dup1\n      returndatacopy\n      revert(0x00, returndatasize)\n    tag_249:\n      pop\n      pop\n      pop\n      pop\n      mload(0x40)\n      returndatasize\n      not(0x1f)\n      0x1f\n      dup3\n      add\n      and\n      dup3\n      add\n      dup1\n      0x40\n      mstore\n      pop\n      dup2\n      add\n      swap1\n      tag_250\n      swap2\n      swap1\n      tag_125\n      jump\t// in\n    tag_250:\n      pop\n        /* \"contracts/Exchange.sol\":9760:9769  ethAmount */\n      dup3\n        /* \"contracts/Exchange.sol\":9771:9787  TGOLDTokenAmount */\n      dup3\n        /* \"contracts/Exchange.sol\":9752:9788  return (ethAmount, TGOLDTokenAmount) */\n      swap7\n      pop\n      swap7\n      pop\n      pop\n      pop\n      pop\n      pop\n      pop\n        /* \"contracts/Exchange.sol\":6963:9796  function removeLiquidity(uint _amount) public returns (uint , uint) {... */\n      swap2\n      pop\n      swap2\n      jump\t// out\n        /* \"@openzeppelin/contracts/token/ERC20/ERC20.sol\":6575:7002  function decreaseAllowance(address spender, uint256 subtractedValue) public virtual returns (bool) {... */\n    tag_103:\n        /* \"@openzeppelin/contracts/token/ERC20/ERC20.sol\":6668:6672  bool */\n      0x00\n        /* \"@openzeppelin/contracts/token/ERC20/ERC20.sol\":6684:6697  address owner */\n      dup1\n        /* \"@openzeppelin/contracts/token/ERC20/ERC20.sol\":6700:6712  _msgSender() */\n      tag_252\n        /* \"@openzeppelin/contracts/token/ERC20/ERC20.sol\":6700:6710  _msgSender */\n      tag_127\n        /* \"@openzeppelin/contracts/token/ERC20/ERC20.sol\":6700:6712  _msgSender() */\n      jump\t// in\n    tag_252:\n        /* \"@openzeppelin/contracts/token/ERC20/ERC20.sol\":6684:6712  address owner = _msgSender() */\n      swap1\n      pop\n        /* \"@openzeppelin/contracts/token/ERC20/ERC20.sol\":6722:6746  uint256 currentAllowance */\n      0x00\n        /* \"@openzeppelin/contracts/token/ERC20/ERC20.sol\":6749:6774  allowance(owner, spender) */\n      tag_253\n        /* \"@openzeppelin/contracts/token/ERC20/ERC20.sol\":6759:6764  owner */\n      dup3\n        /* \"@openzeppelin/contracts/token/ERC20/ERC20.sol\":6766:6773  spender */\n      dup7\n        /* \"@openzeppelin/contracts/token/ERC20/ERC20.sol\":6749:6758  allowance */\n      tag_114\n        /* \"@openzeppelin/contracts/token/ERC20/ERC20.sol\":6749:6774  allowance(owner, spender) */\n      jump\t// in\n    tag_253:\n        /* \"@openzeppelin/contracts/token/ERC20/ERC20.sol\":6722:6774  uint256 currentAllowance = allowance(owner, spender) */\n      swap1\n      pop\n        /* \"@openzeppelin/contracts/token/ERC20/ERC20.sol\":6812:6827  subtractedValue */\n      dup4\n        /* \"@openzeppelin/contracts/token/ERC20/ERC20.sol\":6792:6808  currentAllowance */\n      dup2\n        /* \"@openzeppelin/contracts/token/ERC20/ERC20.sol\":6792:6827  currentAllowance >= subtractedValue */\n      lt\n      iszero\n        /* \"@openzeppelin/contracts/token/ERC20/ERC20.sol\":6784:6869  require(currentAllowance >= subtractedValue, \"ERC20: decreased allowance below zero\") */\n      tag_254\n      jumpi\n      mload(0x40)\n      0x08c379a000000000000000000000000000000000000000000000000000000000\n      dup2\n      mstore\n      0x04\n      add\n      tag_255\n      swap1\n      tag_256\n      jump\t// in\n    tag_255:\n      mload(0x40)\n      dup1\n      swap2\n      sub\n      swap1\n      revert\n    tag_254:\n        /* \"@openzeppelin/contracts/token/ERC20/ERC20.sol\":6903:6963  _approve(owner, spender, currentAllowance - subtractedValue) */\n      tag_257\n        /* \"@openzeppelin/contracts/token/ERC20/ERC20.sol\":6912:6917  owner */\n      dup3\n        /* \"@openzeppelin/contracts/token/ERC20/ERC20.sol\":6919:6926  spender */\n      dup7\n        /* \"@openzeppelin/contracts/token/ERC20/ERC20.sol\":6947:6962  subtractedValue */\n      dup7\n        /* \"@openzeppelin/contracts/token/ERC20/ERC20.sol\":6928:6944  currentAllowance */\n      dup5\n        /* \"@openzeppelin/contracts/token/ERC20/ERC20.sol\":6928:6962  currentAllowance - subtractedValue */\n      sub\n        /* \"@openzeppelin/contracts/token/ERC20/ERC20.sol\":6903:6911  _approve */\n      tag_150\n        /* \"@openzeppelin/contracts/token/ERC20/ERC20.sol\":6903:6963  _approve(owner, spender, currentAllowance - subtractedValue) */\n      jump\t// in\n    tag_257:\n        /* \"@openzeppelin/contracts/token/ERC20/ERC20.sol\":6991:6995  true */\n      0x01\n        /* \"@openzeppelin/contracts/token/ERC20/ERC20.sol\":6984:6995  return true */\n      swap3\n      pop\n      pop\n      pop\n        /* \"@openzeppelin/contracts/token/ERC20/ERC20.sol\":6575:7002  function decreaseAllowance(address spender, uint256 subtractedValue) public virtual returns (bool) {... */\n      swap3\n      swap2\n      pop\n      pop\n      jump\t// out\n        /* \"@openzeppelin/contracts/token/ERC20/ERC20.sol\":3740:3929  function transfer(address to, uint256 amount) public virtual override returns (bool) {... */\n    tag_108:\n        /* \"@openzeppelin/contracts/token/ERC20/ERC20.sol\":3819:3823  bool */\n      0x00\n        /* \"@openzeppelin/contracts/token/ERC20/ERC20.sol\":3835:3848  address owner */\n      dup1\n        /* \"@openzeppelin/contracts/token/ERC20/ERC20.sol\":3851:3863  _msgSender() */\n      tag_259\n        /* \"@openzeppelin/contracts/token/ERC20/ERC20.sol\":3851:3861  _msgSender */\n      tag_127\n        /* \"@openzeppelin/contracts/token/ERC20/ERC20.sol\":3851:3863  _msgSender() */\n      jump\t// in\n    tag_259:\n        /* \"@openzeppelin/contracts/token/ERC20/ERC20.sol\":3835:3863  address owner = _msgSender() */\n      swap1\n      pop\n        /* \"@openzeppelin/contracts/token/ERC20/ERC20.sol\":3873:3901  _transfer(owner, to, amount) */\n      tag_260\n        /* \"@openzeppelin/contracts/token/ERC20/ERC20.sol\":3883:3888  owner */\n      dup2\n        /* \"@openzeppelin/contracts/token/ERC20/ERC20.sol\":3890:3892  to */\n      dup6\n        /* \"@openzeppelin/contracts/token/ERC20/ERC20.sol\":3894:3900  amount */\n      dup6\n        /* \"@openzeppelin/contracts/token/ERC20/ERC20.sol\":3873:3882  _transfer */\n      tag_168\n        /* \"@openzeppelin/contracts/token/ERC20/ERC20.sol\":3873:3901  _transfer(owner, to, amount) */\n      jump\t// in\n    tag_260:\n        /* \"@openzeppelin/contracts/token/ERC20/ERC20.sol\":3918:3922  true */\n      0x01\n        /* \"@openzeppelin/contracts/token/ERC20/ERC20.sol\":3911:3922  return true */\n      swap2\n      pop\n      pop\n        /* \"@openzeppelin/contracts/token/ERC20/ERC20.sol\":3740:3929  function transfer(address to, uint256 amount) public virtual override returns (bool) {... */\n      swap3\n      swap2\n      pop\n      pop\n      jump\t// out\n        /* \"@openzeppelin/contracts/token/ERC20/ERC20.sol\":3987:4136  function allowance(address owner, address spender) public view virtual override returns (uint256) {... */\n    tag_114:\n        /* \"@openzeppelin/contracts/token/ERC20/ERC20.sol\":4076:4083  uint256 */\n      0x00\n        /* \"@openzeppelin/contracts/token/ERC20/ERC20.sol\":4102:4113  _allowances */\n      0x01\n        /* \"@openzeppelin/contracts/token/ERC20/ERC20.sol\":4102:4120  _allowances[owner] */\n      0x00\n        /* \"@openzeppelin/contracts/token/ERC20/ERC20.sol\":4114:4119  owner */\n      dup5\n        /* \"@openzeppelin/contracts/token/ERC20/ERC20.sol\":4102:4120  _allowances[owner] */\n      0xffffffffffffffffffffffffffffffffffffffff\n      and\n      0xffffffffffffffffffffffffffffffffffffffff\n      and\n      dup2\n      mstore\n      0x20\n      add\n      swap1\n      dup2\n      mstore\n      0x20\n      add\n      0x00\n      keccak256\n        /* \"@openzeppelin/contracts/token/ERC20/ERC20.sol\":4102:4129  _allowances[owner][spender] */\n      0x00\n        /* \"@openzeppelin/contracts/token/ERC20/ERC20.sol\":4121:4128  spender */\n      dup4\n        /* \"@openzeppelin/contracts/token/ERC20/ERC20.sol\":4102:4129  _allowances[owner][spender] */\n      0xffffffffffffffffffffffffffffffffffffffff\n      and\n      0xffffffffffffffffffffffffffffffffffffffff\n      and\n      dup2\n      mstore\n      0x20\n      add\n      swap1\n      dup2\n      mstore\n      0x20\n      add\n      0x00\n      keccak256\n      sload\n        /* \"@openzeppelin/contracts/token/ERC20/ERC20.sol\":4095:4129  return _allowances[owner][spender] */\n      swap1\n      pop\n        /* \"@openzeppelin/contracts/token/ERC20/ERC20.sol\":3987:4136  function allowance(address owner, address spender) public view virtual override returns (uint256) {... */\n      swap3\n      swap2\n      pop\n      pop\n      jump\t// out\n        /* \"@openzeppelin/contracts/utils/Context.sol\":640:736  function _msgSender() internal view virtual returns (address) {... */\n    tag_127:\n        /* \"@openzeppelin/contracts/utils/Context.sol\":693:700  address */\n      0x00\n        /* \"@openzeppelin/contracts/utils/Context.sol\":719:729  msg.sender */\n      caller\n        /* \"@openzeppelin/contracts/utils/Context.sol\":712:729  return msg.sender */\n      swap1\n      pop\n        /* \"@openzeppelin/contracts/utils/Context.sol\":640:736  function _msgSender() internal view virtual returns (address) {... */\n      swap1\n      jump\t// out\n        /* \"@openzeppelin/contracts/token/ERC20/ERC20.sol\":10457:10797  function _approve(address owner, address spender, uint256 amount) internal virtual {... */\n    tag_150:\n        /* \"@openzeppelin/contracts/token/ERC20/ERC20.sol\":10575:10576  0 */\n      0x00\n        /* \"@openzeppelin/contracts/token/ERC20/ERC20.sol\":10558:10577  owner != address(0) */\n      0xffffffffffffffffffffffffffffffffffffffff\n      and\n        /* \"@openzeppelin/contracts/token/ERC20/ERC20.sol\":10558:10563  owner */\n      dup4\n        /* \"@openzeppelin/contracts/token/ERC20/ERC20.sol\":10558:10577  owner != address(0) */\n      0xffffffffffffffffffffffffffffffffffffffff\n      and\n      sub\n        /* \"@openzeppelin/contracts/token/ERC20/ERC20.sol\":10550:10618  require(owner != address(0), \"ERC20: approve from the zero address\") */\n      tag_264\n      jumpi\n      mload(0x40)\n      0x08c379a000000000000000000000000000000000000000000000000000000000\n      dup2\n      mstore\n      0x04\n      add\n      tag_265\n      swap1\n      tag_266\n      jump\t// in\n    tag_265:\n      mload(0x40)\n      dup1\n      swap2\n      sub\n      swap1\n      revert\n    tag_264:\n        /* \"@openzeppelin/contracts/token/ERC20/ERC20.sol\":10655:10656  0 */\n      0x00\n        /* \"@openzeppelin/contracts/token/ERC20/ERC20.sol\":10636:10657  spender != address(0) */\n      0xffffffffffffffffffffffffffffffffffffffff\n      and\n        /* \"@openzeppelin/contracts/token/ERC20/ERC20.sol\":10636:10643  spender */\n      dup3\n        /* \"@openzeppelin/contracts/token/ERC20/ERC20.sol\":10636:10657  spender != address(0) */\n      0xffffffffffffffffffffffffffffffffffffffff\n      and\n      sub\n        /* \"@openzeppelin/contracts/token/ERC20/ERC20.sol\":10628:10696  require(spender != address(0), \"ERC20: approve to the zero address\") */\n      tag_267\n      jumpi\n      mload(0x40)\n      0x08c379a000000000000000000000000000000000000000000000000000000000\n      dup2\n      mstore\n      0x04\n      add\n      tag_268\n      swap1\n      tag_269\n      jump\t// in\n    tag_268:\n      mload(0x40)\n      dup1\n      swap2\n      sub\n      swap1\n      revert\n    tag_267:\n        /* \"@openzeppelin/contracts/token/ERC20/ERC20.sol\":10737:10743  amount */\n      dup1\n        /* \"@openzeppelin/contracts/token/ERC20/ERC20.sol\":10707:10718  _allowances */\n      0x01\n        /* \"@openzeppelin/contracts/token/ERC20/ERC20.sol\":10707:10725  _allowances[owner] */\n      0x00\n        /* \"@openzeppelin/contracts/token/ERC20/ERC20.sol\":10719:10724  owner */\n      dup6\n        /* \"@openzeppelin/contracts/token/ERC20/ERC20.sol\":10707:10725  _allowances[owner] */\n      0xffffffffffffffffffffffffffffffffffffffff\n      and\n      0xffffffffffffffffffffffffffffffffffffffff\n      and\n      dup2\n      mstore\n      0x20\n      add\n      swap1\n      dup2\n      mstore\n      0x20\n      add\n      0x00\n      keccak256\n        /* \"@openzeppelin/contracts/token/ERC20/ERC20.sol\":10707:10734  _allowances[owner][spender] */\n      0x00\n        /* \"@openzeppelin/contracts/token/ERC20/ERC20.sol\":10726:10733  spender */\n      dup5\n        /* \"@openzeppelin/contracts/token/ERC20/ERC20.sol\":10707:10734  _allowances[owner][spender] */\n      0xffffffffffffffffffffffffffffffffffffffff\n      and\n      0xffffffffffffffffffffffffffffffffffffffff\n      and\n      dup2\n      mstore\n      0x20\n      add\n      swap1\n      dup2\n      mstore\n      0x20\n      add\n      0x00\n      keccak256\n        /* \"@openzeppelin/contracts/token/ERC20/ERC20.sol\":10707:10743  _allowances[owner][spender] = amount */\n      dup2\n      swap1\n      sstore\n      pop\n        /* \"@openzeppelin/contracts/token/ERC20/ERC20.sol\":10774:10781  spender */\n      dup2\n        /* \"@openzeppelin/contracts/token/ERC20/ERC20.sol\":10758:10790  Approval(owner, spender, amount) */\n      0xffffffffffffffffffffffffffffffffffffffff\n      and\n        /* \"@openzeppelin/contracts/token/ERC20/ERC20.sol\":10767:10772  owner */\n      dup4\n        /* \"@openzeppelin/contracts/token/ERC20/ERC20.sol\":10758:10790  Approval(owner, spender, amount) */\n      0xffffffffffffffffffffffffffffffffffffffff\n      and\n      0x8c5be1e5ebec7d5bd14f71427d1e84f3dd0314c0f7b2291e5b200ac8c7c3b925\n        /* \"@openzeppelin/contracts/token/ERC20/ERC20.sol\":10783:10789  amount */\n      dup4\n        /* \"@openzeppelin/contracts/token/ERC20/ERC20.sol\":10758:10790  Approval(owner, spender, amount) */\n      mload(0x40)\n      tag_270\n      swap2\n      swap1\n      tag_44\n      jump\t// in\n    tag_270:\n      mload(0x40)\n      dup1\n      swap2\n      sub\n      swap1\n      log3\n        /* \"@openzeppelin/contracts/token/ERC20/ERC20.sol\":10457:10797  function _approve(address owner, address spender, uint256 amount) internal virtual {... */\n      pop\n      pop\n      pop\n      jump\t// out\n        /* \"@openzeppelin/contracts/token/ERC20/ERC20.sol\":11078:11489  function _spendAllowance(address owner, address spender, uint256 amount) internal virtual {... */\n    tag_166:\n        /* \"@openzeppelin/contracts/token/ERC20/ERC20.sol\":11178:11202  uint256 currentAllowance */\n      0x00\n        /* \"@openzeppelin/contracts/token/ERC20/ERC20.sol\":11205:11230  allowance(owner, spender) */\n      tag_272\n        /* \"@openzeppelin/contracts/token/ERC20/ERC20.sol\":11215:11220  owner */\n      dup5\n        /* \"@openzeppelin/contracts/token/ERC20/ERC20.sol\":11222:11229  spender */\n      dup5\n        /* \"@openzeppelin/contracts/token/ERC20/ERC20.sol\":11205:11214  allowance */\n      tag_114\n        /* \"@openzeppelin/contracts/token/ERC20/ERC20.sol\":11205:11230  allowance(owner, spender) */\n      jump\t// in\n    tag_272:\n        /* \"@openzeppelin/contracts/token/ERC20/ERC20.sol\":11178:11230  uint256 currentAllowance = allowance(owner, spender) */\n      swap1\n      pop\n        /* \"@openzeppelin/contracts/token/ERC20/ERC20.sol\":11264:11281  type(uint256).max */\n      0xffffffffffffffffffffffffffffffffffffffffffffffffffffffffffffffff\n        /* \"@openzeppelin/contracts/token/ERC20/ERC20.sol\":11244:11260  currentAllowance */\n      dup2\n        /* \"@openzeppelin/contracts/token/ERC20/ERC20.sol\":11244:11281  currentAllowance != type(uint256).max */\n      eq\n        /* \"@openzeppelin/contracts/token/ERC20/ERC20.sol\":11240:11483  if (currentAllowance != type(uint256).max) {... */\n      tag_273\n      jumpi\n        /* \"@openzeppelin/contracts/token/ERC20/ERC20.sol\":11325:11331  amount */\n      dup2\n        /* \"@openzeppelin/contracts/token/ERC20/ERC20.sol\":11305:11321  currentAllowance */\n      dup2\n        /* \"@openzeppelin/contracts/token/ERC20/ERC20.sol\":11305:11331  currentAllowance >= amount */\n      lt\n      iszero\n        /* \"@openzeppelin/contracts/token/ERC20/ERC20.sol\":11297:11365  require(currentAllowance >= amount, \"ERC20: insufficient allowance\") */\n      tag_274\n      jumpi\n      mload(0x40)\n      0x08c379a000000000000000000000000000000000000000000000000000000000\n      dup2\n      mstore\n      0x04\n      add\n      tag_275\n      swap1\n      tag_276\n      jump\t// in\n    tag_275:\n      mload(0x40)\n      dup1\n      swap2\n      sub\n      swap1\n      revert\n    tag_274:\n        /* \"@openzeppelin/contracts/token/ERC20/ERC20.sol\":11407:11458  _approve(owner, spender, currentAllowance - amount) */\n      tag_277\n        /* \"@openzeppelin/contracts/token/ERC20/ERC20.sol\":11416:11421  owner */\n      dup5\n        /* \"@openzeppelin/contracts/token/ERC20/ERC20.sol\":11423:11430  spender */\n      dup5\n        /* \"@openzeppelin/contracts/token/ERC20/ERC20.sol\":11451:11457  amount */\n      dup5\n        /* \"@openzeppelin/contracts/token/ERC20/ERC20.sol\":11432:11448  currentAllowance */\n      dup5\n        /* \"@openzeppelin/contracts/token/ERC20/ERC20.sol\":11432:11457  currentAllowance - amount */\n      sub\n        /* \"@openzeppelin/contracts/token/ERC20/ERC20.sol\":11407:11415  _approve */\n      tag_150\n        /* \"@openzeppelin/contracts/token/ERC20/ERC20.sol\":11407:11458  _approve(owner, spender, currentAllowance - amount) */\n      jump\t// in\n    tag_277:\n        /* \"@openzeppelin/contracts/token/ERC20/ERC20.sol\":11240:11483  if (currentAllowance != type(uint256).max) {... */\n    tag_273:\n        /* \"@openzeppelin/contracts/token/ERC20/ERC20.sol\":11168:11489  {... */\n      pop\n        /* \"@openzeppelin/contracts/token/ERC20/ERC20.sol\":11078:11489  function _spendAllowance(address owner, address spender, uint256 amount) internal virtual {... */\n      pop\n      pop\n      pop\n      jump\t// out\n        /* \"@openzeppelin/contracts/token/ERC20/ERC20.sol\":7456:8244  function _transfer(address from, address to, uint256 amount) internal virtual {... */\n    tag_168:\n        /* \"@openzeppelin/contracts/token/ERC20/ERC20.sol\":7568:7569  0 */\n      0x00\n        /* \"@openzeppelin/contracts/token/ERC20/ERC20.sol\":7552:7570  from != address(0) */\n      0xffffffffffffffffffffffffffffffffffffffff\n      and\n        /* \"@openzeppelin/contracts/token/ERC20/ERC20.sol\":7552:7556  from */\n      dup4\n        /* \"@openzeppelin/contracts/token/ERC20/ERC20.sol\":7552:7570  from != address(0) */\n      0xffffffffffffffffffffffffffffffffffffffff\n      and\n      sub\n        /* \"@openzeppelin/contracts/token/ERC20/ERC20.sol\":7544:7612  require(from != address(0), \"ERC20: transfer from the zero address\") */\n      tag_279\n      jumpi\n      mload(0x40)\n      0x08c379a000000000000000000000000000000000000000000000000000000000\n      dup2\n      mstore\n      0x04\n      add\n      tag_280\n      swap1\n      tag_281\n      jump\t// in\n    tag_280:\n      mload(0x40)\n      dup1\n      swap2\n      sub\n      swap1\n      revert\n    tag_279:\n        /* \"@openzeppelin/contracts/token/ERC20/ERC20.sol\":7644:7645  0 */\n      0x00\n        /* \"@openzeppelin/contracts/token/ERC20/ERC20.sol\":7630:7646  to != address(0) */\n      0xffffffffffffffffffffffffffffffffffffffff\n      and\n        /* \"@openzeppelin/contracts/token/ERC20/ERC20.sol\":7630:7632  to */\n      dup3\n        /* \"@openzeppelin/contracts/token/ERC20/ERC20.sol\":7630:7646  to != address(0) */\n      0xffffffffffffffffffffffffffffffffffffffff\n      and\n      sub\n        /* \"@openzeppelin/contracts/token/ERC20/ERC20.sol\":7622:7686  require(to != address(0), \"ERC20: transfer to the zero address\") */\n      tag_282\n      jumpi\n      mload(0x40)\n      0x08c379a000000000000000000000000000000000000000000000000000000000\n      dup2\n      mstore\n      0x04\n      add\n      tag_283\n      swap1\n      tag_284\n      jump\t// in\n    tag_283:\n      mload(0x40)\n      dup1\n      swap2\n      sub\n      swap1\n      revert\n    tag_282:\n        /* \"@openzeppelin/contracts/token/ERC20/ERC20.sol\":7697:7735  _beforeTokenTransfer(from, to, amount) */\n      tag_285\n        /* \"@openzeppelin/contracts/token/ERC20/ERC20.sol\":7718:7722  from */\n      dup4\n        /* \"@openzeppelin/contracts/token/ERC20/ERC20.sol\":7724:7726  to */\n      dup4\n        /* \"@openzeppelin/contracts/token/ERC20/ERC20.sol\":7728:7734  amount */\n      dup4\n        /* \"@openzeppelin/contracts/token/ERC20/ERC20.sol\":7697:7717  _beforeTokenTransfer */\n      tag_286\n        /* \"@openzeppelin/contracts/token/ERC20/ERC20.sol\":7697:7735  _beforeTokenTransfer(from, to, amount) */\n      jump\t// in\n    tag_285:\n        /* \"@openzeppelin/contracts/token/ERC20/ERC20.sol\":7746:7765  uint256 fromBalance */\n      0x00\n        /* \"@openzeppelin/contracts/token/ERC20/ERC20.sol\":7768:7777  _balances */\n      dup1\n        /* \"@openzeppelin/contracts/token/ERC20/ERC20.sol\":7768:7783  _balances[from] */\n      0x00\n        /* \"@openzeppelin/contracts/token/ERC20/ERC20.sol\":7778:7782  from */\n      dup6\n        /* \"@openzeppelin/contracts/token/ERC20/ERC20.sol\":7768:7783  _balances[from] */\n      0xffffffffffffffffffffffffffffffffffffffff\n      and\n      0xffffffffffffffffffffffffffffffffffffffff\n      and\n      dup2\n      mstore\n      0x20\n      add\n      swap1\n      dup2\n      mstore\n      0x20\n      add\n      0x00\n      keccak256\n      sload\n        /* \"@openzeppelin/contracts/token/ERC20/ERC20.sol\":7746:7783  uint256 fromBalance = _balances[from] */\n      swap1\n      pop\n        /* \"@openzeppelin/contracts/token/ERC20/ERC20.sol\":7816:7822  amount */\n      dup2\n        /* \"@openzeppelin/contracts/token/ERC20/ERC20.sol\":7801:7812  fromBalance */\n      dup2\n        /* \"@openzeppelin/contracts/token/ERC20/ERC20.sol\":7801:7822  fromBalance >= amount */\n      lt\n      iszero\n        /* \"@openzeppelin/contracts/token/ERC20/ERC20.sol\":7793:7865  require(fromBalance >= amount, \"ERC20: transfer amount exceeds balance\") */\n      tag_287\n      jumpi\n      mload(0x40)\n      0x08c379a000000000000000000000000000000000000000000000000000000000\n      dup2\n      mstore\n      0x04\n      add\n      tag_288\n      swap1\n      tag_289\n      jump\t// in\n    tag_288:\n      mload(0x40)\n      dup1\n      swap2\n      sub\n      swap1\n      revert\n    tag_287:\n        /* \"@openzeppelin/contracts/token/ERC20/ERC20.sol\":7931:7937  amount */\n      dup2\n        /* \"@openzeppelin/contracts/token/ERC20/ERC20.sol\":7917:7928  fromBalance */\n      dup2\n        /* \"@openzeppelin/contracts/token/ERC20/ERC20.sol\":7917:7937  fromBalance - amount */\n      sub\n        /* \"@openzeppelin/contracts/token/ERC20/ERC20.sol\":7899:7908  _balances */\n      0x00\n        /* \"@openzeppelin/contracts/token/ERC20/ERC20.sol\":7899:7914  _balances[from] */\n      dup1\n        /* \"@openzeppelin/contracts/token/ERC20/ERC20.sol\":7909:7913  from */\n      dup7\n        /* \"@openzeppelin/contracts/token/ERC20/ERC20.sol\":7899:7914  _balances[from] */\n      0xffffffffffffffffffffffffffffffffffffffff\n      and\n      0xffffffffffffffffffffffffffffffffffffffff\n      and\n      dup2\n      mstore\n      0x20\n      add\n      swap1\n      dup2\n      mstore\n      0x20\n      add\n      0x00\n      keccak256\n        /* \"@openzeppelin/contracts/token/ERC20/ERC20.sol\":7899:7937  _balances[from] = fromBalance - amount */\n      dup2\n      swap1\n      sstore\n      pop\n        /* \"@openzeppelin/contracts/token/ERC20/ERC20.sol\":8131:8137  amount */\n      dup2\n        /* \"@openzeppelin/contracts/token/ERC20/ERC20.sol\":8114:8123  _balances */\n      0x00\n        /* \"@openzeppelin/contracts/token/ERC20/ERC20.sol\":8114:8127  _balances[to] */\n      dup1\n        /* \"@openzeppelin/contracts/token/ERC20/ERC20.sol\":8124:8126  to */\n      dup6\n        /* \"@openzeppelin/contracts/token/ERC20/ERC20.sol\":8114:8127  _balances[to] */\n      0xffffffffffffffffffffffffffffffffffffffff\n      and\n      0xffffffffffffffffffffffffffffffffffffffff\n      and\n      dup2\n      mstore\n      0x20\n      add\n      swap1\n      dup2\n      mstore\n      0x20\n      add\n      0x00\n      keccak256\n      0x00\n        /* \"@openzeppelin/contracts/token/ERC20/ERC20.sol\":8114:8137  _balances[to] += amount */\n      dup3\n      dup3\n      sload\n      add\n      swap3\n      pop\n      pop\n      dup2\n      swap1\n      sstore\n      pop\n        /* \"@openzeppelin/contracts/token/ERC20/ERC20.sol\":8178:8180  to */\n      dup3\n        /* \"@openzeppelin/contracts/token/ERC20/ERC20.sol\":8163:8189  Transfer(from, to, amount) */\n      0xffffffffffffffffffffffffffffffffffffffff\n      and\n        /* \"@openzeppelin/contracts/token/ERC20/ERC20.sol\":8172:8176  from */\n      dup5\n        /* \"@openzeppelin/contracts/token/ERC20/ERC20.sol\":8163:8189  Transfer(from, to, amount) */\n      0xffffffffffffffffffffffffffffffffffffffff\n      and\n      0xddf252ad1be2c89b69c2b068fc378daa952ba7f163c4a11628f55a4df523b3ef\n        /* \"@openzeppelin/contracts/token/ERC20/ERC20.sol\":8182:8188  amount */\n      dup5\n        /* \"@openzeppelin/contracts/token/ERC20/ERC20.sol\":8163:8189  Transfer(from, to, amount) */\n      mload(0x40)\n      tag_290\n      swap2\n      swap1\n      tag_44\n      jump\t// in\n    tag_290:\n      mload(0x40)\n      dup1\n      swap2\n      sub\n      swap1\n      log3\n        /* \"@openzeppelin/contracts/token/ERC20/ERC20.sol\":8200:8237  _afterTokenTransfer(from, to, amount) */\n      tag_291\n        /* \"@openzeppelin/contracts/token/ERC20/ERC20.sol\":8220:8224  from */\n      dup5\n        /* \"@openzeppelin/contracts/token/ERC20/ERC20.sol\":8226:8228  to */\n      dup5\n        /* \"@openzeppelin/contracts/token/ERC20/ERC20.sol\":8230:8236  amount */\n      dup5\n        /* \"@openzeppelin/contracts/token/ERC20/ERC20.sol\":8200:8219  _afterTokenTransfer */\n      tag_292\n        /* \"@openzeppelin/contracts/token/ERC20/ERC20.sol\":8200:8237  _afterTokenTransfer(from, to, amount) */\n      jump\t// in\n    tag_291:\n        /* \"@openzeppelin/contracts/token/ERC20/ERC20.sol\":7534:8244  {... */\n      pop\n        /* \"@openzeppelin/contracts/token/ERC20/ERC20.sol\":7456:8244  function _transfer(address from, address to, uint256 amount) internal virtual {... */\n      pop\n      pop\n      pop\n      jump\t// out\n        /* \"@openzeppelin/contracts/token/ERC20/ERC20.sol\":8520:9055  function _mint(address account, uint256 amount) internal virtual {... */\n    tag_190:\n        /* \"@openzeppelin/contracts/token/ERC20/ERC20.sol\":8622:8623  0 */\n      0x00\n        /* \"@openzeppelin/contracts/token/ERC20/ERC20.sol\":8603:8624  account != address(0) */\n      0xffffffffffffffffffffffffffffffffffffffff\n      and\n        /* \"@openzeppelin/contracts/token/ERC20/ERC20.sol\":8603:8610  account */\n      dup3\n        /* \"@openzeppelin/contracts/token/ERC20/ERC20.sol\":8603:8624  account != address(0) */\n      0xffffffffffffffffffffffffffffffffffffffff\n      and\n      sub\n        /* \"@openzeppelin/contracts/token/ERC20/ERC20.sol\":8595:8660  require(account != address(0), \"ERC20: mint to the zero address\") */\n      tag_294\n      jumpi\n      mload(0x40)\n      0x08c379a000000000000000000000000000000000000000000000000000000000\n      dup2\n      mstore\n      0x04\n      add\n      tag_295\n      swap1\n      tag_296\n      jump\t// in\n    tag_295:\n      mload(0x40)\n      dup1\n      swap2\n      sub\n      swap1\n      revert\n    tag_294:\n        /* \"@openzeppelin/contracts/token/ERC20/ERC20.sol\":8671:8720  _beforeTokenTransfer(address(0), account, amount) */\n      tag_297\n        /* \"@openzeppelin/contracts/token/ERC20/ERC20.sol\":8700:8701  0 */\n      0x00\n        /* \"@openzeppelin/contracts/token/ERC20/ERC20.sol\":8704:8711  account */\n      dup4\n        /* \"@openzeppelin/contracts/token/ERC20/ERC20.sol\":8713:8719  amount */\n      dup4\n        /* \"@openzeppelin/contracts/token/ERC20/ERC20.sol\":8671:8691  _beforeTokenTransfer */\n      tag_286\n        /* \"@openzeppelin/contracts/token/ERC20/ERC20.sol\":8671:8720  _beforeTokenTransfer(address(0), account, amount) */\n      jump\t// in\n    tag_297:\n        /* \"@openzeppelin/contracts/token/ERC20/ERC20.sol\":8747:8753  amount */\n      dup1\n        /* \"@openzeppelin/contracts/token/ERC20/ERC20.sol\":8731:8743  _totalSupply */\n      0x02\n      0x00\n        /* \"@openzeppelin/contracts/token/ERC20/ERC20.sol\":8731:8753  _totalSupply += amount */\n      dup3\n      dup3\n      sload\n      tag_298\n      swap2\n      swap1\n      tag_175\n      jump\t// in\n    tag_298:\n      swap3\n      pop\n      pop\n      dup2\n      swap1\n      sstore\n      pop\n        /* \"@openzeppelin/contracts/token/ERC20/ERC20.sol\":8921:8927  amount */\n      dup1\n        /* \"@openzeppelin/contracts/token/ERC20/ERC20.sol\":8899:8908  _balances */\n      0x00\n        /* \"@openzeppelin/contracts/token/ERC20/ERC20.sol\":8899:8917  _balances[account] */\n      dup1\n        /* \"@openzeppelin/contracts/token/ERC20/ERC20.sol\":8909:8916  account */\n      dup5\n        /* \"@openzeppelin/contracts/token/ERC20/ERC20.sol\":8899:8917  _balances[account] */\n      0xffffffffffffffffffffffffffffffffffffffff\n      and\n      0xffffffffffffffffffffffffffffffffffffffff\n      and\n      dup2\n      mstore\n      0x20\n      add\n      swap1\n      dup2\n      mstore\n      0x20\n      add\n      0x00\n      keccak256\n      0x00\n        /* \"@openzeppelin/contracts/token/ERC20/ERC20.sol\":8899:8927  _balances[account] += amount */\n      dup3\n      dup3\n      sload\n      add\n      swap3\n      pop\n      pop\n      dup2\n      swap1\n      sstore\n      pop\n        /* \"@openzeppelin/contracts/token/ERC20/ERC20.sol\":8973:8980  account */\n      dup2\n        /* \"@openzeppelin/contracts/token/ERC20/ERC20.sol\":8952:8989  Transfer(address(0), account, amount) */\n      0xffffffffffffffffffffffffffffffffffffffff\n      and\n        /* \"@openzeppelin/contracts/token/ERC20/ERC20.sol\":8969:8970  0 */\n      0x00\n        /* \"@openzeppelin/contracts/token/ERC20/ERC20.sol\":8952:8989  Transfer(address(0), account, amount) */\n      0xffffffffffffffffffffffffffffffffffffffff\n      and\n      0xddf252ad1be2c89b69c2b068fc378daa952ba7f163c4a11628f55a4df523b3ef\n        /* \"@openzeppelin/contracts/token/ERC20/ERC20.sol\":8982:8988  amount */\n      dup4\n        /* \"@openzeppelin/contracts/token/ERC20/ERC20.sol\":8952:8989  Transfer(address(0), account, amount) */\n      mload(0x40)\n      tag_299\n      swap2\n      swap1\n      tag_44\n      jump\t// in\n    tag_299:\n      mload(0x40)\n      dup1\n      swap2\n      sub\n      swap1\n      log3\n        /* \"@openzeppelin/contracts/token/ERC20/ERC20.sol\":9000:9048  _afterTokenTransfer(address(0), account, amount) */\n      tag_300\n        /* \"@openzeppelin/contracts/token/ERC20/ERC20.sol\":9028:9029  0 */\n      0x00\n        /* \"@openzeppelin/contracts/token/ERC20/ERC20.sol\":9032:9039  account */\n      dup4\n        /* \"@openzeppelin/contracts/token/ERC20/ERC20.sol\":9041:9047  amount */\n      dup4\n        /* \"@openzeppelin/contracts/token/ERC20/ERC20.sol\":9000:9019  _afterTokenTransfer */\n      tag_292\n        /* \"@openzeppelin/contracts/token/ERC20/ERC20.sol\":9000:9048  _afterTokenTransfer(address(0), account, amount) */\n      jump\t// in\n    tag_300:\n        /* \"@openzeppelin/contracts/token/ERC20/ERC20.sol\":8520:9055  function _mint(address account, uint256 amount) internal virtual {... */\n      pop\n      pop\n      jump\t// out\n        /* \"@openzeppelin/contracts/token/ERC20/ERC20.sol\":9375:10034  function _burn(address account, uint256 amount) internal virtual {... */\n    tag_239:\n        /* \"@openzeppelin/contracts/token/ERC20/ERC20.sol\":9477:9478  0 */\n      0x00\n        /* \"@openzeppelin/contracts/token/ERC20/ERC20.sol\":9458:9479  account != address(0) */\n      0xffffffffffffffffffffffffffffffffffffffff\n      and\n        /* \"@openzeppelin/contracts/token/ERC20/ERC20.sol\":9458:9465  account */\n      dup3\n        /* \"@openzeppelin/contracts/token/ERC20/ERC20.sol\":9458:9479  account != address(0) */\n      0xffffffffffffffffffffffffffffffffffffffff\n      and\n      sub\n        /* \"@openzeppelin/contracts/token/ERC20/ERC20.sol\":9450:9517  require(account != address(0), \"ERC20: burn from the zero address\") */\n      tag_302\n      jumpi\n      mload(0x40)\n      0x08c379a000000000000000000000000000000000000000000000000000000000\n      dup2\n      mstore\n      0x04\n      add\n      tag_303\n      swap1\n      tag_304\n      jump\t// in\n    tag_303:\n      mload(0x40)\n      dup1\n      swap2\n      sub\n      swap1\n      revert\n    tag_302:\n        /* \"@openzeppelin/contracts/token/ERC20/ERC20.sol\":9528:9577  _beforeTokenTransfer(account, address(0), amount) */\n      tag_305\n        /* \"@openzeppelin/contracts/token/ERC20/ERC20.sol\":9549:9556  account */\n      dup3\n        /* \"@openzeppelin/contracts/token/ERC20/ERC20.sol\":9566:9567  0 */\n      0x00\n        /* \"@openzeppelin/contracts/token/ERC20/ERC20.sol\":9570:9576  amount */\n      dup4\n        /* \"@openzeppelin/contracts/token/ERC20/ERC20.sol\":9528:9548  _beforeTokenTransfer */\n      tag_286\n        /* \"@openzeppelin/contracts/token/ERC20/ERC20.sol\":9528:9577  _beforeTokenTransfer(account, address(0), amount) */\n      jump\t// in\n    tag_305:\n        /* \"@openzeppelin/contracts/token/ERC20/ERC20.sol\":9588:9610  uint256 accountBalance */\n      0x00\n        /* \"@openzeppelin/contracts/token/ERC20/ERC20.sol\":9613:9622  _balances */\n      dup1\n        /* \"@openzeppelin/contracts/token/ERC20/ERC20.sol\":9613:9631  _balances[account] */\n      0x00\n        /* \"@openzeppelin/contracts/token/ERC20/ERC20.sol\":9623:9630  account */\n      dup5\n        /* \"@openzeppelin/contracts/token/ERC20/ERC20.sol\":9613:9631  _balances[account] */\n      0xffffffffffffffffffffffffffffffffffffffff\n      and\n      0xffffffffffffffffffffffffffffffffffffffff\n      and\n      dup2\n      mstore\n      0x20\n      add\n      swap1\n      dup2\n      mstore\n      0x20\n      add\n      0x00\n      keccak256\n      sload\n        /* \"@openzeppelin/contracts/token/ERC20/ERC20.sol\":9588:9631  uint256 accountBalance = _balances[account] */\n      swap1\n      pop\n        /* \"@openzeppelin/contracts/token/ERC20/ERC20.sol\":9667:9673  amount */\n      dup2\n        /* \"@openzeppelin/contracts/token/ERC20/ERC20.sol\":9649:9663  accountBalance */\n      dup2\n        /* \"@openzeppelin/contracts/token/ERC20/ERC20.sol\":9649:9673  accountBalance >= amount */\n      lt\n      iszero\n        /* \"@openzeppelin/contracts/token/ERC20/ERC20.sol\":9641:9712  require(accountBalance >= amount, \"ERC20: burn amount exceeds balance\") */\n      tag_306\n      jumpi\n      mload(0x40)\n      0x08c379a000000000000000000000000000000000000000000000000000000000\n      dup2\n      mstore\n      0x04\n      add\n      tag_307\n      swap1\n      tag_308\n      jump\t// in\n    tag_307:\n      mload(0x40)\n      dup1\n      swap2\n      sub\n      swap1\n      revert\n    tag_306:\n        /* \"@openzeppelin/contracts/token/ERC20/ERC20.sol\":9784:9790  amount */\n      dup2\n        /* \"@openzeppelin/contracts/token/ERC20/ERC20.sol\":9767:9781  accountBalance */\n      dup2\n        /* \"@openzeppelin/contracts/token/ERC20/ERC20.sol\":9767:9790  accountBalance - amount */\n      sub\n        /* \"@openzeppelin/contracts/token/ERC20/ERC20.sol\":9746:9755  _balances */\n      0x00\n        /* \"@openzeppelin/contracts/token/ERC20/ERC20.sol\":9746:9764  _balances[account] */\n      dup1\n        /* \"@openzeppelin/contracts/token/ERC20/ERC20.sol\":9756:9763  account */\n      dup6\n        /* \"@openzeppelin/contracts/token/ERC20/ERC20.sol\":9746:9764  _balances[account] */\n      0xffffffffffffffffffffffffffffffffffffffff\n      and\n      0xffffffffffffffffffffffffffffffffffffffff\n      and\n      dup2\n      mstore\n      0x20\n      add\n      swap1\n      dup2\n      mstore\n      0x20\n      add\n      0x00\n      keccak256\n        /* \"@openzeppelin/contracts/token/ERC20/ERC20.sol\":9746:9790  _balances[account] = accountBalance - amount */\n      dup2\n      swap1\n      sstore\n      pop\n        /* \"@openzeppelin/contracts/token/ERC20/ERC20.sol\":9899:9905  amount */\n      dup2\n        /* \"@openzeppelin/contracts/token/ERC20/ERC20.sol\":9883:9895  _totalSupply */\n      0x02\n      0x00\n        /* \"@openzeppelin/contracts/token/ERC20/ERC20.sol\":9883:9905  _totalSupply -= amount */\n      dup3\n      dup3\n      sload\n      sub\n      swap3\n      pop\n      pop\n      dup2\n      swap1\n      sstore\n      pop\n        /* \"@openzeppelin/contracts/token/ERC20/ERC20.sol\":9957:9958  0 */\n      0x00\n        /* \"@openzeppelin/contracts/token/ERC20/ERC20.sol\":9931:9968  Transfer(account, address(0), amount) */\n      0xffffffffffffffffffffffffffffffffffffffff\n      and\n        /* \"@openzeppelin/contracts/token/ERC20/ERC20.sol\":9940:9947  account */\n      dup4\n        /* \"@openzeppelin/contracts/token/ERC20/ERC20.sol\":9931:9968  Transfer(account, address(0), amount) */\n      0xffffffffffffffffffffffffffffffffffffffff\n      and\n      0xddf252ad1be2c89b69c2b068fc378daa952ba7f163c4a11628f55a4df523b3ef\n        /* \"@openzeppelin/contracts/token/ERC20/ERC20.sol\":9961:9967  amount */\n      dup5\n        /* \"@openzeppelin/contracts/token/ERC20/ERC20.sol\":9931:9968  Transfer(account, address(0), amount) */\n      mload(0x40)\n      tag_309\n      swap2\n      swap1\n      tag_44\n      jump\t// in\n    tag_309:\n      mload(0x40)\n      dup1\n      swap2\n      sub\n      swap1\n      log3\n        /* \"@openzeppelin/contracts/token/ERC20/ERC20.sol\":9979:10027  _afterTokenTransfer(account, address(0), amount) */\n      tag_310\n        /* \"@openzeppelin/contracts/token/ERC20/ERC20.sol\":9999:10006  account */\n      dup4\n        /* \"@openzeppelin/contracts/token/ERC20/ERC20.sol\":10016:10017  0 */\n      0x00\n        /* \"@openzeppelin/contracts/token/ERC20/ERC20.sol\":10020:10026  amount */\n      dup5\n        /* \"@openzeppelin/contracts/token/ERC20/ERC20.sol\":9979:9998  _afterTokenTransfer */\n      tag_292\n        /* \"@openzeppelin/contracts/token/ERC20/ERC20.sol\":9979:10027  _afterTokenTransfer(account, address(0), amount) */\n      jump\t// in\n    tag_310:\n        /* \"@openzeppelin/contracts/token/ERC20/ERC20.sol\":9440:10034  {... */\n      pop\n        /* \"@openzeppelin/contracts/token/ERC20/ERC20.sol\":9375:10034  function _burn(address account, uint256 amount) internal virtual {... */\n      pop\n      pop\n      jump\t// out\n        /* \"@openzeppelin/contracts/token/ERC20/ERC20.sol\":12073:12164  function _beforeTokenTransfer(address from, address to, uint256 amount) internal virtual {} */\n    tag_286:\n      pop\n      pop\n      pop\n      jump\t// out\n        /* \"@openzeppelin/contracts/token/ERC20/ERC20.sol\":12752:12842  function _afterTokenTransfer(address from, address to, uint256 amount) internal virtual {} */\n    tag_292:\n      pop\n      pop\n      pop\n      jump\t// out\n        /* \"#utility.yul\":88:205   */\n    tag_314:\n        /* \"#utility.yul\":197:198   */\n      0x00\n        /* \"#utility.yul\":194:195   */\n      dup1\n        /* \"#utility.yul\":187:199   */\n      revert\n        /* \"#utility.yul\":334:411   */\n    tag_316:\n        /* \"#utility.yul\":371:378   */\n      0x00\n        /* \"#utility.yul\":400:405   */\n      dup2\n        /* \"#utility.yul\":389:405   */\n      swap1\n      pop\n        /* \"#utility.yul\":334:411   */\n      swap2\n      swap1\n      pop\n      jump\t// out\n        /* \"#utility.yul\":417:539   */\n    tag_317:\n        /* \"#utility.yul\":490:514   */\n      tag_369\n        /* \"#utility.yul\":508:513   */\n      dup2\n        /* \"#utility.yul\":490:514   */\n      tag_316\n      jump\t// in\n    tag_369:\n        /* \"#utility.yul\":483:488   */\n      dup2\n        /* \"#utility.yul\":480:515   */\n      eq\n        /* \"#utility.yul\":470:533   */\n      tag_370\n      jumpi\n        /* \"#utility.yul\":529:530   */\n      0x00\n        /* \"#utility.yul\":526:527   */\n      dup1\n        /* \"#utility.yul\":519:531   */\n      revert\n        /* \"#utility.yul\":470:533   */\n    tag_370:\n        /* \"#utility.yul\":417:539   */\n      pop\n      jump\t// out\n        /* \"#utility.yul\":545:684   */\n    tag_318:\n        /* \"#utility.yul\":591:596   */\n      0x00\n        /* \"#utility.yul\":629:635   */\n      dup2\n        /* \"#utility.yul\":616:636   */\n      calldataload\n        /* \"#utility.yul\":607:636   */\n      swap1\n      pop\n        /* \"#utility.yul\":645:678   */\n      tag_372\n        /* \"#utility.yul\":672:677   */\n      dup2\n        /* \"#utility.yul\":645:678   */\n      tag_317\n      jump\t// in\n    tag_372:\n        /* \"#utility.yul\":545:684   */\n      swap3\n      swap2\n      pop\n      pop\n      jump\t// out\n        /* \"#utility.yul\":690:1164   */\n    tag_26:\n        /* \"#utility.yul\":758:764   */\n      0x00\n        /* \"#utility.yul\":766:772   */\n      dup1\n        /* \"#utility.yul\":815:817   */\n      0x40\n        /* \"#utility.yul\":803:812   */\n      dup4\n        /* \"#utility.yul\":794:801   */\n      dup6\n        /* \"#utility.yul\":790:813   */\n      sub\n        /* \"#utility.yul\":786:818   */\n      slt\n        /* \"#utility.yul\":783:902   */\n      iszero\n      tag_374\n      jumpi\n        /* \"#utility.yul\":821:900   */\n      tag_375\n      tag_314\n      jump\t// in\n    tag_375:\n        /* \"#utility.yul\":783:902   */\n    tag_374:\n        /* \"#utility.yul\":941:942   */\n      0x00\n        /* \"#utility.yul\":966:1019   */\n      tag_376\n        /* \"#utility.yul\":1011:1018   */\n      dup6\n        /* \"#utility.yul\":1002:1008   */\n      dup3\n        /* \"#utility.yul\":991:1000   */\n      dup7\n        /* \"#utility.yul\":987:1009   */\n      add\n        /* \"#utility.yul\":966:1019   */\n      tag_318\n      jump\t// in\n    tag_376:\n        /* \"#utility.yul\":956:1019   */\n      swap3\n      pop\n        /* \"#utility.yul\":912:1029   */\n      pop\n        /* \"#utility.yul\":1068:1070   */\n      0x20\n        /* \"#utility.yul\":1094:1147   */\n      tag_377\n        /* \"#utility.yul\":1139:1146   */\n      dup6\n        /* \"#utility.yul\":1130:1136   */\n      dup3\n        /* \"#utility.yul\":1119:1128   */\n      dup7\n        /* \"#utility.yul\":1115:1137   */\n      add\n        /* \"#utility.yul\":1094:1147   */\n      tag_318\n      jump\t// in\n    tag_377:\n        /* \"#utility.yul\":1084:1147   */\n      swap2\n      pop\n        /* \"#utility.yul\":1039:1157   */\n      pop\n        /* \"#utility.yul\":690:1164   */\n      swap3\n      pop\n      swap3\n      swap1\n      pop\n      jump\t// out\n        /* \"#utility.yul\":1170:1269   */\n    tag_319:\n        /* \"#utility.yul\":1222:1228   */\n      0x00\n        /* \"#utility.yul\":1256:1261   */\n      dup2\n        /* \"#utility.yul\":1250:1262   */\n      mload\n        /* \"#utility.yul\":1240:1262   */\n      swap1\n      pop\n        /* \"#utility.yul\":1170:1269   */\n      swap2\n      swap1\n      pop\n      jump\t// out\n        /* \"#utility.yul\":1275:1444   */\n    tag_320:\n        /* \"#utility.yul\":1359:1370   */\n      0x00\n        /* \"#utility.yul\":1393:1399   */\n      dup3\n        /* \"#utility.yul\":1388:1391   */\n      dup3\n        /* \"#utility.yul\":1381:1400   */\n      mstore\n        /* \"#utility.yul\":1433:1437   */\n      0x20\n        /* \"#utility.yul\":1428:1431   */\n      dup3\n        /* \"#utility.yul\":1424:1438   */\n      add\n        /* \"#utility.yul\":1409:1438   */\n      swap1\n      pop\n        /* \"#utility.yul\":1275:1444   */\n      swap3\n      swap2\n      pop\n      pop\n      jump\t// out\n        /* \"#utility.yul\":1450:1696   */\n    tag_321:\n        /* \"#utility.yul\":1531:1532   */\n      0x00\n        /* \"#utility.yul\":1541:1654   */\n    tag_381:\n        /* \"#utility.yul\":1555:1561   */\n      dup4\n        /* \"#utility.yul\":1552:1553   */\n      dup2\n        /* \"#utility.yul\":1549:1562   */\n      lt\n        /* \"#utility.yul\":1541:1654   */\n      iszero\n      tag_383\n      jumpi\n        /* \"#utility.yul\":1640:1641   */\n      dup1\n        /* \"#utility.yul\":1635:1638   */\n      dup3\n        /* \"#utility.yul\":1631:1642   */\n      add\n        /* \"#utility.yul\":1625:1643   */\n      mload\n        /* \"#utility.yul\":1621:1622   */\n      dup2\n        /* \"#utility.yul\":1616:1619   */\n      dup5\n        /* \"#utility.yul\":1612:1623   */\n      add\n        /* \"#utility.yul\":1605:1644   */\n      mstore\n        /* \"#utility.yul\":1577:1579   */\n      0x20\n        /* \"#utility.yul\":1574:1575   */\n      dup2\n        /* \"#utility.yul\":1570:1580   */\n      add\n        /* \"#utility.yul\":1565:1580   */\n      swap1\n      pop\n        /* \"#utility.yul\":1541:1654   */\n      jump(tag_381)\n    tag_383:\n        /* \"#utility.yul\":1688:1689   */\n      0x00\n        /* \"#utility.yul\":1679:1685   */\n      dup5\n        /* \"#utility.yul\":1674:1677   */\n      dup5\n        /* \"#utility.yul\":1670:1686   */\n      add\n        /* \"#utility.yul\":1663:1690   */\n      mstore\n        /* \"#utility.yul\":1512:1696   */\n      pop\n        /* \"#utility.yul\":1450:1696   */\n      pop\n      pop\n      pop\n      jump\t// out\n        /* \"#utility.yul\":1702:1804   */\n    tag_322:\n        /* \"#utility.yul\":1743:1749   */\n      0x00\n        /* \"#utility.yul\":1794:1796   */\n      0x1f\n        /* \"#utility.yul\":1790:1797   */\n      not\n        /* \"#utility.yul\":1785:1787   */\n      0x1f\n        /* \"#utility.yul\":1778:1783   */\n      dup4\n        /* \"#utility.yul\":1774:1788   */\n      add\n        /* \"#utility.yul\":1770:1798   */\n      and\n        /* \"#utility.yul\":1760:1798   */\n      swap1\n      pop\n        /* \"#utility.yul\":1702:1804   */\n      swap2\n      swap1\n      pop\n      jump\t// out\n        /* \"#utility.yul\":1810:2187   */\n    tag_323:\n        /* \"#utility.yul\":1898:1901   */\n      0x00\n        /* \"#utility.yul\":1926:1965   */\n      tag_386\n        /* \"#utility.yul\":1959:1964   */\n      dup3\n        /* \"#utility.yul\":1926:1965   */\n      tag_319\n      jump\t// in\n    tag_386:\n        /* \"#utility.yul\":1981:2052   */\n      tag_387\n        /* \"#utility.yul\":2045:2051   */\n      dup2\n        /* \"#utility.yul\":2040:2043   */\n      dup6\n        /* \"#utility.yul\":1981:2052   */\n      tag_320\n      jump\t// in\n    tag_387:\n        /* \"#utility.yul\":1974:2052   */\n      swap4\n      pop\n        /* \"#utility.yul\":2061:2126   */\n      tag_388\n        /* \"#utility.yul\":2119:2125   */\n      dup2\n        /* \"#utility.yul\":2114:2117   */\n      dup6\n        /* \"#utility.yul\":2107:2111   */\n      0x20\n        /* \"#utility.yul\":2100:2105   */\n      dup7\n        /* \"#utility.yul\":2096:2112   */\n      add\n        /* \"#utility.yul\":2061:2126   */\n      tag_321\n      jump\t// in\n    tag_388:\n        /* \"#utility.yul\":2151:2180   */\n      tag_389\n        /* \"#utility.yul\":2173:2179   */\n      dup2\n        /* \"#utility.yul\":2151:2180   */\n      tag_322\n      jump\t// in\n    tag_389:\n        /* \"#utility.yul\":2146:2149   */\n      dup5\n        /* \"#utility.yul\":2142:2181   */\n      add\n        /* \"#utility.yul\":2135:2181   */\n      swap2\n      pop\n        /* \"#utility.yul\":1902:2187   */\n      pop\n        /* \"#utility.yul\":1810:2187   */\n      swap3\n      swap2\n      pop\n      pop\n      jump\t// out\n        /* \"#utility.yul\":2193:2506   */\n    tag_32:\n        /* \"#utility.yul\":2306:2310   */\n      0x00\n        /* \"#utility.yul\":2344:2346   */\n      0x20\n        /* \"#utility.yul\":2333:2342   */\n      dup3\n        /* \"#utility.yul\":2329:2347   */\n      add\n        /* \"#utility.yul\":2321:2347   */\n      swap1\n      pop\n        /* \"#utility.yul\":2393:2402   */\n      dup2\n        /* \"#utility.yul\":2387:2391   */\n      dup2\n        /* \"#utility.yul\":2383:2403   */\n      sub\n        /* \"#utility.yul\":2379:2380   */\n      0x00\n        /* \"#utility.yul\":2368:2377   */\n      dup4\n        /* \"#utility.yul\":2364:2381   */\n      add\n        /* \"#utility.yul\":2357:2404   */\n      mstore\n        /* \"#utility.yul\":2421:2499   */\n      tag_391\n        /* \"#utility.yul\":2494:2498   */\n      dup2\n        /* \"#utility.yul\":2485:2491   */\n      dup5\n        /* \"#utility.yul\":2421:2499   */\n      tag_323\n      jump\t// in\n    tag_391:\n        /* \"#utility.yul\":2413:2499   */\n      swap1\n      pop\n        /* \"#utility.yul\":2193:2506   */\n      swap3\n      swap2\n      pop\n      pop\n      jump\t// out\n        /* \"#utility.yul\":2512:2638   */\n    tag_324:\n        /* \"#utility.yul\":2549:2556   */\n      0x00\n        /* \"#utility.yul\":2589:2631   */\n      0xffffffffffffffffffffffffffffffffffffffff\n        /* \"#utility.yul\":2582:2587   */\n      dup3\n        /* \"#utility.yul\":2578:2632   */\n      and\n        /* \"#utility.yul\":2567:2632   */\n      swap1\n      pop\n        /* \"#utility.yul\":2512:2638   */\n      swap2\n      swap1\n      pop\n      jump\t// out\n        /* \"#utility.yul\":2644:2740   */\n    tag_325:\n        /* \"#utility.yul\":2681:2688   */\n      0x00\n        /* \"#utility.yul\":2710:2734   */\n      tag_394\n        /* \"#utility.yul\":2728:2733   */\n      dup3\n        /* \"#utility.yul\":2710:2734   */\n      tag_324\n      jump\t// in\n    tag_394:\n        /* \"#utility.yul\":2699:2734   */\n      swap1\n      pop\n        /* \"#utility.yul\":2644:2740   */\n      swap2\n      swap1\n      pop\n      jump\t// out\n        /* \"#utility.yul\":2746:2868   */\n    tag_326:\n        /* \"#utility.yul\":2819:2843   */\n      tag_396\n        /* \"#utility.yul\":2837:2842   */\n      dup2\n        /* \"#utility.yul\":2819:2843   */\n      tag_325\n      jump\t// in\n    tag_396:\n        /* \"#utility.yul\":2812:2817   */\n      dup2\n        /* \"#utility.yul\":2809:2844   */\n      eq\n        /* \"#utility.yul\":2799:2862   */\n      tag_397\n      jumpi\n        /* \"#utility.yul\":2858:2859   */\n      0x00\n        /* \"#utility.yul\":2855:2856   */\n      dup1\n        /* \"#utility.yul\":2848:2860   */\n      revert\n        /* \"#utility.yul\":2799:2862   */\n    tag_397:\n        /* \"#utility.yul\":2746:2868   */\n      pop\n      jump\t// out\n        /* \"#utility.yul\":2874:3013   */\n    tag_327:\n        /* \"#utility.yul\":2920:2925   */\n      0x00\n        /* \"#utility.yul\":2958:2964   */\n      dup2\n        /* \"#utility.yul\":2945:2965   */\n      calldataload\n        /* \"#utility.yul\":2936:2965   */\n      swap1\n      pop\n        /* \"#utility.yul\":2974:3007   */\n      tag_399\n        /* \"#utility.yul\":3001:3006   */\n      dup2\n        /* \"#utility.yul\":2974:3007   */\n      tag_326\n      jump\t// in\n    tag_399:\n        /* \"#utility.yul\":2874:3013   */\n      swap3\n      swap2\n      pop\n      pop\n      jump\t// out\n        /* \"#utility.yul\":3019:3493   */\n    tag_36:\n        /* \"#utility.yul\":3087:3093   */\n      0x00\n        /* \"#utility.yul\":3095:3101   */\n      dup1\n        /* \"#utility.yul\":3144:3146   */\n      0x40\n        /* \"#utility.yul\":3132:3141   */\n      dup4\n        /* \"#utility.yul\":3123:3130   */\n      dup6\n        /* \"#utility.yul\":3119:3142   */\n      sub\n        /* \"#utility.yul\":3115:3147   */\n      slt\n        /* \"#utility.yul\":3112:3231   */\n      iszero\n      tag_401\n      jumpi\n        /* \"#utility.yul\":3150:3229   */\n      tag_402\n      tag_314\n      jump\t// in\n    tag_402:\n        /* \"#utility.yul\":3112:3231   */\n    tag_401:\n        /* \"#utility.yul\":3270:3271   */\n      0x00\n        /* \"#utility.yul\":3295:3348   */\n      tag_403\n        /* \"#utility.yul\":3340:3347   */\n      dup6\n        /* \"#utility.yul\":3331:3337   */\n      dup3\n        /* \"#utility.yul\":3320:3329   */\n      dup7\n        /* \"#utility.yul\":3316:3338   */\n      add\n        /* \"#utility.yul\":3295:3348   */\n      tag_327\n      jump\t// in\n    tag_403:\n        /* \"#utility.yul\":3285:3348   */\n      swap3\n      pop\n        /* \"#utility.yul\":3241:3358   */\n      pop\n        /* \"#utility.yul\":3397:3399   */\n      0x20\n        /* \"#utility.yul\":3423:3476   */\n      tag_404\n        /* \"#utility.yul\":3468:3475   */\n      dup6\n        /* \"#utility.yul\":3459:3465   */\n      dup3\n        /* \"#utility.yul\":3448:3457   */\n      dup7\n        /* \"#utility.yul\":3444:3466   */\n      add\n        /* \"#utility.yul\":3423:3476   */\n      tag_318\n      jump\t// in\n    tag_404:\n        /* \"#utility.yul\":3413:3476   */\n      swap2\n      pop\n        /* \"#utility.yul\":3368:3486   */\n      pop\n        /* \"#utility.yul\":3019:3493   */\n      swap3\n      pop\n      swap3\n      swap1\n      pop\n      jump\t// out\n        /* \"#utility.yul\":3499:3589   */\n    tag_328:\n        /* \"#utility.yul\":3533:3540   */\n      0x00\n        /* \"#utility.yul\":3576:3581   */\n      dup2\n        /* \"#utility.yul\":3569:3582   */\n      iszero\n        /* \"#utility.yul\":3562:3583   */\n      iszero\n        /* \"#utility.yul\":3551:3583   */\n      swap1\n      pop\n        /* \"#utility.yul\":3499:3589   */\n      swap2\n      swap1\n      pop\n      jump\t// out\n        /* \"#utility.yul\":3595:3704   */\n    tag_329:\n        /* \"#utility.yul\":3676:3697   */\n      tag_407\n        /* \"#utility.yul\":3691:3696   */\n      dup2\n        /* \"#utility.yul\":3676:3697   */\n      tag_328\n      jump\t// in\n    tag_407:\n        /* \"#utility.yul\":3671:3674   */\n      dup3\n        /* \"#utility.yul\":3664:3698   */\n      mstore\n        /* \"#utility.yul\":3595:3704   */\n      pop\n      pop\n      jump\t// out\n        /* \"#utility.yul\":3710:3920   */\n    tag_39:\n        /* \"#utility.yul\":3797:3801   */\n      0x00\n        /* \"#utility.yul\":3835:3837   */\n      0x20\n        /* \"#utility.yul\":3824:3833   */\n      dup3\n        /* \"#utility.yul\":3820:3838   */\n      add\n        /* \"#utility.yul\":3812:3838   */\n      swap1\n      pop\n        /* \"#utility.yul\":3848:3913   */\n      tag_409\n        /* \"#utility.yul\":3910:3911   */\n      0x00\n        /* \"#utility.yul\":3899:3908   */\n      dup4\n        /* \"#utility.yul\":3895:3912   */\n      add\n        /* \"#utility.yul\":3886:3892   */\n      dup5\n        /* \"#utility.yul\":3848:3913   */\n      tag_329\n      jump\t// in\n    tag_409:\n        /* \"#utility.yul\":3710:3920   */\n      swap3\n      swap2\n      pop\n      pop\n      jump\t// out\n        /* \"#utility.yul\":3926:4044   */\n    tag_330:\n        /* \"#utility.yul\":4013:4037   */\n      tag_411\n        /* \"#utility.yul\":4031:4036   */\n      dup2\n        /* \"#utility.yul\":4013:4037   */\n      tag_316\n      jump\t// in\n    tag_411:\n        /* \"#utility.yul\":4008:4011   */\n      dup3\n        /* \"#utility.yul\":4001:4038   */\n      mstore\n        /* \"#utility.yul\":3926:4044   */\n      pop\n      pop\n      jump\t// out\n        /* \"#utility.yul\":4050:4272   */\n    tag_44:\n        /* \"#utility.yul\":4143:4147   */\n      0x00\n        /* \"#utility.yul\":4181:4183   */\n      0x20\n        /* \"#utility.yul\":4170:4179   */\n      dup3\n        /* \"#utility.yul\":4166:4184   */\n      add\n        /* \"#utility.yul\":4158:4184   */\n      swap1\n      pop\n        /* \"#utility.yul\":4194:4265   */\n      tag_413\n        /* \"#utility.yul\":4262:4263   */\n      0x00\n        /* \"#utility.yul\":4251:4260   */\n      dup4\n        /* \"#utility.yul\":4247:4264   */\n      add\n        /* \"#utility.yul\":4238:4244   */\n      dup5\n        /* \"#utility.yul\":4194:4265   */\n      tag_330\n      jump\t// in\n    tag_413:\n        /* \"#utility.yul\":4050:4272   */\n      swap3\n      swap2\n      pop\n      pop\n      jump\t// out\n        /* \"#utility.yul\":4278:4607   */\n    tag_47:\n        /* \"#utility.yul\":4337:4343   */\n      0x00\n        /* \"#utility.yul\":4386:4388   */\n      0x20\n        /* \"#utility.yul\":4374:4383   */\n      dup3\n        /* \"#utility.yul\":4365:4372   */\n      dup5\n        /* \"#utility.yul\":4361:4384   */\n      sub\n        /* \"#utility.yul\":4357:4389   */\n      slt\n        /* \"#utility.yul\":4354:4473   */\n      iszero\n      tag_415\n      jumpi\n        /* \"#utility.yul\":4392:4471   */\n      tag_416\n      tag_314\n      jump\t// in\n    tag_416:\n        /* \"#utility.yul\":4354:4473   */\n    tag_415:\n        /* \"#utility.yul\":4512:4513   */\n      0x00\n        /* \"#utility.yul\":4537:4590   */\n      tag_417\n        /* \"#utility.yul\":4582:4589   */\n      dup5\n        /* \"#utility.yul\":4573:4579   */\n      dup3\n        /* \"#utility.yul\":4562:4571   */\n      dup6\n        /* \"#utility.yul\":4558:4580   */\n      add\n        /* \"#utility.yul\":4537:4590   */\n      tag_318\n      jump\t// in\n    tag_417:\n        /* \"#utility.yul\":4527:4590   */\n      swap2\n      pop\n        /* \"#utility.yul\":4483:4600   */\n      pop\n        /* \"#utility.yul\":4278:4607   */\n      swap3\n      swap2\n      pop\n      pop\n      jump\t// out\n        /* \"#utility.yul\":4613:5232   */\n    tag_52:\n        /* \"#utility.yul\":4690:4696   */\n      0x00\n        /* \"#utility.yul\":4698:4704   */\n      dup1\n        /* \"#utility.yul\":4706:4712   */\n      0x00\n        /* \"#utility.yul\":4755:4757   */\n      0x60\n        /* \"#utility.yul\":4743:4752   */\n      dup5\n        /* \"#utility.yul\":4734:4741   */\n      dup7\n        /* \"#utility.yul\":4730:4753   */\n      sub\n        /* \"#utility.yul\":4726:4758   */\n      slt\n        /* \"#utility.yul\":4723:4842   */\n      iszero\n      tag_419\n      jumpi\n        /* \"#utility.yul\":4761:4840   */\n      tag_420\n      tag_314\n      jump\t// in\n    tag_420:\n        /* \"#utility.yul\":4723:4842   */\n    tag_419:\n        /* \"#utility.yul\":4881:4882   */\n      0x00\n        /* \"#utility.yul\":4906:4959   */\n      tag_421\n        /* \"#utility.yul\":4951:4958   */\n      dup7\n        /* \"#utility.yul\":4942:4948   */\n      dup3\n        /* \"#utility.yul\":4931:4940   */\n      dup8\n        /* \"#utility.yul\":4927:4949   */\n      add\n        /* \"#utility.yul\":4906:4959   */\n      tag_327\n      jump\t// in\n    tag_421:\n        /* \"#utility.yul\":4896:4959   */\n      swap4\n      pop\n        /* \"#utility.yul\":4852:4969   */\n      pop\n        /* \"#utility.yul\":5008:5010   */\n      0x20\n        /* \"#utility.yul\":5034:5087   */\n      tag_422\n        /* \"#utility.yul\":5079:5086   */\n      dup7\n        /* \"#utility.yul\":5070:5076   */\n      dup3\n        /* \"#utility.yul\":5059:5068   */\n      dup8\n        /* \"#utility.yul\":5055:5077   */\n      add\n        /* \"#utility.yul\":5034:5087   */\n      tag_327\n      jump\t// in\n    tag_422:\n        /* \"#utility.yul\":5024:5087   */\n      swap3\n      pop\n        /* \"#utility.yul\":4979:5097   */\n      pop\n        /* \"#utility.yul\":5136:5138   */\n      0x40\n        /* \"#utility.yul\":5162:5215   */\n      tag_423\n        /* \"#utility.yul\":5207:5214   */\n      dup7\n        /* \"#utility.yul\":5198:5204   */\n      dup3\n        /* \"#utility.yul\":5187:5196   */\n      dup8\n        /* \"#utility.yul\":5183:5205   */\n      add\n        /* \"#utility.yul\":5162:5215   */\n      tag_318\n      jump\t// in\n    tag_423:\n        /* \"#utility.yul\":5152:5215   */\n      swap2\n      pop\n        /* \"#utility.yul\":5107:5225   */\n      pop\n        /* \"#utility.yul\":4613:5232   */\n      swap3\n      pop\n      swap3\n      pop\n      swap3\n      jump\t// out\n        /* \"#utility.yul\":5238:5324   */\n    tag_331:\n        /* \"#utility.yul\":5273:5280   */\n      0x00\n        /* \"#utility.yul\":5313:5317   */\n      0xff\n        /* \"#utility.yul\":5306:5311   */\n      dup3\n        /* \"#utility.yul\":5302:5318   */\n      and\n        /* \"#utility.yul\":5291:5318   */\n      swap1\n      pop\n        /* \"#utility.yul\":5238:5324   */\n      swap2\n      swap1\n      pop\n      jump\t// out\n        /* \"#utility.yul\":5330:5442   */\n    tag_332:\n        /* \"#utility.yul\":5413:5435   */\n      tag_426\n        /* \"#utility.yul\":5429:5434   */\n      dup2\n        /* \"#utility.yul\":5413:5435   */\n      tag_331\n      jump\t// in\n    tag_426:\n        /* \"#utility.yul\":5408:5411   */\n      dup3\n        /* \"#utility.yul\":5401:5436   */\n      mstore\n        /* \"#utility.yul\":5330:5442   */\n      pop\n      pop\n      jump\t// out\n        /* \"#utility.yul\":5448:5662   */\n    tag_59:\n        /* \"#utility.yul\":5537:5541   */\n      0x00\n        /* \"#utility.yul\":5575:5577   */\n      0x20\n        /* \"#utility.yul\":5564:5573   */\n      dup3\n        /* \"#utility.yul\":5560:5578   */\n      add\n        /* \"#utility.yul\":5552:5578   */\n      swap1\n      pop\n        /* \"#utility.yul\":5588:5655   */\n      tag_428\n        /* \"#utility.yul\":5652:5653   */\n      0x00\n        /* \"#utility.yul\":5641:5650   */\n      dup4\n        /* \"#utility.yul\":5637:5654   */\n      add\n        /* \"#utility.yul\":5628:5634   */\n      dup5\n        /* \"#utility.yul\":5588:5655   */\n      tag_332\n      jump\t// in\n    tag_428:\n        /* \"#utility.yul\":5448:5662   */\n      swap3\n      swap2\n      pop\n      pop\n      jump\t// out\n        /* \"#utility.yul\":5668:5786   */\n    tag_333:\n        /* \"#utility.yul\":5755:5779   */\n      tag_430\n        /* \"#utility.yul\":5773:5778   */\n      dup2\n        /* \"#utility.yul\":5755:5779   */\n      tag_325\n      jump\t// in\n    tag_430:\n        /* \"#utility.yul\":5750:5753   */\n      dup3\n        /* \"#utility.yul\":5743:5780   */\n      mstore\n        /* \"#utility.yul\":5668:5786   */\n      pop\n      pop\n      jump\t// out\n        /* \"#utility.yul\":5792:6014   */\n    tag_69:\n        /* \"#utility.yul\":5885:5889   */\n      0x00\n        /* \"#utility.yul\":5923:5925   */\n      0x20\n        /* \"#utility.yul\":5912:5921   */\n      dup3\n        /* \"#utility.yul\":5908:5926   */\n      add\n        /* \"#utility.yul\":5900:5926   */\n      swap1\n      pop\n        /* \"#utility.yul\":5936:6007   */\n      tag_432\n        /* \"#utility.yul\":6004:6005   */\n      0x00\n        /* \"#utility.yul\":5993:6002   */\n      dup4\n        /* \"#utility.yul\":5989:6006   */\n      add\n        /* \"#utility.yul\":5980:5986   */\n      dup5\n        /* \"#utility.yul\":5936:6007   */\n      tag_333\n      jump\t// in\n    tag_432:\n        /* \"#utility.yul\":5792:6014   */\n      swap3\n      swap2\n      pop\n      pop\n      jump\t// out\n        /* \"#utility.yul\":6020:6349   */\n    tag_81:\n        /* \"#utility.yul\":6079:6085   */\n      0x00\n        /* \"#utility.yul\":6128:6130   */\n      0x20\n        /* \"#utility.yul\":6116:6125   */\n      dup3\n        /* \"#utility.yul\":6107:6114   */\n      dup5\n        /* \"#utility.yul\":6103:6126   */\n      sub\n        /* \"#utility.yul\":6099:6131   */\n      slt\n        /* \"#utility.yul\":6096:6215   */\n      iszero\n      tag_434\n      jumpi\n        /* \"#utility.yul\":6134:6213   */\n      tag_435\n      tag_314\n      jump\t// in\n    tag_435:\n        /* \"#utility.yul\":6096:6215   */\n    tag_434:\n        /* \"#utility.yul\":6254:6255   */\n      0x00\n        /* \"#utility.yul\":6279:6332   */\n      tag_436\n        /* \"#utility.yul\":6324:6331   */\n      dup5\n        /* \"#utility.yul\":6315:6321   */\n      dup3\n        /* \"#utility.yul\":6304:6313   */\n      dup6\n        /* \"#utility.yul\":6300:6322   */\n      add\n        /* \"#utility.yul\":6279:6332   */\n      tag_327\n      jump\t// in\n    tag_436:\n        /* \"#utility.yul\":6269:6332   */\n      swap2\n      pop\n        /* \"#utility.yul\":6225:6342   */\n      pop\n        /* \"#utility.yul\":6020:6349   */\n      swap3\n      swap2\n      pop\n      pop\n      jump\t// out\n        /* \"#utility.yul\":6355:6974   */\n    tag_87:\n        /* \"#utility.yul\":6432:6438   */\n      0x00\n        /* \"#utility.yul\":6440:6446   */\n      dup1\n        /* \"#utility.yul\":6448:6454   */\n      0x00\n        /* \"#utility.yul\":6497:6499   */\n      0x60\n        /* \"#utility.yul\":6485:6494   */\n      dup5\n        /* \"#utility.yul\":6476:6483   */\n      dup7\n        /* \"#utility.yul\":6472:6495   */\n      sub\n        /* \"#utility.yul\":6468:6500   */\n      slt\n        /* \"#utility.yul\":6465:6584   */\n      iszero\n      tag_438\n      jumpi\n        /* \"#utility.yul\":6503:6582   */\n      tag_439\n      tag_314\n      jump\t// in\n    tag_439:\n        /* \"#utility.yul\":6465:6584   */\n    tag_438:\n        /* \"#utility.yul\":6623:6624   */\n      0x00\n        /* \"#utility.yul\":6648:6701   */\n      tag_440\n        /* \"#utility.yul\":6693:6700   */\n      dup7\n        /* \"#utility.yul\":6684:6690   */\n      dup3\n        /* \"#utility.yul\":6673:6682   */\n      dup8\n        /* \"#utility.yul\":6669:6691   */\n      add\n        /* \"#utility.yul\":6648:6701   */\n      tag_318\n      jump\t// in\n    tag_440:\n        /* \"#utility.yul\":6638:6701   */\n      swap4\n      pop\n        /* \"#utility.yul\":6594:6711   */\n      pop\n        /* \"#utility.yul\":6750:6752   */\n      0x20\n        /* \"#utility.yul\":6776:6829   */\n      tag_441\n        /* \"#utility.yul\":6821:6828   */\n      dup7\n        /* \"#utility.yul\":6812:6818   */\n      dup3\n        /* \"#utility.yul\":6801:6810   */\n      dup8\n        /* \"#utility.yul\":6797:6819   */\n      add\n        /* \"#utility.yul\":6776:6829   */\n      tag_318\n      jump\t// in\n    tag_441:\n        /* \"#utility.yul\":6766:6829   */\n      swap3\n      pop\n        /* \"#utility.yul\":6721:6839   */\n      pop\n        /* \"#utility.yul\":6878:6880   */\n      0x40\n        /* \"#utility.yul\":6904:6957   */\n      tag_442\n        /* \"#utility.yul\":6949:6956   */\n      dup7\n        /* \"#utility.yul\":6940:6946   */\n      dup3\n        /* \"#utility.yul\":6929:6938   */\n      dup8\n        /* \"#utility.yul\":6925:6947   */\n      add\n        /* \"#utility.yul\":6904:6957   */\n      tag_318\n      jump\t// in\n    tag_442:\n        /* \"#utility.yul\":6894:6957   */\n      swap2\n      pop\n        /* \"#utility.yul\":6849:6967   */\n      pop\n        /* \"#utility.yul\":6355:6974   */\n      swap3\n      pop\n      swap3\n      pop\n      swap3\n      jump\t// out\n        /* \"#utility.yul\":6980:7312   */\n    tag_99:\n        /* \"#utility.yul\":7101:7105   */\n      0x00\n        /* \"#utility.yul\":7139:7141   */\n      0x40\n        /* \"#utility.yul\":7128:7137   */\n      dup3\n        /* \"#utility.yul\":7124:7142   */\n      add\n        /* \"#utility.yul\":7116:7142   */\n      swap1\n      pop\n        /* \"#utility.yul\":7152:7223   */\n      tag_444\n        /* \"#utility.yul\":7220:7221   */\n      0x00\n        /* \"#utility.yul\":7209:7218   */\n      dup4\n        /* \"#utility.yul\":7205:7222   */\n      add\n        /* \"#utility.yul\":7196:7202   */\n      dup6\n        /* \"#utility.yul\":7152:7223   */\n      tag_330\n      jump\t// in\n    tag_444:\n        /* \"#utility.yul\":7233:7305   */\n      tag_445\n        /* \"#utility.yul\":7301:7303   */\n      0x20\n        /* \"#utility.yul\":7290:7299   */\n      dup4\n        /* \"#utility.yul\":7286:7304   */\n      add\n        /* \"#utility.yul\":7277:7283   */\n      dup5\n        /* \"#utility.yul\":7233:7305   */\n      tag_330\n      jump\t// in\n    tag_445:\n        /* \"#utility.yul\":6980:7312   */\n      swap4\n      swap3\n      pop\n      pop\n      pop\n      jump\t// out\n        /* \"#utility.yul\":7318:7792   */\n    tag_113:\n        /* \"#utility.yul\":7386:7392   */\n      0x00\n        /* \"#utility.yul\":7394:7400   */\n      dup1\n        /* \"#utility.yul\":7443:7445   */\n      0x40\n        /* \"#utility.yul\":7431:7440   */\n      dup4\n        /* \"#utility.yul\":7422:7429   */\n      dup6\n        /* \"#utility.yul\":7418:7441   */\n      sub\n        /* \"#utility.yul\":7414:7446   */\n      slt\n        /* \"#utility.yul\":7411:7530   */\n      iszero\n      tag_447\n      jumpi\n        /* \"#utility.yul\":7449:7528   */\n      tag_448\n      tag_314\n      jump\t// in\n    tag_448:\n        /* \"#utility.yul\":7411:7530   */\n    tag_447:\n        /* \"#utility.yul\":7569:7570   */\n      0x00\n        /* \"#utility.yul\":7594:7647   */\n      tag_449\n        /* \"#utility.yul\":7639:7646   */\n      dup6\n        /* \"#utility.yul\":7630:7636   */\n      dup3\n        /* \"#utility.yul\":7619:7628   */\n      dup7\n        /* \"#utility.yul\":7615:7637   */\n      add\n        /* \"#utility.yul\":7594:7647   */\n      tag_327\n      jump\t// in\n    tag_449:\n        /* \"#utility.yul\":7584:7647   */\n      swap3\n      pop\n        /* \"#utility.yul\":7540:7657   */\n      pop\n        /* \"#utility.yul\":7696:7698   */\n      0x20\n        /* \"#utility.yul\":7722:7775   */\n      tag_450\n        /* \"#utility.yul\":7767:7774   */\n      dup6\n        /* \"#utility.yul\":7758:7764   */\n      dup3\n        /* \"#utility.yul\":7747:7756   */\n      dup7\n        /* \"#utility.yul\":7743:7765   */\n      add\n        /* \"#utility.yul\":7722:7775   */\n      tag_327\n      jump\t// in\n    tag_450:\n        /* \"#utility.yul\":7712:7775   */\n      swap2\n      pop\n        /* \"#utility.yul\":7667:7785   */\n      pop\n        /* \"#utility.yul\":7318:7792   */\n      swap3\n      pop\n      swap3\n      swap1\n      pop\n      jump\t// out\n        /* \"#utility.yul\":7798:8130   */\n    tag_121:\n        /* \"#utility.yul\":7919:7923   */\n      0x00\n        /* \"#utility.yul\":7957:7959   */\n      0x40\n        /* \"#utility.yul\":7946:7955   */\n      dup3\n        /* \"#utility.yul\":7942:7960   */\n      add\n        /* \"#utility.yul\":7934:7960   */\n      swap1\n      pop\n        /* \"#utility.yul\":7970:8041   */\n      tag_452\n        /* \"#utility.yul\":8038:8039   */\n      0x00\n        /* \"#utility.yul\":8027:8036   */\n      dup4\n        /* \"#utility.yul\":8023:8040   */\n      add\n        /* \"#utility.yul\":8014:8020   */\n      dup6\n        /* \"#utility.yul\":7970:8041   */\n      tag_333\n      jump\t// in\n    tag_452:\n        /* \"#utility.yul\":8051:8123   */\n      tag_453\n        /* \"#utility.yul\":8119:8121   */\n      0x20\n        /* \"#utility.yul\":8108:8117   */\n      dup4\n        /* \"#utility.yul\":8104:8122   */\n      add\n        /* \"#utility.yul\":8095:8101   */\n      dup5\n        /* \"#utility.yul\":8051:8123   */\n      tag_330\n      jump\t// in\n    tag_453:\n        /* \"#utility.yul\":7798:8130   */\n      swap4\n      swap3\n      pop\n      pop\n      pop\n      jump\t// out\n        /* \"#utility.yul\":8136:8252   */\n    tag_334:\n        /* \"#utility.yul\":8206:8227   */\n      tag_455\n        /* \"#utility.yul\":8221:8226   */\n      dup2\n        /* \"#utility.yul\":8206:8227   */\n      tag_328\n      jump\t// in\n    tag_455:\n        /* \"#utility.yul\":8199:8204   */\n      dup2\n        /* \"#utility.yul\":8196:8228   */\n      eq\n        /* \"#utility.yul\":8186:8246   */\n      tag_456\n      jumpi\n        /* \"#utility.yul\":8242:8243   */\n      0x00\n        /* \"#utility.yul\":8239:8240   */\n      dup1\n        /* \"#utility.yul\":8232:8244   */\n      revert\n        /* \"#utility.yul\":8186:8246   */\n    tag_456:\n        /* \"#utility.yul\":8136:8252   */\n      pop\n      jump\t// out\n        /* \"#utility.yul\":8258:8395   */\n    tag_335:\n        /* \"#utility.yul\":8312:8317   */\n      0x00\n        /* \"#utility.yul\":8343:8349   */\n      dup2\n        /* \"#utility.yul\":8337:8350   */\n      mload\n        /* \"#utility.yul\":8328:8350   */\n      swap1\n      pop\n        /* \"#utility.yul\":8359:8389   */\n      tag_458\n        /* \"#utility.yul\":8383:8388   */\n      dup2\n        /* \"#utility.yul\":8359:8389   */\n      tag_334\n      jump\t// in\n    tag_458:\n        /* \"#utility.yul\":8258:8395   */\n      swap3\n      swap2\n      pop\n      pop\n      jump\t// out\n        /* \"#utility.yul\":8401:8746   */\n    tag_125:\n        /* \"#utility.yul\":8468:8474   */\n      0x00\n        /* \"#utility.yul\":8517:8519   */\n      0x20\n        /* \"#utility.yul\":8505:8514   */\n      dup3\n        /* \"#utility.yul\":8496:8503   */\n      dup5\n        /* \"#utility.yul\":8492:8515   */\n      sub\n        /* \"#utility.yul\":8488:8520   */\n      slt\n        /* \"#utility.yul\":8485:8604   */\n      iszero\n      tag_460\n      jumpi\n        /* \"#utility.yul\":8523:8602   */\n      tag_461\n      tag_314\n      jump\t// in\n    tag_461:\n        /* \"#utility.yul\":8485:8604   */\n    tag_460:\n        /* \"#utility.yul\":8643:8644   */\n      0x00\n        /* \"#utility.yul\":8668:8729   */\n      tag_462\n        /* \"#utility.yul\":8721:8728   */\n      dup5\n        /* \"#utility.yul\":8712:8718   */\n      dup3\n        /* \"#utility.yul\":8701:8710   */\n      dup6\n        /* \"#utility.yul\":8697:8719   */\n      add\n        /* \"#utility.yul\":8668:8729   */\n      tag_335\n      jump\t// in\n    tag_462:\n        /* \"#utility.yul\":8658:8729   */\n      swap2\n      pop\n        /* \"#utility.yul\":8614:8739   */\n      pop\n        /* \"#utility.yul\":8401:8746   */\n      swap3\n      swap2\n      pop\n      pop\n      jump\t// out\n        /* \"#utility.yul\":8752:9194   */\n    tag_129:\n        /* \"#utility.yul\":8901:8905   */\n      0x00\n        /* \"#utility.yul\":8939:8941   */\n      0x60\n        /* \"#utility.yul\":8928:8937   */\n      dup3\n        /* \"#utility.yul\":8924:8942   */\n      add\n        /* \"#utility.yul\":8916:8942   */\n      swap1\n      pop\n        /* \"#utility.yul\":8952:9023   */\n      tag_464\n        /* \"#utility.yul\":9020:9021   */\n      0x00\n        /* \"#utility.yul\":9009:9018   */\n      dup4\n        /* \"#utility.yul\":9005:9022   */\n      add\n        /* \"#utility.yul\":8996:9002   */\n      dup7\n        /* \"#utility.yul\":8952:9023   */\n      tag_333\n      jump\t// in\n    tag_464:\n        /* \"#utility.yul\":9033:9105   */\n      tag_465\n        /* \"#utility.yul\":9101:9103   */\n      0x20\n        /* \"#utility.yul\":9090:9099   */\n      dup4\n        /* \"#utility.yul\":9086:9104   */\n      add\n        /* \"#utility.yul\":9077:9083   */\n      dup6\n        /* \"#utility.yul\":9033:9105   */\n      tag_333\n      jump\t// in\n    tag_465:\n        /* \"#utility.yul\":9115:9187   */\n      tag_466\n        /* \"#utility.yul\":9183:9185   */\n      0x40\n        /* \"#utility.yul\":9172:9181   */\n      dup4\n        /* \"#utility.yul\":9168:9186   */\n      add\n        /* \"#utility.yul\":9159:9165   */\n      dup5\n        /* \"#utility.yul\":9115:9187   */\n      tag_330\n      jump\t// in\n    tag_466:\n        /* \"#utility.yul\":8752:9194   */\n      swap5\n      swap4\n      pop\n      pop\n      pop\n      pop\n      jump\t// out\n        /* \"#utility.yul\":9200:9347   */\n    tag_336:\n        /* \"#utility.yul\":9301:9312   */\n      0x00\n        /* \"#utility.yul\":9338:9341   */\n      dup2\n        /* \"#utility.yul\":9323:9341   */\n      swap1\n      pop\n        /* \"#utility.yul\":9200:9347   */\n      swap3\n      swap2\n      pop\n      pop\n      jump\t// out\n        /* \"#utility.yul\":9353:9467   */\n    tag_337:\n      pop\n      jump\t// out\n        /* \"#utility.yul\":9473:9871   */\n    tag_338:\n        /* \"#utility.yul\":9632:9635   */\n      0x00\n        /* \"#utility.yul\":9653:9736   */\n      tag_470\n        /* \"#utility.yul\":9734:9735   */\n      0x00\n        /* \"#utility.yul\":9729:9732   */\n      dup4\n        /* \"#utility.yul\":9653:9736   */\n      tag_336\n      jump\t// in\n    tag_470:\n        /* \"#utility.yul\":9646:9736   */\n      swap2\n      pop\n        /* \"#utility.yul\":9745:9838   */\n      tag_471\n        /* \"#utility.yul\":9834:9837   */\n      dup3\n        /* \"#utility.yul\":9745:9838   */\n      tag_337\n      jump\t// in\n    tag_471:\n        /* \"#utility.yul\":9863:9864   */\n      0x00\n        /* \"#utility.yul\":9858:9861   */\n      dup3\n        /* \"#utility.yul\":9854:9865   */\n      add\n        /* \"#utility.yul\":9847:9865   */\n      swap1\n      pop\n        /* \"#utility.yul\":9473:9871   */\n      swap2\n      swap1\n      pop\n      jump\t// out\n        /* \"#utility.yul\":9877:10256   */\n    tag_135:\n        /* \"#utility.yul\":10061:10064   */\n      0x00\n        /* \"#utility.yul\":10083:10230   */\n      tag_473\n        /* \"#utility.yul\":10226:10229   */\n      dup3\n        /* \"#utility.yul\":10083:10230   */\n      tag_338\n      jump\t// in\n    tag_473:\n        /* \"#utility.yul\":10076:10230   */\n      swap2\n      pop\n        /* \"#utility.yul\":10247:10250   */\n      dup2\n        /* \"#utility.yul\":10240:10250   */\n      swap1\n      pop\n        /* \"#utility.yul\":9877:10256   */\n      swap2\n      swap1\n      pop\n      jump\t// out\n        /* \"#utility.yul\":10262:10442   */\n    tag_339:\n        /* \"#utility.yul\":10310:10387   */\n      0x4e487b7100000000000000000000000000000000000000000000000000000000\n        /* \"#utility.yul\":10307:10308   */\n      0x00\n        /* \"#utility.yul\":10300:10388   */\n      mstore\n        /* \"#utility.yul\":10407:10411   */\n      0x22\n        /* \"#utility.yul\":10404:10405   */\n      0x04\n        /* \"#utility.yul\":10397:10412   */\n      mstore\n        /* \"#utility.yul\":10431:10435   */\n      0x24\n        /* \"#utility.yul\":10428:10429   */\n      0x00\n        /* \"#utility.yul\":10421:10436   */\n      revert\n        /* \"#utility.yul\":10448:10768   */\n    tag_142:\n        /* \"#utility.yul\":10492:10498   */\n      0x00\n        /* \"#utility.yul\":10529:10530   */\n      0x02\n        /* \"#utility.yul\":10523:10527   */\n      dup3\n        /* \"#utility.yul\":10519:10531   */\n      div\n        /* \"#utility.yul\":10509:10531   */\n      swap1\n      pop\n        /* \"#utility.yul\":10576:10577   */\n      0x01\n        /* \"#utility.yul\":10570:10574   */\n      dup3\n        /* \"#utility.yul\":10566:10578   */\n      and\n        /* \"#utility.yul\":10597:10615   */\n      dup1\n        /* \"#utility.yul\":10587:10668   */\n      tag_476\n      jumpi\n        /* \"#utility.yul\":10653:10657   */\n      0x7f\n        /* \"#utility.yul\":10645:10651   */\n      dup3\n        /* \"#utility.yul\":10641:10658   */\n      and\n        /* \"#utility.yul\":10631:10658   */\n      swap2\n      pop\n        /* \"#utility.yul\":10587:10668   */\n    tag_476:\n        /* \"#utility.yul\":10715:10717   */\n      0x20\n        /* \"#utility.yul\":10707:10713   */\n      dup3\n        /* \"#utility.yul\":10704:10718   */\n      lt\n        /* \"#utility.yul\":10684:10702   */\n      dup2\n        /* \"#utility.yul\":10681:10719   */\n      sub\n        /* \"#utility.yul\":10678:10762   */\n      tag_477\n      jumpi\n        /* \"#utility.yul\":10734:10752   */\n      tag_478\n      tag_339\n      jump\t// in\n    tag_478:\n        /* \"#utility.yul\":10678:10762   */\n    tag_477:\n        /* \"#utility.yul\":10499:10768   */\n      pop\n        /* \"#utility.yul\":10448:10768   */\n      swap2\n      swap1\n      pop\n      jump\t// out\n        /* \"#utility.yul\":10774:10954   */\n    tag_340:\n        /* \"#utility.yul\":10822:10899   */\n      0x4e487b7100000000000000000000000000000000000000000000000000000000\n        /* \"#utility.yul\":10819:10820   */\n      0x00\n        /* \"#utility.yul\":10812:10900   */\n      mstore\n        /* \"#utility.yul\":10919:10923   */\n      0x11\n        /* \"#utility.yul\":10916:10917   */\n      0x04\n        /* \"#utility.yul\":10909:10924   */\n      mstore\n        /* \"#utility.yul\":10943:10947   */\n      0x24\n        /* \"#utility.yul\":10940:10941   */\n      0x00\n        /* \"#utility.yul\":10933:10948   */\n      revert\n        /* \"#utility.yul\":10960:11154   */\n    tag_156:\n        /* \"#utility.yul\":11000:11004   */\n      0x00\n        /* \"#utility.yul\":11020:11040   */\n      tag_481\n        /* \"#utility.yul\":11038:11039   */\n      dup3\n        /* \"#utility.yul\":11020:11040   */\n      tag_316\n      jump\t// in\n    tag_481:\n        /* \"#utility.yul\":11015:11040   */\n      swap2\n      pop\n        /* \"#utility.yul\":11054:11074   */\n      tag_482\n        /* \"#utility.yul\":11072:11073   */\n      dup4\n        /* \"#utility.yul\":11054:11074   */\n      tag_316\n      jump\t// in\n    tag_482:\n        /* \"#utility.yul\":11049:11074   */\n      swap3\n      pop\n        /* \"#utility.yul\":11098:11099   */\n      dup3\n        /* \"#utility.yul\":11095:11096   */\n      dup3\n        /* \"#utility.yul\":11091:11100   */\n      sub\n        /* \"#utility.yul\":11083:11100   */\n      swap1\n      pop\n        /* \"#utility.yul\":11122:11123   */\n      dup2\n        /* \"#utility.yul\":11116:11120   */\n      dup2\n        /* \"#utility.yul\":11113:11124   */\n      gt\n        /* \"#utility.yul\":11110:11147   */\n      iszero\n      tag_483\n      jumpi\n        /* \"#utility.yul\":11127:11145   */\n      tag_484\n      tag_340\n      jump\t// in\n    tag_484:\n        /* \"#utility.yul\":11110:11147   */\n    tag_483:\n        /* \"#utility.yul\":10960:11154   */\n      swap3\n      swap2\n      pop\n      pop\n      jump\t// out\n        /* \"#utility.yul\":11160:11351   */\n    tag_175:\n        /* \"#utility.yul\":11200:11203   */\n      0x00\n        /* \"#utility.yul\":11219:11239   */\n      tag_486\n        /* \"#utility.yul\":11237:11238   */\n      dup3\n        /* \"#utility.yul\":11219:11239   */\n      tag_316\n      jump\t// in\n    tag_486:\n        /* \"#utility.yul\":11214:11239   */\n      swap2\n      pop\n        /* \"#utility.yul\":11253:11273   */\n      tag_487\n        /* \"#utility.yul\":11271:11272   */\n      dup4\n        /* \"#utility.yul\":11253:11273   */\n      tag_316\n      jump\t// in\n    tag_487:\n        /* \"#utility.yul\":11248:11273   */\n      swap3\n      pop\n        /* \"#utility.yul\":11296:11297   */\n      dup3\n        /* \"#utility.yul\":11293:11294   */\n      dup3\n        /* \"#utility.yul\":11289:11298   */\n      add\n        /* \"#utility.yul\":11282:11298   */\n      swap1\n      pop\n        /* \"#utility.yul\":11317:11320   */\n      dup1\n        /* \"#utility.yul\":11314:11315   */\n      dup3\n        /* \"#utility.yul\":11311:11321   */\n      gt\n        /* \"#utility.yul\":11308:11344   */\n      iszero\n      tag_488\n      jumpi\n        /* \"#utility.yul\":11324:11342   */\n      tag_489\n      tag_340\n      jump\t// in\n    tag_489:\n        /* \"#utility.yul\":11308:11344   */\n    tag_488:\n        /* \"#utility.yul\":11160:11351   */\n      swap3\n      swap2\n      pop\n      pop\n      jump\t// out\n        /* \"#utility.yul\":11357:11537   */\n    tag_341:\n        /* \"#utility.yul\":11405:11482   */\n      0x4e487b7100000000000000000000000000000000000000000000000000000000\n        /* \"#utility.yul\":11402:11403   */\n      0x00\n        /* \"#utility.yul\":11395:11483   */\n      mstore\n        /* \"#utility.yul\":11502:11506   */\n      0x12\n        /* \"#utility.yul\":11499:11500   */\n      0x04\n        /* \"#utility.yul\":11492:11507   */\n      mstore\n        /* \"#utility.yul\":11526:11530   */\n      0x24\n        /* \"#utility.yul\":11523:11524   */\n      0x00\n        /* \"#utility.yul\":11516:11531   */\n      revert\n        /* \"#utility.yul\":11543:11728   */\n    tag_194:\n        /* \"#utility.yul\":11583:11584   */\n      0x00\n        /* \"#utility.yul\":11600:11620   */\n      tag_492\n        /* \"#utility.yul\":11618:11619   */\n      dup3\n        /* \"#utility.yul\":11600:11620   */\n      tag_316\n      jump\t// in\n    tag_492:\n        /* \"#utility.yul\":11595:11620   */\n      swap2\n      pop\n        /* \"#utility.yul\":11634:11654   */\n      tag_493\n        /* \"#utility.yul\":11652:11653   */\n      dup4\n        /* \"#utility.yul\":11634:11654   */\n      tag_316\n      jump\t// in\n    tag_493:\n        /* \"#utility.yul\":11629:11654   */\n      swap3\n      pop\n        /* \"#utility.yul\":11673:11674   */\n      dup3\n        /* \"#utility.yul\":11663:11698   */\n      tag_494\n      jumpi\n        /* \"#utility.yul\":11678:11696   */\n      tag_495\n      tag_341\n      jump\t// in\n    tag_495:\n        /* \"#utility.yul\":11663:11698   */\n    tag_494:\n        /* \"#utility.yul\":11720:11721   */\n      dup3\n        /* \"#utility.yul\":11717:11718   */\n      dup3\n        /* \"#utility.yul\":11713:11722   */\n      div\n        /* \"#utility.yul\":11708:11722   */\n      swap1\n      pop\n        /* \"#utility.yul\":11543:11728   */\n      swap3\n      swap2\n      pop\n      pop\n      jump\t// out\n        /* \"#utility.yul\":11734:12144   */\n    tag_196:\n        /* \"#utility.yul\":11774:11781   */\n      0x00\n        /* \"#utility.yul\":11797:11817   */\n      tag_497\n        /* \"#utility.yul\":11815:11816   */\n      dup3\n        /* \"#utility.yul\":11797:11817   */\n      tag_316\n      jump\t// in\n    tag_497:\n        /* \"#utility.yul\":11792:11817   */\n      swap2\n      pop\n        /* \"#utility.yul\":11831:11851   */\n      tag_498\n        /* \"#utility.yul\":11849:11850   */\n      dup4\n        /* \"#utility.yul\":11831:11851   */\n      tag_316\n      jump\t// in\n    tag_498:\n        /* \"#utility.yul\":11826:11851   */\n      swap3\n      pop\n        /* \"#utility.yul\":11886:11887   */\n      dup3\n        /* \"#utility.yul\":11883:11884   */\n      dup3\n        /* \"#utility.yul\":11879:11888   */\n      mul\n        /* \"#utility.yul\":11908:11938   */\n      tag_499\n        /* \"#utility.yul\":11926:11937   */\n      dup2\n        /* \"#utility.yul\":11908:11938   */\n      tag_316\n      jump\t// in\n    tag_499:\n        /* \"#utility.yul\":11897:11938   */\n      swap2\n      pop\n        /* \"#utility.yul\":12087:12088   */\n      dup3\n        /* \"#utility.yul\":12078:12085   */\n      dup3\n        /* \"#utility.yul\":12074:12089   */\n      div\n        /* \"#utility.yul\":12071:12072   */\n      dup5\n        /* \"#utility.yul\":12068:12090   */\n      eq\n        /* \"#utility.yul\":12048:12049   */\n      dup4\n        /* \"#utility.yul\":12041:12050   */\n      iszero\n        /* \"#utility.yul\":12021:12104   */\n      or\n        /* \"#utility.yul\":11998:12137   */\n      tag_500\n      jumpi\n        /* \"#utility.yul\":12117:12135   */\n      tag_501\n      tag_340\n      jump\t// in\n    tag_501:\n        /* \"#utility.yul\":11998:12137   */\n    tag_500:\n        /* \"#utility.yul\":11782:12144   */\n      pop\n        /* \"#utility.yul\":11734:12144   */\n      swap3\n      swap2\n      pop\n      pop\n      jump\t// out\n        /* \"#utility.yul\":12150:12293   */\n    tag_342:\n        /* \"#utility.yul\":12207:12212   */\n      0x00\n        /* \"#utility.yul\":12238:12244   */\n      dup2\n        /* \"#utility.yul\":12232:12245   */\n      mload\n        /* \"#utility.yul\":12223:12245   */\n      swap1\n      pop\n        /* \"#utility.yul\":12254:12287   */\n      tag_503\n        /* \"#utility.yul\":12281:12286   */\n      dup2\n        /* \"#utility.yul\":12254:12287   */\n      tag_317\n      jump\t// in\n    tag_503:\n        /* \"#utility.yul\":12150:12293   */\n      swap3\n      swap2\n      pop\n      pop\n      jump\t// out\n        /* \"#utility.yul\":12299:12650   */\n    tag_213:\n        /* \"#utility.yul\":12369:12375   */\n      0x00\n        /* \"#utility.yul\":12418:12420   */\n      0x20\n        /* \"#utility.yul\":12406:12415   */\n      dup3\n        /* \"#utility.yul\":12397:12404   */\n      dup5\n        /* \"#utility.yul\":12393:12416   */\n      sub\n        /* \"#utility.yul\":12389:12421   */\n      slt\n        /* \"#utility.yul\":12386:12505   */\n      iszero\n      tag_505\n      jumpi\n        /* \"#utility.yul\":12424:12503   */\n      tag_506\n      tag_314\n      jump\t// in\n    tag_506:\n        /* \"#utility.yul\":12386:12505   */\n    tag_505:\n        /* \"#utility.yul\":12544:12545   */\n      0x00\n        /* \"#utility.yul\":12569:12633   */\n      tag_507\n        /* \"#utility.yul\":12625:12632   */\n      dup5\n        /* \"#utility.yul\":12616:12622   */\n      dup3\n        /* \"#utility.yul\":12605:12614   */\n      dup6\n        /* \"#utility.yul\":12601:12623   */\n      add\n        /* \"#utility.yul\":12569:12633   */\n      tag_342\n      jump\t// in\n    tag_507:\n        /* \"#utility.yul\":12559:12633   */\n      swap2\n      pop\n        /* \"#utility.yul\":12515:12643   */\n      pop\n        /* \"#utility.yul\":12299:12650   */\n      swap3\n      swap2\n      pop\n      pop\n      jump\t// out\n        /* \"#utility.yul\":12656:12880   */\n    tag_343:\n        /* \"#utility.yul\":12796:12830   */\n      0x45524332303a2064656372656173656420616c6c6f77616e63652062656c6f77\n        /* \"#utility.yul\":12792:12793   */\n      0x00\n        /* \"#utility.yul\":12784:12790   */\n      dup3\n        /* \"#utility.yul\":12780:12794   */\n      add\n        /* \"#utility.yul\":12773:12831   */\n      mstore\n        /* \"#utility.yul\":12865:12872   */\n      0x207a65726f000000000000000000000000000000000000000000000000000000\n        /* \"#utility.yul\":12860:12862   */\n      0x20\n        /* \"#utility.yul\":12852:12858   */\n      dup3\n        /* \"#utility.yul\":12848:12863   */\n      add\n        /* \"#utility.yul\":12841:12873   */\n      mstore\n        /* \"#utility.yul\":12656:12880   */\n      pop\n      jump\t// out\n        /* \"#utility.yul\":12886:13252   */\n    tag_344:\n        /* \"#utility.yul\":13028:13031   */\n      0x00\n        /* \"#utility.yul\":13049:13116   */\n      tag_510\n        /* \"#utility.yul\":13113:13115   */\n      0x25\n        /* \"#utility.yul\":13108:13111   */\n      dup4\n        /* \"#utility.yul\":13049:13116   */\n      tag_320\n      jump\t// in\n    tag_510:\n        /* \"#utility.yul\":13042:13116   */\n      swap2\n      pop\n        /* \"#utility.yul\":13125:13218   */\n      tag_511\n        /* \"#utility.yul\":13214:13217   */\n      dup3\n        /* \"#utility.yul\":13125:13218   */\n      tag_343\n      jump\t// in\n    tag_511:\n        /* \"#utility.yul\":13243:13245   */\n      0x40\n        /* \"#utility.yul\":13238:13241   */\n      dup3\n        /* \"#utility.yul\":13234:13246   */\n      add\n        /* \"#utility.yul\":13227:13246   */\n      swap1\n      pop\n        /* \"#utility.yul\":12886:13252   */\n      swap2\n      swap1\n      pop\n      jump\t// out\n        /* \"#utility.yul\":13258:13677   */\n    tag_256:\n        /* \"#utility.yul\":13424:13428   */\n      0x00\n        /* \"#utility.yul\":13462:13464   */\n      0x20\n        /* \"#utility.yul\":13451:13460   */\n      dup3\n        /* \"#utility.yul\":13447:13465   */\n      add\n        /* \"#utility.yul\":13439:13465   */\n      swap1\n      pop\n        /* \"#utility.yul\":13511:13520   */\n      dup2\n        /* \"#utility.yul\":13505:13509   */\n      dup2\n        /* \"#utility.yul\":13501:13521   */\n      sub\n        /* \"#utility.yul\":13497:13498   */\n      0x00\n        /* \"#utility.yul\":13486:13495   */\n      dup4\n        /* \"#utility.yul\":13482:13499   */\n      add\n        /* \"#utility.yul\":13475:13522   */\n      mstore\n        /* \"#utility.yul\":13539:13670   */\n      tag_513\n        /* \"#utility.yul\":13665:13669   */\n      dup2\n        /* \"#utility.yul\":13539:13670   */\n      tag_344\n      jump\t// in\n    tag_513:\n        /* \"#utility.yul\":13531:13670   */\n      swap1\n      pop\n        /* \"#utility.yul\":13258:13677   */\n      swap2\n      swap1\n      pop\n      jump\t// out\n        /* \"#utility.yul\":13683:13906   */\n    tag_345:\n        /* \"#utility.yul\":13823:13857   */\n      0x45524332303a20617070726f76652066726f6d20746865207a65726f20616464\n        /* \"#utility.yul\":13819:13820   */\n      0x00\n        /* \"#utility.yul\":13811:13817   */\n      dup3\n        /* \"#utility.yul\":13807:13821   */\n      add\n        /* \"#utility.yul\":13800:13858   */\n      mstore\n        /* \"#utility.yul\":13892:13898   */\n      0x7265737300000000000000000000000000000000000000000000000000000000\n        /* \"#utility.yul\":13887:13889   */\n      0x20\n        /* \"#utility.yul\":13879:13885   */\n      dup3\n        /* \"#utility.yul\":13875:13890   */\n      add\n        /* \"#utility.yul\":13868:13899   */\n      mstore\n        /* \"#utility.yul\":13683:13906   */\n      pop\n      jump\t// out\n        /* \"#utility.yul\":13912:14278   */\n    tag_346:\n        /* \"#utility.yul\":14054:14057   */\n      0x00\n        /* \"#utility.yul\":14075:14142   */\n      tag_516\n        /* \"#utility.yul\":14139:14141   */\n      0x24\n        /* \"#utility.yul\":14134:14137   */\n      dup4\n        /* \"#utility.yul\":14075:14142   */\n      tag_320\n      jump\t// in\n    tag_516:\n        /* \"#utility.yul\":14068:14142   */\n      swap2\n      pop\n        /* \"#utility.yul\":14151:14244   */\n      tag_517\n        /* \"#utility.yul\":14240:14243   */\n      dup3\n        /* \"#utility.yul\":14151:14244   */\n      tag_345\n      jump\t// in\n    tag_517:\n        /* \"#utility.yul\":14269:14271   */\n      0x40\n        /* \"#utility.yul\":14264:14267   */\n      dup3\n        /* \"#utility.yul\":14260:14272   */\n      add\n        /* \"#utility.yul\":14253:14272   */\n      swap1\n      pop\n        /* \"#utility.yul\":13912:14278   */\n      swap2\n      swap1\n      pop\n      jump\t// out\n        /* \"#utility.yul\":14284:14703   */\n    tag_266:\n        /* \"#utility.yul\":14450:14454   */\n      0x00\n        /* \"#utility.yul\":14488:14490   */\n      0x20\n        /* \"#utility.yul\":14477:14486   */\n      dup3\n        /* \"#utility.yul\":14473:14491   */\n      add\n        /* \"#utility.yul\":14465:14491   */\n      swap1\n      pop\n        /* \"#utility.yul\":14537:14546   */\n      dup2\n        /* \"#utility.yul\":14531:14535   */\n      dup2\n        /* \"#utility.yul\":14527:14547   */\n      sub\n        /* \"#utility.yul\":14523:14524   */\n      0x00\n        /* \"#utility.yul\":14512:14521   */\n      dup4\n        /* \"#utility.yul\":14508:14525   */\n      add\n        /* \"#utility.yul\":14501:14548   */\n      mstore\n        /* \"#utility.yul\":14565:14696   */\n      tag_519\n        /* \"#utility.yul\":14691:14695   */\n      dup2\n        /* \"#utility.yul\":14565:14696   */\n      tag_346\n      jump\t// in\n    tag_519:\n        /* \"#utility.yul\":14557:14696   */\n      swap1\n      pop\n        /* \"#utility.yul\":14284:14703   */\n      swap2\n      swap1\n      pop\n      jump\t// out\n        /* \"#utility.yul\":14709:14930   */\n    tag_347:\n        /* \"#utility.yul\":14849:14883   */\n      0x45524332303a20617070726f766520746f20746865207a65726f206164647265\n        /* \"#utility.yul\":14845:14846   */\n      0x00\n        /* \"#utility.yul\":14837:14843   */\n      dup3\n        /* \"#utility.yul\":14833:14847   */\n      add\n        /* \"#utility.yul\":14826:14884   */\n      mstore\n        /* \"#utility.yul\":14918:14922   */\n      0x7373000000000000000000000000000000000000000000000000000000000000\n        /* \"#utility.yul\":14913:14915   */\n      0x20\n        /* \"#utility.yul\":14905:14911   */\n      dup3\n        /* \"#utility.yul\":14901:14916   */\n      add\n        /* \"#utility.yul\":14894:14923   */\n      mstore\n        /* \"#utility.yul\":14709:14930   */\n      pop\n      jump\t// out\n        /* \"#utility.yul\":14936:15302   */\n    tag_348:\n        /* \"#utility.yul\":15078:15081   */\n      0x00\n        /* \"#utility.yul\":15099:15166   */\n      tag_522\n        /* \"#utility.yul\":15163:15165   */\n      0x22\n        /* \"#utility.yul\":15158:15161   */\n      dup4\n        /* \"#utility.yul\":15099:15166   */\n      tag_320\n      jump\t// in\n    tag_522:\n        /* \"#utility.yul\":15092:15166   */\n      swap2\n      pop\n        /* \"#utility.yul\":15175:15268   */\n      tag_523\n        /* \"#utility.yul\":15264:15267   */\n      dup3\n        /* \"#utility.yul\":15175:15268   */\n      tag_347\n      jump\t// in\n    tag_523:\n        /* \"#utility.yul\":15293:15295   */\n      0x40\n        /* \"#utility.yul\":15288:15291   */\n      dup3\n        /* \"#utility.yul\":15284:15296   */\n      add\n        /* \"#utility.yul\":15277:15296   */\n      swap1\n      pop\n        /* \"#utility.yul\":14936:15302   */\n      swap2\n      swap1\n      pop\n      jump\t// out\n        /* \"#utility.yul\":15308:15727   */\n    tag_269:\n        /* \"#utility.yul\":15474:15478   */\n      0x00\n        /* \"#utility.yul\":15512:15514   */\n      0x20\n        /* \"#utility.yul\":15501:15510   */\n      dup3\n        /* \"#utility.yul\":15497:15515   */\n      add\n        /* \"#utility.yul\":15489:15515   */\n      swap1\n      pop\n        /* \"#utility.yul\":15561:15570   */\n      dup2\n        /* \"#utility.yul\":15555:15559   */\n      dup2\n        /* \"#utility.yul\":15551:15571   */\n      sub\n        /* \"#utility.yul\":15547:15548   */\n      0x00\n        /* \"#utility.yul\":15536:15545   */\n      dup4\n        /* \"#utility.yul\":15532:15549   */\n      add\n        /* \"#utility.yul\":15525:15572   */\n      mstore\n        /* \"#utility.yul\":15589:15720   */\n      tag_525\n        /* \"#utility.yul\":15715:15719   */\n      dup2\n        /* \"#utility.yul\":15589:15720   */\n      tag_348\n      jump\t// in\n    tag_525:\n        /* \"#utility.yul\":15581:15720   */\n      swap1\n      pop\n        /* \"#utility.yul\":15308:15727   */\n      swap2\n      swap1\n      pop\n      jump\t// out\n        /* \"#utility.yul\":15733:15912   */\n    tag_349:\n        /* \"#utility.yul\":15873:15904   */\n      0x45524332303a20696e73756666696369656e7420616c6c6f77616e6365000000\n        /* \"#utility.yul\":15869:15870   */\n      0x00\n        /* \"#utility.yul\":15861:15867   */\n      dup3\n        /* \"#utility.yul\":15857:15871   */\n      add\n        /* \"#utility.yul\":15850:15905   */\n      mstore\n        /* \"#utility.yul\":15733:15912   */\n      pop\n      jump\t// out\n        /* \"#utility.yul\":15918:16284   */\n    tag_350:\n        /* \"#utility.yul\":16060:16063   */\n      0x00\n        /* \"#utility.yul\":16081:16148   */\n      tag_528\n        /* \"#utility.yul\":16145:16147   */\n      0x1d\n        /* \"#utility.yul\":16140:16143   */\n      dup4\n        /* \"#utility.yul\":16081:16148   */\n      tag_320\n      jump\t// in\n    tag_528:\n        /* \"#utility.yul\":16074:16148   */\n      swap2\n      pop\n        /* \"#utility.yul\":16157:16250   */\n      tag_529\n        /* \"#utility.yul\":16246:16249   */\n      dup3\n        /* \"#utility.yul\":16157:16250   */\n      tag_349\n      jump\t// in\n    tag_529:\n        /* \"#utility.yul\":16275:16277   */\n      0x20\n        /* \"#utility.yul\":16270:16273   */\n      dup3\n        /* \"#utility.yul\":16266:16278   */\n      add\n        /* \"#utility.yul\":16259:16278   */\n      swap1\n      pop\n        /* \"#utility.yul\":15918:16284   */\n      swap2\n      swap1\n      pop\n      jump\t// out\n        /* \"#utility.yul\":16290:16709   */\n    tag_276:\n        /* \"#utility.yul\":16456:16460   */\n      0x00\n        /* \"#utility.yul\":16494:16496   */\n      0x20\n        /* \"#utility.yul\":16483:16492   */\n      dup3\n        /* \"#utility.yul\":16479:16497   */\n      add\n        /* \"#utility.yul\":16471:16497   */\n      swap1\n      pop\n        /* \"#utility.yul\":16543:16552   */\n      dup2\n        /* \"#utility.yul\":16537:16541   */\n      dup2\n        /* \"#utility.yul\":16533:16553   */\n      sub\n        /* \"#utility.yul\":16529:16530   */\n      0x00\n        /* \"#utility.yul\":16518:16527   */\n      dup4\n        /* \"#utility.yul\":16514:16531   */\n      add\n        /* \"#utility.yul\":16507:16554   */\n      mstore\n        /* \"#utility.yul\":16571:16702   */\n      tag_531\n        /* \"#utility.yul\":16697:16701   */\n      dup2\n        /* \"#utility.yul\":16571:16702   */\n      tag_350\n      jump\t// in\n    tag_531:\n        /* \"#utility.yul\":16563:16702   */\n      swap1\n      pop\n        /* \"#utility.yul\":16290:16709   */\n      swap2\n      swap1\n      pop\n      jump\t// out\n        /* \"#utility.yul\":16715:16939   */\n    tag_351:\n        /* \"#utility.yul\":16855:16889   */\n      0x45524332303a207472616e736665722066726f6d20746865207a65726f206164\n        /* \"#utility.yul\":16851:16852   */\n      0x00\n        /* \"#utility.yul\":16843:16849   */\n      dup3\n        /* \"#utility.yul\":16839:16853   */\n      add\n        /* \"#utility.yul\":16832:16890   */\n      mstore\n        /* \"#utility.yul\":16924:16931   */\n      0x6472657373000000000000000000000000000000000000000000000000000000\n        /* \"#utility.yul\":16919:16921   */\n      0x20\n        /* \"#utility.yul\":16911:16917   */\n      dup3\n        /* \"#utility.yul\":16907:16922   */\n      add\n        /* \"#utility.yul\":16900:16932   */\n      mstore\n        /* \"#utility.yul\":16715:16939   */\n      pop\n      jump\t// out\n        /* \"#utility.yul\":16945:17311   */\n    tag_352:\n        /* \"#utility.yul\":17087:17090   */\n      0x00\n        /* \"#utility.yul\":17108:17175   */\n      tag_534\n        /* \"#utility.yul\":17172:17174   */\n      0x25\n        /* \"#utility.yul\":17167:17170   */\n      dup4\n        /* \"#utility.yul\":17108:17175   */\n      tag_320\n      jump\t// in\n    tag_534:\n        /* \"#utility.yul\":17101:17175   */\n      swap2\n      pop\n        /* \"#utility.yul\":17184:17277   */\n      tag_535\n        /* \"#utility.yul\":17273:17276   */\n      dup3\n        /* \"#utility.yul\":17184:17277   */\n      tag_351\n      jump\t// in\n    tag_535:\n        /* \"#utility.yul\":17302:17304   */\n      0x40\n        /* \"#utility.yul\":17297:17300   */\n      dup3\n        /* \"#utility.yul\":17293:17305   */\n      add\n        /* \"#utility.yul\":17286:17305   */\n      swap1\n      pop\n        /* \"#utility.yul\":16945:17311   */\n      swap2\n      swap1\n      pop\n      jump\t// out\n        /* \"#utility.yul\":17317:17736   */\n    tag_281:\n        /* \"#utility.yul\":17483:17487   */\n      0x00\n        /* \"#utility.yul\":17521:17523   */\n      0x20\n        /* \"#utility.yul\":17510:17519   */\n      dup3\n        /* \"#utility.yul\":17506:17524   */\n      add\n        /* \"#utility.yul\":17498:17524   */\n      swap1\n      pop\n        /* \"#utility.yul\":17570:17579   */\n      dup2\n        /* \"#utility.yul\":17564:17568   */\n      dup2\n        /* \"#utility.yul\":17560:17580   */\n      sub\n        /* \"#utility.yul\":17556:17557   */\n      0x00\n        /* \"#utility.yul\":17545:17554   */\n      dup4\n        /* \"#utility.yul\":17541:17558   */\n      add\n        /* \"#utility.yul\":17534:17581   */\n      mstore\n        /* \"#utility.yul\":17598:17729   */\n      tag_537\n        /* \"#utility.yul\":17724:17728   */\n      dup2\n        /* \"#utility.yul\":17598:17729   */\n      tag_352\n      jump\t// in\n    tag_537:\n        /* \"#utility.yul\":17590:17729   */\n      swap1\n      pop\n        /* \"#utility.yul\":17317:17736   */\n      swap2\n      swap1\n      pop\n      jump\t// out\n        /* \"#utility.yul\":17742:17964   */\n    tag_353:\n        /* \"#utility.yul\":17882:17916   */\n      0x45524332303a207472616e7366657220746f20746865207a65726f2061646472\n        /* \"#utility.yul\":17878:17879   */\n      0x00\n        /* \"#utility.yul\":17870:17876   */\n      dup3\n        /* \"#utility.yul\":17866:17880   */\n      add\n        /* \"#utility.yul\":17859:17917   */\n      mstore\n        /* \"#utility.yul\":17951:17956   */\n      0x6573730000000000000000000000000000000000000000000000000000000000\n        /* \"#utility.yul\":17946:17948   */\n      0x20\n        /* \"#utility.yul\":17938:17944   */\n      dup3\n        /* \"#utility.yul\":17934:17949   */\n      add\n        /* \"#utility.yul\":17927:17957   */\n      mstore\n        /* \"#utility.yul\":17742:17964   */\n      pop\n      jump\t// out\n        /* \"#utility.yul\":17970:18336   */\n    tag_354:\n        /* \"#utility.yul\":18112:18115   */\n      0x00\n        /* \"#utility.yul\":18133:18200   */\n      tag_540\n        /* \"#utility.yul\":18197:18199   */\n      0x23\n        /* \"#utility.yul\":18192:18195   */\n      dup4\n        /* \"#utility.yul\":18133:18200   */\n      tag_320\n      jump\t// in\n    tag_540:\n        /* \"#utility.yul\":18126:18200   */\n      swap2\n      pop\n        /* \"#utility.yul\":18209:18302   */\n      tag_541\n        /* \"#utility.yul\":18298:18301   */\n      dup3\n        /* \"#utility.yul\":18209:18302   */\n      tag_353\n      jump\t// in\n    tag_541:\n        /* \"#utility.yul\":18327:18329   */\n      0x40\n        /* \"#utility.yul\":18322:18325   */\n      dup3\n        /* \"#utility.yul\":18318:18330   */\n      add\n        /* \"#utility.yul\":18311:18330   */\n      swap1\n      pop\n        /* \"#utility.yul\":17970:18336   */\n      swap2\n      swap1\n      pop\n      jump\t// out\n        /* \"#utility.yul\":18342:18761   */\n    tag_284:\n        /* \"#utility.yul\":18508:18512   */\n      0x00\n        /* \"#utility.yul\":18546:18548   */\n      0x20\n        /* \"#utility.yul\":18535:18544   */\n      dup3\n        /* \"#utility.yul\":18531:18549   */\n      add\n        /* \"#utility.yul\":18523:18549   */\n      swap1\n      pop\n        /* \"#utility.yul\":18595:18604   */\n      dup2\n        /* \"#utility.yul\":18589:18593   */\n      dup2\n        /* \"#utility.yul\":18585:18605   */\n      sub\n        /* \"#utility.yul\":18581:18582   */\n      0x00\n        /* \"#utility.yul\":18570:18579   */\n      dup4\n        /* \"#utility.yul\":18566:18583   */\n      add\n        /* \"#utility.yul\":18559:18606   */\n      mstore\n        /* \"#utility.yul\":18623:18754   */\n      tag_543\n        /* \"#utility.yul\":18749:18753   */\n      dup2\n        /* \"#utility.yul\":18623:18754   */\n      tag_354\n      jump\t// in\n    tag_543:\n        /* \"#utility.yul\":18615:18754   */\n      swap1\n      pop\n        /* \"#utility.yul\":18342:18761   */\n      swap2\n      swap1\n      pop\n      jump\t// out\n        /* \"#utility.yul\":18767:18992   */\n    tag_355:\n        /* \"#utility.yul\":18907:18941   */\n      0x45524332303a207472616e7366657220616d6f756e7420657863656564732062\n        /* \"#utility.yul\":18903:18904   */\n      0x00\n        /* \"#utility.yul\":18895:18901   */\n      dup3\n        /* \"#utility.yul\":18891:18905   */\n      add\n        /* \"#utility.yul\":18884:18942   */\n      mstore\n        /* \"#utility.yul\":18976:18984   */\n      0x616c616e63650000000000000000000000000000000000000000000000000000\n        /* \"#utility.yul\":18971:18973   */\n      0x20\n        /* \"#utility.yul\":18963:18969   */\n      dup3\n        /* \"#utility.yul\":18959:18974   */\n      add\n        /* \"#utility.yul\":18952:18985   */\n      mstore\n        /* \"#utility.yul\":18767:18992   */\n      pop\n      jump\t// out\n        /* \"#utility.yul\":18998:19364   */\n    tag_356:\n        /* \"#utility.yul\":19140:19143   */\n      0x00\n        /* \"#utility.yul\":19161:19228   */\n      tag_546\n        /* \"#utility.yul\":19225:19227   */\n      0x26\n        /* \"#utility.yul\":19220:19223   */\n      dup4\n        /* \"#utility.yul\":19161:19228   */\n      tag_320\n      jump\t// in\n    tag_546:\n        /* \"#utility.yul\":19154:19228   */\n      swap2\n      pop\n        /* \"#utility.yul\":19237:19330   */\n      tag_547\n        /* \"#utility.yul\":19326:19329   */\n      dup3\n        /* \"#utility.yul\":19237:19330   */\n      tag_355\n      jump\t// in\n    tag_547:\n        /* \"#utility.yul\":19355:19357   */\n      0x40\n        /* \"#utility.yul\":19350:19353   */\n      dup3\n        /* \"#utility.yul\":19346:19358   */\n      add\n        /* \"#utility.yul\":19339:19358   */\n      swap1\n      pop\n        /* \"#utility.yul\":18998:19364   */\n      swap2\n      swap1\n      pop\n      jump\t// out\n        /* \"#utility.yul\":19370:19789   */\n    tag_289:\n        /* \"#utility.yul\":19536:19540   */\n      0x00\n        /* \"#utility.yul\":19574:19576   */\n      0x20\n        /* \"#utility.yul\":19563:19572   */\n      dup3\n        /* \"#utility.yul\":19559:19577   */\n      add\n        /* \"#utility.yul\":19551:19577   */\n      swap1\n      pop\n        /* \"#utility.yul\":19623:19632   */\n      dup2\n        /* \"#utility.yul\":19617:19621   */\n      dup2\n        /* \"#utility.yul\":19613:19633   */\n      sub\n        /* \"#utility.yul\":19609:19610   */\n      0x00\n        /* \"#utility.yul\":19598:19607   */\n      dup4\n        /* \"#utility.yul\":19594:19611   */\n      add\n        /* \"#utility.yul\":19587:19634   */\n      mstore\n        /* \"#utility.yul\":19651:19782   */\n      tag_549\n        /* \"#utility.yul\":19777:19781   */\n      dup2\n        /* \"#utility.yul\":19651:19782   */\n      tag_356\n      jump\t// in\n    tag_549:\n        /* \"#utility.yul\":19643:19782   */\n      swap1\n      pop\n        /* \"#utility.yul\":19370:19789   */\n      swap2\n      swap1\n      pop\n      jump\t// out\n        /* \"#utility.yul\":19795:19976   */\n    tag_357:\n        /* \"#utility.yul\":19935:19968   */\n      0x45524332303a206d696e7420746f20746865207a65726f206164647265737300\n        /* \"#utility.yul\":19931:19932   */\n      0x00\n        /* \"#utility.yul\":19923:19929   */\n      dup3\n        /* \"#utility.yul\":19919:19933   */\n      add\n        /* \"#utility.yul\":19912:19969   */\n      mstore\n        /* \"#utility.yul\":19795:19976   */\n      pop\n      jump\t// out\n        /* \"#utility.yul\":19982:20348   */\n    tag_358:\n        /* \"#utility.yul\":20124:20127   */\n      0x00\n        /* \"#utility.yul\":20145:20212   */\n      tag_552\n        /* \"#utility.yul\":20209:20211   */\n      0x1f\n        /* \"#utility.yul\":20204:20207   */\n      dup4\n        /* \"#utility.yul\":20145:20212   */\n      tag_320\n      jump\t// in\n    tag_552:\n        /* \"#utility.yul\":20138:20212   */\n      swap2\n      pop\n        /* \"#utility.yul\":20221:20314   */\n      tag_553\n        /* \"#utility.yul\":20310:20313   */\n      dup3\n        /* \"#utility.yul\":20221:20314   */\n      tag_357\n      jump\t// in\n    tag_553:\n        /* \"#utility.yul\":20339:20341   */\n      0x20\n        /* \"#utility.yul\":20334:20337   */\n      dup3\n        /* \"#utility.yul\":20330:20342   */\n      add\n        /* \"#utility.yul\":20323:20342   */\n      swap1\n      pop\n        /* \"#utility.yul\":19982:20348   */\n      swap2\n      swap1\n      pop\n      jump\t// out\n        /* \"#utility.yul\":20354:20773   */\n    tag_296:\n        /* \"#utility.yul\":20520:20524   */\n      0x00\n        /* \"#utility.yul\":20558:20560   */\n      0x20\n        /* \"#utility.yul\":20547:20556   */\n      dup3\n        /* \"#utility.yul\":20543:20561   */\n      add\n        /* \"#utility.yul\":20535:20561   */\n      swap1\n      pop\n        /* \"#utility.yul\":20607:20616   */\n      dup2\n        /* \"#utility.yul\":20601:20605   */\n      dup2\n        /* \"#utility.yul\":20597:20617   */\n      sub\n        /* \"#utility.yul\":20593:20594   */\n      0x00\n        /* \"#utility.yul\":20582:20591   */\n      dup4\n        /* \"#utility.yul\":20578:20595   */\n      add\n        /* \"#utility.yul\":20571:20618   */\n      mstore\n        /* \"#utility.yul\":20635:20766   */\n      tag_555\n        /* \"#utility.yul\":20761:20765   */\n      dup2\n        /* \"#utility.yul\":20635:20766   */\n      tag_358\n      jump\t// in\n    tag_555:\n        /* \"#utility.yul\":20627:20766   */\n      swap1\n      pop\n        /* \"#utility.yul\":20354:20773   */\n      swap2\n      swap1\n      pop\n      jump\t// out\n        /* \"#utility.yul\":20779:20999   */\n    tag_359:\n        /* \"#utility.yul\":20919:20953   */\n      0x45524332303a206275726e2066726f6d20746865207a65726f20616464726573\n        /* \"#utility.yul\":20915:20916   */\n      0x00\n        /* \"#utility.yul\":20907:20913   */\n      dup3\n        /* \"#utility.yul\":20903:20917   */\n      add\n        /* \"#utility.yul\":20896:20954   */\n      mstore\n        /* \"#utility.yul\":20988:20991   */\n      0x7300000000000000000000000000000000000000000000000000000000000000\n        /* \"#utility.yul\":20983:20985   */\n      0x20\n        /* \"#utility.yul\":20975:20981   */\n      dup3\n        /* \"#utility.yul\":20971:20986   */\n      add\n        /* \"#utility.yul\":20964:20992   */\n      mstore\n        /* \"#utility.yul\":20779:20999   */\n      pop\n      jump\t// out\n        /* \"#utility.yul\":21005:21371   */\n    tag_360:\n        /* \"#utility.yul\":21147:21150   */\n      0x00\n        /* \"#utility.yul\":21168:21235   */\n      tag_558\n        /* \"#utility.yul\":21232:21234   */\n      0x21\n        /* \"#utility.yul\":21227:21230   */\n      dup4\n        /* \"#utility.yul\":21168:21235   */\n      tag_320\n      jump\t// in\n    tag_558:\n        /* \"#utility.yul\":21161:21235   */\n      swap2\n      pop\n        /* \"#utility.yul\":21244:21337   */\n      tag_559\n        /* \"#utility.yul\":21333:21336   */\n      dup3\n        /* \"#utility.yul\":21244:21337   */\n      tag_359\n      jump\t// in\n    tag_559:\n        /* \"#utility.yul\":21362:21364   */\n      0x40\n        /* \"#utility.yul\":21357:21360   */\n      dup3\n        /* \"#utility.yul\":21353:21365   */\n      add\n        /* \"#utility.yul\":21346:21365   */\n      swap1\n      pop\n        /* \"#utility.yul\":21005:21371   */\n      swap2\n      swap1\n      pop\n      jump\t// out\n        /* \"#utility.yul\":21377:21796   */\n    tag_304:\n        /* \"#utility.yul\":21543:21547   */\n      0x00\n        /* \"#utility.yul\":21581:21583   */\n      0x20\n        /* \"#utility.yul\":21570:21579   */\n      dup3\n        /* \"#utility.yul\":21566:21584   */\n      add\n        /* \"#utility.yul\":21558:21584   */\n      swap1\n      pop\n        /* \"#utility.yul\":21630:21639   */\n      dup2\n        /* \"#utility.yul\":21624:21628   */\n      dup2\n        /* \"#utility.yul\":21620:21640   */\n      sub\n        /* \"#utility.yul\":21616:21617   */\n      0x00\n        /* \"#utility.yul\":21605:21614   */\n      dup4\n        /* \"#utility.yul\":21601:21618   */\n      add\n        /* \"#utility.yul\":21594:21641   */\n      mstore\n        /* \"#utility.yul\":21658:21789   */\n      tag_561\n        /* \"#utility.yul\":21784:21788   */\n      dup2\n        /* \"#utility.yul\":21658:21789   */\n      tag_360\n      jump\t// in\n    tag_561:\n        /* \"#utility.yul\":21650:21789   */\n      swap1\n      pop\n        /* \"#utility.yul\":21377:21796   */\n      swap2\n      swap1\n      pop\n      jump\t// out\n        /* \"#utility.yul\":21802:22023   */\n    tag_361:\n        /* \"#utility.yul\":21942:21976   */\n      0x45524332303a206275726e20616d6f756e7420657863656564732062616c616e\n        /* \"#utility.yul\":21938:21939   */\n      0x00\n        /* \"#utility.yul\":21930:21936   */\n      dup3\n        /* \"#utility.yul\":21926:21940   */\n      add\n        /* \"#utility.yul\":21919:21977   */\n      mstore\n        /* \"#utility.yul\":22011:22015   */\n      0x6365000000000000000000000000000000000000000000000000000000000000\n        /* \"#utility.yul\":22006:22008   */\n      0x20\n        /* \"#utility.yul\":21998:22004   */\n      dup3\n        /* \"#utility.yul\":21994:22009   */\n      add\n        /* \"#utility.yul\":21987:22016   */\n      mstore\n        /* \"#utility.yul\":21802:22023   */\n      pop\n      jump\t// out\n        /* \"#utility.yul\":22029:22395   */\n    tag_362:\n        /* \"#utility.yul\":22171:22174   */\n      0x00\n        /* \"#utility.yul\":22192:22259   */\n      tag_564\n        /* \"#utility.yul\":22256:22258   */\n      0x22\n        /* \"#utility.yul\":22251:22254   */\n      dup4\n        /* \"#utility.yul\":22192:22259   */\n      tag_320\n      jump\t// in\n    tag_564:\n        /* \"#utility.yul\":22185:22259   */\n      swap2\n      pop\n        /* \"#utility.yul\":22268:22361   */\n      tag_565\n        /* \"#utility.yul\":22357:22360   */\n      dup3\n        /* \"#utility.yul\":22268:22361   */\n      tag_361\n      jump\t// in\n    tag_565:\n        /* \"#utility.yul\":22386:22388   */\n      0x40\n        /* \"#utility.yul\":22381:22384   */\n      dup3\n        /* \"#utility.yul\":22377:22389   */\n      add\n        /* \"#utility.yul\":22370:22389   */\n      swap1\n      pop\n        /* \"#utility.yul\":22029:22395   */\n      swap2\n      swap1\n      pop\n      jump\t// out\n        /* \"#utility.yul\":22401:22820   */\n    tag_308:\n        /* \"#utility.yul\":22567:22571   */\n      0x00\n        /* \"#utility.yul\":22605:22607   */\n      0x20\n        /* \"#utility.yul\":22594:22603   */\n      dup3\n        /* \"#utility.yul\":22590:22608   */\n      add\n        /* \"#utility.yul\":22582:22608   */\n      swap1\n      pop\n        /* \"#utility.yul\":22654:22663   */\n      dup2\n        /* \"#utility.yul\":22648:22652   */\n      dup2\n        /* \"#utility.yul\":22644:22664   */\n      sub\n        /* \"#utility.yul\":22640:22641   */\n      0x00\n        /* \"#utility.yul\":22629:22638   */\n      dup4\n        /* \"#utility.yul\":22625:22642   */\n      add\n        /* \"#utility.yul\":22618:22665   */\n      mstore\n        /* \"#utility.yul\":22682:22813   */\n      tag_567\n        /* \"#utility.yul\":22808:22812   */\n      dup2\n        /* \"#utility.yul\":22682:22813   */\n      tag_362\n      jump\t// in\n    tag_567:\n        /* \"#utility.yul\":22674:22813   */\n      swap1\n      pop\n        /* \"#utility.yul\":22401:22820   */\n      swap2\n      swap1\n      pop\n      jump\t// out\n\n    auxdata: 0xa264697066735822122067ffa0e2ce857a6c9dc9a90383f3016692d8de6e39c71ebbf435c1c2b05895cb64736f6c63430008130033\n}\n",
				"bytecode": {
					"linkReferences": {},
					"object": "60806040523480156200001157600080fd5b5060405162002b1138038062002b118339818101604052810190620000379190620001e2565b6040518060400160405280600e81526020017f54474f4c44204c5020546f6b656e0000000000000000000000000000000000008152506040518060400160405280600481526020017f54474c50000000000000000000000000000000000000000000000000000000008152508160039081620000b491906200048e565b508060049081620000c691906200048e565b505050600073ffffffffffffffffffffffffffffffffffffffff168173ffffffffffffffffffffffffffffffffffffffff160362000130576040517f92863bea00000000000000000000000000000000000000000000000000000000815260040160405180910390fd5b80600560006101000a81548173ffffffffffffffffffffffffffffffffffffffff021916908373ffffffffffffffffffffffffffffffffffffffff1602179055505062000575565b600080fd5b600073ffffffffffffffffffffffffffffffffffffffff82169050919050565b6000620001aa826200017d565b9050919050565b620001bc816200019d565b8114620001c857600080fd5b50565b600081519050620001dc81620001b1565b92915050565b600060208284031215620001fb57620001fa62000178565b5b60006200020b84828501620001cb565b91505092915050565b600081519050919050565b7f4e487b7100000000000000000000000000000000000000000000000000000000600052604160045260246000fd5b7f4e487b7100000000000000000000000000000000000000000000000000000000600052602260045260246000fd5b600060028204905060018216806200029657607f821691505b602082108103620002ac57620002ab6200024e565b5b50919050565b60008190508160005260206000209050919050565b60006020601f8301049050919050565b600082821b905092915050565b600060088302620003167fffffffffffffffffffffffffffffffffffffffffffffffffffffffffffffffff82620002d7565b620003228683620002d7565b95508019841693508086168417925050509392505050565b6000819050919050565b6000819050919050565b60006200036f6200036962000363846200033a565b62000344565b6200033a565b9050919050565b6000819050919050565b6200038b836200034e565b620003a36200039a8262000376565b848454620002e4565b825550505050565b600090565b620003ba620003ab565b620003c781848462000380565b505050565b5b81811015620003ef57620003e3600082620003b0565b600181019050620003cd565b5050565b601f8211156200043e576200040881620002b2565b6200041384620002c7565b8101602085101562000423578190505b6200043b6200043285620002c7565b830182620003cc565b50505b505050565b600082821c905092915050565b6000620004636000198460080262000443565b1980831691505092915050565b60006200047e838362000450565b9150826002028217905092915050565b620004998262000214565b67ffffffffffffffff811115620004b557620004b46200021f565b5b620004c182546200027d565b620004ce828285620003f3565b600060209050601f831160018114620005065760008415620004f1578287015190505b620004fd858262000470565b8655506200056d565b601f1984166200051686620002b2565b60005b82811015620005405784890151825560018201915060208501945060208101905062000519565b868310156200056057848901516200055c601f89168262000450565b8355505b6001600288020188555050505b505050505050565b61258c80620005856000396000f3fe6080604052600436106101095760003560e01c806351c6590a1161009557806395d89b411161006457806395d89b411461038b5780639c8f9f23146103b6578063a457c2d7146103f4578063a9059cbb14610431578063dd62ed3e1461046e57610109565b806351c6590a146102b657806359bf5d39146102e657806370a08231146103115780637386479e1461034e57610109565b80631ffa582d116100dc5780631ffa582d146101ca57806323b872dd146101e6578063313ce56714610223578063395093511461024e5780633ee12bd11461028b57610109565b80630465b2f51461010e57806306fdde0314610137578063095ea7b31461016257806318160ddd1461019f575b600080fd5b34801561011a57600080fd5b506101356004803603810190610130919061195a565b6104ab565b005b34801561014357600080fd5b5061014c6106f6565b6040516101599190611a2a565b60405180910390f35b34801561016e57600080fd5b5061018960048036038101906101849190611aaa565b610788565b6040516101969190611b05565b60405180910390f35b3480156101ab57600080fd5b506101b46107ab565b6040516101c19190611b2f565b60405180910390f35b6101e460048036038101906101df9190611b4a565b6107b5565b005b3480156101f257600080fd5b5061020d60048036038101906102089190611b77565b6108c2565b60405161021a9190611b05565b60405180910390f35b34801561022f57600080fd5b506102386108f1565b6040516102459190611be6565b60405180910390f35b34801561025a57600080fd5b5061027560048036038101906102709190611aaa565b6108fa565b6040516102829190611b05565b60405180910390f35b34801561029757600080fd5b506102a0610931565b6040516102ad9190611c10565b60405180910390f35b6102d060048036038101906102cb9190611b4a565b610957565b6040516102dd9190611b2f565b60405180910390f35b3480156102f257600080fd5b506102fb610be7565b6040516103089190611b2f565b60405180910390f35b34801561031d57600080fd5b5061033860048036038101906103339190611c2b565b610c8a565b6040516103459190611b2f565b60405180910390f35b34801561035a57600080fd5b5061037560048036038101906103709190611c58565b610cd2565b6040516103829190611b2f565b60405180910390f35b34801561039757600080fd5b506103a0610d6e565b6040516103ad9190611a2a565b60405180910390f35b3480156103c257600080fd5b506103dd60048036038101906103d89190611b4a565b610e00565b6040516103eb929190611cab565b60405180910390f35b34801561040057600080fd5b5061041b60048036038101906104169190611aaa565b610ffe565b6040516104289190611b05565b60405180910390f35b34801561043d57600080fd5b5061045860048036038101906104539190611aaa565b611075565b6040516104659190611b05565b60405180910390f35b34801561047a57600080fd5b5061049560048036038101906104909190611cd4565b611098565b6040516104a29190611b2f565b60405180910390f35b60006104bf836104b9610be7565b47610cd2565b9050818110156104fb576040517ff77fa5e700000000000000000000000000000000000000000000000000000000815260040160405180910390fd5b600560009054906101000a900473ffffffffffffffffffffffffffffffffffffffff1673ffffffffffffffffffffffffffffffffffffffff1663095ea7b330856040518363ffffffff1660e01b8152600401610558929190611d14565b6020604051808303816000875af1158015610577573d6000803e3d6000fd5b505050506040513d601f19601f8201168201806040525081019061059b9190611d69565b50600560009054906101000a900473ffffffffffffffffffffffffffffffffffffffff1673ffffffffffffffffffffffffffffffffffffffff166323b872dd6105e261111f565b30866040518463ffffffff1660e01b815260040161060293929190611d96565b6020604051808303816000875af1158015610621573d6000803e3d6000fd5b505050506040513d601f19601f820116820180604052508101906106459190611d69565b50600061065061111f565b73ffffffffffffffffffffffffffffffffffffffff168260405161067390611dfe565b60006040518083038185875af1925050503d80600081146106b0576040519150601f19603f3d011682016040523d82523d6000602084013e6106b5565b606091505b50509050806106f0576040517f81063e5100000000000000000000000000000000000000000000000000000000815260040160405180910390fd5b50505050565b60606003805461070590611e42565b80601f016020809104026020016040519081016040528092919081815260200182805461073190611e42565b801561077e5780601f106107535761010080835404028352916020019161077e565b820191906000526020600020905b81548152906001019060200180831161076157829003601f168201915b5050505050905090565b60008061079361111f565b90506107a0818585611127565b600191505092915050565b6000600254905090565b60006107bf610be7565b905060006107d93434476107d39190611ea2565b84610cd2565b905082811015610815576040517ff77fa5e700000000000000000000000000000000000000000000000000000000815260040160405180910390fd5b600560009054906101000a900473ffffffffffffffffffffffffffffffffffffffff1673ffffffffffffffffffffffffffffffffffffffff1663a9059cbb61085b61111f565b836040518363ffffffff1660e01b8152600401610879929190611d14565b6020604051808303816000875af1158015610898573d6000803e3d6000fd5b505050506040513d601f19601f820116820180604052508101906108bc9190611d69565b50505050565b6000806108cd61111f565b90506108da8582856112f0565b6108e585858561137c565b60019150509392505050565b60006012905090565b60008061090561111f565b90506109268185856109178589611098565b6109219190611ed6565b611127565b600191505092915050565b600560009054906101000a900473ffffffffffffffffffffffffffffffffffffffff1681565b60008060004790506000610969610be7565b90506000600560009054906101000a900473ffffffffffffffffffffffffffffffffffffffff16905060008203610aba578073ffffffffffffffffffffffffffffffffffffffff1663095ea7b330886040518363ffffffff1660e01b81526004016109d5929190611d14565b6020604051808303816000875af11580156109f4573d6000803e3d6000fd5b505050506040513d601f19601f82011682018060405250810190610a189190611d69565b508073ffffffffffffffffffffffffffffffffffffffff166323b872dd610a3d61111f565b30896040518463ffffffff1660e01b8152600401610a5d93929190611d96565b6020604051808303816000875af1158015610a7c573d6000803e3d6000fd5b505050506040513d601f19601f82011682018060405250810190610aa09190611d69565b50829350610ab5610aaf61111f565b856115f2565b610bdb565b60003484610ac89190611ea2565b90506000838234610ad99190611f39565b610ae39190611f6a565b905080881015610b1f576040517fe1332eae00000000000000000000000000000000000000000000000000000000815260040160405180910390fd5b8273ffffffffffffffffffffffffffffffffffffffff166323b872dd610b4361111f565b30846040518463ffffffff1660e01b8152600401610b6393929190611d96565b6020604051808303816000875af1158015610b82573d6000803e3d6000fd5b505050506040513d601f19601f82011682018060405250810190610ba69190611d69565b508134610bb39190611f39565b610bbb6107ab565b610bc59190611f6a565b9550610bd8610bd261111f565b876115f2565b50505b83945050505050919050565b6000600560009054906101000a900473ffffffffffffffffffffffffffffffffffffffff1673ffffffffffffffffffffffffffffffffffffffff166370a08231306040518263ffffffff1660e01b8152600401610c449190611c10565b602060405180830381865afa158015610c61573d6000803e3d6000fd5b505050506040513d601f19601f82011682018060405250810190610c859190611fc1565b905090565b60008060008373ffffffffffffffffffffffffffffffffffffffff1673ffffffffffffffffffffffffffffffffffffffff168152602001908152602001600020549050919050565b600080831080610ce25750600082105b15610d19576040517fe11dbcc200000000000000000000000000000000000000000000000000000000815260040160405180910390fd5b60006064606386610d2a9190611f6a565b610d349190611f39565b905060008184610d449190611f6a565b905060008286610d549190611ed6565b90508082610d629190611f39565b93505050509392505050565b606060048054610d7d90611e42565b80601f0160208091040260200160405190810160405280929190818152602001828054610da990611e42565b8015610df65780601f10610dcb57610100808354040283529160200191610df6565b820191906000526020600020905b815481529060010190602001808311610dd957829003601f168201915b5050505050905090565b60008060008311610e3d576040517fd039524300000000000000000000000000000000000000000000000000000000815260040160405180910390fd5b60004790506000610e4c6107ab565b90506000818684610e5d9190611f6a565b610e679190611f39565b905060008287610e75610be7565b610e7f9190611f6a565b610e899190611f39565b9050610e9c610e9661111f565b88611748565b6000610ea661111f565b73ffffffffffffffffffffffffffffffffffffffff1683604051610ec990611dfe565b60006040518083038185875af1925050503d8060008114610f06576040519150601f19603f3d011682016040523d82523d6000602084013e610f0b565b606091505b5050905080610f46576040517f81063e5100000000000000000000000000000000000000000000000000000000815260040160405180910390fd5b600560009054906101000a900473ffffffffffffffffffffffffffffffffffffffff1673ffffffffffffffffffffffffffffffffffffffff1663a9059cbb610f8c61111f565b846040518363ffffffff1660e01b8152600401610faa929190611d14565b6020604051808303816000875af1158015610fc9573d6000803e3d6000fd5b505050506040513d601f19601f82011682018060405250810190610fed9190611d69565b508282965096505050505050915091565b60008061100961111f565b905060006110178286611098565b90508381101561105c576040517f08c379a000000000000000000000000000000000000000000000000000000000815260040161105390612060565b60405180910390fd5b6110698286868403611127565b60019250505092915050565b60008061108061111f565b905061108d81858561137c565b600191505092915050565b6000600160008473ffffffffffffffffffffffffffffffffffffffff1673ffffffffffffffffffffffffffffffffffffffff16815260200190815260200160002060008373ffffffffffffffffffffffffffffffffffffffff1673ffffffffffffffffffffffffffffffffffffffff16815260200190815260200160002054905092915050565b600033905090565b600073ffffffffffffffffffffffffffffffffffffffff168373ffffffffffffffffffffffffffffffffffffffff1603611196576040517f08c379a000000000000000000000000000000000000000000000000000000000815260040161118d906120f2565b60405180910390fd5b600073ffffffffffffffffffffffffffffffffffffffff168273ffffffffffffffffffffffffffffffffffffffff1603611205576040517f08c379a00000000000000000000000000000000000000000000000000000000081526004016111fc90612184565b60405180910390fd5b80600160008573ffffffffffffffffffffffffffffffffffffffff1673ffffffffffffffffffffffffffffffffffffffff16815260200190815260200160002060008473ffffffffffffffffffffffffffffffffffffffff1673ffffffffffffffffffffffffffffffffffffffff168152602001908152602001600020819055508173ffffffffffffffffffffffffffffffffffffffff168373ffffffffffffffffffffffffffffffffffffffff167f8c5be1e5ebec7d5bd14f71427d1e84f3dd0314c0f7b2291e5b200ac8c7c3b925836040516112e39190611b2f565b60405180910390a3505050565b60006112fc8484611098565b90507fffffffffffffffffffffffffffffffffffffffffffffffffffffffffffffffff81146113765781811015611368576040517f08c379a000000000000000000000000000000000000000000000000000000000815260040161135f906121f0565b60405180910390fd5b6113758484848403611127565b5b50505050565b600073ffffffffffffffffffffffffffffffffffffffff168373ffffffffffffffffffffffffffffffffffffffff16036113eb576040517f08c379a00000000000000000000000000000000000000000000000000000000081526004016113e290612282565b60405180910390fd5b600073ffffffffffffffffffffffffffffffffffffffff168273ffffffffffffffffffffffffffffffffffffffff160361145a576040517f08c379a000000000000000000000000000000000000000000000000000000000815260040161145190612314565b60405180910390fd5b611465838383611915565b60008060008573ffffffffffffffffffffffffffffffffffffffff1673ffffffffffffffffffffffffffffffffffffffff168152602001908152602001600020549050818110156114eb576040517f08c379a00000000000000000000000000000000000000000000000000000000081526004016114e2906123a6565b60405180910390fd5b8181036000808673ffffffffffffffffffffffffffffffffffffffff1673ffffffffffffffffffffffffffffffffffffffff16815260200190815260200160002081905550816000808573ffffffffffffffffffffffffffffffffffffffff1673ffffffffffffffffffffffffffffffffffffffff168152602001908152602001600020600082825401925050819055508273ffffffffffffffffffffffffffffffffffffffff168473ffffffffffffffffffffffffffffffffffffffff167fddf252ad1be2c89b69c2b068fc378daa952ba7f163c4a11628f55a4df523b3ef846040516115d99190611b2f565b60405180910390a36115ec84848461191a565b50505050565b600073ffffffffffffffffffffffffffffffffffffffff168273ffffffffffffffffffffffffffffffffffffffff1603611661576040517f08c379a000000000000000000000000000000000000000000000000000000000815260040161165890612412565b60405180910390fd5b61166d60008383611915565b806002600082825461167f9190611ed6565b92505081905550806000808473ffffffffffffffffffffffffffffffffffffffff1673ffffffffffffffffffffffffffffffffffffffff168152602001908152602001600020600082825401925050819055508173ffffffffffffffffffffffffffffffffffffffff16600073ffffffffffffffffffffffffffffffffffffffff167fddf252ad1be2c89b69c2b068fc378daa952ba7f163c4a11628f55a4df523b3ef836040516117309190611b2f565b60405180910390a36117446000838361191a565b5050565b600073ffffffffffffffffffffffffffffffffffffffff168273ffffffffffffffffffffffffffffffffffffffff16036117b7576040517f08c379a00000000000000000000000000000000000000000000000000000000081526004016117ae906124a4565b60405180910390fd5b6117c382600083611915565b60008060008473ffffffffffffffffffffffffffffffffffffffff1673ffffffffffffffffffffffffffffffffffffffff16815260200190815260200160002054905081811015611849576040517f08c379a000000000000000000000000000000000000000000000000000000000815260040161184090612536565b60405180910390fd5b8181036000808573ffffffffffffffffffffffffffffffffffffffff1673ffffffffffffffffffffffffffffffffffffffff1681526020019081526020016000208190555081600260008282540392505081905550600073ffffffffffffffffffffffffffffffffffffffff168373ffffffffffffffffffffffffffffffffffffffff167fddf252ad1be2c89b69c2b068fc378daa952ba7f163c4a11628f55a4df523b3ef846040516118fc9190611b2f565b60405180910390a36119108360008461191a565b505050565b505050565b505050565b600080fd5b6000819050919050565b61193781611924565b811461194257600080fd5b50565b6000813590506119548161192e565b92915050565b600080604083850312156119715761197061191f565b5b600061197f85828601611945565b925050602061199085828601611945565b9150509250929050565b600081519050919050565b600082825260208201905092915050565b60005b838110156119d45780820151818401526020810190506119b9565b60008484015250505050565b6000601f19601f8301169050919050565b60006119fc8261199a565b611a0681856119a5565b9350611a168185602086016119b6565b611a1f816119e0565b840191505092915050565b60006020820190508181036000830152611a4481846119f1565b905092915050565b600073ffffffffffffffffffffffffffffffffffffffff82169050919050565b6000611a7782611a4c565b9050919050565b611a8781611a6c565b8114611a9257600080fd5b50565b600081359050611aa481611a7e565b92915050565b60008060408385031215611ac157611ac061191f565b5b6000611acf85828601611a95565b9250506020611ae085828601611945565b9150509250929050565b60008115159050919050565b611aff81611aea565b82525050565b6000602082019050611b1a6000830184611af6565b92915050565b611b2981611924565b82525050565b6000602082019050611b446000830184611b20565b92915050565b600060208284031215611b6057611b5f61191f565b5b6000611b6e84828501611945565b91505092915050565b600080600060608486031215611b9057611b8f61191f565b5b6000611b9e86828701611a95565b9350506020611baf86828701611a95565b9250506040611bc086828701611945565b9150509250925092565b600060ff82169050919050565b611be081611bca565b82525050565b6000602082019050611bfb6000830184611bd7565b92915050565b611c0a81611a6c565b82525050565b6000602082019050611c256000830184611c01565b92915050565b600060208284031215611c4157611c4061191f565b5b6000611c4f84828501611a95565b91505092915050565b600080600060608486031215611c7157611c7061191f565b5b6000611c7f86828701611945565b9350506020611c9086828701611945565b9250506040611ca186828701611945565b9150509250925092565b6000604082019050611cc06000830185611b20565b611ccd6020830184611b20565b9392505050565b60008060408385031215611ceb57611cea61191f565b5b6000611cf985828601611a95565b9250506020611d0a85828601611a95565b9150509250929050565b6000604082019050611d296000830185611c01565b611d366020830184611b20565b9392505050565b611d4681611aea565b8114611d5157600080fd5b50565b600081519050611d6381611d3d565b92915050565b600060208284031215611d7f57611d7e61191f565b5b6000611d8d84828501611d54565b91505092915050565b6000606082019050611dab6000830186611c01565b611db86020830185611c01565b611dc56040830184611b20565b949350505050565b600081905092915050565b50565b6000611de8600083611dcd565b9150611df382611dd8565b600082019050919050565b6000611e0982611ddb565b9150819050919050565b7f4e487b7100000000000000000000000000000000000000000000000000000000600052602260045260246000fd5b60006002820490506001821680611e5a57607f821691505b602082108103611e6d57611e6c611e13565b5b50919050565b7f4e487b7100000000000000000000000000000000000000000000000000000000600052601160045260246000fd5b6000611ead82611924565b9150611eb883611924565b9250828203905081811115611ed057611ecf611e73565b5b92915050565b6000611ee182611924565b9150611eec83611924565b9250828201905080821115611f0457611f03611e73565b5b92915050565b7f4e487b7100000000000000000000000000000000000000000000000000000000600052601260045260246000fd5b6000611f4482611924565b9150611f4f83611924565b925082611f5f57611f5e611f0a565b5b828204905092915050565b6000611f7582611924565b9150611f8083611924565b9250828202611f8e81611924565b91508282048414831517611fa557611fa4611e73565b5b5092915050565b600081519050611fbb8161192e565b92915050565b600060208284031215611fd757611fd661191f565b5b6000611fe584828501611fac565b91505092915050565b7f45524332303a2064656372656173656420616c6c6f77616e63652062656c6f7760008201527f207a65726f000000000000000000000000000000000000000000000000000000602082015250565b600061204a6025836119a5565b915061205582611fee565b604082019050919050565b600060208201905081810360008301526120798161203d565b9050919050565b7f45524332303a20617070726f76652066726f6d20746865207a65726f2061646460008201527f7265737300000000000000000000000000000000000000000000000000000000602082015250565b60006120dc6024836119a5565b91506120e782612080565b604082019050919050565b6000602082019050818103600083015261210b816120cf565b9050919050565b7f45524332303a20617070726f766520746f20746865207a65726f20616464726560008201527f7373000000000000000000000000000000000000000000000000000000000000602082015250565b600061216e6022836119a5565b915061217982612112565b604082019050919050565b6000602082019050818103600083015261219d81612161565b9050919050565b7f45524332303a20696e73756666696369656e7420616c6c6f77616e6365000000600082015250565b60006121da601d836119a5565b91506121e5826121a4565b602082019050919050565b60006020820190508181036000830152612209816121cd565b9050919050565b7f45524332303a207472616e736665722066726f6d20746865207a65726f20616460008201527f6472657373000000000000000000000000000000000000000000000000000000602082015250565b600061226c6025836119a5565b915061227782612210565b604082019050919050565b6000602082019050818103600083015261229b8161225f565b9050919050565b7f45524332303a207472616e7366657220746f20746865207a65726f206164647260008201527f6573730000000000000000000000000000000000000000000000000000000000602082015250565b60006122fe6023836119a5565b9150612309826122a2565b604082019050919050565b6000602082019050818103600083015261232d816122f1565b9050919050565b7f45524332303a207472616e7366657220616d6f756e742065786365656473206260008201527f616c616e63650000000000000000000000000000000000000000000000000000602082015250565b60006123906026836119a5565b915061239b82612334565b604082019050919050565b600060208201905081810360008301526123bf81612383565b9050919050565b7f45524332303a206d696e7420746f20746865207a65726f206164647265737300600082015250565b60006123fc601f836119a5565b9150612407826123c6565b602082019050919050565b6000602082019050818103600083015261242b816123ef565b9050919050565b7f45524332303a206275726e2066726f6d20746865207a65726f2061646472657360008201527f7300000000000000000000000000000000000000000000000000000000000000602082015250565b600061248e6021836119a5565b915061249982612432565b604082019050919050565b600060208201905081810360008301526124bd81612481565b9050919050565b7f45524332303a206275726e20616d6f756e7420657863656564732062616c616e60008201527f6365000000000000000000000000000000000000000000000000000000000000602082015250565b60006125206022836119a5565b915061252b826124c4565b604082019050919050565b6000602082019050818103600083015261254f81612513565b905091905056fea264697066735822122067ffa0e2ce857a6c9dc9a90383f3016692d8de6e39c71ebbf435c1c2b05895cb64736f6c63430008130033",
					"opcodes": "PUSH1 0x80 PUSH1 0x40 MSTORE CALLVALUE DUP1 ISZERO PUSH3 0x11 JUMPI PUSH1 0x0 DUP1 REVERT JUMPDEST POP PUSH1 0x40 MLOAD PUSH3 0x2B11 CODESIZE SUB DUP1 PUSH3 0x2B11 DUP4 CODECOPY DUP2 DUP2 ADD PUSH1 0x40 MSTORE DUP2 ADD SWAP1 PUSH3 0x37 SWAP2 SWAP1 PUSH3 0x1E2 JUMP JUMPDEST PUSH1 0x40 MLOAD DUP1 PUSH1 0x40 ADD PUSH1 0x40 MSTORE DUP1 PUSH1 0xE DUP2 MSTORE PUSH1 0x20 ADD PUSH32 0x54474F4C44204C5020546F6B656E000000000000000000000000000000000000 DUP2 MSTORE POP PUSH1 0x40 MLOAD DUP1 PUSH1 0x40 ADD PUSH1 0x40 MSTORE DUP1 PUSH1 0x4 DUP2 MSTORE PUSH1 0x20 ADD PUSH32 0x54474C5000000000000000000000000000000000000000000000000000000000 DUP2 MSTORE POP DUP2 PUSH1 0x3 SWAP1 DUP2 PUSH3 0xB4 SWAP2 SWAP1 PUSH3 0x48E JUMP JUMPDEST POP DUP1 PUSH1 0x4 SWAP1 DUP2 PUSH3 0xC6 SWAP2 SWAP1 PUSH3 0x48E JUMP JUMPDEST POP POP POP PUSH1 0x0 PUSH20 0xFFFFFFFFFFFFFFFFFFFFFFFFFFFFFFFFFFFFFFFF AND DUP2 PUSH20 0xFFFFFFFFFFFFFFFFFFFFFFFFFFFFFFFFFFFFFFFF AND SUB PUSH3 0x130 JUMPI PUSH1 0x40 MLOAD PUSH32 0x92863BEA00000000000000000000000000000000000000000000000000000000 DUP2 MSTORE PUSH1 0x4 ADD PUSH1 0x40 MLOAD DUP1 SWAP2 SUB SWAP1 REVERT JUMPDEST DUP1 PUSH1 0x5 PUSH1 0x0 PUSH2 0x100 EXP DUP2 SLOAD DUP2 PUSH20 0xFFFFFFFFFFFFFFFFFFFFFFFFFFFFFFFFFFFFFFFF MUL NOT AND SWAP1 DUP4 PUSH20 0xFFFFFFFFFFFFFFFFFFFFFFFFFFFFFFFFFFFFFFFF AND MUL OR SWAP1 SSTORE POP POP PUSH3 0x575 JUMP JUMPDEST PUSH1 0x0 DUP1 REVERT JUMPDEST PUSH1 0x0 PUSH20 0xFFFFFFFFFFFFFFFFFFFFFFFFFFFFFFFFFFFFFFFF DUP3 AND SWAP1 POP SWAP2 SWAP1 POP JUMP JUMPDEST PUSH1 0x0 PUSH3 0x1AA DUP3 PUSH3 0x17D JUMP JUMPDEST SWAP1 POP SWAP2 SWAP1 POP JUMP JUMPDEST PUSH3 0x1BC DUP2 PUSH3 0x19D JUMP JUMPDEST DUP2 EQ PUSH3 0x1C8 JUMPI PUSH1 0x0 DUP1 REVERT JUMPDEST POP JUMP JUMPDEST PUSH1 0x0 DUP2 MLOAD SWAP1 POP PUSH3 0x1DC DUP2 PUSH3 0x1B1 JUMP JUMPDEST SWAP3 SWAP2 POP POP JUMP JUMPDEST PUSH1 0x0 PUSH1 0x20 DUP3 DUP5 SUB SLT ISZERO PUSH3 0x1FB JUMPI PUSH3 0x1FA PUSH3 0x178 JUMP JUMPDEST JUMPDEST PUSH1 0x0 PUSH3 0x20B DUP5 DUP3 DUP6 ADD PUSH3 0x1CB JUMP JUMPDEST SWAP2 POP POP SWAP3 SWAP2 POP POP JUMP JUMPDEST PUSH1 0x0 DUP2 MLOAD SWAP1 POP SWAP2 SWAP1 POP JUMP JUMPDEST PUSH32 0x4E487B7100000000000000000000000000000000000000000000000000000000 PUSH1 0x0 MSTORE PUSH1 0x41 PUSH1 0x4 MSTORE PUSH1 0x24 PUSH1 0x0 REVERT JUMPDEST PUSH32 0x4E487B7100000000000000000000000000000000000000000000000000000000 PUSH1 0x0 MSTORE PUSH1 0x22 PUSH1 0x4 MSTORE PUSH1 0x24 PUSH1 0x0 REVERT JUMPDEST PUSH1 0x0 PUSH1 0x2 DUP3 DIV SWAP1 POP PUSH1 0x1 DUP3 AND DUP1 PUSH3 0x296 JUMPI PUSH1 0x7F DUP3 AND SWAP2 POP JUMPDEST PUSH1 0x20 DUP3 LT DUP2 SUB PUSH3 0x2AC JUMPI PUSH3 0x2AB PUSH3 0x24E JUMP JUMPDEST JUMPDEST POP SWAP2 SWAP1 POP JUMP JUMPDEST PUSH1 0x0 DUP2 SWAP1 POP DUP2 PUSH1 0x0 MSTORE PUSH1 0x20 PUSH1 0x0 KECCAK256 SWAP1 POP SWAP2 SWAP1 POP JUMP JUMPDEST PUSH1 0x0 PUSH1 0x20 PUSH1 0x1F DUP4 ADD DIV SWAP1 POP SWAP2 SWAP1 POP JUMP JUMPDEST PUSH1 0x0 DUP3 DUP3 SHL SWAP1 POP SWAP3 SWAP2 POP POP JUMP JUMPDEST PUSH1 0x0 PUSH1 0x8 DUP4 MUL PUSH3 0x316 PUSH32 0xFFFFFFFFFFFFFFFFFFFFFFFFFFFFFFFFFFFFFFFFFFFFFFFFFFFFFFFFFFFFFFFF DUP3 PUSH3 0x2D7 JUMP JUMPDEST PUSH3 0x322 DUP7 DUP4 PUSH3 0x2D7 JUMP JUMPDEST SWAP6 POP DUP1 NOT DUP5 AND SWAP4 POP DUP1 DUP7 AND DUP5 OR SWAP3 POP POP POP SWAP4 SWAP3 POP POP POP JUMP JUMPDEST PUSH1 0x0 DUP2 SWAP1 POP SWAP2 SWAP1 POP JUMP JUMPDEST PUSH1 0x0 DUP2 SWAP1 POP SWAP2 SWAP1 POP JUMP JUMPDEST PUSH1 0x0 PUSH3 0x36F PUSH3 0x369 PUSH3 0x363 DUP5 PUSH3 0x33A JUMP JUMPDEST PUSH3 0x344 JUMP JUMPDEST PUSH3 0x33A JUMP JUMPDEST SWAP1 POP SWAP2 SWAP1 POP JUMP JUMPDEST PUSH1 0x0 DUP2 SWAP1 POP SWAP2 SWAP1 POP JUMP JUMPDEST PUSH3 0x38B DUP4 PUSH3 0x34E JUMP JUMPDEST PUSH3 0x3A3 PUSH3 0x39A DUP3 PUSH3 0x376 JUMP JUMPDEST DUP5 DUP5 SLOAD PUSH3 0x2E4 JUMP JUMPDEST DUP3 SSTORE POP POP POP POP JUMP JUMPDEST PUSH1 0x0 SWAP1 JUMP JUMPDEST PUSH3 0x3BA PUSH3 0x3AB JUMP JUMPDEST PUSH3 0x3C7 DUP2 DUP5 DUP5 PUSH3 0x380 JUMP JUMPDEST POP POP POP JUMP JUMPDEST JUMPDEST DUP2 DUP2 LT ISZERO PUSH3 0x3EF JUMPI PUSH3 0x3E3 PUSH1 0x0 DUP3 PUSH3 0x3B0 JUMP JUMPDEST PUSH1 0x1 DUP2 ADD SWAP1 POP PUSH3 0x3CD JUMP JUMPDEST POP POP JUMP JUMPDEST PUSH1 0x1F DUP3 GT ISZERO PUSH3 0x43E JUMPI PUSH3 0x408 DUP2 PUSH3 0x2B2 JUMP JUMPDEST PUSH3 0x413 DUP5 PUSH3 0x2C7 JUMP JUMPDEST DUP2 ADD PUSH1 0x20 DUP6 LT ISZERO PUSH3 0x423 JUMPI DUP2 SWAP1 POP JUMPDEST PUSH3 0x43B PUSH3 0x432 DUP6 PUSH3 0x2C7 JUMP JUMPDEST DUP4 ADD DUP3 PUSH3 0x3CC JUMP JUMPDEST POP POP JUMPDEST POP POP POP JUMP JUMPDEST PUSH1 0x0 DUP3 DUP3 SHR SWAP1 POP SWAP3 SWAP2 POP POP JUMP JUMPDEST PUSH1 0x0 PUSH3 0x463 PUSH1 0x0 NOT DUP5 PUSH1 0x8 MUL PUSH3 0x443 JUMP JUMPDEST NOT DUP1 DUP4 AND SWAP2 POP POP SWAP3 SWAP2 POP POP JUMP JUMPDEST PUSH1 0x0 PUSH3 0x47E DUP4 DUP4 PUSH3 0x450 JUMP JUMPDEST SWAP2 POP DUP3 PUSH1 0x2 MUL DUP3 OR SWAP1 POP SWAP3 SWAP2 POP POP JUMP JUMPDEST PUSH3 0x499 DUP3 PUSH3 0x214 JUMP JUMPDEST PUSH8 0xFFFFFFFFFFFFFFFF DUP2 GT ISZERO PUSH3 0x4B5 JUMPI PUSH3 0x4B4 PUSH3 0x21F JUMP JUMPDEST JUMPDEST PUSH3 0x4C1 DUP3 SLOAD PUSH3 0x27D JUMP JUMPDEST PUSH3 0x4CE DUP3 DUP3 DUP6 PUSH3 0x3F3 JUMP JUMPDEST PUSH1 0x0 PUSH1 0x20 SWAP1 POP PUSH1 0x1F DUP4 GT PUSH1 0x1 DUP2 EQ PUSH3 0x506 JUMPI PUSH1 0x0 DUP5 ISZERO PUSH3 0x4F1 JUMPI DUP3 DUP8 ADD MLOAD SWAP1 POP JUMPDEST PUSH3 0x4FD DUP6 DUP3 PUSH3 0x470 JUMP JUMPDEST DUP7 SSTORE POP PUSH3 0x56D JUMP JUMPDEST PUSH1 0x1F NOT DUP5 AND PUSH3 0x516 DUP7 PUSH3 0x2B2 JUMP JUMPDEST PUSH1 0x0 JUMPDEST DUP3 DUP2 LT ISZERO PUSH3 0x540 JUMPI DUP5 DUP10 ADD MLOAD DUP3 SSTORE PUSH1 0x1 DUP3 ADD SWAP2 POP PUSH1 0x20 DUP6 ADD SWAP5 POP PUSH1 0x20 DUP2 ADD SWAP1 POP PUSH3 0x519 JUMP JUMPDEST DUP7 DUP4 LT ISZERO PUSH3 0x560 JUMPI DUP5 DUP10 ADD MLOAD PUSH3 0x55C PUSH1 0x1F DUP10 AND DUP3 PUSH3 0x450 JUMP JUMPDEST DUP4 SSTORE POP JUMPDEST PUSH1 0x1 PUSH1 0x2 DUP9 MUL ADD DUP9 SSTORE POP POP POP JUMPDEST POP POP POP POP POP POP JUMP JUMPDEST PUSH2 0x258C DUP1 PUSH3 0x585 PUSH1 0x0 CODECOPY PUSH1 0x0 RETURN INVALID PUSH1 0x80 PUSH1 0x40 MSTORE PUSH1 0x4 CALLDATASIZE LT PUSH2 0x109 JUMPI PUSH1 0x0 CALLDATALOAD PUSH1 0xE0 SHR DUP1 PUSH4 0x51C6590A GT PUSH2 0x95 JUMPI DUP1 PUSH4 0x95D89B41 GT PUSH2 0x64 JUMPI DUP1 PUSH4 0x95D89B41 EQ PUSH2 0x38B JUMPI DUP1 PUSH4 0x9C8F9F23 EQ PUSH2 0x3B6 JUMPI DUP1 PUSH4 0xA457C2D7 EQ PUSH2 0x3F4 JUMPI DUP1 PUSH4 0xA9059CBB EQ PUSH2 0x431 JUMPI DUP1 PUSH4 0xDD62ED3E EQ PUSH2 0x46E JUMPI PUSH2 0x109 JUMP JUMPDEST DUP1 PUSH4 0x51C6590A EQ PUSH2 0x2B6 JUMPI DUP1 PUSH4 0x59BF5D39 EQ PUSH2 0x2E6 JUMPI DUP1 PUSH4 0x70A08231 EQ PUSH2 0x311 JUMPI DUP1 PUSH4 0x7386479E EQ PUSH2 0x34E JUMPI PUSH2 0x109 JUMP JUMPDEST DUP1 PUSH4 0x1FFA582D GT PUSH2 0xDC JUMPI DUP1 PUSH4 0x1FFA582D EQ PUSH2 0x1CA JUMPI DUP1 PUSH4 0x23B872DD EQ PUSH2 0x1E6 JUMPI DUP1 PUSH4 0x313CE567 EQ PUSH2 0x223 JUMPI DUP1 PUSH4 0x39509351 EQ PUSH2 0x24E JUMPI DUP1 PUSH4 0x3EE12BD1 EQ PUSH2 0x28B JUMPI PUSH2 0x109 JUMP JUMPDEST DUP1 PUSH4 0x465B2F5 EQ PUSH2 0x10E JUMPI DUP1 PUSH4 0x6FDDE03 EQ PUSH2 0x137 JUMPI DUP1 PUSH4 0x95EA7B3 EQ PUSH2 0x162 JUMPI DUP1 PUSH4 0x18160DDD EQ PUSH2 0x19F JUMPI JUMPDEST PUSH1 0x0 DUP1 REVERT JUMPDEST CALLVALUE DUP1 ISZERO PUSH2 0x11A JUMPI PUSH1 0x0 DUP1 REVERT JUMPDEST POP PUSH2 0x135 PUSH1 0x4 DUP1 CALLDATASIZE SUB DUP2 ADD SWAP1 PUSH2 0x130 SWAP2 SWAP1 PUSH2 0x195A JUMP JUMPDEST PUSH2 0x4AB JUMP JUMPDEST STOP JUMPDEST CALLVALUE DUP1 ISZERO PUSH2 0x143 JUMPI PUSH1 0x0 DUP1 REVERT JUMPDEST POP PUSH2 0x14C PUSH2 0x6F6 JUMP JUMPDEST PUSH1 0x40 MLOAD PUSH2 0x159 SWAP2 SWAP1 PUSH2 0x1A2A JUMP JUMPDEST PUSH1 0x40 MLOAD DUP1 SWAP2 SUB SWAP1 RETURN JUMPDEST CALLVALUE DUP1 ISZERO PUSH2 0x16E JUMPI PUSH1 0x0 DUP1 REVERT JUMPDEST POP PUSH2 0x189 PUSH1 0x4 DUP1 CALLDATASIZE SUB DUP2 ADD SWAP1 PUSH2 0x184 SWAP2 SWAP1 PUSH2 0x1AAA JUMP JUMPDEST PUSH2 0x788 JUMP JUMPDEST PUSH1 0x40 MLOAD PUSH2 0x196 SWAP2 SWAP1 PUSH2 0x1B05 JUMP JUMPDEST PUSH1 0x40 MLOAD DUP1 SWAP2 SUB SWAP1 RETURN JUMPDEST CALLVALUE DUP1 ISZERO PUSH2 0x1AB JUMPI PUSH1 0x0 DUP1 REVERT JUMPDEST POP PUSH2 0x1B4 PUSH2 0x7AB JUMP JUMPDEST PUSH1 0x40 MLOAD PUSH2 0x1C1 SWAP2 SWAP1 PUSH2 0x1B2F JUMP JUMPDEST PUSH1 0x40 MLOAD DUP1 SWAP2 SUB SWAP1 RETURN JUMPDEST PUSH2 0x1E4 PUSH1 0x4 DUP1 CALLDATASIZE SUB DUP2 ADD SWAP1 PUSH2 0x1DF SWAP2 SWAP1 PUSH2 0x1B4A JUMP JUMPDEST PUSH2 0x7B5 JUMP JUMPDEST STOP JUMPDEST CALLVALUE DUP1 ISZERO PUSH2 0x1F2 JUMPI PUSH1 0x0 DUP1 REVERT JUMPDEST POP PUSH2 0x20D PUSH1 0x4 DUP1 CALLDATASIZE SUB DUP2 ADD SWAP1 PUSH2 0x208 SWAP2 SWAP1 PUSH2 0x1B77 JUMP JUMPDEST PUSH2 0x8C2 JUMP JUMPDEST PUSH1 0x40 MLOAD PUSH2 0x21A SWAP2 SWAP1 PUSH2 0x1B05 JUMP JUMPDEST PUSH1 0x40 MLOAD DUP1 SWAP2 SUB SWAP1 RETURN JUMPDEST CALLVALUE DUP1 ISZERO PUSH2 0x22F JUMPI PUSH1 0x0 DUP1 REVERT JUMPDEST POP PUSH2 0x238 PUSH2 0x8F1 JUMP JUMPDEST PUSH1 0x40 MLOAD PUSH2 0x245 SWAP2 SWAP1 PUSH2 0x1BE6 JUMP JUMPDEST PUSH1 0x40 MLOAD DUP1 SWAP2 SUB SWAP1 RETURN JUMPDEST CALLVALUE DUP1 ISZERO PUSH2 0x25A JUMPI PUSH1 0x0 DUP1 REVERT JUMPDEST POP PUSH2 0x275 PUSH1 0x4 DUP1 CALLDATASIZE SUB DUP2 ADD SWAP1 PUSH2 0x270 SWAP2 SWAP1 PUSH2 0x1AAA JUMP JUMPDEST PUSH2 0x8FA JUMP JUMPDEST PUSH1 0x40 MLOAD PUSH2 0x282 SWAP2 SWAP1 PUSH2 0x1B05 JUMP JUMPDEST PUSH1 0x40 MLOAD DUP1 SWAP2 SUB SWAP1 RETURN JUMPDEST CALLVALUE DUP1 ISZERO PUSH2 0x297 JUMPI PUSH1 0x0 DUP1 REVERT JUMPDEST POP PUSH2 0x2A0 PUSH2 0x931 JUMP JUMPDEST PUSH1 0x40 MLOAD PUSH2 0x2AD SWAP2 SWAP1 PUSH2 0x1C10 JUMP JUMPDEST PUSH1 0x40 MLOAD DUP1 SWAP2 SUB SWAP1 RETURN JUMPDEST PUSH2 0x2D0 PUSH1 0x4 DUP1 CALLDATASIZE SUB DUP2 ADD SWAP1 PUSH2 0x2CB SWAP2 SWAP1 PUSH2 0x1B4A JUMP JUMPDEST PUSH2 0x957 JUMP JUMPDEST PUSH1 0x40 MLOAD PUSH2 0x2DD SWAP2 SWAP1 PUSH2 0x1B2F JUMP JUMPDEST PUSH1 0x40 MLOAD DUP1 SWAP2 SUB SWAP1 RETURN JUMPDEST CALLVALUE DUP1 ISZERO PUSH2 0x2F2 JUMPI PUSH1 0x0 DUP1 REVERT JUMPDEST POP PUSH2 0x2FB PUSH2 0xBE7 JUMP JUMPDEST PUSH1 0x40 MLOAD PUSH2 0x308 SWAP2 SWAP1 PUSH2 0x1B2F JUMP JUMPDEST PUSH1 0x40 MLOAD DUP1 SWAP2 SUB SWAP1 RETURN JUMPDEST CALLVALUE DUP1 ISZERO PUSH2 0x31D JUMPI PUSH1 0x0 DUP1 REVERT JUMPDEST POP PUSH2 0x338 PUSH1 0x4 DUP1 CALLDATASIZE SUB DUP2 ADD SWAP1 PUSH2 0x333 SWAP2 SWAP1 PUSH2 0x1C2B JUMP JUMPDEST PUSH2 0xC8A JUMP JUMPDEST PUSH1 0x40 MLOAD PUSH2 0x345 SWAP2 SWAP1 PUSH2 0x1B2F JUMP JUMPDEST PUSH1 0x40 MLOAD DUP1 SWAP2 SUB SWAP1 RETURN JUMPDEST CALLVALUE DUP1 ISZERO PUSH2 0x35A JUMPI PUSH1 0x0 DUP1 REVERT JUMPDEST POP PUSH2 0x375 PUSH1 0x4 DUP1 CALLDATASIZE SUB DUP2 ADD SWAP1 PUSH2 0x370 SWAP2 SWAP1 PUSH2 0x1C58 JUMP JUMPDEST PUSH2 0xCD2 JUMP JUMPDEST PUSH1 0x40 MLOAD PUSH2 0x382 SWAP2 SWAP1 PUSH2 0x1B2F JUMP JUMPDEST PUSH1 0x40 MLOAD DUP1 SWAP2 SUB SWAP1 RETURN JUMPDEST CALLVALUE DUP1 ISZERO PUSH2 0x397 JUMPI PUSH1 0x0 DUP1 REVERT JUMPDEST POP PUSH2 0x3A0 PUSH2 0xD6E JUMP JUMPDEST PUSH1 0x40 MLOAD PUSH2 0x3AD SWAP2 SWAP1 PUSH2 0x1A2A JUMP JUMPDEST PUSH1 0x40 MLOAD DUP1 SWAP2 SUB SWAP1 RETURN JUMPDEST CALLVALUE DUP1 ISZERO PUSH2 0x3C2 JUMPI PUSH1 0x0 DUP1 REVERT JUMPDEST POP PUSH2 0x3DD PUSH1 0x4 DUP1 CALLDATASIZE SUB DUP2 ADD SWAP1 PUSH2 0x3D8 SWAP2 SWAP1 PUSH2 0x1B4A JUMP JUMPDEST PUSH2 0xE00 JUMP JUMPDEST PUSH1 0x40 MLOAD PUSH2 0x3EB SWAP3 SWAP2 SWAP1 PUSH2 0x1CAB JUMP JUMPDEST PUSH1 0x40 MLOAD DUP1 SWAP2 SUB SWAP1 RETURN JUMPDEST CALLVALUE DUP1 ISZERO PUSH2 0x400 JUMPI PUSH1 0x0 DUP1 REVERT JUMPDEST POP PUSH2 0x41B PUSH1 0x4 DUP1 CALLDATASIZE SUB DUP2 ADD SWAP1 PUSH2 0x416 SWAP2 SWAP1 PUSH2 0x1AAA JUMP JUMPDEST PUSH2 0xFFE JUMP JUMPDEST PUSH1 0x40 MLOAD PUSH2 0x428 SWAP2 SWAP1 PUSH2 0x1B05 JUMP JUMPDEST PUSH1 0x40 MLOAD DUP1 SWAP2 SUB SWAP1 RETURN JUMPDEST CALLVALUE DUP1 ISZERO PUSH2 0x43D JUMPI PUSH1 0x0 DUP1 REVERT JUMPDEST POP PUSH2 0x458 PUSH1 0x4 DUP1 CALLDATASIZE SUB DUP2 ADD SWAP1 PUSH2 0x453 SWAP2 SWAP1 PUSH2 0x1AAA JUMP JUMPDEST PUSH2 0x1075 JUMP JUMPDEST PUSH1 0x40 MLOAD PUSH2 0x465 SWAP2 SWAP1 PUSH2 0x1B05 JUMP JUMPDEST PUSH1 0x40 MLOAD DUP1 SWAP2 SUB SWAP1 RETURN JUMPDEST CALLVALUE DUP1 ISZERO PUSH2 0x47A JUMPI PUSH1 0x0 DUP1 REVERT JUMPDEST POP PUSH2 0x495 PUSH1 0x4 DUP1 CALLDATASIZE SUB DUP2 ADD SWAP1 PUSH2 0x490 SWAP2 SWAP1 PUSH2 0x1CD4 JUMP JUMPDEST PUSH2 0x1098 JUMP JUMPDEST PUSH1 0x40 MLOAD PUSH2 0x4A2 SWAP2 SWAP1 PUSH2 0x1B2F JUMP JUMPDEST PUSH1 0x40 MLOAD DUP1 SWAP2 SUB SWAP1 RETURN JUMPDEST PUSH1 0x0 PUSH2 0x4BF DUP4 PUSH2 0x4B9 PUSH2 0xBE7 JUMP JUMPDEST SELFBALANCE PUSH2 0xCD2 JUMP JUMPDEST SWAP1 POP DUP2 DUP2 LT ISZERO PUSH2 0x4FB JUMPI PUSH1 0x40 MLOAD PUSH32 0xF77FA5E700000000000000000000000000000000000000000000000000000000 DUP2 MSTORE PUSH1 0x4 ADD PUSH1 0x40 MLOAD DUP1 SWAP2 SUB SWAP1 REVERT JUMPDEST PUSH1 0x5 PUSH1 0x0 SWAP1 SLOAD SWAP1 PUSH2 0x100 EXP SWAP1 DIV PUSH20 0xFFFFFFFFFFFFFFFFFFFFFFFFFFFFFFFFFFFFFFFF AND PUSH20 0xFFFFFFFFFFFFFFFFFFFFFFFFFFFFFFFFFFFFFFFF AND PUSH4 0x95EA7B3 ADDRESS DUP6 PUSH1 0x40 MLOAD DUP4 PUSH4 0xFFFFFFFF AND PUSH1 0xE0 SHL DUP2 MSTORE PUSH1 0x4 ADD PUSH2 0x558 SWAP3 SWAP2 SWAP1 PUSH2 0x1D14 JUMP JUMPDEST PUSH1 0x20 PUSH1 0x40 MLOAD DUP1 DUP4 SUB DUP2 PUSH1 0x0 DUP8 GAS CALL ISZERO DUP1 ISZERO PUSH2 0x577 JUMPI RETURNDATASIZE PUSH1 0x0 DUP1 RETURNDATACOPY RETURNDATASIZE PUSH1 0x0 REVERT JUMPDEST POP POP POP POP PUSH1 0x40 MLOAD RETURNDATASIZE PUSH1 0x1F NOT PUSH1 0x1F DUP3 ADD AND DUP3 ADD DUP1 PUSH1 0x40 MSTORE POP DUP2 ADD SWAP1 PUSH2 0x59B SWAP2 SWAP1 PUSH2 0x1D69 JUMP JUMPDEST POP PUSH1 0x5 PUSH1 0x0 SWAP1 SLOAD SWAP1 PUSH2 0x100 EXP SWAP1 DIV PUSH20 0xFFFFFFFFFFFFFFFFFFFFFFFFFFFFFFFFFFFFFFFF AND PUSH20 0xFFFFFFFFFFFFFFFFFFFFFFFFFFFFFFFFFFFFFFFF AND PUSH4 0x23B872DD PUSH2 0x5E2 PUSH2 0x111F JUMP JUMPDEST ADDRESS DUP7 PUSH1 0x40 MLOAD DUP5 PUSH4 0xFFFFFFFF AND PUSH1 0xE0 SHL DUP2 MSTORE PUSH1 0x4 ADD PUSH2 0x602 SWAP4 SWAP3 SWAP2 SWAP1 PUSH2 0x1D96 JUMP JUMPDEST PUSH1 0x20 PUSH1 0x40 MLOAD DUP1 DUP4 SUB DUP2 PUSH1 0x0 DUP8 GAS CALL ISZERO DUP1 ISZERO PUSH2 0x621 JUMPI RETURNDATASIZE PUSH1 0x0 DUP1 RETURNDATACOPY RETURNDATASIZE PUSH1 0x0 REVERT JUMPDEST POP POP POP POP PUSH1 0x40 MLOAD RETURNDATASIZE PUSH1 0x1F NOT PUSH1 0x1F DUP3 ADD AND DUP3 ADD DUP1 PUSH1 0x40 MSTORE POP DUP2 ADD SWAP1 PUSH2 0x645 SWAP2 SWAP1 PUSH2 0x1D69 JUMP JUMPDEST POP PUSH1 0x0 PUSH2 0x650 PUSH2 0x111F JUMP JUMPDEST PUSH20 0xFFFFFFFFFFFFFFFFFFFFFFFFFFFFFFFFFFFFFFFF AND DUP3 PUSH1 0x40 MLOAD PUSH2 0x673 SWAP1 PUSH2 0x1DFE JUMP JUMPDEST PUSH1 0x0 PUSH1 0x40 MLOAD DUP1 DUP4 SUB DUP2 DUP6 DUP8 GAS CALL SWAP3 POP POP POP RETURNDATASIZE DUP1 PUSH1 0x0 DUP2 EQ PUSH2 0x6B0 JUMPI PUSH1 0x40 MLOAD SWAP2 POP PUSH1 0x1F NOT PUSH1 0x3F RETURNDATASIZE ADD AND DUP3 ADD PUSH1 0x40 MSTORE RETURNDATASIZE DUP3 MSTORE RETURNDATASIZE PUSH1 0x0 PUSH1 0x20 DUP5 ADD RETURNDATACOPY PUSH2 0x6B5 JUMP JUMPDEST PUSH1 0x60 SWAP2 POP JUMPDEST POP POP SWAP1 POP DUP1 PUSH2 0x6F0 JUMPI PUSH1 0x40 MLOAD PUSH32 0x81063E5100000000000000000000000000000000000000000000000000000000 DUP2 MSTORE PUSH1 0x4 ADD PUSH1 0x40 MLOAD DUP1 SWAP2 SUB SWAP1 REVERT JUMPDEST POP POP POP POP JUMP JUMPDEST PUSH1 0x60 PUSH1 0x3 DUP1 SLOAD PUSH2 0x705 SWAP1 PUSH2 0x1E42 JUMP JUMPDEST DUP1 PUSH1 0x1F ADD PUSH1 0x20 DUP1 SWAP2 DIV MUL PUSH1 0x20 ADD PUSH1 0x40 MLOAD SWAP1 DUP2 ADD PUSH1 0x40 MSTORE DUP1 SWAP3 SWAP2 SWAP1 DUP2 DUP2 MSTORE PUSH1 0x20 ADD DUP3 DUP1 SLOAD PUSH2 0x731 SWAP1 PUSH2 0x1E42 JUMP JUMPDEST DUP1 ISZERO PUSH2 0x77E JUMPI DUP1 PUSH1 0x1F LT PUSH2 0x753 JUMPI PUSH2 0x100 DUP1 DUP4 SLOAD DIV MUL DUP4 MSTORE SWAP2 PUSH1 0x20 ADD SWAP2 PUSH2 0x77E JUMP JUMPDEST DUP3 ADD SWAP2 SWAP1 PUSH1 0x0 MSTORE PUSH1 0x20 PUSH1 0x0 KECCAK256 SWAP1 JUMPDEST DUP2 SLOAD DUP2 MSTORE SWAP1 PUSH1 0x1 ADD SWAP1 PUSH1 0x20 ADD DUP1 DUP4 GT PUSH2 0x761 JUMPI DUP3 SWAP1 SUB PUSH1 0x1F AND DUP3 ADD SWAP2 JUMPDEST POP POP POP POP POP SWAP1 POP SWAP1 JUMP JUMPDEST PUSH1 0x0 DUP1 PUSH2 0x793 PUSH2 0x111F JUMP JUMPDEST SWAP1 POP PUSH2 0x7A0 DUP2 DUP6 DUP6 PUSH2 0x1127 JUMP JUMPDEST PUSH1 0x1 SWAP2 POP POP SWAP3 SWAP2 POP POP JUMP JUMPDEST PUSH1 0x0 PUSH1 0x2 SLOAD SWAP1 POP SWAP1 JUMP JUMPDEST PUSH1 0x0 PUSH2 0x7BF PUSH2 0xBE7 JUMP JUMPDEST SWAP1 POP PUSH1 0x0 PUSH2 0x7D9 CALLVALUE CALLVALUE SELFBALANCE PUSH2 0x7D3 SWAP2 SWAP1 PUSH2 0x1EA2 JUMP JUMPDEST DUP5 PUSH2 0xCD2 JUMP JUMPDEST SWAP1 POP DUP3 DUP2 LT ISZERO PUSH2 0x815 JUMPI PUSH1 0x40 MLOAD PUSH32 0xF77FA5E700000000000000000000000000000000000000000000000000000000 DUP2 MSTORE PUSH1 0x4 ADD PUSH1 0x40 MLOAD DUP1 SWAP2 SUB SWAP1 REVERT JUMPDEST PUSH1 0x5 PUSH1 0x0 SWAP1 SLOAD SWAP1 PUSH2 0x100 EXP SWAP1 DIV PUSH20 0xFFFFFFFFFFFFFFFFFFFFFFFFFFFFFFFFFFFFFFFF AND PUSH20 0xFFFFFFFFFFFFFFFFFFFFFFFFFFFFFFFFFFFFFFFF AND PUSH4 0xA9059CBB PUSH2 0x85B PUSH2 0x111F JUMP JUMPDEST DUP4 PUSH1 0x40 MLOAD DUP4 PUSH4 0xFFFFFFFF AND PUSH1 0xE0 SHL DUP2 MSTORE PUSH1 0x4 ADD PUSH2 0x879 SWAP3 SWAP2 SWAP1 PUSH2 0x1D14 JUMP JUMPDEST PUSH1 0x20 PUSH1 0x40 MLOAD DUP1 DUP4 SUB DUP2 PUSH1 0x0 DUP8 GAS CALL ISZERO DUP1 ISZERO PUSH2 0x898 JUMPI RETURNDATASIZE PUSH1 0x0 DUP1 RETURNDATACOPY RETURNDATASIZE PUSH1 0x0 REVERT JUMPDEST POP POP POP POP PUSH1 0x40 MLOAD RETURNDATASIZE PUSH1 0x1F NOT PUSH1 0x1F DUP3 ADD AND DUP3 ADD DUP1 PUSH1 0x40 MSTORE POP DUP2 ADD SWAP1 PUSH2 0x8BC SWAP2 SWAP1 PUSH2 0x1D69 JUMP JUMPDEST POP POP POP POP JUMP JUMPDEST PUSH1 0x0 DUP1 PUSH2 0x8CD PUSH2 0x111F JUMP JUMPDEST SWAP1 POP PUSH2 0x8DA DUP6 DUP3 DUP6 PUSH2 0x12F0 JUMP JUMPDEST PUSH2 0x8E5 DUP6 DUP6 DUP6 PUSH2 0x137C JUMP JUMPDEST PUSH1 0x1 SWAP2 POP POP SWAP4 SWAP3 POP POP POP JUMP JUMPDEST PUSH1 0x0 PUSH1 0x12 SWAP1 POP SWAP1 JUMP JUMPDEST PUSH1 0x0 DUP1 PUSH2 0x905 PUSH2 0x111F JUMP JUMPDEST SWAP1 POP PUSH2 0x926 DUP2 DUP6 DUP6 PUSH2 0x917 DUP6 DUP10 PUSH2 0x1098 JUMP JUMPDEST PUSH2 0x921 SWAP2 SWAP1 PUSH2 0x1ED6 JUMP JUMPDEST PUSH2 0x1127 JUMP JUMPDEST PUSH1 0x1 SWAP2 POP POP SWAP3 SWAP2 POP POP JUMP JUMPDEST PUSH1 0x5 PUSH1 0x0 SWAP1 SLOAD SWAP1 PUSH2 0x100 EXP SWAP1 DIV PUSH20 0xFFFFFFFFFFFFFFFFFFFFFFFFFFFFFFFFFFFFFFFF AND DUP2 JUMP JUMPDEST PUSH1 0x0 DUP1 PUSH1 0x0 SELFBALANCE SWAP1 POP PUSH1 0x0 PUSH2 0x969 PUSH2 0xBE7 JUMP JUMPDEST SWAP1 POP PUSH1 0x0 PUSH1 0x5 PUSH1 0x0 SWAP1 SLOAD SWAP1 PUSH2 0x100 EXP SWAP1 DIV PUSH20 0xFFFFFFFFFFFFFFFFFFFFFFFFFFFFFFFFFFFFFFFF AND SWAP1 POP PUSH1 0x0 DUP3 SUB PUSH2 0xABA JUMPI DUP1 PUSH20 0xFFFFFFFFFFFFFFFFFFFFFFFFFFFFFFFFFFFFFFFF AND PUSH4 0x95EA7B3 ADDRESS DUP9 PUSH1 0x40 MLOAD DUP4 PUSH4 0xFFFFFFFF AND PUSH1 0xE0 SHL DUP2 MSTORE PUSH1 0x4 ADD PUSH2 0x9D5 SWAP3 SWAP2 SWAP1 PUSH2 0x1D14 JUMP JUMPDEST PUSH1 0x20 PUSH1 0x40 MLOAD DUP1 DUP4 SUB DUP2 PUSH1 0x0 DUP8 GAS CALL ISZERO DUP1 ISZERO PUSH2 0x9F4 JUMPI RETURNDATASIZE PUSH1 0x0 DUP1 RETURNDATACOPY RETURNDATASIZE PUSH1 0x0 REVERT JUMPDEST POP POP POP POP PUSH1 0x40 MLOAD RETURNDATASIZE PUSH1 0x1F NOT PUSH1 0x1F DUP3 ADD AND DUP3 ADD DUP1 PUSH1 0x40 MSTORE POP DUP2 ADD SWAP1 PUSH2 0xA18 SWAP2 SWAP1 PUSH2 0x1D69 JUMP JUMPDEST POP DUP1 PUSH20 0xFFFFFFFFFFFFFFFFFFFFFFFFFFFFFFFFFFFFFFFF AND PUSH4 0x23B872DD PUSH2 0xA3D PUSH2 0x111F JUMP JUMPDEST ADDRESS DUP10 PUSH1 0x40 MLOAD DUP5 PUSH4 0xFFFFFFFF AND PUSH1 0xE0 SHL DUP2 MSTORE PUSH1 0x4 ADD PUSH2 0xA5D SWAP4 SWAP3 SWAP2 SWAP1 PUSH2 0x1D96 JUMP JUMPDEST PUSH1 0x20 PUSH1 0x40 MLOAD DUP1 DUP4 SUB DUP2 PUSH1 0x0 DUP8 GAS CALL ISZERO DUP1 ISZERO PUSH2 0xA7C JUMPI RETURNDATASIZE PUSH1 0x0 DUP1 RETURNDATACOPY RETURNDATASIZE PUSH1 0x0 REVERT JUMPDEST POP POP POP POP PUSH1 0x40 MLOAD RETURNDATASIZE PUSH1 0x1F NOT PUSH1 0x1F DUP3 ADD AND DUP3 ADD DUP1 PUSH1 0x40 MSTORE POP DUP2 ADD SWAP1 PUSH2 0xAA0 SWAP2 SWAP1 PUSH2 0x1D69 JUMP JUMPDEST POP DUP3 SWAP4 POP PUSH2 0xAB5 PUSH2 0xAAF PUSH2 0x111F JUMP JUMPDEST DUP6 PUSH2 0x15F2 JUMP JUMPDEST PUSH2 0xBDB JUMP JUMPDEST PUSH1 0x0 CALLVALUE DUP5 PUSH2 0xAC8 SWAP2 SWAP1 PUSH2 0x1EA2 JUMP JUMPDEST SWAP1 POP PUSH1 0x0 DUP4 DUP3 CALLVALUE PUSH2 0xAD9 SWAP2 SWAP1 PUSH2 0x1F39 JUMP JUMPDEST PUSH2 0xAE3 SWAP2 SWAP1 PUSH2 0x1F6A JUMP JUMPDEST SWAP1 POP DUP1 DUP9 LT ISZERO PUSH2 0xB1F JUMPI PUSH1 0x40 MLOAD PUSH32 0xE1332EAE00000000000000000000000000000000000000000000000000000000 DUP2 MSTORE PUSH1 0x4 ADD PUSH1 0x40 MLOAD DUP1 SWAP2 SUB SWAP1 REVERT JUMPDEST DUP3 PUSH20 0xFFFFFFFFFFFFFFFFFFFFFFFFFFFFFFFFFFFFFFFF AND PUSH4 0x23B872DD PUSH2 0xB43 PUSH2 0x111F JUMP JUMPDEST ADDRESS DUP5 PUSH1 0x40 MLOAD DUP5 PUSH4 0xFFFFFFFF AND PUSH1 0xE0 SHL DUP2 MSTORE PUSH1 0x4 ADD PUSH2 0xB63 SWAP4 SWAP3 SWAP2 SWAP1 PUSH2 0x1D96 JUMP JUMPDEST PUSH1 0x20 PUSH1 0x40 MLOAD DUP1 DUP4 SUB DUP2 PUSH1 0x0 DUP8 GAS CALL ISZERO DUP1 ISZERO PUSH2 0xB82 JUMPI RETURNDATASIZE PUSH1 0x0 DUP1 RETURNDATACOPY RETURNDATASIZE PUSH1 0x0 REVERT JUMPDEST POP POP POP POP PUSH1 0x40 MLOAD RETURNDATASIZE PUSH1 0x1F NOT PUSH1 0x1F DUP3 ADD AND DUP3 ADD DUP1 PUSH1 0x40 MSTORE POP DUP2 ADD SWAP1 PUSH2 0xBA6 SWAP2 SWAP1 PUSH2 0x1D69 JUMP JUMPDEST POP DUP2 CALLVALUE PUSH2 0xBB3 SWAP2 SWAP1 PUSH2 0x1F39 JUMP JUMPDEST PUSH2 0xBBB PUSH2 0x7AB JUMP JUMPDEST PUSH2 0xBC5 SWAP2 SWAP1 PUSH2 0x1F6A JUMP JUMPDEST SWAP6 POP PUSH2 0xBD8 PUSH2 0xBD2 PUSH2 0x111F JUMP JUMPDEST DUP8 PUSH2 0x15F2 JUMP JUMPDEST POP POP JUMPDEST DUP4 SWAP5 POP POP POP POP POP SWAP2 SWAP1 POP JUMP JUMPDEST PUSH1 0x0 PUSH1 0x5 PUSH1 0x0 SWAP1 SLOAD SWAP1 PUSH2 0x100 EXP SWAP1 DIV PUSH20 0xFFFFFFFFFFFFFFFFFFFFFFFFFFFFFFFFFFFFFFFF AND PUSH20 0xFFFFFFFFFFFFFFFFFFFFFFFFFFFFFFFFFFFFFFFF AND PUSH4 0x70A08231 ADDRESS PUSH1 0x40 MLOAD DUP3 PUSH4 0xFFFFFFFF AND PUSH1 0xE0 SHL DUP2 MSTORE PUSH1 0x4 ADD PUSH2 0xC44 SWAP2 SWAP1 PUSH2 0x1C10 JUMP JUMPDEST PUSH1 0x20 PUSH1 0x40 MLOAD DUP1 DUP4 SUB DUP2 DUP7 GAS STATICCALL ISZERO DUP1 ISZERO PUSH2 0xC61 JUMPI RETURNDATASIZE PUSH1 0x0 DUP1 RETURNDATACOPY RETURNDATASIZE PUSH1 0x0 REVERT JUMPDEST POP POP POP POP PUSH1 0x40 MLOAD RETURNDATASIZE PUSH1 0x1F NOT PUSH1 0x1F DUP3 ADD AND DUP3 ADD DUP1 PUSH1 0x40 MSTORE POP DUP2 ADD SWAP1 PUSH2 0xC85 SWAP2 SWAP1 PUSH2 0x1FC1 JUMP JUMPDEST SWAP1 POP SWAP1 JUMP JUMPDEST PUSH1 0x0 DUP1 PUSH1 0x0 DUP4 PUSH20 0xFFFFFFFFFFFFFFFFFFFFFFFFFFFFFFFFFFFFFFFF AND PUSH20 0xFFFFFFFFFFFFFFFFFFFFFFFFFFFFFFFFFFFFFFFF AND DUP2 MSTORE PUSH1 0x20 ADD SWAP1 DUP2 MSTORE PUSH1 0x20 ADD PUSH1 0x0 KECCAK256 SLOAD SWAP1 POP SWAP2 SWAP1 POP JUMP JUMPDEST PUSH1 0x0 DUP1 DUP4 LT DUP1 PUSH2 0xCE2 JUMPI POP PUSH1 0x0 DUP3 LT JUMPDEST ISZERO PUSH2 0xD19 JUMPI PUSH1 0x40 MLOAD PUSH32 0xE11DBCC200000000000000000000000000000000000000000000000000000000 DUP2 MSTORE PUSH1 0x4 ADD PUSH1 0x40 MLOAD DUP1 SWAP2 SUB SWAP1 REVERT JUMPDEST PUSH1 0x0 PUSH1 0x64 PUSH1 0x63 DUP7 PUSH2 0xD2A SWAP2 SWAP1 PUSH2 0x1F6A JUMP JUMPDEST PUSH2 0xD34 SWAP2 SWAP1 PUSH2 0x1F39 JUMP JUMPDEST SWAP1 POP PUSH1 0x0 DUP2 DUP5 PUSH2 0xD44 SWAP2 SWAP1 PUSH2 0x1F6A JUMP JUMPDEST SWAP1 POP PUSH1 0x0 DUP3 DUP7 PUSH2 0xD54 SWAP2 SWAP1 PUSH2 0x1ED6 JUMP JUMPDEST SWAP1 POP DUP1 DUP3 PUSH2 0xD62 SWAP2 SWAP1 PUSH2 0x1F39 JUMP JUMPDEST SWAP4 POP POP POP POP SWAP4 SWAP3 POP POP POP JUMP JUMPDEST PUSH1 0x60 PUSH1 0x4 DUP1 SLOAD PUSH2 0xD7D SWAP1 PUSH2 0x1E42 JUMP JUMPDEST DUP1 PUSH1 0x1F ADD PUSH1 0x20 DUP1 SWAP2 DIV MUL PUSH1 0x20 ADD PUSH1 0x40 MLOAD SWAP1 DUP2 ADD PUSH1 0x40 MSTORE DUP1 SWAP3 SWAP2 SWAP1 DUP2 DUP2 MSTORE PUSH1 0x20 ADD DUP3 DUP1 SLOAD PUSH2 0xDA9 SWAP1 PUSH2 0x1E42 JUMP JUMPDEST DUP1 ISZERO PUSH2 0xDF6 JUMPI DUP1 PUSH1 0x1F LT PUSH2 0xDCB JUMPI PUSH2 0x100 DUP1 DUP4 SLOAD DIV MUL DUP4 MSTORE SWAP2 PUSH1 0x20 ADD SWAP2 PUSH2 0xDF6 JUMP JUMPDEST DUP3 ADD SWAP2 SWAP1 PUSH1 0x0 MSTORE PUSH1 0x20 PUSH1 0x0 KECCAK256 SWAP1 JUMPDEST DUP2 SLOAD DUP2 MSTORE SWAP1 PUSH1 0x1 ADD SWAP1 PUSH1 0x20 ADD DUP1 DUP4 GT PUSH2 0xDD9 JUMPI DUP3 SWAP1 SUB PUSH1 0x1F AND DUP3 ADD SWAP2 JUMPDEST POP POP POP POP POP SWAP1 POP SWAP1 JUMP JUMPDEST PUSH1 0x0 DUP1 PUSH1 0x0 DUP4 GT PUSH2 0xE3D JUMPI PUSH1 0x40 MLOAD PUSH32 0xD039524300000000000000000000000000000000000000000000000000000000 DUP2 MSTORE PUSH1 0x4 ADD PUSH1 0x40 MLOAD DUP1 SWAP2 SUB SWAP1 REVERT JUMPDEST PUSH1 0x0 SELFBALANCE SWAP1 POP PUSH1 0x0 PUSH2 0xE4C PUSH2 0x7AB JUMP JUMPDEST SWAP1 POP PUSH1 0x0 DUP2 DUP7 DUP5 PUSH2 0xE5D SWAP2 SWAP1 PUSH2 0x1F6A JUMP JUMPDEST PUSH2 0xE67 SWAP2 SWAP1 PUSH2 0x1F39 JUMP JUMPDEST SWAP1 POP PUSH1 0x0 DUP3 DUP8 PUSH2 0xE75 PUSH2 0xBE7 JUMP JUMPDEST PUSH2 0xE7F SWAP2 SWAP1 PUSH2 0x1F6A JUMP JUMPDEST PUSH2 0xE89 SWAP2 SWAP1 PUSH2 0x1F39 JUMP JUMPDEST SWAP1 POP PUSH2 0xE9C PUSH2 0xE96 PUSH2 0x111F JUMP JUMPDEST DUP9 PUSH2 0x1748 JUMP JUMPDEST PUSH1 0x0 PUSH2 0xEA6 PUSH2 0x111F JUMP JUMPDEST PUSH20 0xFFFFFFFFFFFFFFFFFFFFFFFFFFFFFFFFFFFFFFFF AND DUP4 PUSH1 0x40 MLOAD PUSH2 0xEC9 SWAP1 PUSH2 0x1DFE JUMP JUMPDEST PUSH1 0x0 PUSH1 0x40 MLOAD DUP1 DUP4 SUB DUP2 DUP6 DUP8 GAS CALL SWAP3 POP POP POP RETURNDATASIZE DUP1 PUSH1 0x0 DUP2 EQ PUSH2 0xF06 JUMPI PUSH1 0x40 MLOAD SWAP2 POP PUSH1 0x1F NOT PUSH1 0x3F RETURNDATASIZE ADD AND DUP3 ADD PUSH1 0x40 MSTORE RETURNDATASIZE DUP3 MSTORE RETURNDATASIZE PUSH1 0x0 PUSH1 0x20 DUP5 ADD RETURNDATACOPY PUSH2 0xF0B JUMP JUMPDEST PUSH1 0x60 SWAP2 POP JUMPDEST POP POP SWAP1 POP DUP1 PUSH2 0xF46 JUMPI PUSH1 0x40 MLOAD PUSH32 0x81063E5100000000000000000000000000000000000000000000000000000000 DUP2 MSTORE PUSH1 0x4 ADD PUSH1 0x40 MLOAD DUP1 SWAP2 SUB SWAP1 REVERT JUMPDEST PUSH1 0x5 PUSH1 0x0 SWAP1 SLOAD SWAP1 PUSH2 0x100 EXP SWAP1 DIV PUSH20 0xFFFFFFFFFFFFFFFFFFFFFFFFFFFFFFFFFFFFFFFF AND PUSH20 0xFFFFFFFFFFFFFFFFFFFFFFFFFFFFFFFFFFFFFFFF AND PUSH4 0xA9059CBB PUSH2 0xF8C PUSH2 0x111F JUMP JUMPDEST DUP5 PUSH1 0x40 MLOAD DUP4 PUSH4 0xFFFFFFFF AND PUSH1 0xE0 SHL DUP2 MSTORE PUSH1 0x4 ADD PUSH2 0xFAA SWAP3 SWAP2 SWAP1 PUSH2 0x1D14 JUMP JUMPDEST PUSH1 0x20 PUSH1 0x40 MLOAD DUP1 DUP4 SUB DUP2 PUSH1 0x0 DUP8 GAS CALL ISZERO DUP1 ISZERO PUSH2 0xFC9 JUMPI RETURNDATASIZE PUSH1 0x0 DUP1 RETURNDATACOPY RETURNDATASIZE PUSH1 0x0 REVERT JUMPDEST POP POP POP POP PUSH1 0x40 MLOAD RETURNDATASIZE PUSH1 0x1F NOT PUSH1 0x1F DUP3 ADD AND DUP3 ADD DUP1 PUSH1 0x40 MSTORE POP DUP2 ADD SWAP1 PUSH2 0xFED SWAP2 SWAP1 PUSH2 0x1D69 JUMP JUMPDEST POP DUP3 DUP3 SWAP7 POP SWAP7 POP POP POP POP POP POP SWAP2 POP SWAP2 JUMP JUMPDEST PUSH1 0x0 DUP1 PUSH2 0x1009 PUSH2 0x111F JUMP JUMPDEST SWAP1 POP PUSH1 0x0 PUSH2 0x1017 DUP3 DUP7 PUSH2 0x1098 JUMP JUMPDEST SWAP1 POP DUP4 DUP2 LT ISZERO PUSH2 0x105C JUMPI PUSH1 0x40 MLOAD PUSH32 0x8C379A000000000000000000000000000000000000000000000000000000000 DUP2 MSTORE PUSH1 0x4 ADD PUSH2 0x1053 SWAP1 PUSH2 0x2060 JUMP JUMPDEST PUSH1 0x40 MLOAD DUP1 SWAP2 SUB SWAP1 REVERT JUMPDEST PUSH2 0x1069 DUP3 DUP7 DUP7 DUP5 SUB PUSH2 0x1127 JUMP JUMPDEST PUSH1 0x1 SWAP3 POP POP POP SWAP3 SWAP2 POP POP JUMP JUMPDEST PUSH1 0x0 DUP1 PUSH2 0x1080 PUSH2 0x111F JUMP JUMPDEST SWAP1 POP PUSH2 0x108D DUP2 DUP6 DUP6 PUSH2 0x137C JUMP JUMPDEST PUSH1 0x1 SWAP2 POP POP SWAP3 SWAP2 POP POP JUMP JUMPDEST PUSH1 0x0 PUSH1 0x1 PUSH1 0x0 DUP5 PUSH20 0xFFFFFFFFFFFFFFFFFFFFFFFFFFFFFFFFFFFFFFFF AND PUSH20 0xFFFFFFFFFFFFFFFFFFFFFFFFFFFFFFFFFFFFFFFF AND DUP2 MSTORE PUSH1 0x20 ADD SWAP1 DUP2 MSTORE PUSH1 0x20 ADD PUSH1 0x0 KECCAK256 PUSH1 0x0 DUP4 PUSH20 0xFFFFFFFFFFFFFFFFFFFFFFFFFFFFFFFFFFFFFFFF AND PUSH20 0xFFFFFFFFFFFFFFFFFFFFFFFFFFFFFFFFFFFFFFFF AND DUP2 MSTORE PUSH1 0x20 ADD SWAP1 DUP2 MSTORE PUSH1 0x20 ADD PUSH1 0x0 KECCAK256 SLOAD SWAP1 POP SWAP3 SWAP2 POP POP JUMP JUMPDEST PUSH1 0x0 CALLER SWAP1 POP SWAP1 JUMP JUMPDEST PUSH1 0x0 PUSH20 0xFFFFFFFFFFFFFFFFFFFFFFFFFFFFFFFFFFFFFFFF AND DUP4 PUSH20 0xFFFFFFFFFFFFFFFFFFFFFFFFFFFFFFFFFFFFFFFF AND SUB PUSH2 0x1196 JUMPI PUSH1 0x40 MLOAD PUSH32 0x8C379A000000000000000000000000000000000000000000000000000000000 DUP2 MSTORE PUSH1 0x4 ADD PUSH2 0x118D SWAP1 PUSH2 0x20F2 JUMP JUMPDEST PUSH1 0x40 MLOAD DUP1 SWAP2 SUB SWAP1 REVERT JUMPDEST PUSH1 0x0 PUSH20 0xFFFFFFFFFFFFFFFFFFFFFFFFFFFFFFFFFFFFFFFF AND DUP3 PUSH20 0xFFFFFFFFFFFFFFFFFFFFFFFFFFFFFFFFFFFFFFFF AND SUB PUSH2 0x1205 JUMPI PUSH1 0x40 MLOAD PUSH32 0x8C379A000000000000000000000000000000000000000000000000000000000 DUP2 MSTORE PUSH1 0x4 ADD PUSH2 0x11FC SWAP1 PUSH2 0x2184 JUMP JUMPDEST PUSH1 0x40 MLOAD DUP1 SWAP2 SUB SWAP1 REVERT JUMPDEST DUP1 PUSH1 0x1 PUSH1 0x0 DUP6 PUSH20 0xFFFFFFFFFFFFFFFFFFFFFFFFFFFFFFFFFFFFFFFF AND PUSH20 0xFFFFFFFFFFFFFFFFFFFFFFFFFFFFFFFFFFFFFFFF AND DUP2 MSTORE PUSH1 0x20 ADD SWAP1 DUP2 MSTORE PUSH1 0x20 ADD PUSH1 0x0 KECCAK256 PUSH1 0x0 DUP5 PUSH20 0xFFFFFFFFFFFFFFFFFFFFFFFFFFFFFFFFFFFFFFFF AND PUSH20 0xFFFFFFFFFFFFFFFFFFFFFFFFFFFFFFFFFFFFFFFF AND DUP2 MSTORE PUSH1 0x20 ADD SWAP1 DUP2 MSTORE PUSH1 0x20 ADD PUSH1 0x0 KECCAK256 DUP2 SWAP1 SSTORE POP DUP2 PUSH20 0xFFFFFFFFFFFFFFFFFFFFFFFFFFFFFFFFFFFFFFFF AND DUP4 PUSH20 0xFFFFFFFFFFFFFFFFFFFFFFFFFFFFFFFFFFFFFFFF AND PUSH32 0x8C5BE1E5EBEC7D5BD14F71427D1E84F3DD0314C0F7B2291E5B200AC8C7C3B925 DUP4 PUSH1 0x40 MLOAD PUSH2 0x12E3 SWAP2 SWAP1 PUSH2 0x1B2F JUMP JUMPDEST PUSH1 0x40 MLOAD DUP1 SWAP2 SUB SWAP1 LOG3 POP POP POP JUMP JUMPDEST PUSH1 0x0 PUSH2 0x12FC DUP5 DUP5 PUSH2 0x1098 JUMP JUMPDEST SWAP1 POP PUSH32 0xFFFFFFFFFFFFFFFFFFFFFFFFFFFFFFFFFFFFFFFFFFFFFFFFFFFFFFFFFFFFFFFF DUP2 EQ PUSH2 0x1376 JUMPI DUP2 DUP2 LT ISZERO PUSH2 0x1368 JUMPI PUSH1 0x40 MLOAD PUSH32 0x8C379A000000000000000000000000000000000000000000000000000000000 DUP2 MSTORE PUSH1 0x4 ADD PUSH2 0x135F SWAP1 PUSH2 0x21F0 JUMP JUMPDEST PUSH1 0x40 MLOAD DUP1 SWAP2 SUB SWAP1 REVERT JUMPDEST PUSH2 0x1375 DUP5 DUP5 DUP5 DUP5 SUB PUSH2 0x1127 JUMP JUMPDEST JUMPDEST POP POP POP POP JUMP JUMPDEST PUSH1 0x0 PUSH20 0xFFFFFFFFFFFFFFFFFFFFFFFFFFFFFFFFFFFFFFFF AND DUP4 PUSH20 0xFFFFFFFFFFFFFFFFFFFFFFFFFFFFFFFFFFFFFFFF AND SUB PUSH2 0x13EB JUMPI PUSH1 0x40 MLOAD PUSH32 0x8C379A000000000000000000000000000000000000000000000000000000000 DUP2 MSTORE PUSH1 0x4 ADD PUSH2 0x13E2 SWAP1 PUSH2 0x2282 JUMP JUMPDEST PUSH1 0x40 MLOAD DUP1 SWAP2 SUB SWAP1 REVERT JUMPDEST PUSH1 0x0 PUSH20 0xFFFFFFFFFFFFFFFFFFFFFFFFFFFFFFFFFFFFFFFF AND DUP3 PUSH20 0xFFFFFFFFFFFFFFFFFFFFFFFFFFFFFFFFFFFFFFFF AND SUB PUSH2 0x145A JUMPI PUSH1 0x40 MLOAD PUSH32 0x8C379A000000000000000000000000000000000000000000000000000000000 DUP2 MSTORE PUSH1 0x4 ADD PUSH2 0x1451 SWAP1 PUSH2 0x2314 JUMP JUMPDEST PUSH1 0x40 MLOAD DUP1 SWAP2 SUB SWAP1 REVERT JUMPDEST PUSH2 0x1465 DUP4 DUP4 DUP4 PUSH2 0x1915 JUMP JUMPDEST PUSH1 0x0 DUP1 PUSH1 0x0 DUP6 PUSH20 0xFFFFFFFFFFFFFFFFFFFFFFFFFFFFFFFFFFFFFFFF AND PUSH20 0xFFFFFFFFFFFFFFFFFFFFFFFFFFFFFFFFFFFFFFFF AND DUP2 MSTORE PUSH1 0x20 ADD SWAP1 DUP2 MSTORE PUSH1 0x20 ADD PUSH1 0x0 KECCAK256 SLOAD SWAP1 POP DUP2 DUP2 LT ISZERO PUSH2 0x14EB JUMPI PUSH1 0x40 MLOAD PUSH32 0x8C379A000000000000000000000000000000000000000000000000000000000 DUP2 MSTORE PUSH1 0x4 ADD PUSH2 0x14E2 SWAP1 PUSH2 0x23A6 JUMP JUMPDEST PUSH1 0x40 MLOAD DUP1 SWAP2 SUB SWAP1 REVERT JUMPDEST DUP2 DUP2 SUB PUSH1 0x0 DUP1 DUP7 PUSH20 0xFFFFFFFFFFFFFFFFFFFFFFFFFFFFFFFFFFFFFFFF AND PUSH20 0xFFFFFFFFFFFFFFFFFFFFFFFFFFFFFFFFFFFFFFFF AND DUP2 MSTORE PUSH1 0x20 ADD SWAP1 DUP2 MSTORE PUSH1 0x20 ADD PUSH1 0x0 KECCAK256 DUP2 SWAP1 SSTORE POP DUP2 PUSH1 0x0 DUP1 DUP6 PUSH20 0xFFFFFFFFFFFFFFFFFFFFFFFFFFFFFFFFFFFFFFFF AND PUSH20 0xFFFFFFFFFFFFFFFFFFFFFFFFFFFFFFFFFFFFFFFF AND DUP2 MSTORE PUSH1 0x20 ADD SWAP1 DUP2 MSTORE PUSH1 0x20 ADD PUSH1 0x0 KECCAK256 PUSH1 0x0 DUP3 DUP3 SLOAD ADD SWAP3 POP POP DUP2 SWAP1 SSTORE POP DUP3 PUSH20 0xFFFFFFFFFFFFFFFFFFFFFFFFFFFFFFFFFFFFFFFF AND DUP5 PUSH20 0xFFFFFFFFFFFFFFFFFFFFFFFFFFFFFFFFFFFFFFFF AND PUSH32 0xDDF252AD1BE2C89B69C2B068FC378DAA952BA7F163C4A11628F55A4DF523B3EF DUP5 PUSH1 0x40 MLOAD PUSH2 0x15D9 SWAP2 SWAP1 PUSH2 0x1B2F JUMP JUMPDEST PUSH1 0x40 MLOAD DUP1 SWAP2 SUB SWAP1 LOG3 PUSH2 0x15EC DUP5 DUP5 DUP5 PUSH2 0x191A JUMP JUMPDEST POP POP POP POP JUMP JUMPDEST PUSH1 0x0 PUSH20 0xFFFFFFFFFFFFFFFFFFFFFFFFFFFFFFFFFFFFFFFF AND DUP3 PUSH20 0xFFFFFFFFFFFFFFFFFFFFFFFFFFFFFFFFFFFFFFFF AND SUB PUSH2 0x1661 JUMPI PUSH1 0x40 MLOAD PUSH32 0x8C379A000000000000000000000000000000000000000000000000000000000 DUP2 MSTORE PUSH1 0x4 ADD PUSH2 0x1658 SWAP1 PUSH2 0x2412 JUMP JUMPDEST PUSH1 0x40 MLOAD DUP1 SWAP2 SUB SWAP1 REVERT JUMPDEST PUSH2 0x166D PUSH1 0x0 DUP4 DUP4 PUSH2 0x1915 JUMP JUMPDEST DUP1 PUSH1 0x2 PUSH1 0x0 DUP3 DUP3 SLOAD PUSH2 0x167F SWAP2 SWAP1 PUSH2 0x1ED6 JUMP JUMPDEST SWAP3 POP POP DUP2 SWAP1 SSTORE POP DUP1 PUSH1 0x0 DUP1 DUP5 PUSH20 0xFFFFFFFFFFFFFFFFFFFFFFFFFFFFFFFFFFFFFFFF AND PUSH20 0xFFFFFFFFFFFFFFFFFFFFFFFFFFFFFFFFFFFFFFFF AND DUP2 MSTORE PUSH1 0x20 ADD SWAP1 DUP2 MSTORE PUSH1 0x20 ADD PUSH1 0x0 KECCAK256 PUSH1 0x0 DUP3 DUP3 SLOAD ADD SWAP3 POP POP DUP2 SWAP1 SSTORE POP DUP2 PUSH20 0xFFFFFFFFFFFFFFFFFFFFFFFFFFFFFFFFFFFFFFFF AND PUSH1 0x0 PUSH20 0xFFFFFFFFFFFFFFFFFFFFFFFFFFFFFFFFFFFFFFFF AND PUSH32 0xDDF252AD1BE2C89B69C2B068FC378DAA952BA7F163C4A11628F55A4DF523B3EF DUP4 PUSH1 0x40 MLOAD PUSH2 0x1730 SWAP2 SWAP1 PUSH2 0x1B2F JUMP JUMPDEST PUSH1 0x40 MLOAD DUP1 SWAP2 SUB SWAP1 LOG3 PUSH2 0x1744 PUSH1 0x0 DUP4 DUP4 PUSH2 0x191A JUMP JUMPDEST POP POP JUMP JUMPDEST PUSH1 0x0 PUSH20 0xFFFFFFFFFFFFFFFFFFFFFFFFFFFFFFFFFFFFFFFF AND DUP3 PUSH20 0xFFFFFFFFFFFFFFFFFFFFFFFFFFFFFFFFFFFFFFFF AND SUB PUSH2 0x17B7 JUMPI PUSH1 0x40 MLOAD PUSH32 0x8C379A000000000000000000000000000000000000000000000000000000000 DUP2 MSTORE PUSH1 0x4 ADD PUSH2 0x17AE SWAP1 PUSH2 0x24A4 JUMP JUMPDEST PUSH1 0x40 MLOAD DUP1 SWAP2 SUB SWAP1 REVERT JUMPDEST PUSH2 0x17C3 DUP3 PUSH1 0x0 DUP4 PUSH2 0x1915 JUMP JUMPDEST PUSH1 0x0 DUP1 PUSH1 0x0 DUP5 PUSH20 0xFFFFFFFFFFFFFFFFFFFFFFFFFFFFFFFFFFFFFFFF AND PUSH20 0xFFFFFFFFFFFFFFFFFFFFFFFFFFFFFFFFFFFFFFFF AND DUP2 MSTORE PUSH1 0x20 ADD SWAP1 DUP2 MSTORE PUSH1 0x20 ADD PUSH1 0x0 KECCAK256 SLOAD SWAP1 POP DUP2 DUP2 LT ISZERO PUSH2 0x1849 JUMPI PUSH1 0x40 MLOAD PUSH32 0x8C379A000000000000000000000000000000000000000000000000000000000 DUP2 MSTORE PUSH1 0x4 ADD PUSH2 0x1840 SWAP1 PUSH2 0x2536 JUMP JUMPDEST PUSH1 0x40 MLOAD DUP1 SWAP2 SUB SWAP1 REVERT JUMPDEST DUP2 DUP2 SUB PUSH1 0x0 DUP1 DUP6 PUSH20 0xFFFFFFFFFFFFFFFFFFFFFFFFFFFFFFFFFFFFFFFF AND PUSH20 0xFFFFFFFFFFFFFFFFFFFFFFFFFFFFFFFFFFFFFFFF AND DUP2 MSTORE PUSH1 0x20 ADD SWAP1 DUP2 MSTORE PUSH1 0x20 ADD PUSH1 0x0 KECCAK256 DUP2 SWAP1 SSTORE POP DUP2 PUSH1 0x2 PUSH1 0x0 DUP3 DUP3 SLOAD SUB SWAP3 POP POP DUP2 SWAP1 SSTORE POP PUSH1 0x0 PUSH20 0xFFFFFFFFFFFFFFFFFFFFFFFFFFFFFFFFFFFFFFFF AND DUP4 PUSH20 0xFFFFFFFFFFFFFFFFFFFFFFFFFFFFFFFFFFFFFFFF AND PUSH32 0xDDF252AD1BE2C89B69C2B068FC378DAA952BA7F163C4A11628F55A4DF523B3EF DUP5 PUSH1 0x40 MLOAD PUSH2 0x18FC SWAP2 SWAP1 PUSH2 0x1B2F JUMP JUMPDEST PUSH1 0x40 MLOAD DUP1 SWAP2 SUB SWAP1 LOG3 PUSH2 0x1910 DUP4 PUSH1 0x0 DUP5 PUSH2 0x191A JUMP JUMPDEST POP POP POP JUMP JUMPDEST POP POP POP JUMP JUMPDEST POP POP POP JUMP JUMPDEST PUSH1 0x0 DUP1 REVERT JUMPDEST PUSH1 0x0 DUP2 SWAP1 POP SWAP2 SWAP1 POP JUMP JUMPDEST PUSH2 0x1937 DUP2 PUSH2 0x1924 JUMP JUMPDEST DUP2 EQ PUSH2 0x1942 JUMPI PUSH1 0x0 DUP1 REVERT JUMPDEST POP JUMP JUMPDEST PUSH1 0x0 DUP2 CALLDATALOAD SWAP1 POP PUSH2 0x1954 DUP2 PUSH2 0x192E JUMP JUMPDEST SWAP3 SWAP2 POP POP JUMP JUMPDEST PUSH1 0x0 DUP1 PUSH1 0x40 DUP4 DUP6 SUB SLT ISZERO PUSH2 0x1971 JUMPI PUSH2 0x1970 PUSH2 0x191F JUMP JUMPDEST JUMPDEST PUSH1 0x0 PUSH2 0x197F DUP6 DUP3 DUP7 ADD PUSH2 0x1945 JUMP JUMPDEST SWAP3 POP POP PUSH1 0x20 PUSH2 0x1990 DUP6 DUP3 DUP7 ADD PUSH2 0x1945 JUMP JUMPDEST SWAP2 POP POP SWAP3 POP SWAP3 SWAP1 POP JUMP JUMPDEST PUSH1 0x0 DUP2 MLOAD SWAP1 POP SWAP2 SWAP1 POP JUMP JUMPDEST PUSH1 0x0 DUP3 DUP3 MSTORE PUSH1 0x20 DUP3 ADD SWAP1 POP SWAP3 SWAP2 POP POP JUMP JUMPDEST PUSH1 0x0 JUMPDEST DUP4 DUP2 LT ISZERO PUSH2 0x19D4 JUMPI DUP1 DUP3 ADD MLOAD DUP2 DUP5 ADD MSTORE PUSH1 0x20 DUP2 ADD SWAP1 POP PUSH2 0x19B9 JUMP JUMPDEST PUSH1 0x0 DUP5 DUP5 ADD MSTORE POP POP POP POP JUMP JUMPDEST PUSH1 0x0 PUSH1 0x1F NOT PUSH1 0x1F DUP4 ADD AND SWAP1 POP SWAP2 SWAP1 POP JUMP JUMPDEST PUSH1 0x0 PUSH2 0x19FC DUP3 PUSH2 0x199A JUMP JUMPDEST PUSH2 0x1A06 DUP2 DUP6 PUSH2 0x19A5 JUMP JUMPDEST SWAP4 POP PUSH2 0x1A16 DUP2 DUP6 PUSH1 0x20 DUP7 ADD PUSH2 0x19B6 JUMP JUMPDEST PUSH2 0x1A1F DUP2 PUSH2 0x19E0 JUMP JUMPDEST DUP5 ADD SWAP2 POP POP SWAP3 SWAP2 POP POP JUMP JUMPDEST PUSH1 0x0 PUSH1 0x20 DUP3 ADD SWAP1 POP DUP2 DUP2 SUB PUSH1 0x0 DUP4 ADD MSTORE PUSH2 0x1A44 DUP2 DUP5 PUSH2 0x19F1 JUMP JUMPDEST SWAP1 POP SWAP3 SWAP2 POP POP JUMP JUMPDEST PUSH1 0x0 PUSH20 0xFFFFFFFFFFFFFFFFFFFFFFFFFFFFFFFFFFFFFFFF DUP3 AND SWAP1 POP SWAP2 SWAP1 POP JUMP JUMPDEST PUSH1 0x0 PUSH2 0x1A77 DUP3 PUSH2 0x1A4C JUMP JUMPDEST SWAP1 POP SWAP2 SWAP1 POP JUMP JUMPDEST PUSH2 0x1A87 DUP2 PUSH2 0x1A6C JUMP JUMPDEST DUP2 EQ PUSH2 0x1A92 JUMPI PUSH1 0x0 DUP1 REVERT JUMPDEST POP JUMP JUMPDEST PUSH1 0x0 DUP2 CALLDATALOAD SWAP1 POP PUSH2 0x1AA4 DUP2 PUSH2 0x1A7E JUMP JUMPDEST SWAP3 SWAP2 POP POP JUMP JUMPDEST PUSH1 0x0 DUP1 PUSH1 0x40 DUP4 DUP6 SUB SLT ISZERO PUSH2 0x1AC1 JUMPI PUSH2 0x1AC0 PUSH2 0x191F JUMP JUMPDEST JUMPDEST PUSH1 0x0 PUSH2 0x1ACF DUP6 DUP3 DUP7 ADD PUSH2 0x1A95 JUMP JUMPDEST SWAP3 POP POP PUSH1 0x20 PUSH2 0x1AE0 DUP6 DUP3 DUP7 ADD PUSH2 0x1945 JUMP JUMPDEST SWAP2 POP POP SWAP3 POP SWAP3 SWAP1 POP JUMP JUMPDEST PUSH1 0x0 DUP2 ISZERO ISZERO SWAP1 POP SWAP2 SWAP1 POP JUMP JUMPDEST PUSH2 0x1AFF DUP2 PUSH2 0x1AEA JUMP JUMPDEST DUP3 MSTORE POP POP JUMP JUMPDEST PUSH1 0x0 PUSH1 0x20 DUP3 ADD SWAP1 POP PUSH2 0x1B1A PUSH1 0x0 DUP4 ADD DUP5 PUSH2 0x1AF6 JUMP JUMPDEST SWAP3 SWAP2 POP POP JUMP JUMPDEST PUSH2 0x1B29 DUP2 PUSH2 0x1924 JUMP JUMPDEST DUP3 MSTORE POP POP JUMP JUMPDEST PUSH1 0x0 PUSH1 0x20 DUP3 ADD SWAP1 POP PUSH2 0x1B44 PUSH1 0x0 DUP4 ADD DUP5 PUSH2 0x1B20 JUMP JUMPDEST SWAP3 SWAP2 POP POP JUMP JUMPDEST PUSH1 0x0 PUSH1 0x20 DUP3 DUP5 SUB SLT ISZERO PUSH2 0x1B60 JUMPI PUSH2 0x1B5F PUSH2 0x191F JUMP JUMPDEST JUMPDEST PUSH1 0x0 PUSH2 0x1B6E DUP5 DUP3 DUP6 ADD PUSH2 0x1945 JUMP JUMPDEST SWAP2 POP POP SWAP3 SWAP2 POP POP JUMP JUMPDEST PUSH1 0x0 DUP1 PUSH1 0x0 PUSH1 0x60 DUP5 DUP7 SUB SLT ISZERO PUSH2 0x1B90 JUMPI PUSH2 0x1B8F PUSH2 0x191F JUMP JUMPDEST JUMPDEST PUSH1 0x0 PUSH2 0x1B9E DUP7 DUP3 DUP8 ADD PUSH2 0x1A95 JUMP JUMPDEST SWAP4 POP POP PUSH1 0x20 PUSH2 0x1BAF DUP7 DUP3 DUP8 ADD PUSH2 0x1A95 JUMP JUMPDEST SWAP3 POP POP PUSH1 0x40 PUSH2 0x1BC0 DUP7 DUP3 DUP8 ADD PUSH2 0x1945 JUMP JUMPDEST SWAP2 POP POP SWAP3 POP SWAP3 POP SWAP3 JUMP JUMPDEST PUSH1 0x0 PUSH1 0xFF DUP3 AND SWAP1 POP SWAP2 SWAP1 POP JUMP JUMPDEST PUSH2 0x1BE0 DUP2 PUSH2 0x1BCA JUMP JUMPDEST DUP3 MSTORE POP POP JUMP JUMPDEST PUSH1 0x0 PUSH1 0x20 DUP3 ADD SWAP1 POP PUSH2 0x1BFB PUSH1 0x0 DUP4 ADD DUP5 PUSH2 0x1BD7 JUMP JUMPDEST SWAP3 SWAP2 POP POP JUMP JUMPDEST PUSH2 0x1C0A DUP2 PUSH2 0x1A6C JUMP JUMPDEST DUP3 MSTORE POP POP JUMP JUMPDEST PUSH1 0x0 PUSH1 0x20 DUP3 ADD SWAP1 POP PUSH2 0x1C25 PUSH1 0x0 DUP4 ADD DUP5 PUSH2 0x1C01 JUMP JUMPDEST SWAP3 SWAP2 POP POP JUMP JUMPDEST PUSH1 0x0 PUSH1 0x20 DUP3 DUP5 SUB SLT ISZERO PUSH2 0x1C41 JUMPI PUSH2 0x1C40 PUSH2 0x191F JUMP JUMPDEST JUMPDEST PUSH1 0x0 PUSH2 0x1C4F DUP5 DUP3 DUP6 ADD PUSH2 0x1A95 JUMP JUMPDEST SWAP2 POP POP SWAP3 SWAP2 POP POP JUMP JUMPDEST PUSH1 0x0 DUP1 PUSH1 0x0 PUSH1 0x60 DUP5 DUP7 SUB SLT ISZERO PUSH2 0x1C71 JUMPI PUSH2 0x1C70 PUSH2 0x191F JUMP JUMPDEST JUMPDEST PUSH1 0x0 PUSH2 0x1C7F DUP7 DUP3 DUP8 ADD PUSH2 0x1945 JUMP JUMPDEST SWAP4 POP POP PUSH1 0x20 PUSH2 0x1C90 DUP7 DUP3 DUP8 ADD PUSH2 0x1945 JUMP JUMPDEST SWAP3 POP POP PUSH1 0x40 PUSH2 0x1CA1 DUP7 DUP3 DUP8 ADD PUSH2 0x1945 JUMP JUMPDEST SWAP2 POP POP SWAP3 POP SWAP3 POP SWAP3 JUMP JUMPDEST PUSH1 0x0 PUSH1 0x40 DUP3 ADD SWAP1 POP PUSH2 0x1CC0 PUSH1 0x0 DUP4 ADD DUP6 PUSH2 0x1B20 JUMP JUMPDEST PUSH2 0x1CCD PUSH1 0x20 DUP4 ADD DUP5 PUSH2 0x1B20 JUMP JUMPDEST SWAP4 SWAP3 POP POP POP JUMP JUMPDEST PUSH1 0x0 DUP1 PUSH1 0x40 DUP4 DUP6 SUB SLT ISZERO PUSH2 0x1CEB JUMPI PUSH2 0x1CEA PUSH2 0x191F JUMP JUMPDEST JUMPDEST PUSH1 0x0 PUSH2 0x1CF9 DUP6 DUP3 DUP7 ADD PUSH2 0x1A95 JUMP JUMPDEST SWAP3 POP POP PUSH1 0x20 PUSH2 0x1D0A DUP6 DUP3 DUP7 ADD PUSH2 0x1A95 JUMP JUMPDEST SWAP2 POP POP SWAP3 POP SWAP3 SWAP1 POP JUMP JUMPDEST PUSH1 0x0 PUSH1 0x40 DUP3 ADD SWAP1 POP PUSH2 0x1D29 PUSH1 0x0 DUP4 ADD DUP6 PUSH2 0x1C01 JUMP JUMPDEST PUSH2 0x1D36 PUSH1 0x20 DUP4 ADD DUP5 PUSH2 0x1B20 JUMP JUMPDEST SWAP4 SWAP3 POP POP POP JUMP JUMPDEST PUSH2 0x1D46 DUP2 PUSH2 0x1AEA JUMP JUMPDEST DUP2 EQ PUSH2 0x1D51 JUMPI PUSH1 0x0 DUP1 REVERT JUMPDEST POP JUMP JUMPDEST PUSH1 0x0 DUP2 MLOAD SWAP1 POP PUSH2 0x1D63 DUP2 PUSH2 0x1D3D JUMP JUMPDEST SWAP3 SWAP2 POP POP JUMP JUMPDEST PUSH1 0x0 PUSH1 0x20 DUP3 DUP5 SUB SLT ISZERO PUSH2 0x1D7F JUMPI PUSH2 0x1D7E PUSH2 0x191F JUMP JUMPDEST JUMPDEST PUSH1 0x0 PUSH2 0x1D8D DUP5 DUP3 DUP6 ADD PUSH2 0x1D54 JUMP JUMPDEST SWAP2 POP POP SWAP3 SWAP2 POP POP JUMP JUMPDEST PUSH1 0x0 PUSH1 0x60 DUP3 ADD SWAP1 POP PUSH2 0x1DAB PUSH1 0x0 DUP4 ADD DUP7 PUSH2 0x1C01 JUMP JUMPDEST PUSH2 0x1DB8 PUSH1 0x20 DUP4 ADD DUP6 PUSH2 0x1C01 JUMP JUMPDEST PUSH2 0x1DC5 PUSH1 0x40 DUP4 ADD DUP5 PUSH2 0x1B20 JUMP JUMPDEST SWAP5 SWAP4 POP POP POP POP JUMP JUMPDEST PUSH1 0x0 DUP2 SWAP1 POP SWAP3 SWAP2 POP POP JUMP JUMPDEST POP JUMP JUMPDEST PUSH1 0x0 PUSH2 0x1DE8 PUSH1 0x0 DUP4 PUSH2 0x1DCD JUMP JUMPDEST SWAP2 POP PUSH2 0x1DF3 DUP3 PUSH2 0x1DD8 JUMP JUMPDEST PUSH1 0x0 DUP3 ADD SWAP1 POP SWAP2 SWAP1 POP JUMP JUMPDEST PUSH1 0x0 PUSH2 0x1E09 DUP3 PUSH2 0x1DDB JUMP JUMPDEST SWAP2 POP DUP2 SWAP1 POP SWAP2 SWAP1 POP JUMP JUMPDEST PUSH32 0x4E487B7100000000000000000000000000000000000000000000000000000000 PUSH1 0x0 MSTORE PUSH1 0x22 PUSH1 0x4 MSTORE PUSH1 0x24 PUSH1 0x0 REVERT JUMPDEST PUSH1 0x0 PUSH1 0x2 DUP3 DIV SWAP1 POP PUSH1 0x1 DUP3 AND DUP1 PUSH2 0x1E5A JUMPI PUSH1 0x7F DUP3 AND SWAP2 POP JUMPDEST PUSH1 0x20 DUP3 LT DUP2 SUB PUSH2 0x1E6D JUMPI PUSH2 0x1E6C PUSH2 0x1E13 JUMP JUMPDEST JUMPDEST POP SWAP2 SWAP1 POP JUMP JUMPDEST PUSH32 0x4E487B7100000000000000000000000000000000000000000000000000000000 PUSH1 0x0 MSTORE PUSH1 0x11 PUSH1 0x4 MSTORE PUSH1 0x24 PUSH1 0x0 REVERT JUMPDEST PUSH1 0x0 PUSH2 0x1EAD DUP3 PUSH2 0x1924 JUMP JUMPDEST SWAP2 POP PUSH2 0x1EB8 DUP4 PUSH2 0x1924 JUMP JUMPDEST SWAP3 POP DUP3 DUP3 SUB SWAP1 POP DUP2 DUP2 GT ISZERO PUSH2 0x1ED0 JUMPI PUSH2 0x1ECF PUSH2 0x1E73 JUMP JUMPDEST JUMPDEST SWAP3 SWAP2 POP POP JUMP JUMPDEST PUSH1 0x0 PUSH2 0x1EE1 DUP3 PUSH2 0x1924 JUMP JUMPDEST SWAP2 POP PUSH2 0x1EEC DUP4 PUSH2 0x1924 JUMP JUMPDEST SWAP3 POP DUP3 DUP3 ADD SWAP1 POP DUP1 DUP3 GT ISZERO PUSH2 0x1F04 JUMPI PUSH2 0x1F03 PUSH2 0x1E73 JUMP JUMPDEST JUMPDEST SWAP3 SWAP2 POP POP JUMP JUMPDEST PUSH32 0x4E487B7100000000000000000000000000000000000000000000000000000000 PUSH1 0x0 MSTORE PUSH1 0x12 PUSH1 0x4 MSTORE PUSH1 0x24 PUSH1 0x0 REVERT JUMPDEST PUSH1 0x0 PUSH2 0x1F44 DUP3 PUSH2 0x1924 JUMP JUMPDEST SWAP2 POP PUSH2 0x1F4F DUP4 PUSH2 0x1924 JUMP JUMPDEST SWAP3 POP DUP3 PUSH2 0x1F5F JUMPI PUSH2 0x1F5E PUSH2 0x1F0A JUMP JUMPDEST JUMPDEST DUP3 DUP3 DIV SWAP1 POP SWAP3 SWAP2 POP POP JUMP JUMPDEST PUSH1 0x0 PUSH2 0x1F75 DUP3 PUSH2 0x1924 JUMP JUMPDEST SWAP2 POP PUSH2 0x1F80 DUP4 PUSH2 0x1924 JUMP JUMPDEST SWAP3 POP DUP3 DUP3 MUL PUSH2 0x1F8E DUP2 PUSH2 0x1924 JUMP JUMPDEST SWAP2 POP DUP3 DUP3 DIV DUP5 EQ DUP4 ISZERO OR PUSH2 0x1FA5 JUMPI PUSH2 0x1FA4 PUSH2 0x1E73 JUMP JUMPDEST JUMPDEST POP SWAP3 SWAP2 POP POP JUMP JUMPDEST PUSH1 0x0 DUP2 MLOAD SWAP1 POP PUSH2 0x1FBB DUP2 PUSH2 0x192E JUMP JUMPDEST SWAP3 SWAP2 POP POP JUMP JUMPDEST PUSH1 0x0 PUSH1 0x20 DUP3 DUP5 SUB SLT ISZERO PUSH2 0x1FD7 JUMPI PUSH2 0x1FD6 PUSH2 0x191F JUMP JUMPDEST JUMPDEST PUSH1 0x0 PUSH2 0x1FE5 DUP5 DUP3 DUP6 ADD PUSH2 0x1FAC JUMP JUMPDEST SWAP2 POP POP SWAP3 SWAP2 POP POP JUMP JUMPDEST PUSH32 0x45524332303A2064656372656173656420616C6C6F77616E63652062656C6F77 PUSH1 0x0 DUP3 ADD MSTORE PUSH32 0x207A65726F000000000000000000000000000000000000000000000000000000 PUSH1 0x20 DUP3 ADD MSTORE POP JUMP JUMPDEST PUSH1 0x0 PUSH2 0x204A PUSH1 0x25 DUP4 PUSH2 0x19A5 JUMP JUMPDEST SWAP2 POP PUSH2 0x2055 DUP3 PUSH2 0x1FEE JUMP JUMPDEST PUSH1 0x40 DUP3 ADD SWAP1 POP SWAP2 SWAP1 POP JUMP JUMPDEST PUSH1 0x0 PUSH1 0x20 DUP3 ADD SWAP1 POP DUP2 DUP2 SUB PUSH1 0x0 DUP4 ADD MSTORE PUSH2 0x2079 DUP2 PUSH2 0x203D JUMP JUMPDEST SWAP1 POP SWAP2 SWAP1 POP JUMP JUMPDEST PUSH32 0x45524332303A20617070726F76652066726F6D20746865207A65726F20616464 PUSH1 0x0 DUP3 ADD MSTORE PUSH32 0x7265737300000000000000000000000000000000000000000000000000000000 PUSH1 0x20 DUP3 ADD MSTORE POP JUMP JUMPDEST PUSH1 0x0 PUSH2 0x20DC PUSH1 0x24 DUP4 PUSH2 0x19A5 JUMP JUMPDEST SWAP2 POP PUSH2 0x20E7 DUP3 PUSH2 0x2080 JUMP JUMPDEST PUSH1 0x40 DUP3 ADD SWAP1 POP SWAP2 SWAP1 POP JUMP JUMPDEST PUSH1 0x0 PUSH1 0x20 DUP3 ADD SWAP1 POP DUP2 DUP2 SUB PUSH1 0x0 DUP4 ADD MSTORE PUSH2 0x210B DUP2 PUSH2 0x20CF JUMP JUMPDEST SWAP1 POP SWAP2 SWAP1 POP JUMP JUMPDEST PUSH32 0x45524332303A20617070726F766520746F20746865207A65726F206164647265 PUSH1 0x0 DUP3 ADD MSTORE PUSH32 0x7373000000000000000000000000000000000000000000000000000000000000 PUSH1 0x20 DUP3 ADD MSTORE POP JUMP JUMPDEST PUSH1 0x0 PUSH2 0x216E PUSH1 0x22 DUP4 PUSH2 0x19A5 JUMP JUMPDEST SWAP2 POP PUSH2 0x2179 DUP3 PUSH2 0x2112 JUMP JUMPDEST PUSH1 0x40 DUP3 ADD SWAP1 POP SWAP2 SWAP1 POP JUMP JUMPDEST PUSH1 0x0 PUSH1 0x20 DUP3 ADD SWAP1 POP DUP2 DUP2 SUB PUSH1 0x0 DUP4 ADD MSTORE PUSH2 0x219D DUP2 PUSH2 0x2161 JUMP JUMPDEST SWAP1 POP SWAP2 SWAP1 POP JUMP JUMPDEST PUSH32 0x45524332303A20696E73756666696369656E7420616C6C6F77616E6365000000 PUSH1 0x0 DUP3 ADD MSTORE POP JUMP JUMPDEST PUSH1 0x0 PUSH2 0x21DA PUSH1 0x1D DUP4 PUSH2 0x19A5 JUMP JUMPDEST SWAP2 POP PUSH2 0x21E5 DUP3 PUSH2 0x21A4 JUMP JUMPDEST PUSH1 0x20 DUP3 ADD SWAP1 POP SWAP2 SWAP1 POP JUMP JUMPDEST PUSH1 0x0 PUSH1 0x20 DUP3 ADD SWAP1 POP DUP2 DUP2 SUB PUSH1 0x0 DUP4 ADD MSTORE PUSH2 0x2209 DUP2 PUSH2 0x21CD JUMP JUMPDEST SWAP1 POP SWAP2 SWAP1 POP JUMP JUMPDEST PUSH32 0x45524332303A207472616E736665722066726F6D20746865207A65726F206164 PUSH1 0x0 DUP3 ADD MSTORE PUSH32 0x6472657373000000000000000000000000000000000000000000000000000000 PUSH1 0x20 DUP3 ADD MSTORE POP JUMP JUMPDEST PUSH1 0x0 PUSH2 0x226C PUSH1 0x25 DUP4 PUSH2 0x19A5 JUMP JUMPDEST SWAP2 POP PUSH2 0x2277 DUP3 PUSH2 0x2210 JUMP JUMPDEST PUSH1 0x40 DUP3 ADD SWAP1 POP SWAP2 SWAP1 POP JUMP JUMPDEST PUSH1 0x0 PUSH1 0x20 DUP3 ADD SWAP1 POP DUP2 DUP2 SUB PUSH1 0x0 DUP4 ADD MSTORE PUSH2 0x229B DUP2 PUSH2 0x225F JUMP JUMPDEST SWAP1 POP SWAP2 SWAP1 POP JUMP JUMPDEST PUSH32 0x45524332303A207472616E7366657220746F20746865207A65726F2061646472 PUSH1 0x0 DUP3 ADD MSTORE PUSH32 0x6573730000000000000000000000000000000000000000000000000000000000 PUSH1 0x20 DUP3 ADD MSTORE POP JUMP JUMPDEST PUSH1 0x0 PUSH2 0x22FE PUSH1 0x23 DUP4 PUSH2 0x19A5 JUMP JUMPDEST SWAP2 POP PUSH2 0x2309 DUP3 PUSH2 0x22A2 JUMP JUMPDEST PUSH1 0x40 DUP3 ADD SWAP1 POP SWAP2 SWAP1 POP JUMP JUMPDEST PUSH1 0x0 PUSH1 0x20 DUP3 ADD SWAP1 POP DUP2 DUP2 SUB PUSH1 0x0 DUP4 ADD MSTORE PUSH2 0x232D DUP2 PUSH2 0x22F1 JUMP JUMPDEST SWAP1 POP SWAP2 SWAP1 POP JUMP JUMPDEST PUSH32 0x45524332303A207472616E7366657220616D6F756E7420657863656564732062 PUSH1 0x0 DUP3 ADD MSTORE PUSH32 0x616C616E63650000000000000000000000000000000000000000000000000000 PUSH1 0x20 DUP3 ADD MSTORE POP JUMP JUMPDEST PUSH1 0x0 PUSH2 0x2390 PUSH1 0x26 DUP4 PUSH2 0x19A5 JUMP JUMPDEST SWAP2 POP PUSH2 0x239B DUP3 PUSH2 0x2334 JUMP JUMPDEST PUSH1 0x40 DUP3 ADD SWAP1 POP SWAP2 SWAP1 POP JUMP JUMPDEST PUSH1 0x0 PUSH1 0x20 DUP3 ADD SWAP1 POP DUP2 DUP2 SUB PUSH1 0x0 DUP4 ADD MSTORE PUSH2 0x23BF DUP2 PUSH2 0x2383 JUMP JUMPDEST SWAP1 POP SWAP2 SWAP1 POP JUMP JUMPDEST PUSH32 0x45524332303A206D696E7420746F20746865207A65726F206164647265737300 PUSH1 0x0 DUP3 ADD MSTORE POP JUMP JUMPDEST PUSH1 0x0 PUSH2 0x23FC PUSH1 0x1F DUP4 PUSH2 0x19A5 JUMP JUMPDEST SWAP2 POP PUSH2 0x2407 DUP3 PUSH2 0x23C6 JUMP JUMPDEST PUSH1 0x20 DUP3 ADD SWAP1 POP SWAP2 SWAP1 POP JUMP JUMPDEST PUSH1 0x0 PUSH1 0x20 DUP3 ADD SWAP1 POP DUP2 DUP2 SUB PUSH1 0x0 DUP4 ADD MSTORE PUSH2 0x242B DUP2 PUSH2 0x23EF JUMP JUMPDEST SWAP1 POP SWAP2 SWAP1 POP JUMP JUMPDEST PUSH32 0x45524332303A206275726E2066726F6D20746865207A65726F20616464726573 PUSH1 0x0 DUP3 ADD MSTORE PUSH32 0x7300000000000000000000000000000000000000000000000000000000000000 PUSH1 0x20 DUP3 ADD MSTORE POP JUMP JUMPDEST PUSH1 0x0 PUSH2 0x248E PUSH1 0x21 DUP4 PUSH2 0x19A5 JUMP JUMPDEST SWAP2 POP PUSH2 0x2499 DUP3 PUSH2 0x2432 JUMP JUMPDEST PUSH1 0x40 DUP3 ADD SWAP1 POP SWAP2 SWAP1 POP JUMP JUMPDEST PUSH1 0x0 PUSH1 0x20 DUP3 ADD SWAP1 POP DUP2 DUP2 SUB PUSH1 0x0 DUP4 ADD MSTORE PUSH2 0x24BD DUP2 PUSH2 0x2481 JUMP JUMPDEST SWAP1 POP SWAP2 SWAP1 POP JUMP JUMPDEST PUSH32 0x45524332303A206275726E20616D6F756E7420657863656564732062616C616E PUSH1 0x0 DUP3 ADD MSTORE PUSH32 0x6365000000000000000000000000000000000000000000000000000000000000 PUSH1 0x20 DUP3 ADD MSTORE POP JUMP JUMPDEST PUSH1 0x0 PUSH2 0x2520 PUSH1 0x22 DUP4 PUSH2 0x19A5 JUMP JUMPDEST SWAP2 POP PUSH2 0x252B DUP3 PUSH2 0x24C4 JUMP JUMPDEST PUSH1 0x40 DUP3 ADD SWAP1 POP SWAP2 SWAP1 POP JUMP JUMPDEST PUSH1 0x0 PUSH1 0x20 DUP3 ADD SWAP1 POP DUP2 DUP2 SUB PUSH1 0x0 DUP4 ADD MSTORE PUSH2 0x254F DUP2 PUSH2 0x2513 JUMP JUMPDEST SWAP1 POP SWAP2 SWAP1 POP JUMP INVALID LOG2 PUSH5 0x6970667358 0x22 SLT KECCAK256 PUSH8 0xFFA0E2CE857A6C9D 0xC9 0xA9 SUB DUP4 RETURN ADD PUSH7 0x92D8DE6E39C71E 0xBB DELEGATECALL CALLDATALOAD 0xC1 0xC2 0xB0 PC SWAP6 0xCB PUSH5 0x736F6C6343 STOP ADDMOD SGT STOP CALLER "
				},
				"gasEstimates": {
					"creation": {
						"codeDepositCost": "1922400",
						"executionCost": "infinite",
						"totalCost": "infinite"
					},
					"external": {
						"TGOLDTokenAddress()": "2625",
						"TGOLDTokensToEth(uint256,uint256)": "infinite",
						"addLiquidity(uint256)": "infinite",
						"allowance(address,address)": "infinite",
						"approve(address,uint256)": "infinite",
						"balanceOf(address)": "2908",
						"decimals()": "410",
						"decreaseAllowance(address,uint256)": "infinite",
						"ethToTGOLDTokens(uint256)": "infinite",
						"getAmountOfTokens(uint256,uint256,uint256)": "infinite",
						"getReserve()": "infinite",
						"increaseAllowance(address,uint256)": "infinite",
						"name()": "infinite",
						"removeLiquidity(uint256)": "infinite",
						"symbol()": "infinite",
						"totalSupply()": "2527",
						"transfer(address,uint256)": "infinite",
						"transferFrom(address,address,uint256)": "infinite"
					}
				},
				"methodIdentifiers": {
					"TGOLDTokenAddress()": "3ee12bd1",
					"TGOLDTokensToEth(uint256,uint256)": "0465b2f5",
					"addLiquidity(uint256)": "51c6590a",
					"allowance(address,address)": "dd62ed3e",
					"approve(address,uint256)": "095ea7b3",
					"balanceOf(address)": "70a08231",
					"decimals()": "313ce567",
					"decreaseAllowance(address,uint256)": "a457c2d7",
					"ethToTGOLDTokens(uint256)": "1ffa582d",
					"getAmountOfTokens(uint256,uint256,uint256)": "7386479e",
					"getReserve()": "59bf5d39",
					"increaseAllowance(address,uint256)": "39509351",
					"name()": "06fdde03",
					"removeLiquidity(uint256)": "9c8f9f23",
					"symbol()": "95d89b41",
					"totalSupply()": "18160ddd",
					"transfer(address,uint256)": "a9059cbb",
					"transferFrom(address,address,uint256)": "23b872dd"
				}
			},
			"storageLayout": {
				"storage": [
					{
						"astId": 15,
						"contract": "contracts/Exchange.sol:Exchange",
						"label": "_balances",
						"offset": 0,
						"slot": "0",
						"type": "t_mapping(t_address,t_uint256)"
					},
					{
						"astId": 21,
						"contract": "contracts/Exchange.sol:Exchange",
						"label": "_allowances",
						"offset": 0,
						"slot": "1",
						"type": "t_mapping(t_address,t_mapping(t_address,t_uint256))"
					},
					{
						"astId": 23,
						"contract": "contracts/Exchange.sol:Exchange",
						"label": "_totalSupply",
						"offset": 0,
						"slot": "2",
						"type": "t_uint256"
					},
					{
						"astId": 25,
						"contract": "contracts/Exchange.sol:Exchange",
						"label": "_name",
						"offset": 0,
						"slot": "3",
						"type": "t_string_storage"
					},
					{
						"astId": 27,
						"contract": "contracts/Exchange.sol:Exchange",
						"label": "_symbol",
						"offset": 0,
						"slot": "4",
						"type": "t_string_storage"
					},
					{
						"astId": 730,
						"contract": "contracts/Exchange.sol:Exchange",
						"label": "TGOLDTokenAddress",
						"offset": 0,
						"slot": "5",
						"type": "t_address"
					}
				],
				"types": {
					"t_address": {
						"encoding": "inplace",
						"label": "address",
						"numberOfBytes": "20"
					},
					"t_mapping(t_address,t_mapping(t_address,t_uint256))": {
						"encoding": "mapping",
						"key": "t_address",
						"label": "mapping(address => mapping(address => uint256))",
						"numberOfBytes": "32",
						"value": "t_mapping(t_address,t_uint256)"
					},
					"t_mapping(t_address,t_uint256)": {
						"encoding": "mapping",
						"key": "t_address",
						"label": "mapping(address => uint256)",
						"numberOfBytes": "32",
						"value": "t_uint256"
					},
					"t_string_storage": {
						"encoding": "bytes",
						"label": "string",
						"numberOfBytes": "32"
					},
					"t_uint256": {
						"encoding": "inplace",
						"label": "uint256",
						"numberOfBytes": "32"
					}
				}
			},
			"userdoc": {
				"kind": "user",
				"methods": {},
				"version": 1
			}
		}
	}
}