{
	"contracts/Exchange.sol": {
		"Exchange": {
			"abi": [
				{
					"inputs": [
						{
							"internalType": "address",
							"name": "_TGOLDToken",
							"type": "address"
						}
					],
					"stateMutability": "nonpayable",
					"type": "constructor"
				},
				{
					"inputs": [],
					"name": "AddressZeroError",
					"type": "error"
				},
				{
					"inputs": [],
					"name": "SendFailed",
					"type": "error"
				},
				{
					"anonymous": false,
					"inputs": [
						{
							"indexed": true,
							"internalType": "address",
							"name": "owner",
							"type": "address"
						},
						{
							"indexed": true,
							"internalType": "address",
							"name": "spender",
							"type": "address"
						},
						{
							"indexed": false,
							"internalType": "uint256",
							"name": "value",
							"type": "uint256"
						}
					],
					"name": "Approval",
					"type": "event"
				},
				{
					"anonymous": false,
					"inputs": [
						{
							"indexed": true,
							"internalType": "address",
							"name": "from",
							"type": "address"
						},
						{
							"indexed": true,
							"internalType": "address",
							"name": "to",
							"type": "address"
						},
						{
							"indexed": false,
							"internalType": "uint256",
							"name": "value",
							"type": "uint256"
						}
					],
					"name": "Transfer",
					"type": "event"
				},
				{
					"inputs": [],
					"name": "TGOLDTokenAddress",
					"outputs": [
						{
							"internalType": "address",
							"name": "",
							"type": "address"
						}
					],
					"stateMutability": "view",
					"type": "function"
				},
				{
					"inputs": [
						{
							"internalType": "uint256",
							"name": "_tokensSold",
							"type": "uint256"
						},
						{
							"internalType": "uint256",
							"name": "_minEth",
							"type": "uint256"
						}
					],
					"name": "TGOLDTokensToEth",
					"outputs": [],
					"stateMutability": "nonpayable",
					"type": "function"
				},
				{
					"inputs": [
						{
							"internalType": "uint256",
							"name": "_amount",
							"type": "uint256"
						}
					],
					"name": "addLiquidity",
					"outputs": [
						{
							"internalType": "uint256",
							"name": "",
							"type": "uint256"
						}
					],
					"stateMutability": "payable",
					"type": "function"
				},
				{
					"inputs": [
						{
							"internalType": "address",
							"name": "owner",
							"type": "address"
						},
						{
							"internalType": "address",
							"name": "spender",
							"type": "address"
						}
					],
					"name": "allowance",
					"outputs": [
						{
							"internalType": "uint256",
							"name": "",
							"type": "uint256"
						}
					],
					"stateMutability": "view",
					"type": "function"
				},
				{
					"inputs": [
						{
							"internalType": "address",
							"name": "spender",
							"type": "address"
						},
						{
							"internalType": "uint256",
							"name": "amount",
							"type": "uint256"
						}
					],
					"name": "approve",
					"outputs": [
						{
							"internalType": "bool",
							"name": "",
							"type": "bool"
						}
					],
					"stateMutability": "nonpayable",
					"type": "function"
				},
				{
					"inputs": [
						{
							"internalType": "address",
							"name": "account",
							"type": "address"
						}
					],
					"name": "balanceOf",
					"outputs": [
						{
							"internalType": "uint256",
							"name": "",
							"type": "uint256"
						}
					],
					"stateMutability": "view",
					"type": "function"
				},
				{
					"inputs": [],
					"name": "decimals",
					"outputs": [
						{
							"internalType": "uint8",
							"name": "",
							"type": "uint8"
						}
					],
					"stateMutability": "view",
					"type": "function"
				},
				{
					"inputs": [
						{
							"internalType": "address",
							"name": "spender",
							"type": "address"
						},
						{
							"internalType": "uint256",
							"name": "subtractedValue",
							"type": "uint256"
						}
					],
					"name": "decreaseAllowance",
					"outputs": [
						{
							"internalType": "bool",
							"name": "",
							"type": "bool"
						}
					],
					"stateMutability": "nonpayable",
					"type": "function"
				},
				{
					"inputs": [
						{
							"internalType": "uint256",
							"name": "_minTokens",
							"type": "uint256"
						}
					],
					"name": "ethToTGOLDTokens",
					"outputs": [],
					"stateMutability": "payable",
					"type": "function"
				},
				{
					"inputs": [
						{
							"internalType": "uint256",
							"name": "inputAmount",
							"type": "uint256"
						},
						{
							"internalType": "uint256",
							"name": "inputReserve",
							"type": "uint256"
						},
						{
							"internalType": "uint256",
							"name": "outputReserve",
							"type": "uint256"
						}
					],
					"name": "getAmountOfTokens",
					"outputs": [
						{
							"internalType": "uint256",
							"name": "",
							"type": "uint256"
						}
					],
					"stateMutability": "pure",
					"type": "function"
				},
				{
					"inputs": [],
					"name": "getReserve",
					"outputs": [
						{
							"internalType": "uint256",
							"name": "",
							"type": "uint256"
						}
					],
					"stateMutability": "view",
					"type": "function"
				},
				{
					"inputs": [
						{
							"internalType": "address",
							"name": "spender",
							"type": "address"
						},
						{
							"internalType": "uint256",
							"name": "addedValue",
							"type": "uint256"
						}
					],
					"name": "increaseAllowance",
					"outputs": [
						{
							"internalType": "bool",
							"name": "",
							"type": "bool"
						}
					],
					"stateMutability": "nonpayable",
					"type": "function"
				},
				{
					"inputs": [],
					"name": "name",
					"outputs": [
						{
							"internalType": "string",
							"name": "",
							"type": "string"
						}
					],
					"stateMutability": "view",
					"type": "function"
				},
				{
					"inputs": [
						{
							"internalType": "uint256",
							"name": "_amount",
							"type": "uint256"
						}
					],
					"name": "removeLiquidity",
					"outputs": [
						{
							"internalType": "uint256",
							"name": "",
							"type": "uint256"
						},
						{
							"internalType": "uint256",
							"name": "",
							"type": "uint256"
						}
					],
					"stateMutability": "nonpayable",
					"type": "function"
				},
				{
					"inputs": [],
					"name": "symbol",
					"outputs": [
						{
							"internalType": "string",
							"name": "",
							"type": "string"
						}
					],
					"stateMutability": "view",
					"type": "function"
				},
				{
					"inputs": [],
					"name": "totalSupply",
					"outputs": [
						{
							"internalType": "uint256",
							"name": "",
							"type": "uint256"
						}
					],
					"stateMutability": "view",
					"type": "function"
				},
				{
					"inputs": [
						{
							"internalType": "address",
							"name": "to",
							"type": "address"
						},
						{
							"internalType": "uint256",
							"name": "amount",
							"type": "uint256"
						}
					],
					"name": "transfer",
					"outputs": [
						{
							"internalType": "bool",
							"name": "",
							"type": "bool"
						}
					],
					"stateMutability": "nonpayable",
					"type": "function"
				},
				{
					"inputs": [
						{
							"internalType": "address",
							"name": "from",
							"type": "address"
						},
						{
							"internalType": "address",
							"name": "to",
							"type": "address"
						},
						{
							"internalType": "uint256",
							"name": "amount",
							"type": "uint256"
						}
					],
					"name": "transferFrom",
					"outputs": [
						{
							"internalType": "bool",
							"name": "",
							"type": "bool"
						}
					],
					"stateMutability": "nonpayable",
					"type": "function"
				}
			],
			"devdoc": {
				"events": {
					"Approval(address,address,uint256)": {
						"details": "Emitted when the allowance of a `spender` for an `owner` is set by a call to {approve}. `value` is the new allowance."
					},
					"Transfer(address,address,uint256)": {
						"details": "Emitted when `value` tokens are moved from one account (`from`) to another (`to`). Note that `value` may be zero."
					}
				},
				"kind": "dev",
				"methods": {
					"TGOLDTokensToEth(uint256,uint256)": {
						"details": "Swaps TGOLD Tokens for Eth to buy _minEth when selling _tokensSold no payable this time, ERC20 token amount will be one of the 2 parameters of this function"
					},
					"addLiquidity(uint256)": {
						"details": "Adds liquidity to the exchange."
					},
					"allowance(address,address)": {
						"details": "See {IERC20-allowance}."
					},
					"approve(address,uint256)": {
						"details": "See {IERC20-approve}. NOTE: If `amount` is the maximum `uint256`, the allowance is not updated on `transferFrom`. This is semantically equivalent to an infinite approval. Requirements: - `spender` cannot be the zero address."
					},
					"balanceOf(address)": {
						"details": "See {IERC20-balanceOf}."
					},
					"decimals()": {
						"details": "Returns the number of decimals used to get its user representation. For example, if `decimals` equals `2`, a balance of `505` tokens should be displayed to a user as `5.05` (`505 / 10 ** 2`). Tokens usually opt for a value of 18, imitating the relationship between Ether and Wei. This is the default value returned by this function, unless it's overridden. NOTE: This information is only used for _display_ purposes: it in no way affects any of the arithmetic of the contract, including {IERC20-balanceOf} and {IERC20-transfer}."
					},
					"decreaseAllowance(address,uint256)": {
						"details": "Atomically decreases the allowance granted to `spender` by the caller. This is an alternative to {approve} that can be used as a mitigation for problems described in {IERC20-approve}. Emits an {Approval} event indicating the updated allowance. Requirements: - `spender` cannot be the zero address. - `spender` must have allowance for the caller of at least `subtractedValue`."
					},
					"ethToTGOLDTokens(uint256)": {
						"details": "Swaps Eth for TGOLD Tokens payable bcz we're accepting Ether in the contract for swapping with TG Tokens to buy _minTokens when selling (payable) Eth"
					},
					"getAmountOfTokens(uint256,uint256,uint256)": {
						"details": "returns the amount of Eth/TG tokens that are required to be returned to the user/trader upon swap"
					},
					"getReserve()": {
						"details": "Returns the amount of `TGOLD Tokens` held by the Exchange.sol contract (not user)"
					},
					"increaseAllowance(address,uint256)": {
						"details": "Atomically increases the allowance granted to `spender` by the caller. This is an alternative to {approve} that can be used as a mitigation for problems described in {IERC20-approve}. Emits an {Approval} event indicating the updated allowance. Requirements: - `spender` cannot be the zero address."
					},
					"name()": {
						"details": "Returns the name of the token."
					},
					"removeLiquidity(uint256)": {
						"details": "Returns the amount Eth/TGOLD tokens that would be returned to the user in the swap of TG LP tokens with user-funds"
					},
					"symbol()": {
						"details": "Returns the symbol of the token, usually a shorter version of the name."
					},
					"totalSupply()": {
						"details": "See {IERC20-totalSupply}."
					},
					"transfer(address,uint256)": {
						"details": "See {IERC20-transfer}. Requirements: - `to` cannot be the zero address. - the caller must have a balance of at least `amount`."
					},
					"transferFrom(address,address,uint256)": {
						"details": "See {IERC20-transferFrom}. Emits an {Approval} event indicating the updated allowance. This is not required by the EIP. See the note at the beginning of {ERC20}. NOTE: Does not update the allowance if the current allowance is the maximum `uint256`. Requirements: - `from` and `to` cannot be the zero address. - `from` must have a balance of at least `amount`. - the caller must have allowance for ``from``'s tokens of at least `amount`."
					}
				},
				"version": 1
			},
			"evm": {
				"assembly": "    /* \"contracts/Exchange.sol\":119:13593  contract Exchange is ERC20 {... */\n  mstore(0x40, 0x80)\n    /* \"contracts/Exchange.sol\":394:693  constructor (address _TGOLDToken) ERC20 (\"TGOLD LP Token\", \"TGLP\") {... */\n  callvalue\n  dup1\n  iszero\n  tag_1\n  jumpi\n  0x00\n  dup1\n  revert\ntag_1:\n  pop\n  mload(0x40)\n  sub(codesize, bytecodeSize)\n  dup1\n  bytecodeSize\n  dup4\n  codecopy\n  dup2\n  dup2\n  add\n  0x40\n  mstore\n  dup2\n  add\n  swap1\n  tag_2\n  swap2\n  swap1\n  tag_3\n  jump\t// in\ntag_2:\n    /* \"@openzeppelin/contracts/token/ERC20/ERC20.sol\":1980:2093  constructor(string memory name_, string memory symbol_) {... */\n  mload(0x40)\n  dup1\n  0x40\n  add\n  0x40\n  mstore\n  dup1\n  0x0e\n  dup2\n  mstore\n  0x20\n  add\n  0x54474f4c44204c5020546f6b656e000000000000000000000000000000000000\n  dup2\n  mstore\n  pop\n  mload(0x40)\n  dup1\n  0x40\n  add\n  0x40\n  mstore\n  dup1\n  0x04\n  dup2\n  mstore\n  0x20\n  add\n  0x54474c5000000000000000000000000000000000000000000000000000000000\n  dup2\n  mstore\n  pop\n    /* \"@openzeppelin/contracts/token/ERC20/ERC20.sol\":2054:2059  name_ */\n  dup2\n    /* \"@openzeppelin/contracts/token/ERC20/ERC20.sol\":2046:2051  _name */\n  0x03\n    /* \"@openzeppelin/contracts/token/ERC20/ERC20.sol\":2046:2059  _name = name_ */\n  swap1\n  dup2\n  tag_7\n  swap2\n  swap1\n  tag_8\n  jump\t// in\ntag_7:\n  pop\n    /* \"@openzeppelin/contracts/token/ERC20/ERC20.sol\":2079:2086  symbol_ */\n  dup1\n    /* \"@openzeppelin/contracts/token/ERC20/ERC20.sol\":2069:2076  _symbol */\n  0x04\n    /* \"@openzeppelin/contracts/token/ERC20/ERC20.sol\":2069:2086  _symbol = symbol_ */\n  swap1\n  dup2\n  tag_9\n  swap2\n  swap1\n  tag_8\n  jump\t// in\ntag_9:\n  pop\n    /* \"@openzeppelin/contracts/token/ERC20/ERC20.sol\":1980:2093  constructor(string memory name_, string memory symbol_) {... */\n  pop\n  pop\n    /* \"contracts/Exchange.sol\":588:589  0 */\n  0x00\n    /* \"contracts/Exchange.sol\":565:590  _TGOLDToken == address(0) */\n  0xffffffffffffffffffffffffffffffffffffffff\n  and\n    /* \"contracts/Exchange.sol\":565:576  _TGOLDToken */\n  dup2\n    /* \"contracts/Exchange.sol\":565:590  _TGOLDToken == address(0) */\n  0xffffffffffffffffffffffffffffffffffffffff\n  and\n  sub\n    /* \"contracts/Exchange.sol\":562:644  if(_TGOLDToken == address(0)) {... */\n  tag_11\n  jumpi\n    /* \"contracts/Exchange.sol\":614:632  AddressZeroError() */\n  mload(0x40)\n  0x92863bea00000000000000000000000000000000000000000000000000000000\n  dup2\n  mstore\n  0x04\n  add\n  mload(0x40)\n  dup1\n  swap2\n  sub\n  swap1\n  revert\n    /* \"contracts/Exchange.sol\":562:644  if(_TGOLDToken == address(0)) {... */\ntag_11:\n    /* \"contracts/Exchange.sol\":674:685  _TGOLDToken */\n  dup1\n    /* \"contracts/Exchange.sol\":654:671  TGOLDTokenAddress */\n  0x05\n  0x00\n    /* \"contracts/Exchange.sol\":654:685  TGOLDTokenAddress = _TGOLDToken */\n  0x0100\n  exp\n  dup2\n  sload\n  dup2\n  0xffffffffffffffffffffffffffffffffffffffff\n  mul\n  not\n  and\n  swap1\n  dup4\n  0xffffffffffffffffffffffffffffffffffffffff\n  and\n  mul\n  or\n  swap1\n  sstore\n  pop\n    /* \"contracts/Exchange.sol\":394:693  constructor (address _TGOLDToken) ERC20 (\"TGOLD LP Token\", \"TGLP\") {... */\n  pop\n    /* \"contracts/Exchange.sol\":119:13593  contract Exchange is ERC20 {... */\n  jump(tag_12)\n    /* \"#utility.yul\":88:205   */\ntag_14:\n    /* \"#utility.yul\":197:198   */\n  0x00\n    /* \"#utility.yul\":194:195   */\n  dup1\n    /* \"#utility.yul\":187:199   */\n  revert\n    /* \"#utility.yul\":334:460   */\ntag_16:\n    /* \"#utility.yul\":371:378   */\n  0x00\n    /* \"#utility.yul\":411:453   */\n  0xffffffffffffffffffffffffffffffffffffffff\n    /* \"#utility.yul\":404:409   */\n  dup3\n    /* \"#utility.yul\":400:454   */\n  and\n    /* \"#utility.yul\":389:454   */\n  swap1\n  pop\n    /* \"#utility.yul\":334:460   */\n  swap2\n  swap1\n  pop\n  jump\t// out\n    /* \"#utility.yul\":466:562   */\ntag_17:\n    /* \"#utility.yul\":503:510   */\n  0x00\n    /* \"#utility.yul\":532:556   */\n  tag_46\n    /* \"#utility.yul\":550:555   */\n  dup3\n    /* \"#utility.yul\":532:556   */\n  tag_16\n  jump\t// in\ntag_46:\n    /* \"#utility.yul\":521:556   */\n  swap1\n  pop\n    /* \"#utility.yul\":466:562   */\n  swap2\n  swap1\n  pop\n  jump\t// out\n    /* \"#utility.yul\":568:690   */\ntag_18:\n    /* \"#utility.yul\":641:665   */\n  tag_48\n    /* \"#utility.yul\":659:664   */\n  dup2\n    /* \"#utility.yul\":641:665   */\n  tag_17\n  jump\t// in\ntag_48:\n    /* \"#utility.yul\":634:639   */\n  dup2\n    /* \"#utility.yul\":631:666   */\n  eq\n    /* \"#utility.yul\":621:684   */\n  tag_49\n  jumpi\n    /* \"#utility.yul\":680:681   */\n  0x00\n    /* \"#utility.yul\":677:678   */\n  dup1\n    /* \"#utility.yul\":670:682   */\n  revert\n    /* \"#utility.yul\":621:684   */\ntag_49:\n    /* \"#utility.yul\":568:690   */\n  pop\n  jump\t// out\n    /* \"#utility.yul\":696:839   */\ntag_19:\n    /* \"#utility.yul\":753:758   */\n  0x00\n    /* \"#utility.yul\":784:790   */\n  dup2\n    /* \"#utility.yul\":778:791   */\n  mload\n    /* \"#utility.yul\":769:791   */\n  swap1\n  pop\n    /* \"#utility.yul\":800:833   */\n  tag_51\n    /* \"#utility.yul\":827:832   */\n  dup2\n    /* \"#utility.yul\":800:833   */\n  tag_18\n  jump\t// in\ntag_51:\n    /* \"#utility.yul\":696:839   */\n  swap3\n  swap2\n  pop\n  pop\n  jump\t// out\n    /* \"#utility.yul\":845:1196   */\ntag_3:\n    /* \"#utility.yul\":915:921   */\n  0x00\n    /* \"#utility.yul\":964:966   */\n  0x20\n    /* \"#utility.yul\":952:961   */\n  dup3\n    /* \"#utility.yul\":943:950   */\n  dup5\n    /* \"#utility.yul\":939:962   */\n  sub\n    /* \"#utility.yul\":935:967   */\n  slt\n    /* \"#utility.yul\":932:1051   */\n  iszero\n  tag_53\n  jumpi\n    /* \"#utility.yul\":970:1049   */\n  tag_54\n  tag_14\n  jump\t// in\ntag_54:\n    /* \"#utility.yul\":932:1051   */\ntag_53:\n    /* \"#utility.yul\":1090:1091   */\n  0x00\n    /* \"#utility.yul\":1115:1179   */\n  tag_55\n    /* \"#utility.yul\":1171:1178   */\n  dup5\n    /* \"#utility.yul\":1162:1168   */\n  dup3\n    /* \"#utility.yul\":1151:1160   */\n  dup6\n    /* \"#utility.yul\":1147:1169   */\n  add\n    /* \"#utility.yul\":1115:1179   */\n  tag_19\n  jump\t// in\ntag_55:\n    /* \"#utility.yul\":1105:1179   */\n  swap2\n  pop\n    /* \"#utility.yul\":1061:1189   */\n  pop\n    /* \"#utility.yul\":845:1196   */\n  swap3\n  swap2\n  pop\n  pop\n  jump\t// out\n    /* \"#utility.yul\":1202:1301   */\ntag_20:\n    /* \"#utility.yul\":1254:1260   */\n  0x00\n    /* \"#utility.yul\":1288:1293   */\n  dup2\n    /* \"#utility.yul\":1282:1294   */\n  mload\n    /* \"#utility.yul\":1272:1294   */\n  swap1\n  pop\n    /* \"#utility.yul\":1202:1301   */\n  swap2\n  swap1\n  pop\n  jump\t// out\n    /* \"#utility.yul\":1307:1487   */\ntag_21:\n    /* \"#utility.yul\":1355:1432   */\n  0x4e487b7100000000000000000000000000000000000000000000000000000000\n    /* \"#utility.yul\":1352:1353   */\n  0x00\n    /* \"#utility.yul\":1345:1433   */\n  mstore\n    /* \"#utility.yul\":1452:1456   */\n  0x41\n    /* \"#utility.yul\":1449:1450   */\n  0x04\n    /* \"#utility.yul\":1442:1457   */\n  mstore\n    /* \"#utility.yul\":1476:1480   */\n  0x24\n    /* \"#utility.yul\":1473:1474   */\n  0x00\n    /* \"#utility.yul\":1466:1481   */\n  revert\n    /* \"#utility.yul\":1493:1673   */\ntag_22:\n    /* \"#utility.yul\":1541:1618   */\n  0x4e487b7100000000000000000000000000000000000000000000000000000000\n    /* \"#utility.yul\":1538:1539   */\n  0x00\n    /* \"#utility.yul\":1531:1619   */\n  mstore\n    /* \"#utility.yul\":1638:1642   */\n  0x22\n    /* \"#utility.yul\":1635:1636   */\n  0x04\n    /* \"#utility.yul\":1628:1643   */\n  mstore\n    /* \"#utility.yul\":1662:1666   */\n  0x24\n    /* \"#utility.yul\":1659:1660   */\n  0x00\n    /* \"#utility.yul\":1652:1667   */\n  revert\n    /* \"#utility.yul\":1679:1999   */\ntag_23:\n    /* \"#utility.yul\":1723:1729   */\n  0x00\n    /* \"#utility.yul\":1760:1761   */\n  0x02\n    /* \"#utility.yul\":1754:1758   */\n  dup3\n    /* \"#utility.yul\":1750:1762   */\n  div\n    /* \"#utility.yul\":1740:1762   */\n  swap1\n  pop\n    /* \"#utility.yul\":1807:1808   */\n  0x01\n    /* \"#utility.yul\":1801:1805   */\n  dup3\n    /* \"#utility.yul\":1797:1809   */\n  and\n    /* \"#utility.yul\":1828:1846   */\n  dup1\n    /* \"#utility.yul\":1818:1899   */\n  tag_60\n  jumpi\n    /* \"#utility.yul\":1884:1888   */\n  0x7f\n    /* \"#utility.yul\":1876:1882   */\n  dup3\n    /* \"#utility.yul\":1872:1889   */\n  and\n    /* \"#utility.yul\":1862:1889   */\n  swap2\n  pop\n    /* \"#utility.yul\":1818:1899   */\ntag_60:\n    /* \"#utility.yul\":1946:1948   */\n  0x20\n    /* \"#utility.yul\":1938:1944   */\n  dup3\n    /* \"#utility.yul\":1935:1949   */\n  lt\n    /* \"#utility.yul\":1915:1933   */\n  dup2\n    /* \"#utility.yul\":1912:1950   */\n  sub\n    /* \"#utility.yul\":1909:1993   */\n  tag_61\n  jumpi\n    /* \"#utility.yul\":1965:1983   */\n  tag_62\n  tag_22\n  jump\t// in\ntag_62:\n    /* \"#utility.yul\":1909:1993   */\ntag_61:\n    /* \"#utility.yul\":1730:1999   */\n  pop\n    /* \"#utility.yul\":1679:1999   */\n  swap2\n  swap1\n  pop\n  jump\t// out\n    /* \"#utility.yul\":2005:2146   */\ntag_24:\n    /* \"#utility.yul\":2054:2058   */\n  0x00\n    /* \"#utility.yul\":2077:2080   */\n  dup2\n    /* \"#utility.yul\":2069:2080   */\n  swap1\n  pop\n    /* \"#utility.yul\":2100:2103   */\n  dup2\n    /* \"#utility.yul\":2097:2098   */\n  0x00\n    /* \"#utility.yul\":2090:2104   */\n  mstore\n    /* \"#utility.yul\":2134:2138   */\n  0x20\n    /* \"#utility.yul\":2131:2132   */\n  0x00\n    /* \"#utility.yul\":2121:2139   */\n  keccak256\n    /* \"#utility.yul\":2113:2139   */\n  swap1\n  pop\n    /* \"#utility.yul\":2005:2146   */\n  swap2\n  swap1\n  pop\n  jump\t// out\n    /* \"#utility.yul\":2152:2245   */\ntag_25:\n    /* \"#utility.yul\":2189:2195   */\n  0x00\n    /* \"#utility.yul\":2236:2238   */\n  0x20\n    /* \"#utility.yul\":2231:2233   */\n  0x1f\n    /* \"#utility.yul\":2224:2229   */\n  dup4\n    /* \"#utility.yul\":2220:2234   */\n  add\n    /* \"#utility.yul\":2216:2239   */\n  div\n    /* \"#utility.yul\":2206:2239   */\n  swap1\n  pop\n    /* \"#utility.yul\":2152:2245   */\n  swap2\n  swap1\n  pop\n  jump\t// out\n    /* \"#utility.yul\":2251:2358   */\ntag_26:\n    /* \"#utility.yul\":2295:2303   */\n  0x00\n    /* \"#utility.yul\":2345:2350   */\n  dup3\n    /* \"#utility.yul\":2339:2343   */\n  dup3\n    /* \"#utility.yul\":2335:2351   */\n  shl\n    /* \"#utility.yul\":2314:2351   */\n  swap1\n  pop\n    /* \"#utility.yul\":2251:2358   */\n  swap3\n  swap2\n  pop\n  pop\n  jump\t// out\n    /* \"#utility.yul\":2364:2757   */\ntag_27:\n    /* \"#utility.yul\":2433:2439   */\n  0x00\n    /* \"#utility.yul\":2483:2484   */\n  0x08\n    /* \"#utility.yul\":2471:2481   */\n  dup4\n    /* \"#utility.yul\":2467:2485   */\n  mul\n    /* \"#utility.yul\":2506:2603   */\n  tag_67\n    /* \"#utility.yul\":2536:2602   */\n  0xffffffffffffffffffffffffffffffffffffffffffffffffffffffffffffffff\n    /* \"#utility.yul\":2525:2534   */\n  dup3\n    /* \"#utility.yul\":2506:2603   */\n  tag_26\n  jump\t// in\ntag_67:\n    /* \"#utility.yul\":2624:2663   */\n  tag_68\n    /* \"#utility.yul\":2654:2662   */\n  dup7\n    /* \"#utility.yul\":2643:2652   */\n  dup4\n    /* \"#utility.yul\":2624:2663   */\n  tag_26\n  jump\t// in\ntag_68:\n    /* \"#utility.yul\":2612:2663   */\n  swap6\n  pop\n    /* \"#utility.yul\":2696:2700   */\n  dup1\n    /* \"#utility.yul\":2692:2701   */\n  not\n    /* \"#utility.yul\":2685:2690   */\n  dup5\n    /* \"#utility.yul\":2681:2702   */\n  and\n    /* \"#utility.yul\":2672:2702   */\n  swap4\n  pop\n    /* \"#utility.yul\":2745:2749   */\n  dup1\n    /* \"#utility.yul\":2735:2743   */\n  dup7\n    /* \"#utility.yul\":2731:2750   */\n  and\n    /* \"#utility.yul\":2724:2729   */\n  dup5\n    /* \"#utility.yul\":2721:2751   */\n  or\n    /* \"#utility.yul\":2711:2751   */\n  swap3\n  pop\n    /* \"#utility.yul\":2440:2757   */\n  pop\n  pop\n    /* \"#utility.yul\":2364:2757   */\n  swap4\n  swap3\n  pop\n  pop\n  pop\n  jump\t// out\n    /* \"#utility.yul\":2763:2840   */\ntag_28:\n    /* \"#utility.yul\":2800:2807   */\n  0x00\n    /* \"#utility.yul\":2829:2834   */\n  dup2\n    /* \"#utility.yul\":2818:2834   */\n  swap1\n  pop\n    /* \"#utility.yul\":2763:2840   */\n  swap2\n  swap1\n  pop\n  jump\t// out\n    /* \"#utility.yul\":2846:2906   */\ntag_29:\n    /* \"#utility.yul\":2874:2877   */\n  0x00\n    /* \"#utility.yul\":2895:2900   */\n  dup2\n    /* \"#utility.yul\":2888:2900   */\n  swap1\n  pop\n    /* \"#utility.yul\":2846:2906   */\n  swap2\n  swap1\n  pop\n  jump\t// out\n    /* \"#utility.yul\":2912:3054   */\ntag_30:\n    /* \"#utility.yul\":2962:2971   */\n  0x00\n    /* \"#utility.yul\":2995:3048   */\n  tag_72\n    /* \"#utility.yul\":3013:3047   */\n  tag_73\n    /* \"#utility.yul\":3022:3046   */\n  tag_74\n    /* \"#utility.yul\":3040:3045   */\n  dup5\n    /* \"#utility.yul\":3022:3046   */\n  tag_28\n  jump\t// in\ntag_74:\n    /* \"#utility.yul\":3013:3047   */\n  tag_29\n  jump\t// in\ntag_73:\n    /* \"#utility.yul\":2995:3048   */\n  tag_28\n  jump\t// in\ntag_72:\n    /* \"#utility.yul\":2982:3048   */\n  swap1\n  pop\n    /* \"#utility.yul\":2912:3054   */\n  swap2\n  swap1\n  pop\n  jump\t// out\n    /* \"#utility.yul\":3060:3135   */\ntag_31:\n    /* \"#utility.yul\":3103:3106   */\n  0x00\n    /* \"#utility.yul\":3124:3129   */\n  dup2\n    /* \"#utility.yul\":3117:3129   */\n  swap1\n  pop\n    /* \"#utility.yul\":3060:3135   */\n  swap2\n  swap1\n  pop\n  jump\t// out\n    /* \"#utility.yul\":3141:3410   */\ntag_32:\n    /* \"#utility.yul\":3251:3290   */\n  tag_77\n    /* \"#utility.yul\":3282:3289   */\n  dup4\n    /* \"#utility.yul\":3251:3290   */\n  tag_30\n  jump\t// in\ntag_77:\n    /* \"#utility.yul\":3312:3403   */\n  tag_78\n    /* \"#utility.yul\":3361:3402   */\n  tag_79\n    /* \"#utility.yul\":3385:3401   */\n  dup3\n    /* \"#utility.yul\":3361:3402   */\n  tag_31\n  jump\t// in\ntag_79:\n    /* \"#utility.yul\":3353:3359   */\n  dup5\n    /* \"#utility.yul\":3346:3350   */\n  dup5\n    /* \"#utility.yul\":3340:3351   */\n  sload\n    /* \"#utility.yul\":3312:3403   */\n  tag_27\n  jump\t// in\ntag_78:\n    /* \"#utility.yul\":3306:3310   */\n  dup3\n    /* \"#utility.yul\":3299:3404   */\n  sstore\n    /* \"#utility.yul\":3217:3410   */\n  pop\n    /* \"#utility.yul\":3141:3410   */\n  pop\n  pop\n  pop\n  jump\t// out\n    /* \"#utility.yul\":3416:3489   */\ntag_33:\n    /* \"#utility.yul\":3461:3464   */\n  0x00\n    /* \"#utility.yul\":3416:3489   */\n  swap1\n  jump\t// out\n    /* \"#utility.yul\":3495:3684   */\ntag_34:\n    /* \"#utility.yul\":3572:3604   */\n  tag_82\n  tag_33\n  jump\t// in\ntag_82:\n    /* \"#utility.yul\":3613:3678   */\n  tag_83\n    /* \"#utility.yul\":3671:3677   */\n  dup2\n    /* \"#utility.yul\":3663:3669   */\n  dup5\n    /* \"#utility.yul\":3657:3661   */\n  dup5\n    /* \"#utility.yul\":3613:3678   */\n  tag_32\n  jump\t// in\ntag_83:\n    /* \"#utility.yul\":3548:3684   */\n  pop\n    /* \"#utility.yul\":3495:3684   */\n  pop\n  pop\n  jump\t// out\n    /* \"#utility.yul\":3690:3876   */\ntag_35:\n    /* \"#utility.yul\":3750:3870   */\ntag_85:\n    /* \"#utility.yul\":3767:3770   */\n  dup2\n    /* \"#utility.yul\":3760:3765   */\n  dup2\n    /* \"#utility.yul\":3757:3771   */\n  lt\n    /* \"#utility.yul\":3750:3870   */\n  iszero\n  tag_87\n  jumpi\n    /* \"#utility.yul\":3821:3860   */\n  tag_88\n    /* \"#utility.yul\":3858:3859   */\n  0x00\n    /* \"#utility.yul\":3851:3856   */\n  dup3\n    /* \"#utility.yul\":3821:3860   */\n  tag_34\n  jump\t// in\ntag_88:\n    /* \"#utility.yul\":3794:3795   */\n  0x01\n    /* \"#utility.yul\":3787:3792   */\n  dup2\n    /* \"#utility.yul\":3783:3796   */\n  add\n    /* \"#utility.yul\":3774:3796   */\n  swap1\n  pop\n    /* \"#utility.yul\":3750:3870   */\n  jump(tag_85)\ntag_87:\n    /* \"#utility.yul\":3690:3876   */\n  pop\n  pop\n  jump\t// out\n    /* \"#utility.yul\":3882:4425   */\ntag_36:\n    /* \"#utility.yul\":3983:3985   */\n  0x1f\n    /* \"#utility.yul\":3978:3981   */\n  dup3\n    /* \"#utility.yul\":3975:3986   */\n  gt\n    /* \"#utility.yul\":3972:4418   */\n  iszero\n  tag_90\n  jumpi\n    /* \"#utility.yul\":4017:4055   */\n  tag_91\n    /* \"#utility.yul\":4049:4054   */\n  dup2\n    /* \"#utility.yul\":4017:4055   */\n  tag_24\n  jump\t// in\ntag_91:\n    /* \"#utility.yul\":4101:4130   */\n  tag_92\n    /* \"#utility.yul\":4119:4129   */\n  dup5\n    /* \"#utility.yul\":4101:4130   */\n  tag_25\n  jump\t// in\ntag_92:\n    /* \"#utility.yul\":4091:4099   */\n  dup2\n    /* \"#utility.yul\":4087:4131   */\n  add\n    /* \"#utility.yul\":4284:4286   */\n  0x20\n    /* \"#utility.yul\":4272:4282   */\n  dup6\n    /* \"#utility.yul\":4269:4287   */\n  lt\n    /* \"#utility.yul\":4266:4315   */\n  iszero\n  tag_93\n  jumpi\n    /* \"#utility.yul\":4305:4313   */\n  dup2\n    /* \"#utility.yul\":4290:4313   */\n  swap1\n  pop\n    /* \"#utility.yul\":4266:4315   */\ntag_93:\n    /* \"#utility.yul\":4328:4408   */\n  tag_94\n    /* \"#utility.yul\":4384:4406   */\n  tag_95\n    /* \"#utility.yul\":4402:4405   */\n  dup6\n    /* \"#utility.yul\":4384:4406   */\n  tag_25\n  jump\t// in\ntag_95:\n    /* \"#utility.yul\":4374:4382   */\n  dup4\n    /* \"#utility.yul\":4370:4407   */\n  add\n    /* \"#utility.yul\":4357:4368   */\n  dup3\n    /* \"#utility.yul\":4328:4408   */\n  tag_35\n  jump\t// in\ntag_94:\n    /* \"#utility.yul\":3987:4418   */\n  pop\n  pop\n    /* \"#utility.yul\":3972:4418   */\ntag_90:\n    /* \"#utility.yul\":3882:4425   */\n  pop\n  pop\n  pop\n  jump\t// out\n    /* \"#utility.yul\":4431:4548   */\ntag_37:\n    /* \"#utility.yul\":4485:4493   */\n  0x00\n    /* \"#utility.yul\":4535:4540   */\n  dup3\n    /* \"#utility.yul\":4529:4533   */\n  dup3\n    /* \"#utility.yul\":4525:4541   */\n  shr\n    /* \"#utility.yul\":4504:4541   */\n  swap1\n  pop\n    /* \"#utility.yul\":4431:4548   */\n  swap3\n  swap2\n  pop\n  pop\n  jump\t// out\n    /* \"#utility.yul\":4554:4723   */\ntag_38:\n    /* \"#utility.yul\":4598:4604   */\n  0x00\n    /* \"#utility.yul\":4631:4682   */\n  tag_98\n    /* \"#utility.yul\":4679:4680   */\n  0x00\n    /* \"#utility.yul\":4675:4681   */\n  not\n    /* \"#utility.yul\":4667:4672   */\n  dup5\n    /* \"#utility.yul\":4664:4665   */\n  0x08\n    /* \"#utility.yul\":4660:4673   */\n  mul\n    /* \"#utility.yul\":4631:4682   */\n  tag_37\n  jump\t// in\ntag_98:\n    /* \"#utility.yul\":4627:4683   */\n  not\n    /* \"#utility.yul\":4712:4716   */\n  dup1\n    /* \"#utility.yul\":4706:4710   */\n  dup4\n    /* \"#utility.yul\":4702:4717   */\n  and\n    /* \"#utility.yul\":4692:4717   */\n  swap2\n  pop\n    /* \"#utility.yul\":4605:4723   */\n  pop\n    /* \"#utility.yul\":4554:4723   */\n  swap3\n  swap2\n  pop\n  pop\n  jump\t// out\n    /* \"#utility.yul\":4728:5023   */\ntag_39:\n    /* \"#utility.yul\":4804:4808   */\n  0x00\n    /* \"#utility.yul\":4950:4979   */\n  tag_100\n    /* \"#utility.yul\":4975:4978   */\n  dup4\n    /* \"#utility.yul\":4969:4973   */\n  dup4\n    /* \"#utility.yul\":4950:4979   */\n  tag_38\n  jump\t// in\ntag_100:\n    /* \"#utility.yul\":4942:4979   */\n  swap2\n  pop\n    /* \"#utility.yul\":5012:5015   */\n  dup3\n    /* \"#utility.yul\":5009:5010   */\n  0x02\n    /* \"#utility.yul\":5005:5016   */\n  mul\n    /* \"#utility.yul\":4999:5003   */\n  dup3\n    /* \"#utility.yul\":4996:5017   */\n  or\n    /* \"#utility.yul\":4988:5017   */\n  swap1\n  pop\n    /* \"#utility.yul\":4728:5023   */\n  swap3\n  swap2\n  pop\n  pop\n  jump\t// out\n    /* \"#utility.yul\":5028:6423   */\ntag_8:\n    /* \"#utility.yul\":5145:5182   */\n  tag_102\n    /* \"#utility.yul\":5178:5181   */\n  dup3\n    /* \"#utility.yul\":5145:5182   */\n  tag_20\n  jump\t// in\ntag_102:\n    /* \"#utility.yul\":5247:5265   */\n  0xffffffffffffffff\n    /* \"#utility.yul\":5239:5245   */\n  dup2\n    /* \"#utility.yul\":5236:5266   */\n  gt\n    /* \"#utility.yul\":5233:5289   */\n  iszero\n  tag_103\n  jumpi\n    /* \"#utility.yul\":5269:5287   */\n  tag_104\n  tag_21\n  jump\t// in\ntag_104:\n    /* \"#utility.yul\":5233:5289   */\ntag_103:\n    /* \"#utility.yul\":5313:5351   */\n  tag_105\n    /* \"#utility.yul\":5345:5349   */\n  dup3\n    /* \"#utility.yul\":5339:5350   */\n  sload\n    /* \"#utility.yul\":5313:5351   */\n  tag_23\n  jump\t// in\ntag_105:\n    /* \"#utility.yul\":5398:5465   */\n  tag_106\n    /* \"#utility.yul\":5458:5464   */\n  dup3\n    /* \"#utility.yul\":5450:5456   */\n  dup3\n    /* \"#utility.yul\":5444:5448   */\n  dup6\n    /* \"#utility.yul\":5398:5465   */\n  tag_36\n  jump\t// in\ntag_106:\n    /* \"#utility.yul\":5492:5493   */\n  0x00\n    /* \"#utility.yul\":5516:5520   */\n  0x20\n    /* \"#utility.yul\":5503:5520   */\n  swap1\n  pop\n    /* \"#utility.yul\":5548:5550   */\n  0x1f\n    /* \"#utility.yul\":5540:5546   */\n  dup4\n    /* \"#utility.yul\":5537:5551   */\n  gt\n    /* \"#utility.yul\":5565:5566   */\n  0x01\n    /* \"#utility.yul\":5560:6178   */\n  dup2\n  eq\n  tag_108\n  jumpi\n    /* \"#utility.yul\":6222:6223   */\n  0x00\n    /* \"#utility.yul\":6239:6245   */\n  dup5\n    /* \"#utility.yul\":6236:6313   */\n  iszero\n  tag_109\n  jumpi\n    /* \"#utility.yul\":6288:6297   */\n  dup3\n    /* \"#utility.yul\":6283:6286   */\n  dup8\n    /* \"#utility.yul\":6279:6298   */\n  add\n    /* \"#utility.yul\":6273:6299   */\n  mload\n    /* \"#utility.yul\":6264:6299   */\n  swap1\n  pop\n    /* \"#utility.yul\":6236:6313   */\ntag_109:\n    /* \"#utility.yul\":6339:6406   */\n  tag_110\n    /* \"#utility.yul\":6399:6405   */\n  dup6\n    /* \"#utility.yul\":6392:6397   */\n  dup3\n    /* \"#utility.yul\":6339:6406   */\n  tag_39\n  jump\t// in\ntag_110:\n    /* \"#utility.yul\":6333:6337   */\n  dup7\n    /* \"#utility.yul\":6326:6407   */\n  sstore\n    /* \"#utility.yul\":6195:6417   */\n  pop\n    /* \"#utility.yul\":5530:6417   */\n  jump(tag_107)\n    /* \"#utility.yul\":5560:6178   */\ntag_108:\n    /* \"#utility.yul\":5612:5616   */\n  0x1f\n    /* \"#utility.yul\":5608:5617   */\n  not\n    /* \"#utility.yul\":5600:5606   */\n  dup5\n    /* \"#utility.yul\":5596:5618   */\n  and\n    /* \"#utility.yul\":5646:5683   */\n  tag_111\n    /* \"#utility.yul\":5678:5682   */\n  dup7\n    /* \"#utility.yul\":5646:5683   */\n  tag_24\n  jump\t// in\ntag_111:\n    /* \"#utility.yul\":5705:5706   */\n  0x00\n    /* \"#utility.yul\":5719:5927   */\ntag_112:\n    /* \"#utility.yul\":5733:5740   */\n  dup3\n    /* \"#utility.yul\":5730:5731   */\n  dup2\n    /* \"#utility.yul\":5727:5741   */\n  lt\n    /* \"#utility.yul\":5719:5927   */\n  iszero\n  tag_114\n  jumpi\n    /* \"#utility.yul\":5812:5821   */\n  dup5\n    /* \"#utility.yul\":5807:5810   */\n  dup10\n    /* \"#utility.yul\":5803:5822   */\n  add\n    /* \"#utility.yul\":5797:5823   */\n  mload\n    /* \"#utility.yul\":5789:5795   */\n  dup3\n    /* \"#utility.yul\":5782:5824   */\n  sstore\n    /* \"#utility.yul\":5863:5864   */\n  0x01\n    /* \"#utility.yul\":5855:5861   */\n  dup3\n    /* \"#utility.yul\":5851:5865   */\n  add\n    /* \"#utility.yul\":5841:5865   */\n  swap2\n  pop\n    /* \"#utility.yul\":5910:5912   */\n  0x20\n    /* \"#utility.yul\":5899:5908   */\n  dup6\n    /* \"#utility.yul\":5895:5913   */\n  add\n    /* \"#utility.yul\":5882:5913   */\n  swap5\n  pop\n    /* \"#utility.yul\":5756:5760   */\n  0x20\n    /* \"#utility.yul\":5753:5754   */\n  dup2\n    /* \"#utility.yul\":5749:5761   */\n  add\n    /* \"#utility.yul\":5744:5761   */\n  swap1\n  pop\n    /* \"#utility.yul\":5719:5927   */\n  jump(tag_112)\ntag_114:\n    /* \"#utility.yul\":5955:5961   */\n  dup7\n    /* \"#utility.yul\":5946:5953   */\n  dup4\n    /* \"#utility.yul\":5943:5962   */\n  lt\n    /* \"#utility.yul\":5940:6119   */\n  iszero\n  tag_115\n  jumpi\n    /* \"#utility.yul\":6013:6022   */\n  dup5\n    /* \"#utility.yul\":6008:6011   */\n  dup10\n    /* \"#utility.yul\":6004:6023   */\n  add\n    /* \"#utility.yul\":5998:6024   */\n  mload\n    /* \"#utility.yul\":6056:6104   */\n  tag_116\n    /* \"#utility.yul\":6098:6102   */\n  0x1f\n    /* \"#utility.yul\":6090:6096   */\n  dup10\n    /* \"#utility.yul\":6086:6103   */\n  and\n    /* \"#utility.yul\":6075:6084   */\n  dup3\n    /* \"#utility.yul\":6056:6104   */\n  tag_38\n  jump\t// in\ntag_116:\n    /* \"#utility.yul\":6048:6054   */\n  dup4\n    /* \"#utility.yul\":6041:6105   */\n  sstore\n    /* \"#utility.yul\":5963:6119   */\n  pop\n    /* \"#utility.yul\":5940:6119   */\ntag_115:\n    /* \"#utility.yul\":6165:6166   */\n  0x01\n    /* \"#utility.yul\":6161:6162   */\n  0x02\n    /* \"#utility.yul\":6153:6159   */\n  dup9\n    /* \"#utility.yul\":6149:6163   */\n  mul\n    /* \"#utility.yul\":6145:6167   */\n  add\n    /* \"#utility.yul\":6139:6143   */\n  dup9\n    /* \"#utility.yul\":6132:6168   */\n  sstore\n    /* \"#utility.yul\":5567:6178   */\n  pop\n  pop\n  pop\n    /* \"#utility.yul\":5530:6417   */\ntag_107:\n  pop\n    /* \"#utility.yul\":5120:6423   */\n  pop\n  pop\n  pop\n    /* \"#utility.yul\":5028:6423   */\n  pop\n  pop\n  jump\t// out\n    /* \"contracts/Exchange.sol\":119:13593  contract Exchange is ERC20 {... */\ntag_12:\n  dataSize(sub_0)\n  dup1\n  dataOffset(sub_0)\n  0x00\n  codecopy\n  0x00\n  return\nstop\n\nsub_0: assembly {\n        /* \"contracts/Exchange.sol\":119:13593  contract Exchange is ERC20 {... */\n      mstore(0x40, 0x80)\n      jumpi(tag_1, lt(calldatasize, 0x04))\n      shr(0xe0, calldataload(0x00))\n      dup1\n      0x51c6590a\n      gt\n      tag_20\n      jumpi\n      dup1\n      0x95d89b41\n      gt\n      tag_21\n      jumpi\n      dup1\n      0x95d89b41\n      eq\n      tag_15\n      jumpi\n      dup1\n      0x9c8f9f23\n      eq\n      tag_16\n      jumpi\n      dup1\n      0xa457c2d7\n      eq\n      tag_17\n      jumpi\n      dup1\n      0xa9059cbb\n      eq\n      tag_18\n      jumpi\n      dup1\n      0xdd62ed3e\n      eq\n      tag_19\n      jumpi\n      jump(tag_1)\n    tag_21:\n      dup1\n      0x51c6590a\n      eq\n      tag_11\n      jumpi\n      dup1\n      0x59bf5d39\n      eq\n      tag_12\n      jumpi\n      dup1\n      0x70a08231\n      eq\n      tag_13\n      jumpi\n      dup1\n      0x7386479e\n      eq\n      tag_14\n      jumpi\n      jump(tag_1)\n    tag_20:\n      dup1\n      0x1ffa582d\n      gt\n      tag_22\n      jumpi\n      dup1\n      0x1ffa582d\n      eq\n      tag_6\n      jumpi\n      dup1\n      0x23b872dd\n      eq\n      tag_7\n      jumpi\n      dup1\n      0x313ce567\n      eq\n      tag_8\n      jumpi\n      dup1\n      0x39509351\n      eq\n      tag_9\n      jumpi\n      dup1\n      0x3ee12bd1\n      eq\n      tag_10\n      jumpi\n      jump(tag_1)\n    tag_22:\n      dup1\n      0x0465b2f5\n      eq\n      tag_2\n      jumpi\n      dup1\n      0x06fdde03\n      eq\n      tag_3\n      jumpi\n      dup1\n      0x095ea7b3\n      eq\n      tag_4\n      jumpi\n      dup1\n      0x18160ddd\n      eq\n      tag_5\n      jumpi\n    tag_1:\n      0x00\n      dup1\n      revert\n        /* \"contracts/Exchange.sol\":12244:13586  function TGOLDTokensToEth(uint256 _tokensSold, uint256 _minEth) public {... */\n    tag_2:\n      callvalue\n      dup1\n      iszero\n      tag_23\n      jumpi\n      0x00\n      dup1\n      revert\n    tag_23:\n      pop\n      tag_24\n      0x04\n      dup1\n      calldatasize\n      sub\n      dup2\n      add\n      swap1\n      tag_25\n      swap2\n      swap1\n      tag_26\n      jump\t// in\n    tag_25:\n      tag_27\n      jump\t// in\n    tag_24:\n      stop\n        /* \"@openzeppelin/contracts/token/ERC20/ERC20.sol\":2158:2256  function name() public view virtual override returns (string memory) {... */\n    tag_3:\n      callvalue\n      dup1\n      iszero\n      tag_28\n      jumpi\n      0x00\n      dup1\n      revert\n    tag_28:\n      pop\n      tag_29\n      tag_30\n      jump\t// in\n    tag_29:\n      mload(0x40)\n      tag_31\n      swap2\n      swap1\n      tag_32\n      jump\t// in\n    tag_31:\n      mload(0x40)\n      dup1\n      swap2\n      sub\n      swap1\n      return\n        /* \"@openzeppelin/contracts/token/ERC20/ERC20.sol\":4444:4641  function approve(address spender, uint256 amount) public virtual override returns (bool) {... */\n    tag_4:\n      callvalue\n      dup1\n      iszero\n      tag_33\n      jumpi\n      0x00\n      dup1\n      revert\n    tag_33:\n      pop\n      tag_34\n      0x04\n      dup1\n      calldatasize\n      sub\n      dup2\n      add\n      swap1\n      tag_35\n      swap2\n      swap1\n      tag_36\n      jump\t// in\n    tag_35:\n      tag_37\n      jump\t// in\n    tag_34:\n      mload(0x40)\n      tag_38\n      swap2\n      swap1\n      tag_39\n      jump\t// in\n    tag_38:\n      mload(0x40)\n      dup1\n      swap2\n      sub\n      swap1\n      return\n        /* \"@openzeppelin/contracts/token/ERC20/ERC20.sol\":3255:3361  function totalSupply() public view virtual override returns (uint256) {... */\n    tag_5:\n      callvalue\n      dup1\n      iszero\n      tag_40\n      jumpi\n      0x00\n      dup1\n      revert\n    tag_40:\n      pop\n      tag_41\n      tag_42\n      jump\t// in\n    tag_41:\n      mload(0x40)\n      tag_43\n      swap2\n      swap1\n      tag_44\n      jump\t// in\n    tag_43:\n      mload(0x40)\n      dup1\n      swap2\n      sub\n      swap1\n      return\n        /* \"contracts/Exchange.sol\":10880:12001  function ethToTGOLDTokens(uint256 _minTokens) public payable {... */\n    tag_6:\n      tag_45\n      0x04\n      dup1\n      calldatasize\n      sub\n      dup2\n      add\n      swap1\n      tag_46\n      swap2\n      swap1\n      tag_47\n      jump\t// in\n    tag_46:\n      tag_48\n      jump\t// in\n    tag_45:\n      stop\n        /* \"@openzeppelin/contracts/token/ERC20/ERC20.sol\":5203:5459  function transferFrom(address from, address to, uint256 amount) public virtual override returns (bool) {... */\n    tag_7:\n      callvalue\n      dup1\n      iszero\n      tag_49\n      jumpi\n      0x00\n      dup1\n      revert\n    tag_49:\n      pop\n      tag_50\n      0x04\n      dup1\n      calldatasize\n      sub\n      dup2\n      add\n      swap1\n      tag_51\n      swap2\n      swap1\n      tag_52\n      jump\t// in\n    tag_51:\n      tag_53\n      jump\t// in\n    tag_50:\n      mload(0x40)\n      tag_54\n      swap2\n      swap1\n      tag_39\n      jump\t// in\n    tag_54:\n      mload(0x40)\n      dup1\n      swap2\n      sub\n      swap1\n      return\n        /* \"@openzeppelin/contracts/token/ERC20/ERC20.sol\":3104:3195  function decimals() public view virtual override returns (uint8) {... */\n    tag_8:\n      callvalue\n      dup1\n      iszero\n      tag_55\n      jumpi\n      0x00\n      dup1\n      revert\n    tag_55:\n      pop\n      tag_56\n      tag_57\n      jump\t// in\n    tag_56:\n      mload(0x40)\n      tag_58\n      swap2\n      swap1\n      tag_59\n      jump\t// in\n    tag_58:\n      mload(0x40)\n      dup1\n      swap2\n      sub\n      swap1\n      return\n        /* \"@openzeppelin/contracts/token/ERC20/ERC20.sol\":5854:6088  function increaseAllowance(address spender, uint256 addedValue) public virtual returns (bool) {... */\n    tag_9:\n      callvalue\n      dup1\n      iszero\n      tag_60\n      jumpi\n      0x00\n      dup1\n      revert\n    tag_60:\n      pop\n      tag_61\n      0x04\n      dup1\n      calldatasize\n      sub\n      dup2\n      add\n      swap1\n      tag_62\n      swap2\n      swap1\n      tag_36\n      jump\t// in\n    tag_62:\n      tag_63\n      jump\t// in\n    tag_61:\n      mload(0x40)\n      tag_64\n      swap2\n      swap1\n      tag_39\n      jump\t// in\n    tag_64:\n      mload(0x40)\n      dup1\n      swap2\n      sub\n      swap1\n      return\n        /* \"contracts/Exchange.sol\":353:385  address public TGOLDTokenAddress */\n    tag_10:\n      callvalue\n      dup1\n      iszero\n      tag_65\n      jumpi\n      0x00\n      dup1\n      revert\n    tag_65:\n      pop\n      tag_66\n      tag_67\n      jump\t// in\n    tag_66:\n      mload(0x40)\n      tag_68\n      swap2\n      swap1\n      tag_69\n      jump\t// in\n    tag_68:\n      mload(0x40)\n      dup1\n      swap2\n      sub\n      swap1\n      return\n        /* \"contracts/Exchange.sol\":1135:6529  function addLiquidity(uint256 _amount) public payable returns (uint256) {... */\n    tag_11:\n      tag_70\n      0x04\n      dup1\n      calldatasize\n      sub\n      dup2\n      add\n      swap1\n      tag_71\n      swap2\n      swap1\n      tag_47\n      jump\t// in\n    tag_71:\n      tag_72\n      jump\t// in\n    tag_70:\n      mload(0x40)\n      tag_73\n      swap2\n      swap1\n      tag_44\n      jump\t// in\n    tag_73:\n      mload(0x40)\n      dup1\n      swap2\n      sub\n      swap1\n      return\n        /* \"contracts/Exchange.sol\":818:995  function getReserve() public view returns (uint256) {... */\n    tag_12:\n      callvalue\n      dup1\n      iszero\n      tag_74\n      jumpi\n      0x00\n      dup1\n      revert\n    tag_74:\n      pop\n      tag_75\n      tag_76\n      jump\t// in\n    tag_75:\n      mload(0x40)\n      tag_77\n      swap2\n      swap1\n      tag_44\n      jump\t// in\n    tag_77:\n      mload(0x40)\n      dup1\n      swap2\n      sub\n      swap1\n      return\n        /* \"@openzeppelin/contracts/token/ERC20/ERC20.sol\":3419:3544  function balanceOf(address account) public view virtual override returns (uint256) {... */\n    tag_13:\n      callvalue\n      dup1\n      iszero\n      tag_78\n      jumpi\n      0x00\n      dup1\n      revert\n    tag_78:\n      pop\n      tag_79\n      0x04\n      dup1\n      calldatasize\n      sub\n      dup2\n      add\n      swap1\n      tag_80\n      swap2\n      swap1\n      tag_81\n      jump\t// in\n    tag_80:\n      tag_82\n      jump\t// in\n    tag_79:\n      mload(0x40)\n      tag_83\n      swap2\n      swap1\n      tag_44\n      jump\t// in\n    tag_83:\n      mload(0x40)\n      dup1\n      swap2\n      sub\n      swap1\n      return\n        /* \"contracts/Exchange.sol\":9574:10606  function getAmountOfTokens(... */\n    tag_14:\n      callvalue\n      dup1\n      iszero\n      tag_84\n      jumpi\n      0x00\n      dup1\n      revert\n    tag_84:\n      pop\n      tag_85\n      0x04\n      dup1\n      calldatasize\n      sub\n      dup2\n      add\n      swap1\n      tag_86\n      swap2\n      swap1\n      tag_87\n      jump\t// in\n    tag_86:\n      tag_88\n      jump\t// in\n    tag_85:\n      mload(0x40)\n      tag_89\n      swap2\n      swap1\n      tag_44\n      jump\t// in\n    tag_89:\n      mload(0x40)\n      dup1\n      swap2\n      sub\n      swap1\n      return\n        /* \"@openzeppelin/contracts/token/ERC20/ERC20.sol\":2369:2471  function symbol() public view virtual override returns (string memory) {... */\n    tag_15:\n      callvalue\n      dup1\n      iszero\n      tag_90\n      jumpi\n      0x00\n      dup1\n      revert\n    tag_90:\n      pop\n      tag_91\n      tag_92\n      jump\t// in\n    tag_91:\n      mload(0x40)\n      tag_93\n      swap2\n      swap1\n      tag_32\n      jump\t// in\n    tag_93:\n      mload(0x40)\n      dup1\n      swap2\n      sub\n      swap1\n      return\n        /* \"contracts/Exchange.sol\":6686:9437  function removeLiquidity(uint _amount) public returns (uint , uint) {... */\n    tag_16:\n      callvalue\n      dup1\n      iszero\n      tag_94\n      jumpi\n      0x00\n      dup1\n      revert\n    tag_94:\n      pop\n      tag_95\n      0x04\n      dup1\n      calldatasize\n      sub\n      dup2\n      add\n      swap1\n      tag_96\n      swap2\n      swap1\n      tag_47\n      jump\t// in\n    tag_96:\n      tag_97\n      jump\t// in\n    tag_95:\n      mload(0x40)\n      tag_98\n      swap3\n      swap2\n      swap1\n      tag_99\n      jump\t// in\n    tag_98:\n      mload(0x40)\n      dup1\n      swap2\n      sub\n      swap1\n      return\n        /* \"@openzeppelin/contracts/token/ERC20/ERC20.sol\":6575:7002  function decreaseAllowance(address spender, uint256 subtractedValue) public virtual returns (bool) {... */\n    tag_17:\n      callvalue\n      dup1\n      iszero\n      tag_100\n      jumpi\n      0x00\n      dup1\n      revert\n    tag_100:\n      pop\n      tag_101\n      0x04\n      dup1\n      calldatasize\n      sub\n      dup2\n      add\n      swap1\n      tag_102\n      swap2\n      swap1\n      tag_36\n      jump\t// in\n    tag_102:\n      tag_103\n      jump\t// in\n    tag_101:\n      mload(0x40)\n      tag_104\n      swap2\n      swap1\n      tag_39\n      jump\t// in\n    tag_104:\n      mload(0x40)\n      dup1\n      swap2\n      sub\n      swap1\n      return\n        /* \"@openzeppelin/contracts/token/ERC20/ERC20.sol\":3740:3929  function transfer(address to, uint256 amount) public virtual override returns (bool) {... */\n    tag_18:\n      callvalue\n      dup1\n      iszero\n      tag_105\n      jumpi\n      0x00\n      dup1\n      revert\n    tag_105:\n      pop\n      tag_106\n      0x04\n      dup1\n      calldatasize\n      sub\n      dup2\n      add\n      swap1\n      tag_107\n      swap2\n      swap1\n      tag_36\n      jump\t// in\n    tag_107:\n      tag_108\n      jump\t// in\n    tag_106:\n      mload(0x40)\n      tag_109\n      swap2\n      swap1\n      tag_39\n      jump\t// in\n    tag_109:\n      mload(0x40)\n      dup1\n      swap2\n      sub\n      swap1\n      return\n        /* \"@openzeppelin/contracts/token/ERC20/ERC20.sol\":3987:4136  function allowance(address owner, address spender) public view virtual override returns (uint256) {... */\n    tag_19:\n      callvalue\n      dup1\n      iszero\n      tag_110\n      jumpi\n      0x00\n      dup1\n      revert\n    tag_110:\n      pop\n      tag_111\n      0x04\n      dup1\n      calldatasize\n      sub\n      dup2\n      add\n      swap1\n      tag_112\n      swap2\n      swap1\n      tag_113\n      jump\t// in\n    tag_112:\n      tag_114\n      jump\t// in\n    tag_111:\n      mload(0x40)\n      tag_115\n      swap2\n      swap1\n      tag_44\n      jump\t// in\n    tag_115:\n      mload(0x40)\n      dup1\n      swap2\n      sub\n      swap1\n      return\n        /* \"contracts/Exchange.sol\":12244:13586  function TGOLDTokensToEth(uint256 _tokensSold, uint256 _minEth) public {... */\n    tag_27:\n        /* \"contracts/Exchange.sol\":12366:12383  uint256 ethBought */\n      0x00\n        /* \"contracts/Exchange.sol\":12386:12744  getAmountOfTokens(          // 1% swap/trade fee taken care of in this f() above... */\n      tag_117\n        /* \"contracts/Exchange.sol\":12476:12487  _tokensSold */\n      dup4\n        /* \"contracts/Exchange.sol\":12498:12510  getReserve() */\n      tag_118\n        /* \"contracts/Exchange.sol\":12498:12508  getReserve */\n      tag_76\n        /* \"contracts/Exchange.sol\":12498:12510  getReserve() */\n      jump\t// in\n    tag_118:\n        /* \"contracts/Exchange.sol\":12625:12646  address(this).balance */\n      selfbalance\n        /* \"contracts/Exchange.sol\":12386:12403  getAmountOfTokens */\n      tag_88\n        /* \"contracts/Exchange.sol\":12386:12744  getAmountOfTokens(          // 1% swap/trade fee taken care of in this f() above... */\n      jump\t// in\n    tag_117:\n        /* \"contracts/Exchange.sol\":12366:12744  uint256 ethBought = getAmountOfTokens(          // 1% swap/trade fee taken care of in this f() above... */\n      swap1\n      pop\n        /* \"contracts/Exchange.sol\":12774:12781  _minEth */\n      dup2\n        /* \"contracts/Exchange.sol\":12761:12770  ethBought */\n      dup2\n        /* \"contracts/Exchange.sol\":12761:12781  ethBought >= _minEth */\n      lt\n      iszero\n        /* \"contracts/Exchange.sol\":12753:12836  require(ethBought >= _minEth, \"Insufficient output amount, as per what you expect\") */\n      tag_119\n      jumpi\n      mload(0x40)\n      0x08c379a000000000000000000000000000000000000000000000000000000000\n      dup2\n      mstore\n      0x04\n      add\n      tag_120\n      swap1\n      tag_121\n      jump\t// in\n    tag_120:\n      mload(0x40)\n      dup1\n      swap2\n      sub\n      swap1\n      revert\n    tag_119:\n        /* \"contracts/Exchange.sol\":13255:13272  TGOLDTokenAddress */\n      0x05\n      0x00\n      swap1\n      sload\n      swap1\n      0x0100\n      exp\n      swap1\n      div\n      0xffffffffffffffffffffffffffffffffffffffff\n      and\n        /* \"contracts/Exchange.sol\":13249:13281  ERC20(TGOLDTokenAddress).approve */\n      0xffffffffffffffffffffffffffffffffffffffff\n      and\n      0x095ea7b3\n        /* \"contracts/Exchange.sol\":13290:13294  this */\n      address\n        /* \"contracts/Exchange.sol\":13297:13308  _tokensSold */\n      dup6\n        /* \"contracts/Exchange.sol\":13249:13309  ERC20(TGOLDTokenAddress).approve(address(this), _tokensSold) */\n      mload(0x40)\n      dup4\n      0xffffffff\n      and\n      0xe0\n      shl\n      dup2\n      mstore\n      0x04\n      add\n      tag_122\n      swap3\n      swap2\n      swap1\n      tag_123\n      jump\t// in\n    tag_122:\n      0x20\n      mload(0x40)\n      dup1\n      dup4\n      sub\n      dup2\n      0x00\n      dup8\n      gas\n      call\n      iszero\n      dup1\n      iszero\n      tag_125\n      jumpi\n      returndatasize\n      0x00\n      dup1\n      returndatacopy\n      revert(0x00, returndatasize)\n    tag_125:\n      pop\n      pop\n      pop\n      pop\n      mload(0x40)\n      returndatasize\n      not(0x1f)\n      0x1f\n      dup3\n      add\n      and\n      dup3\n      add\n      dup1\n      0x40\n      mstore\n      pop\n      dup2\n      add\n      swap1\n      tag_126\n      swap2\n      swap1\n      tag_127\n      jump\t// in\n    tag_126:\n      pop\n        /* \"contracts/Exchange.sol\":13324:13341  TGOLDTokenAddress */\n      0x05\n      0x00\n      swap1\n      sload\n      swap1\n      0x0100\n      exp\n      swap1\n      div\n      0xffffffffffffffffffffffffffffffffffffffff\n      and\n        /* \"contracts/Exchange.sol\":13318:13355  ERC20(TGOLDTokenAddress).transferFrom */\n      0xffffffffffffffffffffffffffffffffffffffff\n      and\n      0x23b872dd\n        /* \"contracts/Exchange.sol\":13356:13368  _msgSender() */\n      tag_128\n        /* \"contracts/Exchange.sol\":13356:13366  _msgSender */\n      tag_129\n        /* \"contracts/Exchange.sol\":13356:13368  _msgSender() */\n      jump\t// in\n    tag_128:\n        /* \"contracts/Exchange.sol\":13378:13382  this */\n      address\n        /* \"contracts/Exchange.sol\":13385:13396  _tokensSold */\n      dup7\n        /* \"contracts/Exchange.sol\":13318:13397  ERC20(TGOLDTokenAddress).transferFrom(_msgSender(), address(this), _tokensSold) */\n      mload(0x40)\n      dup5\n      0xffffffff\n      and\n      0xe0\n      shl\n      dup2\n      mstore\n      0x04\n      add\n      tag_130\n      swap4\n      swap3\n      swap2\n      swap1\n      tag_131\n      jump\t// in\n    tag_130:\n      0x20\n      mload(0x40)\n      dup1\n      dup4\n      sub\n      dup2\n      0x00\n      dup8\n      gas\n      call\n      iszero\n      dup1\n      iszero\n      tag_133\n      jumpi\n      returndatasize\n      0x00\n      dup1\n      returndatacopy\n      revert(0x00, returndatasize)\n    tag_133:\n      pop\n      pop\n      pop\n      pop\n      mload(0x40)\n      returndatasize\n      not(0x1f)\n      0x1f\n      dup3\n      add\n      and\n      dup3\n      add\n      dup1\n      0x40\n      mstore\n      pop\n      dup2\n      add\n      swap1\n      tag_134\n      swap2\n      swap1\n      tag_127\n      jump\t// in\n    tag_134:\n      pop\n        /* \"contracts/Exchange.sol\":13476:13488  bool success */\n      0x00\n        /* \"contracts/Exchange.sol\":13494:13506  _msgSender() */\n      tag_135\n        /* \"contracts/Exchange.sol\":13494:13504  _msgSender */\n      tag_129\n        /* \"contracts/Exchange.sol\":13494:13506  _msgSender() */\n      jump\t// in\n    tag_135:\n        /* \"contracts/Exchange.sol\":13494:13511  _msgSender().call */\n      0xffffffffffffffffffffffffffffffffffffffff\n      and\n        /* \"contracts/Exchange.sol\":13519:13528  ethBought */\n      dup3\n        /* \"contracts/Exchange.sol\":13494:13533  _msgSender().call{value: ethBought}(\"\") */\n      mload(0x40)\n      tag_136\n      swap1\n      tag_137\n      jump\t// in\n    tag_136:\n      0x00\n      mload(0x40)\n      dup1\n      dup4\n      sub\n      dup2\n      dup6\n      dup8\n      gas\n      call\n      swap3\n      pop\n      pop\n      pop\n      returndatasize\n      dup1\n      0x00\n      dup2\n      eq\n      tag_140\n      jumpi\n      mload(0x40)\n      swap2\n      pop\n      and(add(returndatasize, 0x3f), not(0x1f))\n      dup3\n      add\n      0x40\n      mstore\n      returndatasize\n      dup3\n      mstore\n      returndatasize\n      0x00\n      0x20\n      dup5\n      add\n      returndatacopy\n      jump(tag_139)\n    tag_140:\n      0x60\n      swap2\n      pop\n    tag_139:\n      pop\n        /* \"contracts/Exchange.sol\":13475:13533  (bool success, ) = _msgSender().call{value: ethBought}(\"\") */\n      pop\n      swap1\n      pop\n        /* \"contracts/Exchange.sol\":13548:13555  success */\n      dup1\n        /* \"contracts/Exchange.sol\":13540:13579  require(success, \"Eth Transfer Failed\") */\n      tag_141\n      jumpi\n      mload(0x40)\n      0x08c379a000000000000000000000000000000000000000000000000000000000\n      dup2\n      mstore\n      0x04\n      add\n      tag_142\n      swap1\n      tag_143\n      jump\t// in\n    tag_142:\n      mload(0x40)\n      dup1\n      swap2\n      sub\n      swap1\n      revert\n    tag_141:\n        /* \"contracts/Exchange.sol\":12315:13586  {... */\n      pop\n      pop\n        /* \"contracts/Exchange.sol\":12244:13586  function TGOLDTokensToEth(uint256 _tokensSold, uint256 _minEth) public {... */\n      pop\n      pop\n      jump\t// out\n        /* \"@openzeppelin/contracts/token/ERC20/ERC20.sol\":2158:2256  function name() public view virtual override returns (string memory) {... */\n    tag_30:\n        /* \"@openzeppelin/contracts/token/ERC20/ERC20.sol\":2212:2225  string memory */\n      0x60\n        /* \"@openzeppelin/contracts/token/ERC20/ERC20.sol\":2244:2249  _name */\n      0x03\n        /* \"@openzeppelin/contracts/token/ERC20/ERC20.sol\":2237:2249  return _name */\n      dup1\n      sload\n      tag_145\n      swap1\n      tag_146\n      jump\t// in\n    tag_145:\n      dup1\n      0x1f\n      add\n      0x20\n      dup1\n      swap2\n      div\n      mul\n      0x20\n      add\n      mload(0x40)\n      swap1\n      dup2\n      add\n      0x40\n      mstore\n      dup1\n      swap3\n      swap2\n      swap1\n      dup2\n      dup2\n      mstore\n      0x20\n      add\n      dup3\n      dup1\n      sload\n      tag_147\n      swap1\n      tag_146\n      jump\t// in\n    tag_147:\n      dup1\n      iszero\n      tag_148\n      jumpi\n      dup1\n      0x1f\n      lt\n      tag_149\n      jumpi\n      0x0100\n      dup1\n      dup4\n      sload\n      div\n      mul\n      dup4\n      mstore\n      swap2\n      0x20\n      add\n      swap2\n      jump(tag_148)\n    tag_149:\n      dup3\n      add\n      swap2\n      swap1\n      0x00\n      mstore\n      keccak256(0x00, 0x20)\n      swap1\n    tag_150:\n      dup2\n      sload\n      dup2\n      mstore\n      swap1\n      0x01\n      add\n      swap1\n      0x20\n      add\n      dup1\n      dup4\n      gt\n      tag_150\n      jumpi\n      dup3\n      swap1\n      sub\n      0x1f\n      and\n      dup3\n      add\n      swap2\n    tag_148:\n      pop\n      pop\n      pop\n      pop\n      pop\n      swap1\n      pop\n        /* \"@openzeppelin/contracts/token/ERC20/ERC20.sol\":2158:2256  function name() public view virtual override returns (string memory) {... */\n      swap1\n      jump\t// out\n        /* \"@openzeppelin/contracts/token/ERC20/ERC20.sol\":4444:4641  function approve(address spender, uint256 amount) public virtual override returns (bool) {... */\n    tag_37:\n        /* \"@openzeppelin/contracts/token/ERC20/ERC20.sol\":4527:4531  bool */\n      0x00\n        /* \"@openzeppelin/contracts/token/ERC20/ERC20.sol\":4543:4556  address owner */\n      dup1\n        /* \"@openzeppelin/contracts/token/ERC20/ERC20.sol\":4559:4571  _msgSender() */\n      tag_152\n        /* \"@openzeppelin/contracts/token/ERC20/ERC20.sol\":4559:4569  _msgSender */\n      tag_129\n        /* \"@openzeppelin/contracts/token/ERC20/ERC20.sol\":4559:4571  _msgSender() */\n      jump\t// in\n    tag_152:\n        /* \"@openzeppelin/contracts/token/ERC20/ERC20.sol\":4543:4571  address owner = _msgSender() */\n      swap1\n      pop\n        /* \"@openzeppelin/contracts/token/ERC20/ERC20.sol\":4581:4613  _approve(owner, spender, amount) */\n      tag_153\n        /* \"@openzeppelin/contracts/token/ERC20/ERC20.sol\":4590:4595  owner */\n      dup2\n        /* \"@openzeppelin/contracts/token/ERC20/ERC20.sol\":4597:4604  spender */\n      dup6\n        /* \"@openzeppelin/contracts/token/ERC20/ERC20.sol\":4606:4612  amount */\n      dup6\n        /* \"@openzeppelin/contracts/token/ERC20/ERC20.sol\":4581:4589  _approve */\n      tag_154\n        /* \"@openzeppelin/contracts/token/ERC20/ERC20.sol\":4581:4613  _approve(owner, spender, amount) */\n      jump\t// in\n    tag_153:\n        /* \"@openzeppelin/contracts/token/ERC20/ERC20.sol\":4630:4634  true */\n      0x01\n        /* \"@openzeppelin/contracts/token/ERC20/ERC20.sol\":4623:4634  return true */\n      swap2\n      pop\n      pop\n        /* \"@openzeppelin/contracts/token/ERC20/ERC20.sol\":4444:4641  function approve(address spender, uint256 amount) public virtual override returns (bool) {... */\n      swap3\n      swap2\n      pop\n      pop\n      jump\t// out\n        /* \"@openzeppelin/contracts/token/ERC20/ERC20.sol\":3255:3361  function totalSupply() public view virtual override returns (uint256) {... */\n    tag_42:\n        /* \"@openzeppelin/contracts/token/ERC20/ERC20.sol\":3316:3323  uint256 */\n      0x00\n        /* \"@openzeppelin/contracts/token/ERC20/ERC20.sol\":3342:3354  _totalSupply */\n      sload(0x02)\n        /* \"@openzeppelin/contracts/token/ERC20/ERC20.sol\":3335:3354  return _totalSupply */\n      swap1\n      pop\n        /* \"@openzeppelin/contracts/token/ERC20/ERC20.sol\":3255:3361  function totalSupply() public view virtual override returns (uint256) {... */\n      swap1\n      jump\t// out\n        /* \"contracts/Exchange.sol\":10880:12001  function ethToTGOLDTokens(uint256 _minTokens) public payable {... */\n    tag_48:\n        /* \"contracts/Exchange.sol\":10948:10968  uint256 tokenReserve */\n      0x00\n        /* \"contracts/Exchange.sol\":10971:10983  getReserve() */\n      tag_157\n        /* \"contracts/Exchange.sol\":10971:10981  getReserve */\n      tag_76\n        /* \"contracts/Exchange.sol\":10971:10983  getReserve() */\n      jump\t// in\n    tag_157:\n        /* \"contracts/Exchange.sol\":10948:10983  uint256 tokenReserve = getReserve() */\n      swap1\n      pop\n        /* \"contracts/Exchange.sol\":11209:11229  uint256 tokensBought */\n      0x00\n        /* \"contracts/Exchange.sol\":11232:11623  getAmountOfTokens(       // 1% swap/trade fee taken care of in this f() above... */\n      tag_158\n        /* \"contracts/Exchange.sol\":11319:11328  msg.value */\n      callvalue\n        /* \"contracts/Exchange.sol\":11363:11372  msg.value */\n      callvalue\n        /* \"contracts/Exchange.sol\":11339:11360  address(this).balance */\n      selfbalance\n        /* \"contracts/Exchange.sol\":11339:11372  address(this).balance - msg.value */\n      tag_159\n      swap2\n      swap1\n      tag_160\n      jump\t// in\n    tag_159:\n        /* \"contracts/Exchange.sol\":11479:11491  tokenReserve */\n      dup5\n        /* \"contracts/Exchange.sol\":11232:11249  getAmountOfTokens */\n      tag_88\n        /* \"contracts/Exchange.sol\":11232:11623  getAmountOfTokens(       // 1% swap/trade fee taken care of in this f() above... */\n      jump\t// in\n    tag_158:\n        /* \"contracts/Exchange.sol\":11209:11623  uint256 tokensBought = getAmountOfTokens(       // 1% swap/trade fee taken care of in this f() above... */\n      swap1\n      pop\n        /* \"contracts/Exchange.sol\":11654:11664  _minTokens */\n      dup3\n        /* \"contracts/Exchange.sol\":11638:11650  tokensBought */\n      dup2\n        /* \"contracts/Exchange.sol\":11638:11664  tokensBought >= _minTokens */\n      lt\n      iszero\n        /* \"contracts/Exchange.sol\":11630:11719  require(tokensBought >= _minTokens, \"Insufficient output amount, as per what you expect\") */\n      tag_161\n      jumpi\n      mload(0x40)\n      0x08c379a000000000000000000000000000000000000000000000000000000000\n      dup2\n      mstore\n      0x04\n      add\n      tag_162\n      swap1\n      tag_121\n      jump\t// in\n    tag_162:\n      mload(0x40)\n      dup1\n      swap2\n      sub\n      swap1\n      revert\n    tag_161:\n        /* \"contracts/Exchange.sol\":11939:11956  TGOLDTokenAddress */\n      0x05\n      0x00\n      swap1\n      sload\n      swap1\n      0x0100\n      exp\n      swap1\n      div\n      0xffffffffffffffffffffffffffffffffffffffff\n      and\n        /* \"contracts/Exchange.sol\":11933:11966  ERC20(TGOLDTokenAddress).transfer */\n      0xffffffffffffffffffffffffffffffffffffffff\n      and\n      0xa9059cbb\n        /* \"contracts/Exchange.sol\":11967:11979  _msgSender() */\n      tag_163\n        /* \"contracts/Exchange.sol\":11967:11977  _msgSender */\n      tag_129\n        /* \"contracts/Exchange.sol\":11967:11979  _msgSender() */\n      jump\t// in\n    tag_163:\n        /* \"contracts/Exchange.sol\":11981:11993  tokensBought */\n      dup4\n        /* \"contracts/Exchange.sol\":11933:11994  ERC20(TGOLDTokenAddress).transfer(_msgSender(), tokensBought) */\n      mload(0x40)\n      dup4\n      0xffffffff\n      and\n      0xe0\n      shl\n      dup2\n      mstore\n      0x04\n      add\n      tag_164\n      swap3\n      swap2\n      swap1\n      tag_123\n      jump\t// in\n    tag_164:\n      0x20\n      mload(0x40)\n      dup1\n      dup4\n      sub\n      dup2\n      0x00\n      dup8\n      gas\n      call\n      iszero\n      dup1\n      iszero\n      tag_166\n      jumpi\n      returndatasize\n      0x00\n      dup1\n      returndatacopy\n      revert(0x00, returndatasize)\n    tag_166:\n      pop\n      pop\n      pop\n      pop\n      mload(0x40)\n      returndatasize\n      not(0x1f)\n      0x1f\n      dup3\n      add\n      and\n      dup3\n      add\n      dup1\n      0x40\n      mstore\n      pop\n      dup2\n      add\n      swap1\n      tag_167\n      swap2\n      swap1\n      tag_127\n      jump\t// in\n    tag_167:\n      pop\n        /* \"contracts/Exchange.sol\":10941:12001  {... */\n      pop\n      pop\n        /* \"contracts/Exchange.sol\":10880:12001  function ethToTGOLDTokens(uint256 _minTokens) public payable {... */\n      pop\n      jump\t// out\n        /* \"@openzeppelin/contracts/token/ERC20/ERC20.sol\":5203:5459  function transferFrom(address from, address to, uint256 amount) public virtual override returns (bool) {... */\n    tag_53:\n        /* \"@openzeppelin/contracts/token/ERC20/ERC20.sol\":5300:5304  bool */\n      0x00\n        /* \"@openzeppelin/contracts/token/ERC20/ERC20.sol\":5316:5331  address spender */\n      dup1\n        /* \"@openzeppelin/contracts/token/ERC20/ERC20.sol\":5334:5346  _msgSender() */\n      tag_169\n        /* \"@openzeppelin/contracts/token/ERC20/ERC20.sol\":5334:5344  _msgSender */\n      tag_129\n        /* \"@openzeppelin/contracts/token/ERC20/ERC20.sol\":5334:5346  _msgSender() */\n      jump\t// in\n    tag_169:\n        /* \"@openzeppelin/contracts/token/ERC20/ERC20.sol\":5316:5346  address spender = _msgSender() */\n      swap1\n      pop\n        /* \"@openzeppelin/contracts/token/ERC20/ERC20.sol\":5356:5394  _spendAllowance(from, spender, amount) */\n      tag_170\n        /* \"@openzeppelin/contracts/token/ERC20/ERC20.sol\":5372:5376  from */\n      dup6\n        /* \"@openzeppelin/contracts/token/ERC20/ERC20.sol\":5378:5385  spender */\n      dup3\n        /* \"@openzeppelin/contracts/token/ERC20/ERC20.sol\":5387:5393  amount */\n      dup6\n        /* \"@openzeppelin/contracts/token/ERC20/ERC20.sol\":5356:5371  _spendAllowance */\n      tag_171\n        /* \"@openzeppelin/contracts/token/ERC20/ERC20.sol\":5356:5394  _spendAllowance(from, spender, amount) */\n      jump\t// in\n    tag_170:\n        /* \"@openzeppelin/contracts/token/ERC20/ERC20.sol\":5404:5431  _transfer(from, to, amount) */\n      tag_172\n        /* \"@openzeppelin/contracts/token/ERC20/ERC20.sol\":5414:5418  from */\n      dup6\n        /* \"@openzeppelin/contracts/token/ERC20/ERC20.sol\":5420:5422  to */\n      dup6\n        /* \"@openzeppelin/contracts/token/ERC20/ERC20.sol\":5424:5430  amount */\n      dup6\n        /* \"@openzeppelin/contracts/token/ERC20/ERC20.sol\":5404:5413  _transfer */\n      tag_173\n        /* \"@openzeppelin/contracts/token/ERC20/ERC20.sol\":5404:5431  _transfer(from, to, amount) */\n      jump\t// in\n    tag_172:\n        /* \"@openzeppelin/contracts/token/ERC20/ERC20.sol\":5448:5452  true */\n      0x01\n        /* \"@openzeppelin/contracts/token/ERC20/ERC20.sol\":5441:5452  return true */\n      swap2\n      pop\n      pop\n        /* \"@openzeppelin/contracts/token/ERC20/ERC20.sol\":5203:5459  function transferFrom(address from, address to, uint256 amount) public virtual override returns (bool) {... */\n      swap4\n      swap3\n      pop\n      pop\n      pop\n      jump\t// out\n        /* \"@openzeppelin/contracts/token/ERC20/ERC20.sol\":3104:3195  function decimals() public view virtual override returns (uint8) {... */\n    tag_57:\n        /* \"@openzeppelin/contracts/token/ERC20/ERC20.sol\":3162:3167  uint8 */\n      0x00\n        /* \"@openzeppelin/contracts/token/ERC20/ERC20.sol\":3186:3188  18 */\n      0x12\n        /* \"@openzeppelin/contracts/token/ERC20/ERC20.sol\":3179:3188  return 18 */\n      swap1\n      pop\n        /* \"@openzeppelin/contracts/token/ERC20/ERC20.sol\":3104:3195  function decimals() public view virtual override returns (uint8) {... */\n      swap1\n      jump\t// out\n        /* \"@openzeppelin/contracts/token/ERC20/ERC20.sol\":5854:6088  function increaseAllowance(address spender, uint256 addedValue) public virtual returns (bool) {... */\n    tag_63:\n        /* \"@openzeppelin/contracts/token/ERC20/ERC20.sol\":5942:5946  bool */\n      0x00\n        /* \"@openzeppelin/contracts/token/ERC20/ERC20.sol\":5958:5971  address owner */\n      dup1\n        /* \"@openzeppelin/contracts/token/ERC20/ERC20.sol\":5974:5986  _msgSender() */\n      tag_176\n        /* \"@openzeppelin/contracts/token/ERC20/ERC20.sol\":5974:5984  _msgSender */\n      tag_129\n        /* \"@openzeppelin/contracts/token/ERC20/ERC20.sol\":5974:5986  _msgSender() */\n      jump\t// in\n    tag_176:\n        /* \"@openzeppelin/contracts/token/ERC20/ERC20.sol\":5958:5986  address owner = _msgSender() */\n      swap1\n      pop\n        /* \"@openzeppelin/contracts/token/ERC20/ERC20.sol\":5996:6060  _approve(owner, spender, allowance(owner, spender) + addedValue) */\n      tag_177\n        /* \"@openzeppelin/contracts/token/ERC20/ERC20.sol\":6005:6010  owner */\n      dup2\n        /* \"@openzeppelin/contracts/token/ERC20/ERC20.sol\":6012:6019  spender */\n      dup6\n        /* \"@openzeppelin/contracts/token/ERC20/ERC20.sol\":6049:6059  addedValue */\n      dup6\n        /* \"@openzeppelin/contracts/token/ERC20/ERC20.sol\":6021:6046  allowance(owner, spender) */\n      tag_178\n        /* \"@openzeppelin/contracts/token/ERC20/ERC20.sol\":6031:6036  owner */\n      dup6\n        /* \"@openzeppelin/contracts/token/ERC20/ERC20.sol\":6038:6045  spender */\n      dup10\n        /* \"@openzeppelin/contracts/token/ERC20/ERC20.sol\":6021:6030  allowance */\n      tag_114\n        /* \"@openzeppelin/contracts/token/ERC20/ERC20.sol\":6021:6046  allowance(owner, spender) */\n      jump\t// in\n    tag_178:\n        /* \"@openzeppelin/contracts/token/ERC20/ERC20.sol\":6021:6059  allowance(owner, spender) + addedValue */\n      tag_179\n      swap2\n      swap1\n      tag_180\n      jump\t// in\n    tag_179:\n        /* \"@openzeppelin/contracts/token/ERC20/ERC20.sol\":5996:6004  _approve */\n      tag_154\n        /* \"@openzeppelin/contracts/token/ERC20/ERC20.sol\":5996:6060  _approve(owner, spender, allowance(owner, spender) + addedValue) */\n      jump\t// in\n    tag_177:\n        /* \"@openzeppelin/contracts/token/ERC20/ERC20.sol\":6077:6081  true */\n      0x01\n        /* \"@openzeppelin/contracts/token/ERC20/ERC20.sol\":6070:6081  return true */\n      swap2\n      pop\n      pop\n        /* \"@openzeppelin/contracts/token/ERC20/ERC20.sol\":5854:6088  function increaseAllowance(address spender, uint256 addedValue) public virtual returns (bool) {... */\n      swap3\n      swap2\n      pop\n      pop\n      jump\t// out\n        /* \"contracts/Exchange.sol\":353:385  address public TGOLDTokenAddress */\n    tag_67:\n      0x05\n      0x00\n      swap1\n      sload\n      swap1\n      0x0100\n      exp\n      swap1\n      div\n      0xffffffffffffffffffffffffffffffffffffffff\n      and\n      dup2\n      jump\t// out\n        /* \"contracts/Exchange.sol\":1135:6529  function addLiquidity(uint256 _amount) public payable returns (uint256) {... */\n    tag_72:\n        /* \"contracts/Exchange.sol\":1198:1205  uint256 */\n      0x00\n        /* \"contracts/Exchange.sol\":1218:1235  uint256 liquidity */\n      dup1\n        /* \"contracts/Exchange.sol\":1300:1318  uint256 ethBalance */\n      0x00\n        /* \"contracts/Exchange.sol\":1321:1342  address(this).balance */\n      selfbalance\n        /* \"contracts/Exchange.sol\":1300:1342  uint256 ethBalance = address(this).balance */\n      swap1\n      pop\n        /* \"contracts/Exchange.sol\":1507:1532  uint256 TGOLDTokenReserve */\n      0x00\n        /* \"contracts/Exchange.sol\":1535:1547  getReserve() */\n      tag_182\n        /* \"contracts/Exchange.sol\":1535:1545  getReserve */\n      tag_76\n        /* \"contracts/Exchange.sol\":1535:1547  getReserve() */\n      jump\t// in\n    tag_182:\n        /* \"contracts/Exchange.sol\":1507:1547  uint256 TGOLDTokenReserve = getReserve() */\n      swap1\n      pop\n        /* \"contracts/Exchange.sol\":1671:1687  ERC20 TGOLDToken */\n      0x00\n        /* \"contracts/Exchange.sol\":1696:1713  TGOLDTokenAddress */\n      0x05\n      0x00\n      swap1\n      sload\n      swap1\n      0x0100\n      exp\n      swap1\n      div\n      0xffffffffffffffffffffffffffffffffffffffff\n      and\n        /* \"contracts/Exchange.sol\":1671:1714  ERC20 TGOLDToken = ERC20(TGOLDTokenAddress) */\n      swap1\n      pop\n        /* \"contracts/Exchange.sol\":1967:1968  0 */\n      0x00\n        /* \"contracts/Exchange.sol\":1946:1963  TGOLDTokenReserve */\n      dup3\n        /* \"contracts/Exchange.sol\":1946:1968  TGOLDTokenReserve == 0 */\n      sub\n        /* \"contracts/Exchange.sol\":1943:6466  if(TGOLDTokenReserve == 0) {... */\n      tag_183\n      jumpi\n        /* \"contracts/Exchange.sol\":2304:2314  TGOLDToken */\n      dup1\n        /* \"contracts/Exchange.sol\":2304:2322  TGOLDToken.approve */\n      0xffffffffffffffffffffffffffffffffffffffff\n      and\n      0x095ea7b3\n        /* \"contracts/Exchange.sol\":2331:2335  this */\n      address\n        /* \"contracts/Exchange.sol\":2338:2345  _amount */\n      dup9\n        /* \"contracts/Exchange.sol\":2304:2346  TGOLDToken.approve(address(this), _amount) */\n      mload(0x40)\n      dup4\n      0xffffffff\n      and\n      0xe0\n      shl\n      dup2\n      mstore\n      0x04\n      add\n      tag_184\n      swap3\n      swap2\n      swap1\n      tag_123\n      jump\t// in\n    tag_184:\n      0x20\n      mload(0x40)\n      dup1\n      dup4\n      sub\n      dup2\n      0x00\n      dup8\n      gas\n      call\n      iszero\n      dup1\n      iszero\n      tag_186\n      jumpi\n      returndatasize\n      0x00\n      dup1\n      returndatacopy\n      revert(0x00, returndatasize)\n    tag_186:\n      pop\n      pop\n      pop\n      pop\n      mload(0x40)\n      returndatasize\n      not(0x1f)\n      0x1f\n      dup3\n      add\n      and\n      dup3\n      add\n      dup1\n      0x40\n      mstore\n      pop\n      dup2\n      add\n      swap1\n      tag_187\n      swap2\n      swap1\n      tag_127\n      jump\t// in\n    tag_187:\n      pop\n        /* \"contracts/Exchange.sol\":2405:2415  TGOLDToken */\n      dup1\n        /* \"contracts/Exchange.sol\":2405:2428  TGOLDToken.transferFrom */\n      0xffffffffffffffffffffffffffffffffffffffff\n      and\n      0x23b872dd\n        /* \"contracts/Exchange.sol\":2429:2441  _msgSender() */\n      tag_188\n        /* \"contracts/Exchange.sol\":2429:2439  _msgSender */\n      tag_129\n        /* \"contracts/Exchange.sol\":2429:2441  _msgSender() */\n      jump\t// in\n    tag_188:\n        /* \"contracts/Exchange.sol\":2451:2455  this */\n      address\n        /* \"contracts/Exchange.sol\":2458:2465  _amount */\n      dup10\n        /* \"contracts/Exchange.sol\":2405:2466  TGOLDToken.transferFrom(_msgSender(), address(this), _amount) */\n      mload(0x40)\n      dup5\n      0xffffffff\n      and\n      0xe0\n      shl\n      dup2\n      mstore\n      0x04\n      add\n      tag_189\n      swap4\n      swap3\n      swap2\n      swap1\n      tag_131\n      jump\t// in\n    tag_189:\n      0x20\n      mload(0x40)\n      dup1\n      dup4\n      sub\n      dup2\n      0x00\n      dup8\n      gas\n      call\n      iszero\n      dup1\n      iszero\n      tag_191\n      jumpi\n      returndatasize\n      0x00\n      dup1\n      returndatacopy\n      revert(0x00, returndatasize)\n    tag_191:\n      pop\n      pop\n      pop\n      pop\n      mload(0x40)\n      returndatasize\n      not(0x1f)\n      0x1f\n      dup3\n      add\n      and\n      dup3\n      add\n      dup1\n      0x40\n      mstore\n      pop\n      dup2\n      add\n      swap1\n      tag_192\n      swap2\n      swap1\n      tag_127\n      jump\t// in\n    tag_192:\n      pop\n        /* \"contracts/Exchange.sol\":3298:3308  ethBalance */\n      dup3\n        /* \"contracts/Exchange.sol\":3286:3308  liquidity = ethBalance */\n      swap4\n      pop\n        /* \"contracts/Exchange.sol\":3517:3547  _mint(_msgSender(), liquidity) */\n      tag_193\n        /* \"contracts/Exchange.sol\":3523:3535  _msgSender() */\n      tag_194\n        /* \"contracts/Exchange.sol\":3523:3533  _msgSender */\n      tag_129\n        /* \"contracts/Exchange.sol\":3523:3535  _msgSender() */\n      jump\t// in\n    tag_194:\n        /* \"contracts/Exchange.sol\":3537:3546  liquidity */\n      dup6\n        /* \"contracts/Exchange.sol\":3517:3522  _mint */\n      tag_195\n        /* \"contracts/Exchange.sol\":3517:3547  _mint(_msgSender(), liquidity) */\n      jump\t// in\n    tag_193:\n        /* \"contracts/Exchange.sol\":1943:6466  if(TGOLDTokenReserve == 0) {... */\n      jump(tag_196)\n    tag_183:\n        /* \"contracts/Exchange.sol\":4483:4501  uint256 ethReserve */\n      0x00\n        /* \"contracts/Exchange.sol\":4517:4526  msg.value */\n      callvalue\n        /* \"contracts/Exchange.sol\":4504:4514  ethBalance */\n      dup5\n        /* \"contracts/Exchange.sol\":4504:4526  ethBalance - msg.value */\n      tag_197\n      swap2\n      swap1\n      tag_160\n      jump\t// in\n    tag_197:\n        /* \"contracts/Exchange.sol\":4483:4526  uint256 ethReserve = ethBalance - msg.value */\n      swap1\n      pop\n        /* \"contracts/Exchange.sol\":5230:5254  uint256 TGOLDTokenAmount */\n      0x00\n        /* \"contracts/Exchange.sol\":5280:5297  TGOLDTokenReserve */\n      dup4\n        /* \"contracts/Exchange.sol\":5268:5278  ethReserve */\n      dup3\n        /* \"contracts/Exchange.sol\":5258:5267  msg.value */\n      callvalue\n        /* \"contracts/Exchange.sol\":5258:5278  msg.value/ethReserve */\n      tag_198\n      swap2\n      swap1\n      tag_199\n      jump\t// in\n    tag_198:\n        /* \"contracts/Exchange.sol\":5257:5297  (msg.value/ethReserve)*TGOLDTokenReserve */\n      tag_200\n      swap2\n      swap1\n      tag_201\n      jump\t// in\n    tag_200:\n        /* \"contracts/Exchange.sol\":5230:5297  uint256 TGOLDTokenAmount = (msg.value/ethReserve)*TGOLDTokenReserve */\n      swap1\n      pop\n        /* \"contracts/Exchange.sol\":5388:5404  TGOLDTokenAmount */\n      dup1\n        /* \"contracts/Exchange.sol\":5377:5384  _amount */\n      dup9\n        /* \"contracts/Exchange.sol\":5377:5404  _amount >= TGOLDTokenAmount */\n      lt\n      iszero\n        /* \"contracts/Exchange.sol\":5369:5471  require(_amount >= TGOLDTokenAmount, \"Amount of tokens sent is less than the minimum tokens required\") */\n      tag_202\n      jumpi\n      mload(0x40)\n      0x08c379a000000000000000000000000000000000000000000000000000000000\n      dup2\n      mstore\n      0x04\n      add\n      tag_203\n      swap1\n      tag_204\n      jump\t// in\n    tag_203:\n      mload(0x40)\n      dup1\n      swap2\n      sub\n      swap1\n      revert\n    tag_202:\n        /* \"contracts/Exchange.sol\":5639:5649  TGOLDToken */\n      dup3\n        /* \"contracts/Exchange.sol\":5639:5662  TGOLDToken.transferFrom */\n      0xffffffffffffffffffffffffffffffffffffffff\n      and\n      0x23b872dd\n        /* \"contracts/Exchange.sol\":5663:5675  _msgSender() */\n      tag_205\n        /* \"contracts/Exchange.sol\":5663:5673  _msgSender */\n      tag_129\n        /* \"contracts/Exchange.sol\":5663:5675  _msgSender() */\n      jump\t// in\n    tag_205:\n        /* \"contracts/Exchange.sol\":5685:5689  this */\n      address\n        /* \"contracts/Exchange.sol\":5692:5708  TGOLDTokenAmount */\n      dup5\n        /* \"contracts/Exchange.sol\":5639:5709  TGOLDToken.transferFrom(_msgSender(), address(this), TGOLDTokenAmount) */\n      mload(0x40)\n      dup5\n      0xffffffff\n      and\n      0xe0\n      shl\n      dup2\n      mstore\n      0x04\n      add\n      tag_206\n      swap4\n      swap3\n      swap2\n      swap1\n      tag_131\n      jump\t// in\n    tag_206:\n      0x20\n      mload(0x40)\n      dup1\n      dup4\n      sub\n      dup2\n      0x00\n      dup8\n      gas\n      call\n      iszero\n      dup1\n      iszero\n      tag_208\n      jumpi\n      returndatasize\n      0x00\n      dup1\n      returndatacopy\n      revert(0x00, returndatasize)\n    tag_208:\n      pop\n      pop\n      pop\n      pop\n      mload(0x40)\n      returndatasize\n      not(0x1f)\n      0x1f\n      dup3\n      add\n      and\n      dup3\n      add\n      dup1\n      0x40\n      mstore\n      pop\n      dup2\n      add\n      swap1\n      tag_209\n      swap2\n      swap1\n      tag_127\n      jump\t// in\n    tag_209:\n      pop\n        /* \"contracts/Exchange.sol\":5996:6006  ethReserve */\n      dup2\n        /* \"contracts/Exchange.sol\":5986:5995  msg.value */\n      callvalue\n        /* \"contracts/Exchange.sol\":5986:6006  msg.value/ethReserve */\n      tag_210\n      swap2\n      swap1\n      tag_199\n      jump\t// in\n    tag_210:\n        /* \"contracts/Exchange.sol\":5969:5982  totalSupply() */\n      tag_211\n        /* \"contracts/Exchange.sol\":5969:5980  totalSupply */\n      tag_42\n        /* \"contracts/Exchange.sol\":5969:5982  totalSupply() */\n      jump\t// in\n    tag_211:\n        /* \"contracts/Exchange.sol\":5969:6007  totalSupply() * (msg.value/ethReserve) */\n      tag_212\n      swap2\n      swap1\n      tag_201\n      jump\t// in\n    tag_212:\n        /* \"contracts/Exchange.sol\":5957:6007  liquidity = totalSupply() * (msg.value/ethReserve) */\n      swap6\n      pop\n        /* \"contracts/Exchange.sol\":6159:6189  _mint(_msgSender(), liquidity) */\n      tag_213\n        /* \"contracts/Exchange.sol\":6165:6177  _msgSender() */\n      tag_214\n        /* \"contracts/Exchange.sol\":6165:6175  _msgSender */\n      tag_129\n        /* \"contracts/Exchange.sol\":6165:6177  _msgSender() */\n      jump\t// in\n    tag_214:\n        /* \"contracts/Exchange.sol\":6179:6188  liquidity */\n      dup8\n        /* \"contracts/Exchange.sol\":6159:6164  _mint */\n      tag_195\n        /* \"contracts/Exchange.sol\":6159:6189  _mint(_msgSender(), liquidity) */\n      jump\t// in\n    tag_213:\n        /* \"contracts/Exchange.sol\":3572:6466  {... */\n      pop\n      pop\n        /* \"contracts/Exchange.sol\":1943:6466  if(TGOLDTokenReserve == 0) {... */\n    tag_196:\n        /* \"contracts/Exchange.sol\":6483:6492  liquidity */\n      dup4\n        /* \"contracts/Exchange.sol\":6476:6492  return liquidity */\n      swap5\n      pop\n      pop\n      pop\n      pop\n      pop\n        /* \"contracts/Exchange.sol\":1135:6529  function addLiquidity(uint256 _amount) public payable returns (uint256) {... */\n      swap2\n      swap1\n      pop\n      jump\t// out\n        /* \"contracts/Exchange.sol\":818:995  function getReserve() public view returns (uint256) {... */\n    tag_76:\n        /* \"contracts/Exchange.sol\":861:868  uint256 */\n      0x00\n        /* \"contracts/Exchange.sol\":894:911  TGOLDTokenAddress */\n      0x05\n      0x00\n      swap1\n      sload\n      swap1\n      0x0100\n      exp\n      swap1\n      div\n      0xffffffffffffffffffffffffffffffffffffffff\n      and\n        /* \"contracts/Exchange.sol\":888:922  ERC20(TGOLDTokenAddress).balanceOf */\n      0xffffffffffffffffffffffffffffffffffffffff\n      and\n      0x70a08231\n        /* \"contracts/Exchange.sol\":931:935  this */\n      address\n        /* \"contracts/Exchange.sol\":888:937  ERC20(TGOLDTokenAddress).balanceOf(address(this)) */\n      mload(0x40)\n      dup3\n      0xffffffff\n      and\n      0xe0\n      shl\n      dup2\n      mstore\n      0x04\n      add\n      tag_216\n      swap2\n      swap1\n      tag_69\n      jump\t// in\n    tag_216:\n      0x20\n      mload(0x40)\n      dup1\n      dup4\n      sub\n      dup2\n      dup7\n      gas\n      staticcall\n      iszero\n      dup1\n      iszero\n      tag_218\n      jumpi\n      returndatasize\n      0x00\n      dup1\n      returndatacopy\n      revert(0x00, returndatasize)\n    tag_218:\n      pop\n      pop\n      pop\n      pop\n      mload(0x40)\n      returndatasize\n      not(0x1f)\n      0x1f\n      dup3\n      add\n      and\n      dup3\n      add\n      dup1\n      0x40\n      mstore\n      pop\n      dup2\n      add\n      swap1\n      tag_219\n      swap2\n      swap1\n      tag_220\n      jump\t// in\n    tag_219:\n        /* \"contracts/Exchange.sol\":881:937  return ERC20(TGOLDTokenAddress).balanceOf(address(this)) */\n      swap1\n      pop\n        /* \"contracts/Exchange.sol\":818:995  function getReserve() public view returns (uint256) {... */\n      swap1\n      jump\t// out\n        /* \"@openzeppelin/contracts/token/ERC20/ERC20.sol\":3419:3544  function balanceOf(address account) public view virtual override returns (uint256) {... */\n    tag_82:\n        /* \"@openzeppelin/contracts/token/ERC20/ERC20.sol\":3493:3500  uint256 */\n      0x00\n        /* \"@openzeppelin/contracts/token/ERC20/ERC20.sol\":3519:3528  _balances */\n      dup1\n        /* \"@openzeppelin/contracts/token/ERC20/ERC20.sol\":3519:3537  _balances[account] */\n      0x00\n        /* \"@openzeppelin/contracts/token/ERC20/ERC20.sol\":3529:3536  account */\n      dup4\n        /* \"@openzeppelin/contracts/token/ERC20/ERC20.sol\":3519:3537  _balances[account] */\n      0xffffffffffffffffffffffffffffffffffffffff\n      and\n      0xffffffffffffffffffffffffffffffffffffffff\n      and\n      dup2\n      mstore\n      0x20\n      add\n      swap1\n      dup2\n      mstore\n      0x20\n      add\n      0x00\n      keccak256\n      sload\n        /* \"@openzeppelin/contracts/token/ERC20/ERC20.sol\":3512:3537  return _balances[account] */\n      swap1\n      pop\n        /* \"@openzeppelin/contracts/token/ERC20/ERC20.sol\":3419:3544  function balanceOf(address account) public view virtual override returns (uint256) {... */\n      swap2\n      swap1\n      pop\n      jump\t// out\n        /* \"contracts/Exchange.sol\":9574:10606  function getAmountOfTokens(... */\n    tag_88:\n        /* \"contracts/Exchange.sol\":9712:9719  uint256 */\n      0x00\n        /* \"contracts/Exchange.sol\":9753:9754  0 */\n      dup1\n        /* \"contracts/Exchange.sol\":9740:9752  inputReserve */\n      dup4\n        /* \"contracts/Exchange.sol\":9740:9754  inputReserve>0 */\n      gt\n        /* \"contracts/Exchange.sol\":9740:9775  inputReserve>0 && outputReserve > 0 */\n      dup1\n      iszero\n      tag_223\n      jumpi\n      pop\n        /* \"contracts/Exchange.sol\":9774:9775  0 */\n      0x00\n        /* \"contracts/Exchange.sol\":9758:9771  outputReserve */\n      dup3\n        /* \"contracts/Exchange.sol\":9758:9775  outputReserve > 0 */\n      gt\n        /* \"contracts/Exchange.sol\":9740:9775  inputReserve>0 && outputReserve > 0 */\n    tag_223:\n        /* \"contracts/Exchange.sol\":9732:9796  require(inputReserve>0 && outputReserve > 0, \"Invalid reserves\") */\n      tag_224\n      jumpi\n      mload(0x40)\n      0x08c379a000000000000000000000000000000000000000000000000000000000\n      dup2\n      mstore\n      0x04\n      add\n      tag_225\n      swap1\n      tag_226\n      jump\t// in\n    tag_225:\n      mload(0x40)\n      dup1\n      swap2\n      sub\n      swap1\n      revert\n    tag_224:\n        /* \"contracts/Exchange.sol\":9951:9977  uint256 inputAmountWithFee */\n      0x00\n        /* \"contracts/Exchange.sol\":9997:10000  100 */\n      0x64\n        /* \"contracts/Exchange.sol\":9993:9995  99 */\n      0x63\n        /* \"contracts/Exchange.sol\":9981:9992  inputAmount */\n      dup7\n        /* \"contracts/Exchange.sol\":9981:9995  inputAmount*99 */\n      tag_227\n      swap2\n      swap1\n      tag_201\n      jump\t// in\n    tag_227:\n        /* \"contracts/Exchange.sol\":9980:10000  (inputAmount*99)/100 */\n      tag_228\n      swap2\n      swap1\n      tag_199\n      jump\t// in\n    tag_228:\n        /* \"contracts/Exchange.sol\":9951:10000  uint256 inputAmountWithFee = (inputAmount*99)/100 */\n      swap1\n      pop\n        /* \"contracts/Exchange.sol\":10435:10452  uint256 numerator */\n      0x00\n        /* \"contracts/Exchange.sol\":10471:10489  inputAmountWithFee */\n      dup2\n        /* \"contracts/Exchange.sol\":10455:10468  outputReserve */\n      dup5\n        /* \"contracts/Exchange.sol\":10455:10489  outputReserve * inputAmountWithFee */\n      tag_229\n      swap2\n      swap1\n      tag_201\n      jump\t// in\n    tag_229:\n        /* \"contracts/Exchange.sol\":10435:10489  uint256 numerator = outputReserve * inputAmountWithFee */\n      swap1\n      pop\n        /* \"contracts/Exchange.sol\":10500:10519  uint256 denominator */\n      0x00\n        /* \"contracts/Exchange.sol\":10537:10555  inputAmountWithFee */\n      dup3\n        /* \"contracts/Exchange.sol\":10522:10534  inputReserve */\n      dup7\n        /* \"contracts/Exchange.sol\":10522:10555  inputReserve + inputAmountWithFee */\n      tag_230\n      swap2\n      swap1\n      tag_180\n      jump\t// in\n    tag_230:\n        /* \"contracts/Exchange.sol\":10500:10555  uint256 denominator = inputReserve + inputAmountWithFee */\n      swap1\n      pop\n        /* \"contracts/Exchange.sol\":10587:10598  denominator */\n      dup1\n        /* \"contracts/Exchange.sol\":10575:10584  numerator */\n      dup3\n        /* \"contracts/Exchange.sol\":10575:10598  numerator / denominator */\n      tag_231\n      swap2\n      swap1\n      tag_199\n      jump\t// in\n    tag_231:\n        /* \"contracts/Exchange.sol\":10568:10598  return numerator / denominator */\n      swap4\n      pop\n      pop\n      pop\n      pop\n        /* \"contracts/Exchange.sol\":9574:10606  function getAmountOfTokens(... */\n      swap4\n      swap3\n      pop\n      pop\n      pop\n      jump\t// out\n        /* \"@openzeppelin/contracts/token/ERC20/ERC20.sol\":2369:2471  function symbol() public view virtual override returns (string memory) {... */\n    tag_92:\n        /* \"@openzeppelin/contracts/token/ERC20/ERC20.sol\":2425:2438  string memory */\n      0x60\n        /* \"@openzeppelin/contracts/token/ERC20/ERC20.sol\":2457:2464  _symbol */\n      0x04\n        /* \"@openzeppelin/contracts/token/ERC20/ERC20.sol\":2450:2464  return _symbol */\n      dup1\n      sload\n      tag_233\n      swap1\n      tag_146\n      jump\t// in\n    tag_233:\n      dup1\n      0x1f\n      add\n      0x20\n      dup1\n      swap2\n      div\n      mul\n      0x20\n      add\n      mload(0x40)\n      swap1\n      dup2\n      add\n      0x40\n      mstore\n      dup1\n      swap3\n      swap2\n      swap1\n      dup2\n      dup2\n      mstore\n      0x20\n      add\n      dup3\n      dup1\n      sload\n      tag_234\n      swap1\n      tag_146\n      jump\t// in\n    tag_234:\n      dup1\n      iszero\n      tag_235\n      jumpi\n      dup1\n      0x1f\n      lt\n      tag_236\n      jumpi\n      0x0100\n      dup1\n      dup4\n      sload\n      div\n      mul\n      dup4\n      mstore\n      swap2\n      0x20\n      add\n      swap2\n      jump(tag_235)\n    tag_236:\n      dup3\n      add\n      swap2\n      swap1\n      0x00\n      mstore\n      keccak256(0x00, 0x20)\n      swap1\n    tag_237:\n      dup2\n      sload\n      dup2\n      mstore\n      swap1\n      0x01\n      add\n      swap1\n      0x20\n      add\n      dup1\n      dup4\n      gt\n      tag_237\n      jumpi\n      dup3\n      swap1\n      sub\n      0x1f\n      and\n      dup3\n      add\n      swap2\n    tag_235:\n      pop\n      pop\n      pop\n      pop\n      pop\n      swap1\n      pop\n        /* \"@openzeppelin/contracts/token/ERC20/ERC20.sol\":2369:2471  function symbol() public view virtual override returns (string memory) {... */\n      swap1\n      jump\t// out\n        /* \"contracts/Exchange.sol\":6686:9437  function removeLiquidity(uint _amount) public returns (uint , uint) {... */\n    tag_97:\n        /* \"contracts/Exchange.sol\":6741:6745  uint */\n      0x00\n        /* \"contracts/Exchange.sol\":6748:6752  uint */\n      dup1\n        /* \"contracts/Exchange.sol\":6779:6780  0 */\n      0x00\n        /* \"contracts/Exchange.sol\":6769:6776  _amount */\n      dup4\n        /* \"contracts/Exchange.sol\":6769:6780  _amount > 0 */\n      gt\n        /* \"contracts/Exchange.sol\":6761:6820  require(_amount > 0, \"_amount should be greater than zero\") */\n      tag_239\n      jumpi\n      mload(0x40)\n      0x08c379a000000000000000000000000000000000000000000000000000000000\n      dup2\n      mstore\n      0x04\n      add\n      tag_240\n      swap1\n      tag_241\n      jump\t// in\n    tag_240:\n      mload(0x40)\n      dup1\n      swap2\n      sub\n      swap1\n      revert\n    tag_239:\n        /* \"contracts/Exchange.sol\":6829:6844  uint ethReserve */\n      0x00\n        /* \"contracts/Exchange.sol\":6847:6868  address(this).balance */\n      selfbalance\n        /* \"contracts/Exchange.sol\":6829:6868  uint ethReserve = address(this).balance */\n      swap1\n      pop\n        /* \"contracts/Exchange.sol\":6905:6922  uint _totalSupply */\n      0x00\n        /* \"contracts/Exchange.sol\":6925:6938  totalSupply() */\n      tag_242\n        /* \"contracts/Exchange.sol\":6925:6936  totalSupply */\n      tag_42\n        /* \"contracts/Exchange.sol\":6925:6938  totalSupply() */\n      jump\t// in\n    tag_242:\n        /* \"contracts/Exchange.sol\":6905:6938  uint _totalSupply = totalSupply() */\n      swap1\n      pop\n        /* \"contracts/Exchange.sol\":7412:7426  uint ethAmount */\n      0x00\n        /* \"contracts/Exchange.sol\":7453:7465  _totalSupply */\n      dup2\n        /* \"contracts/Exchange.sol\":7443:7450  _amount */\n      dup7\n        /* \"contracts/Exchange.sol\":7430:7440  ethReserve */\n      dup5\n        /* \"contracts/Exchange.sol\":7430:7450  ethReserve * _amount */\n      tag_243\n      swap2\n      swap1\n      tag_201\n      jump\t// in\n    tag_243:\n        /* \"contracts/Exchange.sol\":7429:7465  (ethReserve * _amount)/ _totalSupply */\n      tag_244\n      swap2\n      swap1\n      tag_199\n      jump\t// in\n    tag_244:\n        /* \"contracts/Exchange.sol\":7412:7465  uint ethAmount = (ethReserve * _amount)/ _totalSupply */\n      swap1\n      pop\n        /* \"contracts/Exchange.sol\":7975:7996  uint TGOLDTokenAmount */\n      0x00\n        /* \"contracts/Exchange.sol\":8025:8037  _totalSupply */\n      dup3\n        /* \"contracts/Exchange.sol\":8015:8022  _amount */\n      dup8\n        /* \"contracts/Exchange.sol\":8000:8012  getReserve() */\n      tag_245\n        /* \"contracts/Exchange.sol\":8000:8010  getReserve */\n      tag_76\n        /* \"contracts/Exchange.sol\":8000:8012  getReserve() */\n      jump\t// in\n    tag_245:\n        /* \"contracts/Exchange.sol\":8000:8022  getReserve() * _amount */\n      tag_246\n      swap2\n      swap1\n      tag_201\n      jump\t// in\n    tag_246:\n        /* \"contracts/Exchange.sol\":7999:8037  (getReserve() * _amount)/ _totalSupply */\n      tag_247\n      swap2\n      swap1\n      tag_199\n      jump\t// in\n    tag_247:\n        /* \"contracts/Exchange.sol\":7975:8037  uint TGOLDTokenAmount = (getReserve() * _amount)/ _totalSupply */\n      swap1\n      pop\n        /* \"contracts/Exchange.sol\":8383:8411  _burn(_msgSender(), _amount) */\n      tag_248\n        /* \"contracts/Exchange.sol\":8389:8401  _msgSender() */\n      tag_249\n        /* \"contracts/Exchange.sol\":8389:8399  _msgSender */\n      tag_129\n        /* \"contracts/Exchange.sol\":8389:8401  _msgSender() */\n      jump\t// in\n    tag_249:\n        /* \"contracts/Exchange.sol\":8403:8410  _amount */\n      dup9\n        /* \"contracts/Exchange.sol\":8383:8388  _burn */\n      tag_250\n        /* \"contracts/Exchange.sol\":8383:8411  _burn(_msgSender(), _amount) */\n      jump\t// in\n    tag_248:\n        /* \"contracts/Exchange.sol\":8691:8703  bool success */\n      0x00\n        /* \"contracts/Exchange.sol\":8709:8721  _msgSender() */\n      tag_251\n        /* \"contracts/Exchange.sol\":8709:8719  _msgSender */\n      tag_129\n        /* \"contracts/Exchange.sol\":8709:8721  _msgSender() */\n      jump\t// in\n    tag_251:\n        /* \"contracts/Exchange.sol\":8709:8726  _msgSender().call */\n      0xffffffffffffffffffffffffffffffffffffffff\n      and\n        /* \"contracts/Exchange.sol\":8734:8743  ethAmount */\n      dup4\n        /* \"contracts/Exchange.sol\":8709:8748  _msgSender().call{value: ethAmount}(\"\") */\n      mload(0x40)\n      tag_252\n      swap1\n      tag_137\n      jump\t// in\n    tag_252:\n      0x00\n      mload(0x40)\n      dup1\n      dup4\n      sub\n      dup2\n      dup6\n      dup8\n      gas\n      call\n      swap3\n      pop\n      pop\n      pop\n      returndatasize\n      dup1\n      0x00\n      dup2\n      eq\n      tag_255\n      jumpi\n      mload(0x40)\n      swap2\n      pop\n      and(add(returndatasize, 0x3f), not(0x1f))\n      dup3\n      add\n      0x40\n      mstore\n      returndatasize\n      dup3\n      mstore\n      returndatasize\n      0x00\n      0x20\n      dup5\n      add\n      returndatacopy\n      jump(tag_254)\n    tag_255:\n      0x60\n      swap2\n      pop\n    tag_254:\n      pop\n        /* \"contracts/Exchange.sol\":8690:8748  (bool success, ) = _msgSender().call{value: ethAmount}(\"\") */\n      pop\n      swap1\n      pop\n        /* \"contracts/Exchange.sol\":8823:8830  success */\n      dup1\n        /* \"contracts/Exchange.sol\":8818:8870  if (!success) {... */\n      tag_256\n      jumpi\n        /* \"contracts/Exchange.sol\":8850:8862  SendFailed() */\n      mload(0x40)\n      0x81063e5100000000000000000000000000000000000000000000000000000000\n      dup2\n      mstore\n      0x04\n      add\n      mload(0x40)\n      dup1\n      swap2\n      sub\n      swap1\n      revert\n        /* \"contracts/Exchange.sol\":8818:8870  if (!success) {... */\n    tag_256:\n        /* \"contracts/Exchange.sol\":9290:9307  TGOLDTokenAddress */\n      0x05\n      0x00\n      swap1\n      sload\n      swap1\n      0x0100\n      exp\n      swap1\n      div\n      0xffffffffffffffffffffffffffffffffffffffff\n      and\n        /* \"contracts/Exchange.sol\":9284:9317  ERC20(TGOLDTokenAddress).transfer */\n      0xffffffffffffffffffffffffffffffffffffffff\n      and\n      0xa9059cbb\n        /* \"contracts/Exchange.sol\":9318:9330  _msgSender() */\n      tag_257\n        /* \"contracts/Exchange.sol\":9318:9328  _msgSender */\n      tag_129\n        /* \"contracts/Exchange.sol\":9318:9330  _msgSender() */\n      jump\t// in\n    tag_257:\n        /* \"contracts/Exchange.sol\":9332:9348  TGOLDTokenAmount */\n      dup5\n        /* \"contracts/Exchange.sol\":9284:9349  ERC20(TGOLDTokenAddress).transfer(_msgSender(), TGOLDTokenAmount) */\n      mload(0x40)\n      dup4\n      0xffffffff\n      and\n      0xe0\n      shl\n      dup2\n      mstore\n      0x04\n      add\n      tag_258\n      swap3\n      swap2\n      swap1\n      tag_123\n      jump\t// in\n    tag_258:\n      0x20\n      mload(0x40)\n      dup1\n      dup4\n      sub\n      dup2\n      0x00\n      dup8\n      gas\n      call\n      iszero\n      dup1\n      iszero\n      tag_260\n      jumpi\n      returndatasize\n      0x00\n      dup1\n      returndatacopy\n      revert(0x00, returndatasize)\n    tag_260:\n      pop\n      pop\n      pop\n      pop\n      mload(0x40)\n      returndatasize\n      not(0x1f)\n      0x1f\n      dup3\n      add\n      and\n      dup3\n      add\n      dup1\n      0x40\n      mstore\n      pop\n      dup2\n      add\n      swap1\n      tag_261\n      swap2\n      swap1\n      tag_127\n      jump\t// in\n    tag_261:\n      pop\n        /* \"contracts/Exchange.sol\":9401:9410  ethAmount */\n      dup3\n        /* \"contracts/Exchange.sol\":9412:9428  TGOLDTokenAmount */\n      dup3\n        /* \"contracts/Exchange.sol\":9393:9429  return (ethAmount, TGOLDTokenAmount) */\n      swap7\n      pop\n      swap7\n      pop\n      pop\n      pop\n      pop\n      pop\n      pop\n        /* \"contracts/Exchange.sol\":6686:9437  function removeLiquidity(uint _amount) public returns (uint , uint) {... */\n      swap2\n      pop\n      swap2\n      jump\t// out\n        /* \"@openzeppelin/contracts/token/ERC20/ERC20.sol\":6575:7002  function decreaseAllowance(address spender, uint256 subtractedValue) public virtual returns (bool) {... */\n    tag_103:\n        /* \"@openzeppelin/contracts/token/ERC20/ERC20.sol\":6668:6672  bool */\n      0x00\n        /* \"@openzeppelin/contracts/token/ERC20/ERC20.sol\":6684:6697  address owner */\n      dup1\n        /* \"@openzeppelin/contracts/token/ERC20/ERC20.sol\":6700:6712  _msgSender() */\n      tag_263\n        /* \"@openzeppelin/contracts/token/ERC20/ERC20.sol\":6700:6710  _msgSender */\n      tag_129\n        /* \"@openzeppelin/contracts/token/ERC20/ERC20.sol\":6700:6712  _msgSender() */\n      jump\t// in\n    tag_263:\n        /* \"@openzeppelin/contracts/token/ERC20/ERC20.sol\":6684:6712  address owner = _msgSender() */\n      swap1\n      pop\n        /* \"@openzeppelin/contracts/token/ERC20/ERC20.sol\":6722:6746  uint256 currentAllowance */\n      0x00\n        /* \"@openzeppelin/contracts/token/ERC20/ERC20.sol\":6749:6774  allowance(owner, spender) */\n      tag_264\n        /* \"@openzeppelin/contracts/token/ERC20/ERC20.sol\":6759:6764  owner */\n      dup3\n        /* \"@openzeppelin/contracts/token/ERC20/ERC20.sol\":6766:6773  spender */\n      dup7\n        /* \"@openzeppelin/contracts/token/ERC20/ERC20.sol\":6749:6758  allowance */\n      tag_114\n        /* \"@openzeppelin/contracts/token/ERC20/ERC20.sol\":6749:6774  allowance(owner, spender) */\n      jump\t// in\n    tag_264:\n        /* \"@openzeppelin/contracts/token/ERC20/ERC20.sol\":6722:6774  uint256 currentAllowance = allowance(owner, spender) */\n      swap1\n      pop\n        /* \"@openzeppelin/contracts/token/ERC20/ERC20.sol\":6812:6827  subtractedValue */\n      dup4\n        /* \"@openzeppelin/contracts/token/ERC20/ERC20.sol\":6792:6808  currentAllowance */\n      dup2\n        /* \"@openzeppelin/contracts/token/ERC20/ERC20.sol\":6792:6827  currentAllowance >= subtractedValue */\n      lt\n      iszero\n        /* \"@openzeppelin/contracts/token/ERC20/ERC20.sol\":6784:6869  require(currentAllowance >= subtractedValue, \"ERC20: decreased allowance below zero\") */\n      tag_265\n      jumpi\n      mload(0x40)\n      0x08c379a000000000000000000000000000000000000000000000000000000000\n      dup2\n      mstore\n      0x04\n      add\n      tag_266\n      swap1\n      tag_267\n      jump\t// in\n    tag_266:\n      mload(0x40)\n      dup1\n      swap2\n      sub\n      swap1\n      revert\n    tag_265:\n        /* \"@openzeppelin/contracts/token/ERC20/ERC20.sol\":6903:6963  _approve(owner, spender, currentAllowance - subtractedValue) */\n      tag_268\n        /* \"@openzeppelin/contracts/token/ERC20/ERC20.sol\":6912:6917  owner */\n      dup3\n        /* \"@openzeppelin/contracts/token/ERC20/ERC20.sol\":6919:6926  spender */\n      dup7\n        /* \"@openzeppelin/contracts/token/ERC20/ERC20.sol\":6947:6962  subtractedValue */\n      dup7\n        /* \"@openzeppelin/contracts/token/ERC20/ERC20.sol\":6928:6944  currentAllowance */\n      dup5\n        /* \"@openzeppelin/contracts/token/ERC20/ERC20.sol\":6928:6962  currentAllowance - subtractedValue */\n      sub\n        /* \"@openzeppelin/contracts/token/ERC20/ERC20.sol\":6903:6911  _approve */\n      tag_154\n        /* \"@openzeppelin/contracts/token/ERC20/ERC20.sol\":6903:6963  _approve(owner, spender, currentAllowance - subtractedValue) */\n      jump\t// in\n    tag_268:\n        /* \"@openzeppelin/contracts/token/ERC20/ERC20.sol\":6991:6995  true */\n      0x01\n        /* \"@openzeppelin/contracts/token/ERC20/ERC20.sol\":6984:6995  return true */\n      swap3\n      pop\n      pop\n      pop\n        /* \"@openzeppelin/contracts/token/ERC20/ERC20.sol\":6575:7002  function decreaseAllowance(address spender, uint256 subtractedValue) public virtual returns (bool) {... */\n      swap3\n      swap2\n      pop\n      pop\n      jump\t// out\n        /* \"@openzeppelin/contracts/token/ERC20/ERC20.sol\":3740:3929  function transfer(address to, uint256 amount) public virtual override returns (bool) {... */\n    tag_108:\n        /* \"@openzeppelin/contracts/token/ERC20/ERC20.sol\":3819:3823  bool */\n      0x00\n        /* \"@openzeppelin/contracts/token/ERC20/ERC20.sol\":3835:3848  address owner */\n      dup1\n        /* \"@openzeppelin/contracts/token/ERC20/ERC20.sol\":3851:3863  _msgSender() */\n      tag_270\n        /* \"@openzeppelin/contracts/token/ERC20/ERC20.sol\":3851:3861  _msgSender */\n      tag_129\n        /* \"@openzeppelin/contracts/token/ERC20/ERC20.sol\":3851:3863  _msgSender() */\n      jump\t// in\n    tag_270:\n        /* \"@openzeppelin/contracts/token/ERC20/ERC20.sol\":3835:3863  address owner = _msgSender() */\n      swap1\n      pop\n        /* \"@openzeppelin/contracts/token/ERC20/ERC20.sol\":3873:3901  _transfer(owner, to, amount) */\n      tag_271\n        /* \"@openzeppelin/contracts/token/ERC20/ERC20.sol\":3883:3888  owner */\n      dup2\n        /* \"@openzeppelin/contracts/token/ERC20/ERC20.sol\":3890:3892  to */\n      dup6\n        /* \"@openzeppelin/contracts/token/ERC20/ERC20.sol\":3894:3900  amount */\n      dup6\n        /* \"@openzeppelin/contracts/token/ERC20/ERC20.sol\":3873:3882  _transfer */\n      tag_173\n        /* \"@openzeppelin/contracts/token/ERC20/ERC20.sol\":3873:3901  _transfer(owner, to, amount) */\n      jump\t// in\n    tag_271:\n        /* \"@openzeppelin/contracts/token/ERC20/ERC20.sol\":3918:3922  true */\n      0x01\n        /* \"@openzeppelin/contracts/token/ERC20/ERC20.sol\":3911:3922  return true */\n      swap2\n      pop\n      pop\n        /* \"@openzeppelin/contracts/token/ERC20/ERC20.sol\":3740:3929  function transfer(address to, uint256 amount) public virtual override returns (bool) {... */\n      swap3\n      swap2\n      pop\n      pop\n      jump\t// out\n        /* \"@openzeppelin/contracts/token/ERC20/ERC20.sol\":3987:4136  function allowance(address owner, address spender) public view virtual override returns (uint256) {... */\n    tag_114:\n        /* \"@openzeppelin/contracts/token/ERC20/ERC20.sol\":4076:4083  uint256 */\n      0x00\n        /* \"@openzeppelin/contracts/token/ERC20/ERC20.sol\":4102:4113  _allowances */\n      0x01\n        /* \"@openzeppelin/contracts/token/ERC20/ERC20.sol\":4102:4120  _allowances[owner] */\n      0x00\n        /* \"@openzeppelin/contracts/token/ERC20/ERC20.sol\":4114:4119  owner */\n      dup5\n        /* \"@openzeppelin/contracts/token/ERC20/ERC20.sol\":4102:4120  _allowances[owner] */\n      0xffffffffffffffffffffffffffffffffffffffff\n      and\n      0xffffffffffffffffffffffffffffffffffffffff\n      and\n      dup2\n      mstore\n      0x20\n      add\n      swap1\n      dup2\n      mstore\n      0x20\n      add\n      0x00\n      keccak256\n        /* \"@openzeppelin/contracts/token/ERC20/ERC20.sol\":4102:4129  _allowances[owner][spender] */\n      0x00\n        /* \"@openzeppelin/contracts/token/ERC20/ERC20.sol\":4121:4128  spender */\n      dup4\n        /* \"@openzeppelin/contracts/token/ERC20/ERC20.sol\":4102:4129  _allowances[owner][spender] */\n      0xffffffffffffffffffffffffffffffffffffffff\n      and\n      0xffffffffffffffffffffffffffffffffffffffff\n      and\n      dup2\n      mstore\n      0x20\n      add\n      swap1\n      dup2\n      mstore\n      0x20\n      add\n      0x00\n      keccak256\n      sload\n        /* \"@openzeppelin/contracts/token/ERC20/ERC20.sol\":4095:4129  return _allowances[owner][spender] */\n      swap1\n      pop\n        /* \"@openzeppelin/contracts/token/ERC20/ERC20.sol\":3987:4136  function allowance(address owner, address spender) public view virtual override returns (uint256) {... */\n      swap3\n      swap2\n      pop\n      pop\n      jump\t// out\n        /* \"@openzeppelin/contracts/utils/Context.sol\":640:736  function _msgSender() internal view virtual returns (address) {... */\n    tag_129:\n        /* \"@openzeppelin/contracts/utils/Context.sol\":693:700  address */\n      0x00\n        /* \"@openzeppelin/contracts/utils/Context.sol\":719:729  msg.sender */\n      caller\n        /* \"@openzeppelin/contracts/utils/Context.sol\":712:729  return msg.sender */\n      swap1\n      pop\n        /* \"@openzeppelin/contracts/utils/Context.sol\":640:736  function _msgSender() internal view virtual returns (address) {... */\n      swap1\n      jump\t// out\n        /* \"@openzeppelin/contracts/token/ERC20/ERC20.sol\":10457:10797  function _approve(address owner, address spender, uint256 amount) internal virtual {... */\n    tag_154:\n        /* \"@openzeppelin/contracts/token/ERC20/ERC20.sol\":10575:10576  0 */\n      0x00\n        /* \"@openzeppelin/contracts/token/ERC20/ERC20.sol\":10558:10577  owner != address(0) */\n      0xffffffffffffffffffffffffffffffffffffffff\n      and\n        /* \"@openzeppelin/contracts/token/ERC20/ERC20.sol\":10558:10563  owner */\n      dup4\n        /* \"@openzeppelin/contracts/token/ERC20/ERC20.sol\":10558:10577  owner != address(0) */\n      0xffffffffffffffffffffffffffffffffffffffff\n      and\n      sub\n        /* \"@openzeppelin/contracts/token/ERC20/ERC20.sol\":10550:10618  require(owner != address(0), \"ERC20: approve from the zero address\") */\n      tag_275\n      jumpi\n      mload(0x40)\n      0x08c379a000000000000000000000000000000000000000000000000000000000\n      dup2\n      mstore\n      0x04\n      add\n      tag_276\n      swap1\n      tag_277\n      jump\t// in\n    tag_276:\n      mload(0x40)\n      dup1\n      swap2\n      sub\n      swap1\n      revert\n    tag_275:\n        /* \"@openzeppelin/contracts/token/ERC20/ERC20.sol\":10655:10656  0 */\n      0x00\n        /* \"@openzeppelin/contracts/token/ERC20/ERC20.sol\":10636:10657  spender != address(0) */\n      0xffffffffffffffffffffffffffffffffffffffff\n      and\n        /* \"@openzeppelin/contracts/token/ERC20/ERC20.sol\":10636:10643  spender */\n      dup3\n        /* \"@openzeppelin/contracts/token/ERC20/ERC20.sol\":10636:10657  spender != address(0) */\n      0xffffffffffffffffffffffffffffffffffffffff\n      and\n      sub\n        /* \"@openzeppelin/contracts/token/ERC20/ERC20.sol\":10628:10696  require(spender != address(0), \"ERC20: approve to the zero address\") */\n      tag_278\n      jumpi\n      mload(0x40)\n      0x08c379a000000000000000000000000000000000000000000000000000000000\n      dup2\n      mstore\n      0x04\n      add\n      tag_279\n      swap1\n      tag_280\n      jump\t// in\n    tag_279:\n      mload(0x40)\n      dup1\n      swap2\n      sub\n      swap1\n      revert\n    tag_278:\n        /* \"@openzeppelin/contracts/token/ERC20/ERC20.sol\":10737:10743  amount */\n      dup1\n        /* \"@openzeppelin/contracts/token/ERC20/ERC20.sol\":10707:10718  _allowances */\n      0x01\n        /* \"@openzeppelin/contracts/token/ERC20/ERC20.sol\":10707:10725  _allowances[owner] */\n      0x00\n        /* \"@openzeppelin/contracts/token/ERC20/ERC20.sol\":10719:10724  owner */\n      dup6\n        /* \"@openzeppelin/contracts/token/ERC20/ERC20.sol\":10707:10725  _allowances[owner] */\n      0xffffffffffffffffffffffffffffffffffffffff\n      and\n      0xffffffffffffffffffffffffffffffffffffffff\n      and\n      dup2\n      mstore\n      0x20\n      add\n      swap1\n      dup2\n      mstore\n      0x20\n      add\n      0x00\n      keccak256\n        /* \"@openzeppelin/contracts/token/ERC20/ERC20.sol\":10707:10734  _allowances[owner][spender] */\n      0x00\n        /* \"@openzeppelin/contracts/token/ERC20/ERC20.sol\":10726:10733  spender */\n      dup5\n        /* \"@openzeppelin/contracts/token/ERC20/ERC20.sol\":10707:10734  _allowances[owner][spender] */\n      0xffffffffffffffffffffffffffffffffffffffff\n      and\n      0xffffffffffffffffffffffffffffffffffffffff\n      and\n      dup2\n      mstore\n      0x20\n      add\n      swap1\n      dup2\n      mstore\n      0x20\n      add\n      0x00\n      keccak256\n        /* \"@openzeppelin/contracts/token/ERC20/ERC20.sol\":10707:10743  _allowances[owner][spender] = amount */\n      dup2\n      swap1\n      sstore\n      pop\n        /* \"@openzeppelin/contracts/token/ERC20/ERC20.sol\":10774:10781  spender */\n      dup2\n        /* \"@openzeppelin/contracts/token/ERC20/ERC20.sol\":10758:10790  Approval(owner, spender, amount) */\n      0xffffffffffffffffffffffffffffffffffffffff\n      and\n        /* \"@openzeppelin/contracts/token/ERC20/ERC20.sol\":10767:10772  owner */\n      dup4\n        /* \"@openzeppelin/contracts/token/ERC20/ERC20.sol\":10758:10790  Approval(owner, spender, amount) */\n      0xffffffffffffffffffffffffffffffffffffffff\n      and\n      0x8c5be1e5ebec7d5bd14f71427d1e84f3dd0314c0f7b2291e5b200ac8c7c3b925\n        /* \"@openzeppelin/contracts/token/ERC20/ERC20.sol\":10783:10789  amount */\n      dup4\n        /* \"@openzeppelin/contracts/token/ERC20/ERC20.sol\":10758:10790  Approval(owner, spender, amount) */\n      mload(0x40)\n      tag_281\n      swap2\n      swap1\n      tag_44\n      jump\t// in\n    tag_281:\n      mload(0x40)\n      dup1\n      swap2\n      sub\n      swap1\n      log3\n        /* \"@openzeppelin/contracts/token/ERC20/ERC20.sol\":10457:10797  function _approve(address owner, address spender, uint256 amount) internal virtual {... */\n      pop\n      pop\n      pop\n      jump\t// out\n        /* \"@openzeppelin/contracts/token/ERC20/ERC20.sol\":11078:11489  function _spendAllowance(address owner, address spender, uint256 amount) internal virtual {... */\n    tag_171:\n        /* \"@openzeppelin/contracts/token/ERC20/ERC20.sol\":11178:11202  uint256 currentAllowance */\n      0x00\n        /* \"@openzeppelin/contracts/token/ERC20/ERC20.sol\":11205:11230  allowance(owner, spender) */\n      tag_283\n        /* \"@openzeppelin/contracts/token/ERC20/ERC20.sol\":11215:11220  owner */\n      dup5\n        /* \"@openzeppelin/contracts/token/ERC20/ERC20.sol\":11222:11229  spender */\n      dup5\n        /* \"@openzeppelin/contracts/token/ERC20/ERC20.sol\":11205:11214  allowance */\n      tag_114\n        /* \"@openzeppelin/contracts/token/ERC20/ERC20.sol\":11205:11230  allowance(owner, spender) */\n      jump\t// in\n    tag_283:\n        /* \"@openzeppelin/contracts/token/ERC20/ERC20.sol\":11178:11230  uint256 currentAllowance = allowance(owner, spender) */\n      swap1\n      pop\n        /* \"@openzeppelin/contracts/token/ERC20/ERC20.sol\":11264:11281  type(uint256).max */\n      0xffffffffffffffffffffffffffffffffffffffffffffffffffffffffffffffff\n        /* \"@openzeppelin/contracts/token/ERC20/ERC20.sol\":11244:11260  currentAllowance */\n      dup2\n        /* \"@openzeppelin/contracts/token/ERC20/ERC20.sol\":11244:11281  currentAllowance != type(uint256).max */\n      eq\n        /* \"@openzeppelin/contracts/token/ERC20/ERC20.sol\":11240:11483  if (currentAllowance != type(uint256).max) {... */\n      tag_284\n      jumpi\n        /* \"@openzeppelin/contracts/token/ERC20/ERC20.sol\":11325:11331  amount */\n      dup2\n        /* \"@openzeppelin/contracts/token/ERC20/ERC20.sol\":11305:11321  currentAllowance */\n      dup2\n        /* \"@openzeppelin/contracts/token/ERC20/ERC20.sol\":11305:11331  currentAllowance >= amount */\n      lt\n      iszero\n        /* \"@openzeppelin/contracts/token/ERC20/ERC20.sol\":11297:11365  require(currentAllowance >= amount, \"ERC20: insufficient allowance\") */\n      tag_285\n      jumpi\n      mload(0x40)\n      0x08c379a000000000000000000000000000000000000000000000000000000000\n      dup2\n      mstore\n      0x04\n      add\n      tag_286\n      swap1\n      tag_287\n      jump\t// in\n    tag_286:\n      mload(0x40)\n      dup1\n      swap2\n      sub\n      swap1\n      revert\n    tag_285:\n        /* \"@openzeppelin/contracts/token/ERC20/ERC20.sol\":11407:11458  _approve(owner, spender, currentAllowance - amount) */\n      tag_288\n        /* \"@openzeppelin/contracts/token/ERC20/ERC20.sol\":11416:11421  owner */\n      dup5\n        /* \"@openzeppelin/contracts/token/ERC20/ERC20.sol\":11423:11430  spender */\n      dup5\n        /* \"@openzeppelin/contracts/token/ERC20/ERC20.sol\":11451:11457  amount */\n      dup5\n        /* \"@openzeppelin/contracts/token/ERC20/ERC20.sol\":11432:11448  currentAllowance */\n      dup5\n        /* \"@openzeppelin/contracts/token/ERC20/ERC20.sol\":11432:11457  currentAllowance - amount */\n      sub\n        /* \"@openzeppelin/contracts/token/ERC20/ERC20.sol\":11407:11415  _approve */\n      tag_154\n        /* \"@openzeppelin/contracts/token/ERC20/ERC20.sol\":11407:11458  _approve(owner, spender, currentAllowance - amount) */\n      jump\t// in\n    tag_288:\n        /* \"@openzeppelin/contracts/token/ERC20/ERC20.sol\":11240:11483  if (currentAllowance != type(uint256).max) {... */\n    tag_284:\n        /* \"@openzeppelin/contracts/token/ERC20/ERC20.sol\":11168:11489  {... */\n      pop\n        /* \"@openzeppelin/contracts/token/ERC20/ERC20.sol\":11078:11489  function _spendAllowance(address owner, address spender, uint256 amount) internal virtual {... */\n      pop\n      pop\n      pop\n      jump\t// out\n        /* \"@openzeppelin/contracts/token/ERC20/ERC20.sol\":7456:8244  function _transfer(address from, address to, uint256 amount) internal virtual {... */\n    tag_173:\n        /* \"@openzeppelin/contracts/token/ERC20/ERC20.sol\":7568:7569  0 */\n      0x00\n        /* \"@openzeppelin/contracts/token/ERC20/ERC20.sol\":7552:7570  from != address(0) */\n      0xffffffffffffffffffffffffffffffffffffffff\n      and\n        /* \"@openzeppelin/contracts/token/ERC20/ERC20.sol\":7552:7556  from */\n      dup4\n        /* \"@openzeppelin/contracts/token/ERC20/ERC20.sol\":7552:7570  from != address(0) */\n      0xffffffffffffffffffffffffffffffffffffffff\n      and\n      sub\n        /* \"@openzeppelin/contracts/token/ERC20/ERC20.sol\":7544:7612  require(from != address(0), \"ERC20: transfer from the zero address\") */\n      tag_290\n      jumpi\n      mload(0x40)\n      0x08c379a000000000000000000000000000000000000000000000000000000000\n      dup2\n      mstore\n      0x04\n      add\n      tag_291\n      swap1\n      tag_292\n      jump\t// in\n    tag_291:\n      mload(0x40)\n      dup1\n      swap2\n      sub\n      swap1\n      revert\n    tag_290:\n        /* \"@openzeppelin/contracts/token/ERC20/ERC20.sol\":7644:7645  0 */\n      0x00\n        /* \"@openzeppelin/contracts/token/ERC20/ERC20.sol\":7630:7646  to != address(0) */\n      0xffffffffffffffffffffffffffffffffffffffff\n      and\n        /* \"@openzeppelin/contracts/token/ERC20/ERC20.sol\":7630:7632  to */\n      dup3\n        /* \"@openzeppelin/contracts/token/ERC20/ERC20.sol\":7630:7646  to != address(0) */\n      0xffffffffffffffffffffffffffffffffffffffff\n      and\n      sub\n        /* \"@openzeppelin/contracts/token/ERC20/ERC20.sol\":7622:7686  require(to != address(0), \"ERC20: transfer to the zero address\") */\n      tag_293\n      jumpi\n      mload(0x40)\n      0x08c379a000000000000000000000000000000000000000000000000000000000\n      dup2\n      mstore\n      0x04\n      add\n      tag_294\n      swap1\n      tag_295\n      jump\t// in\n    tag_294:\n      mload(0x40)\n      dup1\n      swap2\n      sub\n      swap1\n      revert\n    tag_293:\n        /* \"@openzeppelin/contracts/token/ERC20/ERC20.sol\":7697:7735  _beforeTokenTransfer(from, to, amount) */\n      tag_296\n        /* \"@openzeppelin/contracts/token/ERC20/ERC20.sol\":7718:7722  from */\n      dup4\n        /* \"@openzeppelin/contracts/token/ERC20/ERC20.sol\":7724:7726  to */\n      dup4\n        /* \"@openzeppelin/contracts/token/ERC20/ERC20.sol\":7728:7734  amount */\n      dup4\n        /* \"@openzeppelin/contracts/token/ERC20/ERC20.sol\":7697:7717  _beforeTokenTransfer */\n      tag_297\n        /* \"@openzeppelin/contracts/token/ERC20/ERC20.sol\":7697:7735  _beforeTokenTransfer(from, to, amount) */\n      jump\t// in\n    tag_296:\n        /* \"@openzeppelin/contracts/token/ERC20/ERC20.sol\":7746:7765  uint256 fromBalance */\n      0x00\n        /* \"@openzeppelin/contracts/token/ERC20/ERC20.sol\":7768:7777  _balances */\n      dup1\n        /* \"@openzeppelin/contracts/token/ERC20/ERC20.sol\":7768:7783  _balances[from] */\n      0x00\n        /* \"@openzeppelin/contracts/token/ERC20/ERC20.sol\":7778:7782  from */\n      dup6\n        /* \"@openzeppelin/contracts/token/ERC20/ERC20.sol\":7768:7783  _balances[from] */\n      0xffffffffffffffffffffffffffffffffffffffff\n      and\n      0xffffffffffffffffffffffffffffffffffffffff\n      and\n      dup2\n      mstore\n      0x20\n      add\n      swap1\n      dup2\n      mstore\n      0x20\n      add\n      0x00\n      keccak256\n      sload\n        /* \"@openzeppelin/contracts/token/ERC20/ERC20.sol\":7746:7783  uint256 fromBalance = _balances[from] */\n      swap1\n      pop\n        /* \"@openzeppelin/contracts/token/ERC20/ERC20.sol\":7816:7822  amount */\n      dup2\n        /* \"@openzeppelin/contracts/token/ERC20/ERC20.sol\":7801:7812  fromBalance */\n      dup2\n        /* \"@openzeppelin/contracts/token/ERC20/ERC20.sol\":7801:7822  fromBalance >= amount */\n      lt\n      iszero\n        /* \"@openzeppelin/contracts/token/ERC20/ERC20.sol\":7793:7865  require(fromBalance >= amount, \"ERC20: transfer amount exceeds balance\") */\n      tag_298\n      jumpi\n      mload(0x40)\n      0x08c379a000000000000000000000000000000000000000000000000000000000\n      dup2\n      mstore\n      0x04\n      add\n      tag_299\n      swap1\n      tag_300\n      jump\t// in\n    tag_299:\n      mload(0x40)\n      dup1\n      swap2\n      sub\n      swap1\n      revert\n    tag_298:\n        /* \"@openzeppelin/contracts/token/ERC20/ERC20.sol\":7931:7937  amount */\n      dup2\n        /* \"@openzeppelin/contracts/token/ERC20/ERC20.sol\":7917:7928  fromBalance */\n      dup2\n        /* \"@openzeppelin/contracts/token/ERC20/ERC20.sol\":7917:7937  fromBalance - amount */\n      sub\n        /* \"@openzeppelin/contracts/token/ERC20/ERC20.sol\":7899:7908  _balances */\n      0x00\n        /* \"@openzeppelin/contracts/token/ERC20/ERC20.sol\":7899:7914  _balances[from] */\n      dup1\n        /* \"@openzeppelin/contracts/token/ERC20/ERC20.sol\":7909:7913  from */\n      dup7\n        /* \"@openzeppelin/contracts/token/ERC20/ERC20.sol\":7899:7914  _balances[from] */\n      0xffffffffffffffffffffffffffffffffffffffff\n      and\n      0xffffffffffffffffffffffffffffffffffffffff\n      and\n      dup2\n      mstore\n      0x20\n      add\n      swap1\n      dup2\n      mstore\n      0x20\n      add\n      0x00\n      keccak256\n        /* \"@openzeppelin/contracts/token/ERC20/ERC20.sol\":7899:7937  _balances[from] = fromBalance - amount */\n      dup2\n      swap1\n      sstore\n      pop\n        /* \"@openzeppelin/contracts/token/ERC20/ERC20.sol\":8131:8137  amount */\n      dup2\n        /* \"@openzeppelin/contracts/token/ERC20/ERC20.sol\":8114:8123  _balances */\n      0x00\n        /* \"@openzeppelin/contracts/token/ERC20/ERC20.sol\":8114:8127  _balances[to] */\n      dup1\n        /* \"@openzeppelin/contracts/token/ERC20/ERC20.sol\":8124:8126  to */\n      dup6\n        /* \"@openzeppelin/contracts/token/ERC20/ERC20.sol\":8114:8127  _balances[to] */\n      0xffffffffffffffffffffffffffffffffffffffff\n      and\n      0xffffffffffffffffffffffffffffffffffffffff\n      and\n      dup2\n      mstore\n      0x20\n      add\n      swap1\n      dup2\n      mstore\n      0x20\n      add\n      0x00\n      keccak256\n      0x00\n        /* \"@openzeppelin/contracts/token/ERC20/ERC20.sol\":8114:8137  _balances[to] += amount */\n      dup3\n      dup3\n      sload\n      add\n      swap3\n      pop\n      pop\n      dup2\n      swap1\n      sstore\n      pop\n        /* \"@openzeppelin/contracts/token/ERC20/ERC20.sol\":8178:8180  to */\n      dup3\n        /* \"@openzeppelin/contracts/token/ERC20/ERC20.sol\":8163:8189  Transfer(from, to, amount) */\n      0xffffffffffffffffffffffffffffffffffffffff\n      and\n        /* \"@openzeppelin/contracts/token/ERC20/ERC20.sol\":8172:8176  from */\n      dup5\n        /* \"@openzeppelin/contracts/token/ERC20/ERC20.sol\":8163:8189  Transfer(from, to, amount) */\n      0xffffffffffffffffffffffffffffffffffffffff\n      and\n      0xddf252ad1be2c89b69c2b068fc378daa952ba7f163c4a11628f55a4df523b3ef\n        /* \"@openzeppelin/contracts/token/ERC20/ERC20.sol\":8182:8188  amount */\n      dup5\n        /* \"@openzeppelin/contracts/token/ERC20/ERC20.sol\":8163:8189  Transfer(from, to, amount) */\n      mload(0x40)\n      tag_301\n      swap2\n      swap1\n      tag_44\n      jump\t// in\n    tag_301:\n      mload(0x40)\n      dup1\n      swap2\n      sub\n      swap1\n      log3\n        /* \"@openzeppelin/contracts/token/ERC20/ERC20.sol\":8200:8237  _afterTokenTransfer(from, to, amount) */\n      tag_302\n        /* \"@openzeppelin/contracts/token/ERC20/ERC20.sol\":8220:8224  from */\n      dup5\n        /* \"@openzeppelin/contracts/token/ERC20/ERC20.sol\":8226:8228  to */\n      dup5\n        /* \"@openzeppelin/contracts/token/ERC20/ERC20.sol\":8230:8236  amount */\n      dup5\n        /* \"@openzeppelin/contracts/token/ERC20/ERC20.sol\":8200:8219  _afterTokenTransfer */\n      tag_303\n        /* \"@openzeppelin/contracts/token/ERC20/ERC20.sol\":8200:8237  _afterTokenTransfer(from, to, amount) */\n      jump\t// in\n    tag_302:\n        /* \"@openzeppelin/contracts/token/ERC20/ERC20.sol\":7534:8244  {... */\n      pop\n        /* \"@openzeppelin/contracts/token/ERC20/ERC20.sol\":7456:8244  function _transfer(address from, address to, uint256 amount) internal virtual {... */\n      pop\n      pop\n      pop\n      jump\t// out\n        /* \"@openzeppelin/contracts/token/ERC20/ERC20.sol\":8520:9055  function _mint(address account, uint256 amount) internal virtual {... */\n    tag_195:\n        /* \"@openzeppelin/contracts/token/ERC20/ERC20.sol\":8622:8623  0 */\n      0x00\n        /* \"@openzeppelin/contracts/token/ERC20/ERC20.sol\":8603:8624  account != address(0) */\n      0xffffffffffffffffffffffffffffffffffffffff\n      and\n        /* \"@openzeppelin/contracts/token/ERC20/ERC20.sol\":8603:8610  account */\n      dup3\n        /* \"@openzeppelin/contracts/token/ERC20/ERC20.sol\":8603:8624  account != address(0) */\n      0xffffffffffffffffffffffffffffffffffffffff\n      and\n      sub\n        /* \"@openzeppelin/contracts/token/ERC20/ERC20.sol\":8595:8660  require(account != address(0), \"ERC20: mint to the zero address\") */\n      tag_305\n      jumpi\n      mload(0x40)\n      0x08c379a000000000000000000000000000000000000000000000000000000000\n      dup2\n      mstore\n      0x04\n      add\n      tag_306\n      swap1\n      tag_307\n      jump\t// in\n    tag_306:\n      mload(0x40)\n      dup1\n      swap2\n      sub\n      swap1\n      revert\n    tag_305:\n        /* \"@openzeppelin/contracts/token/ERC20/ERC20.sol\":8671:8720  _beforeTokenTransfer(address(0), account, amount) */\n      tag_308\n        /* \"@openzeppelin/contracts/token/ERC20/ERC20.sol\":8700:8701  0 */\n      0x00\n        /* \"@openzeppelin/contracts/token/ERC20/ERC20.sol\":8704:8711  account */\n      dup4\n        /* \"@openzeppelin/contracts/token/ERC20/ERC20.sol\":8713:8719  amount */\n      dup4\n        /* \"@openzeppelin/contracts/token/ERC20/ERC20.sol\":8671:8691  _beforeTokenTransfer */\n      tag_297\n        /* \"@openzeppelin/contracts/token/ERC20/ERC20.sol\":8671:8720  _beforeTokenTransfer(address(0), account, amount) */\n      jump\t// in\n    tag_308:\n        /* \"@openzeppelin/contracts/token/ERC20/ERC20.sol\":8747:8753  amount */\n      dup1\n        /* \"@openzeppelin/contracts/token/ERC20/ERC20.sol\":8731:8743  _totalSupply */\n      0x02\n      0x00\n        /* \"@openzeppelin/contracts/token/ERC20/ERC20.sol\":8731:8753  _totalSupply += amount */\n      dup3\n      dup3\n      sload\n      tag_309\n      swap2\n      swap1\n      tag_180\n      jump\t// in\n    tag_309:\n      swap3\n      pop\n      pop\n      dup2\n      swap1\n      sstore\n      pop\n        /* \"@openzeppelin/contracts/token/ERC20/ERC20.sol\":8921:8927  amount */\n      dup1\n        /* \"@openzeppelin/contracts/token/ERC20/ERC20.sol\":8899:8908  _balances */\n      0x00\n        /* \"@openzeppelin/contracts/token/ERC20/ERC20.sol\":8899:8917  _balances[account] */\n      dup1\n        /* \"@openzeppelin/contracts/token/ERC20/ERC20.sol\":8909:8916  account */\n      dup5\n        /* \"@openzeppelin/contracts/token/ERC20/ERC20.sol\":8899:8917  _balances[account] */\n      0xffffffffffffffffffffffffffffffffffffffff\n      and\n      0xffffffffffffffffffffffffffffffffffffffff\n      and\n      dup2\n      mstore\n      0x20\n      add\n      swap1\n      dup2\n      mstore\n      0x20\n      add\n      0x00\n      keccak256\n      0x00\n        /* \"@openzeppelin/contracts/token/ERC20/ERC20.sol\":8899:8927  _balances[account] += amount */\n      dup3\n      dup3\n      sload\n      add\n      swap3\n      pop\n      pop\n      dup2\n      swap1\n      sstore\n      pop\n        /* \"@openzeppelin/contracts/token/ERC20/ERC20.sol\":8973:8980  account */\n      dup2\n        /* \"@openzeppelin/contracts/token/ERC20/ERC20.sol\":8952:8989  Transfer(address(0), account, amount) */\n      0xffffffffffffffffffffffffffffffffffffffff\n      and\n        /* \"@openzeppelin/contracts/token/ERC20/ERC20.sol\":8969:8970  0 */\n      0x00\n        /* \"@openzeppelin/contracts/token/ERC20/ERC20.sol\":8952:8989  Transfer(address(0), account, amount) */\n      0xffffffffffffffffffffffffffffffffffffffff\n      and\n      0xddf252ad1be2c89b69c2b068fc378daa952ba7f163c4a11628f55a4df523b3ef\n        /* \"@openzeppelin/contracts/token/ERC20/ERC20.sol\":8982:8988  amount */\n      dup4\n        /* \"@openzeppelin/contracts/token/ERC20/ERC20.sol\":8952:8989  Transfer(address(0), account, amount) */\n      mload(0x40)\n      tag_310\n      swap2\n      swap1\n      tag_44\n      jump\t// in\n    tag_310:\n      mload(0x40)\n      dup1\n      swap2\n      sub\n      swap1\n      log3\n        /* \"@openzeppelin/contracts/token/ERC20/ERC20.sol\":9000:9048  _afterTokenTransfer(address(0), account, amount) */\n      tag_311\n        /* \"@openzeppelin/contracts/token/ERC20/ERC20.sol\":9028:9029  0 */\n      0x00\n        /* \"@openzeppelin/contracts/token/ERC20/ERC20.sol\":9032:9039  account */\n      dup4\n        /* \"@openzeppelin/contracts/token/ERC20/ERC20.sol\":9041:9047  amount */\n      dup4\n        /* \"@openzeppelin/contracts/token/ERC20/ERC20.sol\":9000:9019  _afterTokenTransfer */\n      tag_303\n        /* \"@openzeppelin/contracts/token/ERC20/ERC20.sol\":9000:9048  _afterTokenTransfer(address(0), account, amount) */\n      jump\t// in\n    tag_311:\n        /* \"@openzeppelin/contracts/token/ERC20/ERC20.sol\":8520:9055  function _mint(address account, uint256 amount) internal virtual {... */\n      pop\n      pop\n      jump\t// out\n        /* \"@openzeppelin/contracts/token/ERC20/ERC20.sol\":9375:10034  function _burn(address account, uint256 amount) internal virtual {... */\n    tag_250:\n        /* \"@openzeppelin/contracts/token/ERC20/ERC20.sol\":9477:9478  0 */\n      0x00\n        /* \"@openzeppelin/contracts/token/ERC20/ERC20.sol\":9458:9479  account != address(0) */\n      0xffffffffffffffffffffffffffffffffffffffff\n      and\n        /* \"@openzeppelin/contracts/token/ERC20/ERC20.sol\":9458:9465  account */\n      dup3\n        /* \"@openzeppelin/contracts/token/ERC20/ERC20.sol\":9458:9479  account != address(0) */\n      0xffffffffffffffffffffffffffffffffffffffff\n      and\n      sub\n        /* \"@openzeppelin/contracts/token/ERC20/ERC20.sol\":9450:9517  require(account != address(0), \"ERC20: burn from the zero address\") */\n      tag_313\n      jumpi\n      mload(0x40)\n      0x08c379a000000000000000000000000000000000000000000000000000000000\n      dup2\n      mstore\n      0x04\n      add\n      tag_314\n      swap1\n      tag_315\n      jump\t// in\n    tag_314:\n      mload(0x40)\n      dup1\n      swap2\n      sub\n      swap1\n      revert\n    tag_313:\n        /* \"@openzeppelin/contracts/token/ERC20/ERC20.sol\":9528:9577  _beforeTokenTransfer(account, address(0), amount) */\n      tag_316\n        /* \"@openzeppelin/contracts/token/ERC20/ERC20.sol\":9549:9556  account */\n      dup3\n        /* \"@openzeppelin/contracts/token/ERC20/ERC20.sol\":9566:9567  0 */\n      0x00\n        /* \"@openzeppelin/contracts/token/ERC20/ERC20.sol\":9570:9576  amount */\n      dup4\n        /* \"@openzeppelin/contracts/token/ERC20/ERC20.sol\":9528:9548  _beforeTokenTransfer */\n      tag_297\n        /* \"@openzeppelin/contracts/token/ERC20/ERC20.sol\":9528:9577  _beforeTokenTransfer(account, address(0), amount) */\n      jump\t// in\n    tag_316:\n        /* \"@openzeppelin/contracts/token/ERC20/ERC20.sol\":9588:9610  uint256 accountBalance */\n      0x00\n        /* \"@openzeppelin/contracts/token/ERC20/ERC20.sol\":9613:9622  _balances */\n      dup1\n        /* \"@openzeppelin/contracts/token/ERC20/ERC20.sol\":9613:9631  _balances[account] */\n      0x00\n        /* \"@openzeppelin/contracts/token/ERC20/ERC20.sol\":9623:9630  account */\n      dup5\n        /* \"@openzeppelin/contracts/token/ERC20/ERC20.sol\":9613:9631  _balances[account] */\n      0xffffffffffffffffffffffffffffffffffffffff\n      and\n      0xffffffffffffffffffffffffffffffffffffffff\n      and\n      dup2\n      mstore\n      0x20\n      add\n      swap1\n      dup2\n      mstore\n      0x20\n      add\n      0x00\n      keccak256\n      sload\n        /* \"@openzeppelin/contracts/token/ERC20/ERC20.sol\":9588:9631  uint256 accountBalance = _balances[account] */\n      swap1\n      pop\n        /* \"@openzeppelin/contracts/token/ERC20/ERC20.sol\":9667:9673  amount */\n      dup2\n        /* \"@openzeppelin/contracts/token/ERC20/ERC20.sol\":9649:9663  accountBalance */\n      dup2\n        /* \"@openzeppelin/contracts/token/ERC20/ERC20.sol\":9649:9673  accountBalance >= amount */\n      lt\n      iszero\n        /* \"@openzeppelin/contracts/token/ERC20/ERC20.sol\":9641:9712  require(accountBalance >= amount, \"ERC20: burn amount exceeds balance\") */\n      tag_317\n      jumpi\n      mload(0x40)\n      0x08c379a000000000000000000000000000000000000000000000000000000000\n      dup2\n      mstore\n      0x04\n      add\n      tag_318\n      swap1\n      tag_319\n      jump\t// in\n    tag_318:\n      mload(0x40)\n      dup1\n      swap2\n      sub\n      swap1\n      revert\n    tag_317:\n        /* \"@openzeppelin/contracts/token/ERC20/ERC20.sol\":9784:9790  amount */\n      dup2\n        /* \"@openzeppelin/contracts/token/ERC20/ERC20.sol\":9767:9781  accountBalance */\n      dup2\n        /* \"@openzeppelin/contracts/token/ERC20/ERC20.sol\":9767:9790  accountBalance - amount */\n      sub\n        /* \"@openzeppelin/contracts/token/ERC20/ERC20.sol\":9746:9755  _balances */\n      0x00\n        /* \"@openzeppelin/contracts/token/ERC20/ERC20.sol\":9746:9764  _balances[account] */\n      dup1\n        /* \"@openzeppelin/contracts/token/ERC20/ERC20.sol\":9756:9763  account */\n      dup6\n        /* \"@openzeppelin/contracts/token/ERC20/ERC20.sol\":9746:9764  _balances[account] */\n      0xffffffffffffffffffffffffffffffffffffffff\n      and\n      0xffffffffffffffffffffffffffffffffffffffff\n      and\n      dup2\n      mstore\n      0x20\n      add\n      swap1\n      dup2\n      mstore\n      0x20\n      add\n      0x00\n      keccak256\n        /* \"@openzeppelin/contracts/token/ERC20/ERC20.sol\":9746:9790  _balances[account] = accountBalance - amount */\n      dup2\n      swap1\n      sstore\n      pop\n        /* \"@openzeppelin/contracts/token/ERC20/ERC20.sol\":9899:9905  amount */\n      dup2\n        /* \"@openzeppelin/contracts/token/ERC20/ERC20.sol\":9883:9895  _totalSupply */\n      0x02\n      0x00\n        /* \"@openzeppelin/contracts/token/ERC20/ERC20.sol\":9883:9905  _totalSupply -= amount */\n      dup3\n      dup3\n      sload\n      sub\n      swap3\n      pop\n      pop\n      dup2\n      swap1\n      sstore\n      pop\n        /* \"@openzeppelin/contracts/token/ERC20/ERC20.sol\":9957:9958  0 */\n      0x00\n        /* \"@openzeppelin/contracts/token/ERC20/ERC20.sol\":9931:9968  Transfer(account, address(0), amount) */\n      0xffffffffffffffffffffffffffffffffffffffff\n      and\n        /* \"@openzeppelin/contracts/token/ERC20/ERC20.sol\":9940:9947  account */\n      dup4\n        /* \"@openzeppelin/contracts/token/ERC20/ERC20.sol\":9931:9968  Transfer(account, address(0), amount) */\n      0xffffffffffffffffffffffffffffffffffffffff\n      and\n      0xddf252ad1be2c89b69c2b068fc378daa952ba7f163c4a11628f55a4df523b3ef\n        /* \"@openzeppelin/contracts/token/ERC20/ERC20.sol\":9961:9967  amount */\n      dup5\n        /* \"@openzeppelin/contracts/token/ERC20/ERC20.sol\":9931:9968  Transfer(account, address(0), amount) */\n      mload(0x40)\n      tag_320\n      swap2\n      swap1\n      tag_44\n      jump\t// in\n    tag_320:\n      mload(0x40)\n      dup1\n      swap2\n      sub\n      swap1\n      log3\n        /* \"@openzeppelin/contracts/token/ERC20/ERC20.sol\":9979:10027  _afterTokenTransfer(account, address(0), amount) */\n      tag_321\n        /* \"@openzeppelin/contracts/token/ERC20/ERC20.sol\":9999:10006  account */\n      dup4\n        /* \"@openzeppelin/contracts/token/ERC20/ERC20.sol\":10016:10017  0 */\n      0x00\n        /* \"@openzeppelin/contracts/token/ERC20/ERC20.sol\":10020:10026  amount */\n      dup5\n        /* \"@openzeppelin/contracts/token/ERC20/ERC20.sol\":9979:9998  _afterTokenTransfer */\n      tag_303\n        /* \"@openzeppelin/contracts/token/ERC20/ERC20.sol\":9979:10027  _afterTokenTransfer(account, address(0), amount) */\n      jump\t// in\n    tag_321:\n        /* \"@openzeppelin/contracts/token/ERC20/ERC20.sol\":9440:10034  {... */\n      pop\n        /* \"@openzeppelin/contracts/token/ERC20/ERC20.sol\":9375:10034  function _burn(address account, uint256 amount) internal virtual {... */\n      pop\n      pop\n      jump\t// out\n        /* \"@openzeppelin/contracts/token/ERC20/ERC20.sol\":12073:12164  function _beforeTokenTransfer(address from, address to, uint256 amount) internal virtual {} */\n    tag_297:\n      pop\n      pop\n      pop\n      jump\t// out\n        /* \"@openzeppelin/contracts/token/ERC20/ERC20.sol\":12752:12842  function _afterTokenTransfer(address from, address to, uint256 amount) internal virtual {} */\n    tag_303:\n      pop\n      pop\n      pop\n      jump\t// out\n        /* \"#utility.yul\":88:205   */\n    tag_325:\n        /* \"#utility.yul\":197:198   */\n      0x00\n        /* \"#utility.yul\":194:195   */\n      dup1\n        /* \"#utility.yul\":187:199   */\n      revert\n        /* \"#utility.yul\":334:411   */\n    tag_327:\n        /* \"#utility.yul\":371:378   */\n      0x00\n        /* \"#utility.yul\":400:405   */\n      dup2\n        /* \"#utility.yul\":389:405   */\n      swap1\n      pop\n        /* \"#utility.yul\":334:411   */\n      swap2\n      swap1\n      pop\n      jump\t// out\n        /* \"#utility.yul\":417:539   */\n    tag_328:\n        /* \"#utility.yul\":490:514   */\n      tag_390\n        /* \"#utility.yul\":508:513   */\n      dup2\n        /* \"#utility.yul\":490:514   */\n      tag_327\n      jump\t// in\n    tag_390:\n        /* \"#utility.yul\":483:488   */\n      dup2\n        /* \"#utility.yul\":480:515   */\n      eq\n        /* \"#utility.yul\":470:533   */\n      tag_391\n      jumpi\n        /* \"#utility.yul\":529:530   */\n      0x00\n        /* \"#utility.yul\":526:527   */\n      dup1\n        /* \"#utility.yul\":519:531   */\n      revert\n        /* \"#utility.yul\":470:533   */\n    tag_391:\n        /* \"#utility.yul\":417:539   */\n      pop\n      jump\t// out\n        /* \"#utility.yul\":545:684   */\n    tag_329:\n        /* \"#utility.yul\":591:596   */\n      0x00\n        /* \"#utility.yul\":629:635   */\n      dup2\n        /* \"#utility.yul\":616:636   */\n      calldataload\n        /* \"#utility.yul\":607:636   */\n      swap1\n      pop\n        /* \"#utility.yul\":645:678   */\n      tag_393\n        /* \"#utility.yul\":672:677   */\n      dup2\n        /* \"#utility.yul\":645:678   */\n      tag_328\n      jump\t// in\n    tag_393:\n        /* \"#utility.yul\":545:684   */\n      swap3\n      swap2\n      pop\n      pop\n      jump\t// out\n        /* \"#utility.yul\":690:1164   */\n    tag_26:\n        /* \"#utility.yul\":758:764   */\n      0x00\n        /* \"#utility.yul\":766:772   */\n      dup1\n        /* \"#utility.yul\":815:817   */\n      0x40\n        /* \"#utility.yul\":803:812   */\n      dup4\n        /* \"#utility.yul\":794:801   */\n      dup6\n        /* \"#utility.yul\":790:813   */\n      sub\n        /* \"#utility.yul\":786:818   */\n      slt\n        /* \"#utility.yul\":783:902   */\n      iszero\n      tag_395\n      jumpi\n        /* \"#utility.yul\":821:900   */\n      tag_396\n      tag_325\n      jump\t// in\n    tag_396:\n        /* \"#utility.yul\":783:902   */\n    tag_395:\n        /* \"#utility.yul\":941:942   */\n      0x00\n        /* \"#utility.yul\":966:1019   */\n      tag_397\n        /* \"#utility.yul\":1011:1018   */\n      dup6\n        /* \"#utility.yul\":1002:1008   */\n      dup3\n        /* \"#utility.yul\":991:1000   */\n      dup7\n        /* \"#utility.yul\":987:1009   */\n      add\n        /* \"#utility.yul\":966:1019   */\n      tag_329\n      jump\t// in\n    tag_397:\n        /* \"#utility.yul\":956:1019   */\n      swap3\n      pop\n        /* \"#utility.yul\":912:1029   */\n      pop\n        /* \"#utility.yul\":1068:1070   */\n      0x20\n        /* \"#utility.yul\":1094:1147   */\n      tag_398\n        /* \"#utility.yul\":1139:1146   */\n      dup6\n        /* \"#utility.yul\":1130:1136   */\n      dup3\n        /* \"#utility.yul\":1119:1128   */\n      dup7\n        /* \"#utility.yul\":1115:1137   */\n      add\n        /* \"#utility.yul\":1094:1147   */\n      tag_329\n      jump\t// in\n    tag_398:\n        /* \"#utility.yul\":1084:1147   */\n      swap2\n      pop\n        /* \"#utility.yul\":1039:1157   */\n      pop\n        /* \"#utility.yul\":690:1164   */\n      swap3\n      pop\n      swap3\n      swap1\n      pop\n      jump\t// out\n        /* \"#utility.yul\":1170:1269   */\n    tag_330:\n        /* \"#utility.yul\":1222:1228   */\n      0x00\n        /* \"#utility.yul\":1256:1261   */\n      dup2\n        /* \"#utility.yul\":1250:1262   */\n      mload\n        /* \"#utility.yul\":1240:1262   */\n      swap1\n      pop\n        /* \"#utility.yul\":1170:1269   */\n      swap2\n      swap1\n      pop\n      jump\t// out\n        /* \"#utility.yul\":1275:1444   */\n    tag_331:\n        /* \"#utility.yul\":1359:1370   */\n      0x00\n        /* \"#utility.yul\":1393:1399   */\n      dup3\n        /* \"#utility.yul\":1388:1391   */\n      dup3\n        /* \"#utility.yul\":1381:1400   */\n      mstore\n        /* \"#utility.yul\":1433:1437   */\n      0x20\n        /* \"#utility.yul\":1428:1431   */\n      dup3\n        /* \"#utility.yul\":1424:1438   */\n      add\n        /* \"#utility.yul\":1409:1438   */\n      swap1\n      pop\n        /* \"#utility.yul\":1275:1444   */\n      swap3\n      swap2\n      pop\n      pop\n      jump\t// out\n        /* \"#utility.yul\":1450:1696   */\n    tag_332:\n        /* \"#utility.yul\":1531:1532   */\n      0x00\n        /* \"#utility.yul\":1541:1654   */\n    tag_402:\n        /* \"#utility.yul\":1555:1561   */\n      dup4\n        /* \"#utility.yul\":1552:1553   */\n      dup2\n        /* \"#utility.yul\":1549:1562   */\n      lt\n        /* \"#utility.yul\":1541:1654   */\n      iszero\n      tag_404\n      jumpi\n        /* \"#utility.yul\":1640:1641   */\n      dup1\n        /* \"#utility.yul\":1635:1638   */\n      dup3\n        /* \"#utility.yul\":1631:1642   */\n      add\n        /* \"#utility.yul\":1625:1643   */\n      mload\n        /* \"#utility.yul\":1621:1622   */\n      dup2\n        /* \"#utility.yul\":1616:1619   */\n      dup5\n        /* \"#utility.yul\":1612:1623   */\n      add\n        /* \"#utility.yul\":1605:1644   */\n      mstore\n        /* \"#utility.yul\":1577:1579   */\n      0x20\n        /* \"#utility.yul\":1574:1575   */\n      dup2\n        /* \"#utility.yul\":1570:1580   */\n      add\n        /* \"#utility.yul\":1565:1580   */\n      swap1\n      pop\n        /* \"#utility.yul\":1541:1654   */\n      jump(tag_402)\n    tag_404:\n        /* \"#utility.yul\":1688:1689   */\n      0x00\n        /* \"#utility.yul\":1679:1685   */\n      dup5\n        /* \"#utility.yul\":1674:1677   */\n      dup5\n        /* \"#utility.yul\":1670:1686   */\n      add\n        /* \"#utility.yul\":1663:1690   */\n      mstore\n        /* \"#utility.yul\":1512:1696   */\n      pop\n        /* \"#utility.yul\":1450:1696   */\n      pop\n      pop\n      pop\n      jump\t// out\n        /* \"#utility.yul\":1702:1804   */\n    tag_333:\n        /* \"#utility.yul\":1743:1749   */\n      0x00\n        /* \"#utility.yul\":1794:1796   */\n      0x1f\n        /* \"#utility.yul\":1790:1797   */\n      not\n        /* \"#utility.yul\":1785:1787   */\n      0x1f\n        /* \"#utility.yul\":1778:1783   */\n      dup4\n        /* \"#utility.yul\":1774:1788   */\n      add\n        /* \"#utility.yul\":1770:1798   */\n      and\n        /* \"#utility.yul\":1760:1798   */\n      swap1\n      pop\n        /* \"#utility.yul\":1702:1804   */\n      swap2\n      swap1\n      pop\n      jump\t// out\n        /* \"#utility.yul\":1810:2187   */\n    tag_334:\n        /* \"#utility.yul\":1898:1901   */\n      0x00\n        /* \"#utility.yul\":1926:1965   */\n      tag_407\n        /* \"#utility.yul\":1959:1964   */\n      dup3\n        /* \"#utility.yul\":1926:1965   */\n      tag_330\n      jump\t// in\n    tag_407:\n        /* \"#utility.yul\":1981:2052   */\n      tag_408\n        /* \"#utility.yul\":2045:2051   */\n      dup2\n        /* \"#utility.yul\":2040:2043   */\n      dup6\n        /* \"#utility.yul\":1981:2052   */\n      tag_331\n      jump\t// in\n    tag_408:\n        /* \"#utility.yul\":1974:2052   */\n      swap4\n      pop\n        /* \"#utility.yul\":2061:2126   */\n      tag_409\n        /* \"#utility.yul\":2119:2125   */\n      dup2\n        /* \"#utility.yul\":2114:2117   */\n      dup6\n        /* \"#utility.yul\":2107:2111   */\n      0x20\n        /* \"#utility.yul\":2100:2105   */\n      dup7\n        /* \"#utility.yul\":2096:2112   */\n      add\n        /* \"#utility.yul\":2061:2126   */\n      tag_332\n      jump\t// in\n    tag_409:\n        /* \"#utility.yul\":2151:2180   */\n      tag_410\n        /* \"#utility.yul\":2173:2179   */\n      dup2\n        /* \"#utility.yul\":2151:2180   */\n      tag_333\n      jump\t// in\n    tag_410:\n        /* \"#utility.yul\":2146:2149   */\n      dup5\n        /* \"#utility.yul\":2142:2181   */\n      add\n        /* \"#utility.yul\":2135:2181   */\n      swap2\n      pop\n        /* \"#utility.yul\":1902:2187   */\n      pop\n        /* \"#utility.yul\":1810:2187   */\n      swap3\n      swap2\n      pop\n      pop\n      jump\t// out\n        /* \"#utility.yul\":2193:2506   */\n    tag_32:\n        /* \"#utility.yul\":2306:2310   */\n      0x00\n        /* \"#utility.yul\":2344:2346   */\n      0x20\n        /* \"#utility.yul\":2333:2342   */\n      dup3\n        /* \"#utility.yul\":2329:2347   */\n      add\n        /* \"#utility.yul\":2321:2347   */\n      swap1\n      pop\n        /* \"#utility.yul\":2393:2402   */\n      dup2\n        /* \"#utility.yul\":2387:2391   */\n      dup2\n        /* \"#utility.yul\":2383:2403   */\n      sub\n        /* \"#utility.yul\":2379:2380   */\n      0x00\n        /* \"#utility.yul\":2368:2377   */\n      dup4\n        /* \"#utility.yul\":2364:2381   */\n      add\n        /* \"#utility.yul\":2357:2404   */\n      mstore\n        /* \"#utility.yul\":2421:2499   */\n      tag_412\n        /* \"#utility.yul\":2494:2498   */\n      dup2\n        /* \"#utility.yul\":2485:2491   */\n      dup5\n        /* \"#utility.yul\":2421:2499   */\n      tag_334\n      jump\t// in\n    tag_412:\n        /* \"#utility.yul\":2413:2499   */\n      swap1\n      pop\n        /* \"#utility.yul\":2193:2506   */\n      swap3\n      swap2\n      pop\n      pop\n      jump\t// out\n        /* \"#utility.yul\":2512:2638   */\n    tag_335:\n        /* \"#utility.yul\":2549:2556   */\n      0x00\n        /* \"#utility.yul\":2589:2631   */\n      0xffffffffffffffffffffffffffffffffffffffff\n        /* \"#utility.yul\":2582:2587   */\n      dup3\n        /* \"#utility.yul\":2578:2632   */\n      and\n        /* \"#utility.yul\":2567:2632   */\n      swap1\n      pop\n        /* \"#utility.yul\":2512:2638   */\n      swap2\n      swap1\n      pop\n      jump\t// out\n        /* \"#utility.yul\":2644:2740   */\n    tag_336:\n        /* \"#utility.yul\":2681:2688   */\n      0x00\n        /* \"#utility.yul\":2710:2734   */\n      tag_415\n        /* \"#utility.yul\":2728:2733   */\n      dup3\n        /* \"#utility.yul\":2710:2734   */\n      tag_335\n      jump\t// in\n    tag_415:\n        /* \"#utility.yul\":2699:2734   */\n      swap1\n      pop\n        /* \"#utility.yul\":2644:2740   */\n      swap2\n      swap1\n      pop\n      jump\t// out\n        /* \"#utility.yul\":2746:2868   */\n    tag_337:\n        /* \"#utility.yul\":2819:2843   */\n      tag_417\n        /* \"#utility.yul\":2837:2842   */\n      dup2\n        /* \"#utility.yul\":2819:2843   */\n      tag_336\n      jump\t// in\n    tag_417:\n        /* \"#utility.yul\":2812:2817   */\n      dup2\n        /* \"#utility.yul\":2809:2844   */\n      eq\n        /* \"#utility.yul\":2799:2862   */\n      tag_418\n      jumpi\n        /* \"#utility.yul\":2858:2859   */\n      0x00\n        /* \"#utility.yul\":2855:2856   */\n      dup1\n        /* \"#utility.yul\":2848:2860   */\n      revert\n        /* \"#utility.yul\":2799:2862   */\n    tag_418:\n        /* \"#utility.yul\":2746:2868   */\n      pop\n      jump\t// out\n        /* \"#utility.yul\":2874:3013   */\n    tag_338:\n        /* \"#utility.yul\":2920:2925   */\n      0x00\n        /* \"#utility.yul\":2958:2964   */\n      dup2\n        /* \"#utility.yul\":2945:2965   */\n      calldataload\n        /* \"#utility.yul\":2936:2965   */\n      swap1\n      pop\n        /* \"#utility.yul\":2974:3007   */\n      tag_420\n        /* \"#utility.yul\":3001:3006   */\n      dup2\n        /* \"#utility.yul\":2974:3007   */\n      tag_337\n      jump\t// in\n    tag_420:\n        /* \"#utility.yul\":2874:3013   */\n      swap3\n      swap2\n      pop\n      pop\n      jump\t// out\n        /* \"#utility.yul\":3019:3493   */\n    tag_36:\n        /* \"#utility.yul\":3087:3093   */\n      0x00\n        /* \"#utility.yul\":3095:3101   */\n      dup1\n        /* \"#utility.yul\":3144:3146   */\n      0x40\n        /* \"#utility.yul\":3132:3141   */\n      dup4\n        /* \"#utility.yul\":3123:3130   */\n      dup6\n        /* \"#utility.yul\":3119:3142   */\n      sub\n        /* \"#utility.yul\":3115:3147   */\n      slt\n        /* \"#utility.yul\":3112:3231   */\n      iszero\n      tag_422\n      jumpi\n        /* \"#utility.yul\":3150:3229   */\n      tag_423\n      tag_325\n      jump\t// in\n    tag_423:\n        /* \"#utility.yul\":3112:3231   */\n    tag_422:\n        /* \"#utility.yul\":3270:3271   */\n      0x00\n        /* \"#utility.yul\":3295:3348   */\n      tag_424\n        /* \"#utility.yul\":3340:3347   */\n      dup6\n        /* \"#utility.yul\":3331:3337   */\n      dup3\n        /* \"#utility.yul\":3320:3329   */\n      dup7\n        /* \"#utility.yul\":3316:3338   */\n      add\n        /* \"#utility.yul\":3295:3348   */\n      tag_338\n      jump\t// in\n    tag_424:\n        /* \"#utility.yul\":3285:3348   */\n      swap3\n      pop\n        /* \"#utility.yul\":3241:3358   */\n      pop\n        /* \"#utility.yul\":3397:3399   */\n      0x20\n        /* \"#utility.yul\":3423:3476   */\n      tag_425\n        /* \"#utility.yul\":3468:3475   */\n      dup6\n        /* \"#utility.yul\":3459:3465   */\n      dup3\n        /* \"#utility.yul\":3448:3457   */\n      dup7\n        /* \"#utility.yul\":3444:3466   */\n      add\n        /* \"#utility.yul\":3423:3476   */\n      tag_329\n      jump\t// in\n    tag_425:\n        /* \"#utility.yul\":3413:3476   */\n      swap2\n      pop\n        /* \"#utility.yul\":3368:3486   */\n      pop\n        /* \"#utility.yul\":3019:3493   */\n      swap3\n      pop\n      swap3\n      swap1\n      pop\n      jump\t// out\n        /* \"#utility.yul\":3499:3589   */\n    tag_339:\n        /* \"#utility.yul\":3533:3540   */\n      0x00\n        /* \"#utility.yul\":3576:3581   */\n      dup2\n        /* \"#utility.yul\":3569:3582   */\n      iszero\n        /* \"#utility.yul\":3562:3583   */\n      iszero\n        /* \"#utility.yul\":3551:3583   */\n      swap1\n      pop\n        /* \"#utility.yul\":3499:3589   */\n      swap2\n      swap1\n      pop\n      jump\t// out\n        /* \"#utility.yul\":3595:3704   */\n    tag_340:\n        /* \"#utility.yul\":3676:3697   */\n      tag_428\n        /* \"#utility.yul\":3691:3696   */\n      dup2\n        /* \"#utility.yul\":3676:3697   */\n      tag_339\n      jump\t// in\n    tag_428:\n        /* \"#utility.yul\":3671:3674   */\n      dup3\n        /* \"#utility.yul\":3664:3698   */\n      mstore\n        /* \"#utility.yul\":3595:3704   */\n      pop\n      pop\n      jump\t// out\n        /* \"#utility.yul\":3710:3920   */\n    tag_39:\n        /* \"#utility.yul\":3797:3801   */\n      0x00\n        /* \"#utility.yul\":3835:3837   */\n      0x20\n        /* \"#utility.yul\":3824:3833   */\n      dup3\n        /* \"#utility.yul\":3820:3838   */\n      add\n        /* \"#utility.yul\":3812:3838   */\n      swap1\n      pop\n        /* \"#utility.yul\":3848:3913   */\n      tag_430\n        /* \"#utility.yul\":3910:3911   */\n      0x00\n        /* \"#utility.yul\":3899:3908   */\n      dup4\n        /* \"#utility.yul\":3895:3912   */\n      add\n        /* \"#utility.yul\":3886:3892   */\n      dup5\n        /* \"#utility.yul\":3848:3913   */\n      tag_340\n      jump\t// in\n    tag_430:\n        /* \"#utility.yul\":3710:3920   */\n      swap3\n      swap2\n      pop\n      pop\n      jump\t// out\n        /* \"#utility.yul\":3926:4044   */\n    tag_341:\n        /* \"#utility.yul\":4013:4037   */\n      tag_432\n        /* \"#utility.yul\":4031:4036   */\n      dup2\n        /* \"#utility.yul\":4013:4037   */\n      tag_327\n      jump\t// in\n    tag_432:\n        /* \"#utility.yul\":4008:4011   */\n      dup3\n        /* \"#utility.yul\":4001:4038   */\n      mstore\n        /* \"#utility.yul\":3926:4044   */\n      pop\n      pop\n      jump\t// out\n        /* \"#utility.yul\":4050:4272   */\n    tag_44:\n        /* \"#utility.yul\":4143:4147   */\n      0x00\n        /* \"#utility.yul\":4181:4183   */\n      0x20\n        /* \"#utility.yul\":4170:4179   */\n      dup3\n        /* \"#utility.yul\":4166:4184   */\n      add\n        /* \"#utility.yul\":4158:4184   */\n      swap1\n      pop\n        /* \"#utility.yul\":4194:4265   */\n      tag_434\n        /* \"#utility.yul\":4262:4263   */\n      0x00\n        /* \"#utility.yul\":4251:4260   */\n      dup4\n        /* \"#utility.yul\":4247:4264   */\n      add\n        /* \"#utility.yul\":4238:4244   */\n      dup5\n        /* \"#utility.yul\":4194:4265   */\n      tag_341\n      jump\t// in\n    tag_434:\n        /* \"#utility.yul\":4050:4272   */\n      swap3\n      swap2\n      pop\n      pop\n      jump\t// out\n        /* \"#utility.yul\":4278:4607   */\n    tag_47:\n        /* \"#utility.yul\":4337:4343   */\n      0x00\n        /* \"#utility.yul\":4386:4388   */\n      0x20\n        /* \"#utility.yul\":4374:4383   */\n      dup3\n        /* \"#utility.yul\":4365:4372   */\n      dup5\n        /* \"#utility.yul\":4361:4384   */\n      sub\n        /* \"#utility.yul\":4357:4389   */\n      slt\n        /* \"#utility.yul\":4354:4473   */\n      iszero\n      tag_436\n      jumpi\n        /* \"#utility.yul\":4392:4471   */\n      tag_437\n      tag_325\n      jump\t// in\n    tag_437:\n        /* \"#utility.yul\":4354:4473   */\n    tag_436:\n        /* \"#utility.yul\":4512:4513   */\n      0x00\n        /* \"#utility.yul\":4537:4590   */\n      tag_438\n        /* \"#utility.yul\":4582:4589   */\n      dup5\n        /* \"#utility.yul\":4573:4579   */\n      dup3\n        /* \"#utility.yul\":4562:4571   */\n      dup6\n        /* \"#utility.yul\":4558:4580   */\n      add\n        /* \"#utility.yul\":4537:4590   */\n      tag_329\n      jump\t// in\n    tag_438:\n        /* \"#utility.yul\":4527:4590   */\n      swap2\n      pop\n        /* \"#utility.yul\":4483:4600   */\n      pop\n        /* \"#utility.yul\":4278:4607   */\n      swap3\n      swap2\n      pop\n      pop\n      jump\t// out\n        /* \"#utility.yul\":4613:5232   */\n    tag_52:\n        /* \"#utility.yul\":4690:4696   */\n      0x00\n        /* \"#utility.yul\":4698:4704   */\n      dup1\n        /* \"#utility.yul\":4706:4712   */\n      0x00\n        /* \"#utility.yul\":4755:4757   */\n      0x60\n        /* \"#utility.yul\":4743:4752   */\n      dup5\n        /* \"#utility.yul\":4734:4741   */\n      dup7\n        /* \"#utility.yul\":4730:4753   */\n      sub\n        /* \"#utility.yul\":4726:4758   */\n      slt\n        /* \"#utility.yul\":4723:4842   */\n      iszero\n      tag_440\n      jumpi\n        /* \"#utility.yul\":4761:4840   */\n      tag_441\n      tag_325\n      jump\t// in\n    tag_441:\n        /* \"#utility.yul\":4723:4842   */\n    tag_440:\n        /* \"#utility.yul\":4881:4882   */\n      0x00\n        /* \"#utility.yul\":4906:4959   */\n      tag_442\n        /* \"#utility.yul\":4951:4958   */\n      dup7\n        /* \"#utility.yul\":4942:4948   */\n      dup3\n        /* \"#utility.yul\":4931:4940   */\n      dup8\n        /* \"#utility.yul\":4927:4949   */\n      add\n        /* \"#utility.yul\":4906:4959   */\n      tag_338\n      jump\t// in\n    tag_442:\n        /* \"#utility.yul\":4896:4959   */\n      swap4\n      pop\n        /* \"#utility.yul\":4852:4969   */\n      pop\n        /* \"#utility.yul\":5008:5010   */\n      0x20\n        /* \"#utility.yul\":5034:5087   */\n      tag_443\n        /* \"#utility.yul\":5079:5086   */\n      dup7\n        /* \"#utility.yul\":5070:5076   */\n      dup3\n        /* \"#utility.yul\":5059:5068   */\n      dup8\n        /* \"#utility.yul\":5055:5077   */\n      add\n        /* \"#utility.yul\":5034:5087   */\n      tag_338\n      jump\t// in\n    tag_443:\n        /* \"#utility.yul\":5024:5087   */\n      swap3\n      pop\n        /* \"#utility.yul\":4979:5097   */\n      pop\n        /* \"#utility.yul\":5136:5138   */\n      0x40\n        /* \"#utility.yul\":5162:5215   */\n      tag_444\n        /* \"#utility.yul\":5207:5214   */\n      dup7\n        /* \"#utility.yul\":5198:5204   */\n      dup3\n        /* \"#utility.yul\":5187:5196   */\n      dup8\n        /* \"#utility.yul\":5183:5205   */\n      add\n        /* \"#utility.yul\":5162:5215   */\n      tag_329\n      jump\t// in\n    tag_444:\n        /* \"#utility.yul\":5152:5215   */\n      swap2\n      pop\n        /* \"#utility.yul\":5107:5225   */\n      pop\n        /* \"#utility.yul\":4613:5232   */\n      swap3\n      pop\n      swap3\n      pop\n      swap3\n      jump\t// out\n        /* \"#utility.yul\":5238:5324   */\n    tag_342:\n        /* \"#utility.yul\":5273:5280   */\n      0x00\n        /* \"#utility.yul\":5313:5317   */\n      0xff\n        /* \"#utility.yul\":5306:5311   */\n      dup3\n        /* \"#utility.yul\":5302:5318   */\n      and\n        /* \"#utility.yul\":5291:5318   */\n      swap1\n      pop\n        /* \"#utility.yul\":5238:5324   */\n      swap2\n      swap1\n      pop\n      jump\t// out\n        /* \"#utility.yul\":5330:5442   */\n    tag_343:\n        /* \"#utility.yul\":5413:5435   */\n      tag_447\n        /* \"#utility.yul\":5429:5434   */\n      dup2\n        /* \"#utility.yul\":5413:5435   */\n      tag_342\n      jump\t// in\n    tag_447:\n        /* \"#utility.yul\":5408:5411   */\n      dup3\n        /* \"#utility.yul\":5401:5436   */\n      mstore\n        /* \"#utility.yul\":5330:5442   */\n      pop\n      pop\n      jump\t// out\n        /* \"#utility.yul\":5448:5662   */\n    tag_59:\n        /* \"#utility.yul\":5537:5541   */\n      0x00\n        /* \"#utility.yul\":5575:5577   */\n      0x20\n        /* \"#utility.yul\":5564:5573   */\n      dup3\n        /* \"#utility.yul\":5560:5578   */\n      add\n        /* \"#utility.yul\":5552:5578   */\n      swap1\n      pop\n        /* \"#utility.yul\":5588:5655   */\n      tag_449\n        /* \"#utility.yul\":5652:5653   */\n      0x00\n        /* \"#utility.yul\":5641:5650   */\n      dup4\n        /* \"#utility.yul\":5637:5654   */\n      add\n        /* \"#utility.yul\":5628:5634   */\n      dup5\n        /* \"#utility.yul\":5588:5655   */\n      tag_343\n      jump\t// in\n    tag_449:\n        /* \"#utility.yul\":5448:5662   */\n      swap3\n      swap2\n      pop\n      pop\n      jump\t// out\n        /* \"#utility.yul\":5668:5786   */\n    tag_344:\n        /* \"#utility.yul\":5755:5779   */\n      tag_451\n        /* \"#utility.yul\":5773:5778   */\n      dup2\n        /* \"#utility.yul\":5755:5779   */\n      tag_336\n      jump\t// in\n    tag_451:\n        /* \"#utility.yul\":5750:5753   */\n      dup3\n        /* \"#utility.yul\":5743:5780   */\n      mstore\n        /* \"#utility.yul\":5668:5786   */\n      pop\n      pop\n      jump\t// out\n        /* \"#utility.yul\":5792:6014   */\n    tag_69:\n        /* \"#utility.yul\":5885:5889   */\n      0x00\n        /* \"#utility.yul\":5923:5925   */\n      0x20\n        /* \"#utility.yul\":5912:5921   */\n      dup3\n        /* \"#utility.yul\":5908:5926   */\n      add\n        /* \"#utility.yul\":5900:5926   */\n      swap1\n      pop\n        /* \"#utility.yul\":5936:6007   */\n      tag_453\n        /* \"#utility.yul\":6004:6005   */\n      0x00\n        /* \"#utility.yul\":5993:6002   */\n      dup4\n        /* \"#utility.yul\":5989:6006   */\n      add\n        /* \"#utility.yul\":5980:5986   */\n      dup5\n        /* \"#utility.yul\":5936:6007   */\n      tag_344\n      jump\t// in\n    tag_453:\n        /* \"#utility.yul\":5792:6014   */\n      swap3\n      swap2\n      pop\n      pop\n      jump\t// out\n        /* \"#utility.yul\":6020:6349   */\n    tag_81:\n        /* \"#utility.yul\":6079:6085   */\n      0x00\n        /* \"#utility.yul\":6128:6130   */\n      0x20\n        /* \"#utility.yul\":6116:6125   */\n      dup3\n        /* \"#utility.yul\":6107:6114   */\n      dup5\n        /* \"#utility.yul\":6103:6126   */\n      sub\n        /* \"#utility.yul\":6099:6131   */\n      slt\n        /* \"#utility.yul\":6096:6215   */\n      iszero\n      tag_455\n      jumpi\n        /* \"#utility.yul\":6134:6213   */\n      tag_456\n      tag_325\n      jump\t// in\n    tag_456:\n        /* \"#utility.yul\":6096:6215   */\n    tag_455:\n        /* \"#utility.yul\":6254:6255   */\n      0x00\n        /* \"#utility.yul\":6279:6332   */\n      tag_457\n        /* \"#utility.yul\":6324:6331   */\n      dup5\n        /* \"#utility.yul\":6315:6321   */\n      dup3\n        /* \"#utility.yul\":6304:6313   */\n      dup6\n        /* \"#utility.yul\":6300:6322   */\n      add\n        /* \"#utility.yul\":6279:6332   */\n      tag_338\n      jump\t// in\n    tag_457:\n        /* \"#utility.yul\":6269:6332   */\n      swap2\n      pop\n        /* \"#utility.yul\":6225:6342   */\n      pop\n        /* \"#utility.yul\":6020:6349   */\n      swap3\n      swap2\n      pop\n      pop\n      jump\t// out\n        /* \"#utility.yul\":6355:6974   */\n    tag_87:\n        /* \"#utility.yul\":6432:6438   */\n      0x00\n        /* \"#utility.yul\":6440:6446   */\n      dup1\n        /* \"#utility.yul\":6448:6454   */\n      0x00\n        /* \"#utility.yul\":6497:6499   */\n      0x60\n        /* \"#utility.yul\":6485:6494   */\n      dup5\n        /* \"#utility.yul\":6476:6483   */\n      dup7\n        /* \"#utility.yul\":6472:6495   */\n      sub\n        /* \"#utility.yul\":6468:6500   */\n      slt\n        /* \"#utility.yul\":6465:6584   */\n      iszero\n      tag_459\n      jumpi\n        /* \"#utility.yul\":6503:6582   */\n      tag_460\n      tag_325\n      jump\t// in\n    tag_460:\n        /* \"#utility.yul\":6465:6584   */\n    tag_459:\n        /* \"#utility.yul\":6623:6624   */\n      0x00\n        /* \"#utility.yul\":6648:6701   */\n      tag_461\n        /* \"#utility.yul\":6693:6700   */\n      dup7\n        /* \"#utility.yul\":6684:6690   */\n      dup3\n        /* \"#utility.yul\":6673:6682   */\n      dup8\n        /* \"#utility.yul\":6669:6691   */\n      add\n        /* \"#utility.yul\":6648:6701   */\n      tag_329\n      jump\t// in\n    tag_461:\n        /* \"#utility.yul\":6638:6701   */\n      swap4\n      pop\n        /* \"#utility.yul\":6594:6711   */\n      pop\n        /* \"#utility.yul\":6750:6752   */\n      0x20\n        /* \"#utility.yul\":6776:6829   */\n      tag_462\n        /* \"#utility.yul\":6821:6828   */\n      dup7\n        /* \"#utility.yul\":6812:6818   */\n      dup3\n        /* \"#utility.yul\":6801:6810   */\n      dup8\n        /* \"#utility.yul\":6797:6819   */\n      add\n        /* \"#utility.yul\":6776:6829   */\n      tag_329\n      jump\t// in\n    tag_462:\n        /* \"#utility.yul\":6766:6829   */\n      swap3\n      pop\n        /* \"#utility.yul\":6721:6839   */\n      pop\n        /* \"#utility.yul\":6878:6880   */\n      0x40\n        /* \"#utility.yul\":6904:6957   */\n      tag_463\n        /* \"#utility.yul\":6949:6956   */\n      dup7\n        /* \"#utility.yul\":6940:6946   */\n      dup3\n        /* \"#utility.yul\":6929:6938   */\n      dup8\n        /* \"#utility.yul\":6925:6947   */\n      add\n        /* \"#utility.yul\":6904:6957   */\n      tag_329\n      jump\t// in\n    tag_463:\n        /* \"#utility.yul\":6894:6957   */\n      swap2\n      pop\n        /* \"#utility.yul\":6849:6967   */\n      pop\n        /* \"#utility.yul\":6355:6974   */\n      swap3\n      pop\n      swap3\n      pop\n      swap3\n      jump\t// out\n        /* \"#utility.yul\":6980:7312   */\n    tag_99:\n        /* \"#utility.yul\":7101:7105   */\n      0x00\n        /* \"#utility.yul\":7139:7141   */\n      0x40\n        /* \"#utility.yul\":7128:7137   */\n      dup3\n        /* \"#utility.yul\":7124:7142   */\n      add\n        /* \"#utility.yul\":7116:7142   */\n      swap1\n      pop\n        /* \"#utility.yul\":7152:7223   */\n      tag_465\n        /* \"#utility.yul\":7220:7221   */\n      0x00\n        /* \"#utility.yul\":7209:7218   */\n      dup4\n        /* \"#utility.yul\":7205:7222   */\n      add\n        /* \"#utility.yul\":7196:7202   */\n      dup6\n        /* \"#utility.yul\":7152:7223   */\n      tag_341\n      jump\t// in\n    tag_465:\n        /* \"#utility.yul\":7233:7305   */\n      tag_466\n        /* \"#utility.yul\":7301:7303   */\n      0x20\n        /* \"#utility.yul\":7290:7299   */\n      dup4\n        /* \"#utility.yul\":7286:7304   */\n      add\n        /* \"#utility.yul\":7277:7283   */\n      dup5\n        /* \"#utility.yul\":7233:7305   */\n      tag_341\n      jump\t// in\n    tag_466:\n        /* \"#utility.yul\":6980:7312   */\n      swap4\n      swap3\n      pop\n      pop\n      pop\n      jump\t// out\n        /* \"#utility.yul\":7318:7792   */\n    tag_113:\n        /* \"#utility.yul\":7386:7392   */\n      0x00\n        /* \"#utility.yul\":7394:7400   */\n      dup1\n        /* \"#utility.yul\":7443:7445   */\n      0x40\n        /* \"#utility.yul\":7431:7440   */\n      dup4\n        /* \"#utility.yul\":7422:7429   */\n      dup6\n        /* \"#utility.yul\":7418:7441   */\n      sub\n        /* \"#utility.yul\":7414:7446   */\n      slt\n        /* \"#utility.yul\":7411:7530   */\n      iszero\n      tag_468\n      jumpi\n        /* \"#utility.yul\":7449:7528   */\n      tag_469\n      tag_325\n      jump\t// in\n    tag_469:\n        /* \"#utility.yul\":7411:7530   */\n    tag_468:\n        /* \"#utility.yul\":7569:7570   */\n      0x00\n        /* \"#utility.yul\":7594:7647   */\n      tag_470\n        /* \"#utility.yul\":7639:7646   */\n      dup6\n        /* \"#utility.yul\":7630:7636   */\n      dup3\n        /* \"#utility.yul\":7619:7628   */\n      dup7\n        /* \"#utility.yul\":7615:7637   */\n      add\n        /* \"#utility.yul\":7594:7647   */\n      tag_338\n      jump\t// in\n    tag_470:\n        /* \"#utility.yul\":7584:7647   */\n      swap3\n      pop\n        /* \"#utility.yul\":7540:7657   */\n      pop\n        /* \"#utility.yul\":7696:7698   */\n      0x20\n        /* \"#utility.yul\":7722:7775   */\n      tag_471\n        /* \"#utility.yul\":7767:7774   */\n      dup6\n        /* \"#utility.yul\":7758:7764   */\n      dup3\n        /* \"#utility.yul\":7747:7756   */\n      dup7\n        /* \"#utility.yul\":7743:7765   */\n      add\n        /* \"#utility.yul\":7722:7775   */\n      tag_338\n      jump\t// in\n    tag_471:\n        /* \"#utility.yul\":7712:7775   */\n      swap2\n      pop\n        /* \"#utility.yul\":7667:7785   */\n      pop\n        /* \"#utility.yul\":7318:7792   */\n      swap3\n      pop\n      swap3\n      swap1\n      pop\n      jump\t// out\n        /* \"#utility.yul\":7798:8035   */\n    tag_345:\n        /* \"#utility.yul\":7938:7972   */\n      0x496e73756666696369656e74206f757470757420616d6f756e742c2061732070\n        /* \"#utility.yul\":7934:7935   */\n      0x00\n        /* \"#utility.yul\":7926:7932   */\n      dup3\n        /* \"#utility.yul\":7922:7936   */\n      add\n        /* \"#utility.yul\":7915:7973   */\n      mstore\n        /* \"#utility.yul\":8007:8027   */\n      0x6572207768617420796f75206578706563740000000000000000000000000000\n        /* \"#utility.yul\":8002:8004   */\n      0x20\n        /* \"#utility.yul\":7994:8000   */\n      dup3\n        /* \"#utility.yul\":7990:8005   */\n      add\n        /* \"#utility.yul\":7983:8028   */\n      mstore\n        /* \"#utility.yul\":7798:8035   */\n      pop\n      jump\t// out\n        /* \"#utility.yul\":8041:8407   */\n    tag_346:\n        /* \"#utility.yul\":8183:8186   */\n      0x00\n        /* \"#utility.yul\":8204:8271   */\n      tag_474\n        /* \"#utility.yul\":8268:8270   */\n      0x32\n        /* \"#utility.yul\":8263:8266   */\n      dup4\n        /* \"#utility.yul\":8204:8271   */\n      tag_331\n      jump\t// in\n    tag_474:\n        /* \"#utility.yul\":8197:8271   */\n      swap2\n      pop\n        /* \"#utility.yul\":8280:8373   */\n      tag_475\n        /* \"#utility.yul\":8369:8372   */\n      dup3\n        /* \"#utility.yul\":8280:8373   */\n      tag_345\n      jump\t// in\n    tag_475:\n        /* \"#utility.yul\":8398:8400   */\n      0x40\n        /* \"#utility.yul\":8393:8396   */\n      dup3\n        /* \"#utility.yul\":8389:8401   */\n      add\n        /* \"#utility.yul\":8382:8401   */\n      swap1\n      pop\n        /* \"#utility.yul\":8041:8407   */\n      swap2\n      swap1\n      pop\n      jump\t// out\n        /* \"#utility.yul\":8413:8832   */\n    tag_121:\n        /* \"#utility.yul\":8579:8583   */\n      0x00\n        /* \"#utility.yul\":8617:8619   */\n      0x20\n        /* \"#utility.yul\":8606:8615   */\n      dup3\n        /* \"#utility.yul\":8602:8620   */\n      add\n        /* \"#utility.yul\":8594:8620   */\n      swap1\n      pop\n        /* \"#utility.yul\":8666:8675   */\n      dup2\n        /* \"#utility.yul\":8660:8664   */\n      dup2\n        /* \"#utility.yul\":8656:8676   */\n      sub\n        /* \"#utility.yul\":8652:8653   */\n      0x00\n        /* \"#utility.yul\":8641:8650   */\n      dup4\n        /* \"#utility.yul\":8637:8654   */\n      add\n        /* \"#utility.yul\":8630:8677   */\n      mstore\n        /* \"#utility.yul\":8694:8825   */\n      tag_477\n        /* \"#utility.yul\":8820:8824   */\n      dup2\n        /* \"#utility.yul\":8694:8825   */\n      tag_346\n      jump\t// in\n    tag_477:\n        /* \"#utility.yul\":8686:8825   */\n      swap1\n      pop\n        /* \"#utility.yul\":8413:8832   */\n      swap2\n      swap1\n      pop\n      jump\t// out\n        /* \"#utility.yul\":8838:9170   */\n    tag_123:\n        /* \"#utility.yul\":8959:8963   */\n      0x00\n        /* \"#utility.yul\":8997:8999   */\n      0x40\n        /* \"#utility.yul\":8986:8995   */\n      dup3\n        /* \"#utility.yul\":8982:9000   */\n      add\n        /* \"#utility.yul\":8974:9000   */\n      swap1\n      pop\n        /* \"#utility.yul\":9010:9081   */\n      tag_479\n        /* \"#utility.yul\":9078:9079   */\n      0x00\n        /* \"#utility.yul\":9067:9076   */\n      dup4\n        /* \"#utility.yul\":9063:9080   */\n      add\n        /* \"#utility.yul\":9054:9060   */\n      dup6\n        /* \"#utility.yul\":9010:9081   */\n      tag_344\n      jump\t// in\n    tag_479:\n        /* \"#utility.yul\":9091:9163   */\n      tag_480\n        /* \"#utility.yul\":9159:9161   */\n      0x20\n        /* \"#utility.yul\":9148:9157   */\n      dup4\n        /* \"#utility.yul\":9144:9162   */\n      add\n        /* \"#utility.yul\":9135:9141   */\n      dup5\n        /* \"#utility.yul\":9091:9163   */\n      tag_341\n      jump\t// in\n    tag_480:\n        /* \"#utility.yul\":8838:9170   */\n      swap4\n      swap3\n      pop\n      pop\n      pop\n      jump\t// out\n        /* \"#utility.yul\":9176:9292   */\n    tag_347:\n        /* \"#utility.yul\":9246:9267   */\n      tag_482\n        /* \"#utility.yul\":9261:9266   */\n      dup2\n        /* \"#utility.yul\":9246:9267   */\n      tag_339\n      jump\t// in\n    tag_482:\n        /* \"#utility.yul\":9239:9244   */\n      dup2\n        /* \"#utility.yul\":9236:9268   */\n      eq\n        /* \"#utility.yul\":9226:9286   */\n      tag_483\n      jumpi\n        /* \"#utility.yul\":9282:9283   */\n      0x00\n        /* \"#utility.yul\":9279:9280   */\n      dup1\n        /* \"#utility.yul\":9272:9284   */\n      revert\n        /* \"#utility.yul\":9226:9286   */\n    tag_483:\n        /* \"#utility.yul\":9176:9292   */\n      pop\n      jump\t// out\n        /* \"#utility.yul\":9298:9435   */\n    tag_348:\n        /* \"#utility.yul\":9352:9357   */\n      0x00\n        /* \"#utility.yul\":9383:9389   */\n      dup2\n        /* \"#utility.yul\":9377:9390   */\n      mload\n        /* \"#utility.yul\":9368:9390   */\n      swap1\n      pop\n        /* \"#utility.yul\":9399:9429   */\n      tag_485\n        /* \"#utility.yul\":9423:9428   */\n      dup2\n        /* \"#utility.yul\":9399:9429   */\n      tag_347\n      jump\t// in\n    tag_485:\n        /* \"#utility.yul\":9298:9435   */\n      swap3\n      swap2\n      pop\n      pop\n      jump\t// out\n        /* \"#utility.yul\":9441:9786   */\n    tag_127:\n        /* \"#utility.yul\":9508:9514   */\n      0x00\n        /* \"#utility.yul\":9557:9559   */\n      0x20\n        /* \"#utility.yul\":9545:9554   */\n      dup3\n        /* \"#utility.yul\":9536:9543   */\n      dup5\n        /* \"#utility.yul\":9532:9555   */\n      sub\n        /* \"#utility.yul\":9528:9560   */\n      slt\n        /* \"#utility.yul\":9525:9644   */\n      iszero\n      tag_487\n      jumpi\n        /* \"#utility.yul\":9563:9642   */\n      tag_488\n      tag_325\n      jump\t// in\n    tag_488:\n        /* \"#utility.yul\":9525:9644   */\n    tag_487:\n        /* \"#utility.yul\":9683:9684   */\n      0x00\n        /* \"#utility.yul\":9708:9769   */\n      tag_489\n        /* \"#utility.yul\":9761:9768   */\n      dup5\n        /* \"#utility.yul\":9752:9758   */\n      dup3\n        /* \"#utility.yul\":9741:9750   */\n      dup6\n        /* \"#utility.yul\":9737:9759   */\n      add\n        /* \"#utility.yul\":9708:9769   */\n      tag_348\n      jump\t// in\n    tag_489:\n        /* \"#utility.yul\":9698:9769   */\n      swap2\n      pop\n        /* \"#utility.yul\":9654:9779   */\n      pop\n        /* \"#utility.yul\":9441:9786   */\n      swap3\n      swap2\n      pop\n      pop\n      jump\t// out\n        /* \"#utility.yul\":9792:10234   */\n    tag_131:\n        /* \"#utility.yul\":9941:9945   */\n      0x00\n        /* \"#utility.yul\":9979:9981   */\n      0x60\n        /* \"#utility.yul\":9968:9977   */\n      dup3\n        /* \"#utility.yul\":9964:9982   */\n      add\n        /* \"#utility.yul\":9956:9982   */\n      swap1\n      pop\n        /* \"#utility.yul\":9992:10063   */\n      tag_491\n        /* \"#utility.yul\":10060:10061   */\n      0x00\n        /* \"#utility.yul\":10049:10058   */\n      dup4\n        /* \"#utility.yul\":10045:10062   */\n      add\n        /* \"#utility.yul\":10036:10042   */\n      dup7\n        /* \"#utility.yul\":9992:10063   */\n      tag_344\n      jump\t// in\n    tag_491:\n        /* \"#utility.yul\":10073:10145   */\n      tag_492\n        /* \"#utility.yul\":10141:10143   */\n      0x20\n        /* \"#utility.yul\":10130:10139   */\n      dup4\n        /* \"#utility.yul\":10126:10144   */\n      add\n        /* \"#utility.yul\":10117:10123   */\n      dup6\n        /* \"#utility.yul\":10073:10145   */\n      tag_344\n      jump\t// in\n    tag_492:\n        /* \"#utility.yul\":10155:10227   */\n      tag_493\n        /* \"#utility.yul\":10223:10225   */\n      0x40\n        /* \"#utility.yul\":10212:10221   */\n      dup4\n        /* \"#utility.yul\":10208:10226   */\n      add\n        /* \"#utility.yul\":10199:10205   */\n      dup5\n        /* \"#utility.yul\":10155:10227   */\n      tag_341\n      jump\t// in\n    tag_493:\n        /* \"#utility.yul\":9792:10234   */\n      swap5\n      swap4\n      pop\n      pop\n      pop\n      pop\n      jump\t// out\n        /* \"#utility.yul\":10240:10387   */\n    tag_349:\n        /* \"#utility.yul\":10341:10352   */\n      0x00\n        /* \"#utility.yul\":10378:10381   */\n      dup2\n        /* \"#utility.yul\":10363:10381   */\n      swap1\n      pop\n        /* \"#utility.yul\":10240:10387   */\n      swap3\n      swap2\n      pop\n      pop\n      jump\t// out\n        /* \"#utility.yul\":10393:10507   */\n    tag_350:\n      pop\n      jump\t// out\n        /* \"#utility.yul\":10513:10911   */\n    tag_351:\n        /* \"#utility.yul\":10672:10675   */\n      0x00\n        /* \"#utility.yul\":10693:10776   */\n      tag_497\n        /* \"#utility.yul\":10774:10775   */\n      0x00\n        /* \"#utility.yul\":10769:10772   */\n      dup4\n        /* \"#utility.yul\":10693:10776   */\n      tag_349\n      jump\t// in\n    tag_497:\n        /* \"#utility.yul\":10686:10776   */\n      swap2\n      pop\n        /* \"#utility.yul\":10785:10878   */\n      tag_498\n        /* \"#utility.yul\":10874:10877   */\n      dup3\n        /* \"#utility.yul\":10785:10878   */\n      tag_350\n      jump\t// in\n    tag_498:\n        /* \"#utility.yul\":10903:10904   */\n      0x00\n        /* \"#utility.yul\":10898:10901   */\n      dup3\n        /* \"#utility.yul\":10894:10905   */\n      add\n        /* \"#utility.yul\":10887:10905   */\n      swap1\n      pop\n        /* \"#utility.yul\":10513:10911   */\n      swap2\n      swap1\n      pop\n      jump\t// out\n        /* \"#utility.yul\":10917:11296   */\n    tag_137:\n        /* \"#utility.yul\":11101:11104   */\n      0x00\n        /* \"#utility.yul\":11123:11270   */\n      tag_500\n        /* \"#utility.yul\":11266:11269   */\n      dup3\n        /* \"#utility.yul\":11123:11270   */\n      tag_351\n      jump\t// in\n    tag_500:\n        /* \"#utility.yul\":11116:11270   */\n      swap2\n      pop\n        /* \"#utility.yul\":11287:11290   */\n      dup2\n        /* \"#utility.yul\":11280:11290   */\n      swap1\n      pop\n        /* \"#utility.yul\":10917:11296   */\n      swap2\n      swap1\n      pop\n      jump\t// out\n        /* \"#utility.yul\":11302:11471   */\n    tag_352:\n        /* \"#utility.yul\":11442:11463   */\n      0x457468205472616e73666572204661696c656400000000000000000000000000\n        /* \"#utility.yul\":11438:11439   */\n      0x00\n        /* \"#utility.yul\":11430:11436   */\n      dup3\n        /* \"#utility.yul\":11426:11440   */\n      add\n        /* \"#utility.yul\":11419:11464   */\n      mstore\n        /* \"#utility.yul\":11302:11471   */\n      pop\n      jump\t// out\n        /* \"#utility.yul\":11477:11843   */\n    tag_353:\n        /* \"#utility.yul\":11619:11622   */\n      0x00\n        /* \"#utility.yul\":11640:11707   */\n      tag_503\n        /* \"#utility.yul\":11704:11706   */\n      0x13\n        /* \"#utility.yul\":11699:11702   */\n      dup4\n        /* \"#utility.yul\":11640:11707   */\n      tag_331\n      jump\t// in\n    tag_503:\n        /* \"#utility.yul\":11633:11707   */\n      swap2\n      pop\n        /* \"#utility.yul\":11716:11809   */\n      tag_504\n        /* \"#utility.yul\":11805:11808   */\n      dup3\n        /* \"#utility.yul\":11716:11809   */\n      tag_352\n      jump\t// in\n    tag_504:\n        /* \"#utility.yul\":11834:11836   */\n      0x20\n        /* \"#utility.yul\":11829:11832   */\n      dup3\n        /* \"#utility.yul\":11825:11837   */\n      add\n        /* \"#utility.yul\":11818:11837   */\n      swap1\n      pop\n        /* \"#utility.yul\":11477:11843   */\n      swap2\n      swap1\n      pop\n      jump\t// out\n        /* \"#utility.yul\":11849:12268   */\n    tag_143:\n        /* \"#utility.yul\":12015:12019   */\n      0x00\n        /* \"#utility.yul\":12053:12055   */\n      0x20\n        /* \"#utility.yul\":12042:12051   */\n      dup3\n        /* \"#utility.yul\":12038:12056   */\n      add\n        /* \"#utility.yul\":12030:12056   */\n      swap1\n      pop\n        /* \"#utility.yul\":12102:12111   */\n      dup2\n        /* \"#utility.yul\":12096:12100   */\n      dup2\n        /* \"#utility.yul\":12092:12112   */\n      sub\n        /* \"#utility.yul\":12088:12089   */\n      0x00\n        /* \"#utility.yul\":12077:12086   */\n      dup4\n        /* \"#utility.yul\":12073:12090   */\n      add\n        /* \"#utility.yul\":12066:12113   */\n      mstore\n        /* \"#utility.yul\":12130:12261   */\n      tag_506\n        /* \"#utility.yul\":12256:12260   */\n      dup2\n        /* \"#utility.yul\":12130:12261   */\n      tag_353\n      jump\t// in\n    tag_506:\n        /* \"#utility.yul\":12122:12261   */\n      swap1\n      pop\n        /* \"#utility.yul\":11849:12268   */\n      swap2\n      swap1\n      pop\n      jump\t// out\n        /* \"#utility.yul\":12274:12454   */\n    tag_354:\n        /* \"#utility.yul\":12322:12399   */\n      0x4e487b7100000000000000000000000000000000000000000000000000000000\n        /* \"#utility.yul\":12319:12320   */\n      0x00\n        /* \"#utility.yul\":12312:12400   */\n      mstore\n        /* \"#utility.yul\":12419:12423   */\n      0x22\n        /* \"#utility.yul\":12416:12417   */\n      0x04\n        /* \"#utility.yul\":12409:12424   */\n      mstore\n        /* \"#utility.yul\":12443:12447   */\n      0x24\n        /* \"#utility.yul\":12440:12441   */\n      0x00\n        /* \"#utility.yul\":12433:12448   */\n      revert\n        /* \"#utility.yul\":12460:12780   */\n    tag_146:\n        /* \"#utility.yul\":12504:12510   */\n      0x00\n        /* \"#utility.yul\":12541:12542   */\n      0x02\n        /* \"#utility.yul\":12535:12539   */\n      dup3\n        /* \"#utility.yul\":12531:12543   */\n      div\n        /* \"#utility.yul\":12521:12543   */\n      swap1\n      pop\n        /* \"#utility.yul\":12588:12589   */\n      0x01\n        /* \"#utility.yul\":12582:12586   */\n      dup3\n        /* \"#utility.yul\":12578:12590   */\n      and\n        /* \"#utility.yul\":12609:12627   */\n      dup1\n        /* \"#utility.yul\":12599:12680   */\n      tag_509\n      jumpi\n        /* \"#utility.yul\":12665:12669   */\n      0x7f\n        /* \"#utility.yul\":12657:12663   */\n      dup3\n        /* \"#utility.yul\":12653:12670   */\n      and\n        /* \"#utility.yul\":12643:12670   */\n      swap2\n      pop\n        /* \"#utility.yul\":12599:12680   */\n    tag_509:\n        /* \"#utility.yul\":12727:12729   */\n      0x20\n        /* \"#utility.yul\":12719:12725   */\n      dup3\n        /* \"#utility.yul\":12716:12730   */\n      lt\n        /* \"#utility.yul\":12696:12714   */\n      dup2\n        /* \"#utility.yul\":12693:12731   */\n      sub\n        /* \"#utility.yul\":12690:12774   */\n      tag_510\n      jumpi\n        /* \"#utility.yul\":12746:12764   */\n      tag_511\n      tag_354\n      jump\t// in\n    tag_511:\n        /* \"#utility.yul\":12690:12774   */\n    tag_510:\n        /* \"#utility.yul\":12511:12780   */\n      pop\n        /* \"#utility.yul\":12460:12780   */\n      swap2\n      swap1\n      pop\n      jump\t// out\n        /* \"#utility.yul\":12786:12966   */\n    tag_355:\n        /* \"#utility.yul\":12834:12911   */\n      0x4e487b7100000000000000000000000000000000000000000000000000000000\n        /* \"#utility.yul\":12831:12832   */\n      0x00\n        /* \"#utility.yul\":12824:12912   */\n      mstore\n        /* \"#utility.yul\":12931:12935   */\n      0x11\n        /* \"#utility.yul\":12928:12929   */\n      0x04\n        /* \"#utility.yul\":12921:12936   */\n      mstore\n        /* \"#utility.yul\":12955:12959   */\n      0x24\n        /* \"#utility.yul\":12952:12953   */\n      0x00\n        /* \"#utility.yul\":12945:12960   */\n      revert\n        /* \"#utility.yul\":12972:13166   */\n    tag_160:\n        /* \"#utility.yul\":13012:13016   */\n      0x00\n        /* \"#utility.yul\":13032:13052   */\n      tag_514\n        /* \"#utility.yul\":13050:13051   */\n      dup3\n        /* \"#utility.yul\":13032:13052   */\n      tag_327\n      jump\t// in\n    tag_514:\n        /* \"#utility.yul\":13027:13052   */\n      swap2\n      pop\n        /* \"#utility.yul\":13066:13086   */\n      tag_515\n        /* \"#utility.yul\":13084:13085   */\n      dup4\n        /* \"#utility.yul\":13066:13086   */\n      tag_327\n      jump\t// in\n    tag_515:\n        /* \"#utility.yul\":13061:13086   */\n      swap3\n      pop\n        /* \"#utility.yul\":13110:13111   */\n      dup3\n        /* \"#utility.yul\":13107:13108   */\n      dup3\n        /* \"#utility.yul\":13103:13112   */\n      sub\n        /* \"#utility.yul\":13095:13112   */\n      swap1\n      pop\n        /* \"#utility.yul\":13134:13135   */\n      dup2\n        /* \"#utility.yul\":13128:13132   */\n      dup2\n        /* \"#utility.yul\":13125:13136   */\n      gt\n        /* \"#utility.yul\":13122:13159   */\n      iszero\n      tag_516\n      jumpi\n        /* \"#utility.yul\":13139:13157   */\n      tag_517\n      tag_355\n      jump\t// in\n    tag_517:\n        /* \"#utility.yul\":13122:13159   */\n    tag_516:\n        /* \"#utility.yul\":12972:13166   */\n      swap3\n      swap2\n      pop\n      pop\n      jump\t// out\n        /* \"#utility.yul\":13172:13363   */\n    tag_180:\n        /* \"#utility.yul\":13212:13215   */\n      0x00\n        /* \"#utility.yul\":13231:13251   */\n      tag_519\n        /* \"#utility.yul\":13249:13250   */\n      dup3\n        /* \"#utility.yul\":13231:13251   */\n      tag_327\n      jump\t// in\n    tag_519:\n        /* \"#utility.yul\":13226:13251   */\n      swap2\n      pop\n        /* \"#utility.yul\":13265:13285   */\n      tag_520\n        /* \"#utility.yul\":13283:13284   */\n      dup4\n        /* \"#utility.yul\":13265:13285   */\n      tag_327\n      jump\t// in\n    tag_520:\n        /* \"#utility.yul\":13260:13285   */\n      swap3\n      pop\n        /* \"#utility.yul\":13308:13309   */\n      dup3\n        /* \"#utility.yul\":13305:13306   */\n      dup3\n        /* \"#utility.yul\":13301:13310   */\n      add\n        /* \"#utility.yul\":13294:13310   */\n      swap1\n      pop\n        /* \"#utility.yul\":13329:13332   */\n      dup1\n        /* \"#utility.yul\":13326:13327   */\n      dup3\n        /* \"#utility.yul\":13323:13333   */\n      gt\n        /* \"#utility.yul\":13320:13356   */\n      iszero\n      tag_521\n      jumpi\n        /* \"#utility.yul\":13336:13354   */\n      tag_522\n      tag_355\n      jump\t// in\n    tag_522:\n        /* \"#utility.yul\":13320:13356   */\n    tag_521:\n        /* \"#utility.yul\":13172:13363   */\n      swap3\n      swap2\n      pop\n      pop\n      jump\t// out\n        /* \"#utility.yul\":13369:13549   */\n    tag_356:\n        /* \"#utility.yul\":13417:13494   */\n      0x4e487b7100000000000000000000000000000000000000000000000000000000\n        /* \"#utility.yul\":13414:13415   */\n      0x00\n        /* \"#utility.yul\":13407:13495   */\n      mstore\n        /* \"#utility.yul\":13514:13518   */\n      0x12\n        /* \"#utility.yul\":13511:13512   */\n      0x04\n        /* \"#utility.yul\":13504:13519   */\n      mstore\n        /* \"#utility.yul\":13538:13542   */\n      0x24\n        /* \"#utility.yul\":13535:13536   */\n      0x00\n        /* \"#utility.yul\":13528:13543   */\n      revert\n        /* \"#utility.yul\":13555:13740   */\n    tag_199:\n        /* \"#utility.yul\":13595:13596   */\n      0x00\n        /* \"#utility.yul\":13612:13632   */\n      tag_525\n        /* \"#utility.yul\":13630:13631   */\n      dup3\n        /* \"#utility.yul\":13612:13632   */\n      tag_327\n      jump\t// in\n    tag_525:\n        /* \"#utility.yul\":13607:13632   */\n      swap2\n      pop\n        /* \"#utility.yul\":13646:13666   */\n      tag_526\n        /* \"#utility.yul\":13664:13665   */\n      dup4\n        /* \"#utility.yul\":13646:13666   */\n      tag_327\n      jump\t// in\n    tag_526:\n        /* \"#utility.yul\":13641:13666   */\n      swap3\n      pop\n        /* \"#utility.yul\":13685:13686   */\n      dup3\n        /* \"#utility.yul\":13675:13710   */\n      tag_527\n      jumpi\n        /* \"#utility.yul\":13690:13708   */\n      tag_528\n      tag_356\n      jump\t// in\n    tag_528:\n        /* \"#utility.yul\":13675:13710   */\n    tag_527:\n        /* \"#utility.yul\":13732:13733   */\n      dup3\n        /* \"#utility.yul\":13729:13730   */\n      dup3\n        /* \"#utility.yul\":13725:13734   */\n      div\n        /* \"#utility.yul\":13720:13734   */\n      swap1\n      pop\n        /* \"#utility.yul\":13555:13740   */\n      swap3\n      swap2\n      pop\n      pop\n      jump\t// out\n        /* \"#utility.yul\":13746:14156   */\n    tag_201:\n        /* \"#utility.yul\":13786:13793   */\n      0x00\n        /* \"#utility.yul\":13809:13829   */\n      tag_530\n        /* \"#utility.yul\":13827:13828   */\n      dup3\n        /* \"#utility.yul\":13809:13829   */\n      tag_327\n      jump\t// in\n    tag_530:\n        /* \"#utility.yul\":13804:13829   */\n      swap2\n      pop\n        /* \"#utility.yul\":13843:13863   */\n      tag_531\n        /* \"#utility.yul\":13861:13862   */\n      dup4\n        /* \"#utility.yul\":13843:13863   */\n      tag_327\n      jump\t// in\n    tag_531:\n        /* \"#utility.yul\":13838:13863   */\n      swap3\n      pop\n        /* \"#utility.yul\":13898:13899   */\n      dup3\n        /* \"#utility.yul\":13895:13896   */\n      dup3\n        /* \"#utility.yul\":13891:13900   */\n      mul\n        /* \"#utility.yul\":13920:13950   */\n      tag_532\n        /* \"#utility.yul\":13938:13949   */\n      dup2\n        /* \"#utility.yul\":13920:13950   */\n      tag_327\n      jump\t// in\n    tag_532:\n        /* \"#utility.yul\":13909:13950   */\n      swap2\n      pop\n        /* \"#utility.yul\":14099:14100   */\n      dup3\n        /* \"#utility.yul\":14090:14097   */\n      dup3\n        /* \"#utility.yul\":14086:14101   */\n      div\n        /* \"#utility.yul\":14083:14084   */\n      dup5\n        /* \"#utility.yul\":14080:14102   */\n      eq\n        /* \"#utility.yul\":14060:14061   */\n      dup4\n        /* \"#utility.yul\":14053:14062   */\n      iszero\n        /* \"#utility.yul\":14033:14116   */\n      or\n        /* \"#utility.yul\":14010:14149   */\n      tag_533\n      jumpi\n        /* \"#utility.yul\":14129:14147   */\n      tag_534\n      tag_355\n      jump\t// in\n    tag_534:\n        /* \"#utility.yul\":14010:14149   */\n    tag_533:\n        /* \"#utility.yul\":13794:14156   */\n      pop\n        /* \"#utility.yul\":13746:14156   */\n      swap3\n      swap2\n      pop\n      pop\n      jump\t// out\n        /* \"#utility.yul\":14162:14411   */\n    tag_357:\n        /* \"#utility.yul\":14302:14336   */\n      0x416d6f756e74206f6620746f6b656e732073656e74206973206c657373207468\n        /* \"#utility.yul\":14298:14299   */\n      0x00\n        /* \"#utility.yul\":14290:14296   */\n      dup3\n        /* \"#utility.yul\":14286:14300   */\n      add\n        /* \"#utility.yul\":14279:14337   */\n      mstore\n        /* \"#utility.yul\":14371:14403   */\n      0x616e20746865206d696e696d756d20746f6b656e732072657175697265640000\n        /* \"#utility.yul\":14366:14368   */\n      0x20\n        /* \"#utility.yul\":14358:14364   */\n      dup3\n        /* \"#utility.yul\":14354:14369   */\n      add\n        /* \"#utility.yul\":14347:14404   */\n      mstore\n        /* \"#utility.yul\":14162:14411   */\n      pop\n      jump\t// out\n        /* \"#utility.yul\":14417:14783   */\n    tag_358:\n        /* \"#utility.yul\":14559:14562   */\n      0x00\n        /* \"#utility.yul\":14580:14647   */\n      tag_537\n        /* \"#utility.yul\":14644:14646   */\n      0x3e\n        /* \"#utility.yul\":14639:14642   */\n      dup4\n        /* \"#utility.yul\":14580:14647   */\n      tag_331\n      jump\t// in\n    tag_537:\n        /* \"#utility.yul\":14573:14647   */\n      swap2\n      pop\n        /* \"#utility.yul\":14656:14749   */\n      tag_538\n        /* \"#utility.yul\":14745:14748   */\n      dup3\n        /* \"#utility.yul\":14656:14749   */\n      tag_357\n      jump\t// in\n    tag_538:\n        /* \"#utility.yul\":14774:14776   */\n      0x40\n        /* \"#utility.yul\":14769:14772   */\n      dup3\n        /* \"#utility.yul\":14765:14777   */\n      add\n        /* \"#utility.yul\":14758:14777   */\n      swap1\n      pop\n        /* \"#utility.yul\":14417:14783   */\n      swap2\n      swap1\n      pop\n      jump\t// out\n        /* \"#utility.yul\":14789:15208   */\n    tag_204:\n        /* \"#utility.yul\":14955:14959   */\n      0x00\n        /* \"#utility.yul\":14993:14995   */\n      0x20\n        /* \"#utility.yul\":14982:14991   */\n      dup3\n        /* \"#utility.yul\":14978:14996   */\n      add\n        /* \"#utility.yul\":14970:14996   */\n      swap1\n      pop\n        /* \"#utility.yul\":15042:15051   */\n      dup2\n        /* \"#utility.yul\":15036:15040   */\n      dup2\n        /* \"#utility.yul\":15032:15052   */\n      sub\n        /* \"#utility.yul\":15028:15029   */\n      0x00\n        /* \"#utility.yul\":15017:15026   */\n      dup4\n        /* \"#utility.yul\":15013:15030   */\n      add\n        /* \"#utility.yul\":15006:15053   */\n      mstore\n        /* \"#utility.yul\":15070:15201   */\n      tag_540\n        /* \"#utility.yul\":15196:15200   */\n      dup2\n        /* \"#utility.yul\":15070:15201   */\n      tag_358\n      jump\t// in\n    tag_540:\n        /* \"#utility.yul\":15062:15201   */\n      swap1\n      pop\n        /* \"#utility.yul\":14789:15208   */\n      swap2\n      swap1\n      pop\n      jump\t// out\n        /* \"#utility.yul\":15214:15357   */\n    tag_359:\n        /* \"#utility.yul\":15271:15276   */\n      0x00\n        /* \"#utility.yul\":15302:15308   */\n      dup2\n        /* \"#utility.yul\":15296:15309   */\n      mload\n        /* \"#utility.yul\":15287:15309   */\n      swap1\n      pop\n        /* \"#utility.yul\":15318:15351   */\n      tag_542\n        /* \"#utility.yul\":15345:15350   */\n      dup2\n        /* \"#utility.yul\":15318:15351   */\n      tag_328\n      jump\t// in\n    tag_542:\n        /* \"#utility.yul\":15214:15357   */\n      swap3\n      swap2\n      pop\n      pop\n      jump\t// out\n        /* \"#utility.yul\":15363:15714   */\n    tag_220:\n        /* \"#utility.yul\":15433:15439   */\n      0x00\n        /* \"#utility.yul\":15482:15484   */\n      0x20\n        /* \"#utility.yul\":15470:15479   */\n      dup3\n        /* \"#utility.yul\":15461:15468   */\n      dup5\n        /* \"#utility.yul\":15457:15480   */\n      sub\n        /* \"#utility.yul\":15453:15485   */\n      slt\n        /* \"#utility.yul\":15450:15569   */\n      iszero\n      tag_544\n      jumpi\n        /* \"#utility.yul\":15488:15567   */\n      tag_545\n      tag_325\n      jump\t// in\n    tag_545:\n        /* \"#utility.yul\":15450:15569   */\n    tag_544:\n        /* \"#utility.yul\":15608:15609   */\n      0x00\n        /* \"#utility.yul\":15633:15697   */\n      tag_546\n        /* \"#utility.yul\":15689:15696   */\n      dup5\n        /* \"#utility.yul\":15680:15686   */\n      dup3\n        /* \"#utility.yul\":15669:15678   */\n      dup6\n        /* \"#utility.yul\":15665:15687   */\n      add\n        /* \"#utility.yul\":15633:15697   */\n      tag_359\n      jump\t// in\n    tag_546:\n        /* \"#utility.yul\":15623:15697   */\n      swap2\n      pop\n        /* \"#utility.yul\":15579:15707   */\n      pop\n        /* \"#utility.yul\":15363:15714   */\n      swap3\n      swap2\n      pop\n      pop\n      jump\t// out\n        /* \"#utility.yul\":15720:15886   */\n    tag_360:\n        /* \"#utility.yul\":15860:15878   */\n      0x496e76616c696420726573657276657300000000000000000000000000000000\n        /* \"#utility.yul\":15856:15857   */\n      0x00\n        /* \"#utility.yul\":15848:15854   */\n      dup3\n        /* \"#utility.yul\":15844:15858   */\n      add\n        /* \"#utility.yul\":15837:15879   */\n      mstore\n        /* \"#utility.yul\":15720:15886   */\n      pop\n      jump\t// out\n        /* \"#utility.yul\":15892:16258   */\n    tag_361:\n        /* \"#utility.yul\":16034:16037   */\n      0x00\n        /* \"#utility.yul\":16055:16122   */\n      tag_549\n        /* \"#utility.yul\":16119:16121   */\n      0x10\n        /* \"#utility.yul\":16114:16117   */\n      dup4\n        /* \"#utility.yul\":16055:16122   */\n      tag_331\n      jump\t// in\n    tag_549:\n        /* \"#utility.yul\":16048:16122   */\n      swap2\n      pop\n        /* \"#utility.yul\":16131:16224   */\n      tag_550\n        /* \"#utility.yul\":16220:16223   */\n      dup3\n        /* \"#utility.yul\":16131:16224   */\n      tag_360\n      jump\t// in\n    tag_550:\n        /* \"#utility.yul\":16249:16251   */\n      0x20\n        /* \"#utility.yul\":16244:16247   */\n      dup3\n        /* \"#utility.yul\":16240:16252   */\n      add\n        /* \"#utility.yul\":16233:16252   */\n      swap1\n      pop\n        /* \"#utility.yul\":15892:16258   */\n      swap2\n      swap1\n      pop\n      jump\t// out\n        /* \"#utility.yul\":16264:16683   */\n    tag_226:\n        /* \"#utility.yul\":16430:16434   */\n      0x00\n        /* \"#utility.yul\":16468:16470   */\n      0x20\n        /* \"#utility.yul\":16457:16466   */\n      dup3\n        /* \"#utility.yul\":16453:16471   */\n      add\n        /* \"#utility.yul\":16445:16471   */\n      swap1\n      pop\n        /* \"#utility.yul\":16517:16526   */\n      dup2\n        /* \"#utility.yul\":16511:16515   */\n      dup2\n        /* \"#utility.yul\":16507:16527   */\n      sub\n        /* \"#utility.yul\":16503:16504   */\n      0x00\n        /* \"#utility.yul\":16492:16501   */\n      dup4\n        /* \"#utility.yul\":16488:16505   */\n      add\n        /* \"#utility.yul\":16481:16528   */\n      mstore\n        /* \"#utility.yul\":16545:16676   */\n      tag_552\n        /* \"#utility.yul\":16671:16675   */\n      dup2\n        /* \"#utility.yul\":16545:16676   */\n      tag_361\n      jump\t// in\n    tag_552:\n        /* \"#utility.yul\":16537:16676   */\n      swap1\n      pop\n        /* \"#utility.yul\":16264:16683   */\n      swap2\n      swap1\n      pop\n      jump\t// out\n        /* \"#utility.yul\":16689:16911   */\n    tag_362:\n        /* \"#utility.yul\":16829:16863   */\n      0x5f616d6f756e742073686f756c642062652067726561746572207468616e207a\n        /* \"#utility.yul\":16825:16826   */\n      0x00\n        /* \"#utility.yul\":16817:16823   */\n      dup3\n        /* \"#utility.yul\":16813:16827   */\n      add\n        /* \"#utility.yul\":16806:16864   */\n      mstore\n        /* \"#utility.yul\":16898:16903   */\n      0x65726f0000000000000000000000000000000000000000000000000000000000\n        /* \"#utility.yul\":16893:16895   */\n      0x20\n        /* \"#utility.yul\":16885:16891   */\n      dup3\n        /* \"#utility.yul\":16881:16896   */\n      add\n        /* \"#utility.yul\":16874:16904   */\n      mstore\n        /* \"#utility.yul\":16689:16911   */\n      pop\n      jump\t// out\n        /* \"#utility.yul\":16917:17283   */\n    tag_363:\n        /* \"#utility.yul\":17059:17062   */\n      0x00\n        /* \"#utility.yul\":17080:17147   */\n      tag_555\n        /* \"#utility.yul\":17144:17146   */\n      0x23\n        /* \"#utility.yul\":17139:17142   */\n      dup4\n        /* \"#utility.yul\":17080:17147   */\n      tag_331\n      jump\t// in\n    tag_555:\n        /* \"#utility.yul\":17073:17147   */\n      swap2\n      pop\n        /* \"#utility.yul\":17156:17249   */\n      tag_556\n        /* \"#utility.yul\":17245:17248   */\n      dup3\n        /* \"#utility.yul\":17156:17249   */\n      tag_362\n      jump\t// in\n    tag_556:\n        /* \"#utility.yul\":17274:17276   */\n      0x40\n        /* \"#utility.yul\":17269:17272   */\n      dup3\n        /* \"#utility.yul\":17265:17277   */\n      add\n        /* \"#utility.yul\":17258:17277   */\n      swap1\n      pop\n        /* \"#utility.yul\":16917:17283   */\n      swap2\n      swap1\n      pop\n      jump\t// out\n        /* \"#utility.yul\":17289:17708   */\n    tag_241:\n        /* \"#utility.yul\":17455:17459   */\n      0x00\n        /* \"#utility.yul\":17493:17495   */\n      0x20\n        /* \"#utility.yul\":17482:17491   */\n      dup3\n        /* \"#utility.yul\":17478:17496   */\n      add\n        /* \"#utility.yul\":17470:17496   */\n      swap1\n      pop\n        /* \"#utility.yul\":17542:17551   */\n      dup2\n        /* \"#utility.yul\":17536:17540   */\n      dup2\n        /* \"#utility.yul\":17532:17552   */\n      sub\n        /* \"#utility.yul\":17528:17529   */\n      0x00\n        /* \"#utility.yul\":17517:17526   */\n      dup4\n        /* \"#utility.yul\":17513:17530   */\n      add\n        /* \"#utility.yul\":17506:17553   */\n      mstore\n        /* \"#utility.yul\":17570:17701   */\n      tag_558\n        /* \"#utility.yul\":17696:17700   */\n      dup2\n        /* \"#utility.yul\":17570:17701   */\n      tag_363\n      jump\t// in\n    tag_558:\n        /* \"#utility.yul\":17562:17701   */\n      swap1\n      pop\n        /* \"#utility.yul\":17289:17708   */\n      swap2\n      swap1\n      pop\n      jump\t// out\n        /* \"#utility.yul\":17714:17938   */\n    tag_364:\n        /* \"#utility.yul\":17854:17888   */\n      0x45524332303a2064656372656173656420616c6c6f77616e63652062656c6f77\n        /* \"#utility.yul\":17850:17851   */\n      0x00\n        /* \"#utility.yul\":17842:17848   */\n      dup3\n        /* \"#utility.yul\":17838:17852   */\n      add\n        /* \"#utility.yul\":17831:17889   */\n      mstore\n        /* \"#utility.yul\":17923:17930   */\n      0x207a65726f000000000000000000000000000000000000000000000000000000\n        /* \"#utility.yul\":17918:17920   */\n      0x20\n        /* \"#utility.yul\":17910:17916   */\n      dup3\n        /* \"#utility.yul\":17906:17921   */\n      add\n        /* \"#utility.yul\":17899:17931   */\n      mstore\n        /* \"#utility.yul\":17714:17938   */\n      pop\n      jump\t// out\n        /* \"#utility.yul\":17944:18310   */\n    tag_365:\n        /* \"#utility.yul\":18086:18089   */\n      0x00\n        /* \"#utility.yul\":18107:18174   */\n      tag_561\n        /* \"#utility.yul\":18171:18173   */\n      0x25\n        /* \"#utility.yul\":18166:18169   */\n      dup4\n        /* \"#utility.yul\":18107:18174   */\n      tag_331\n      jump\t// in\n    tag_561:\n        /* \"#utility.yul\":18100:18174   */\n      swap2\n      pop\n        /* \"#utility.yul\":18183:18276   */\n      tag_562\n        /* \"#utility.yul\":18272:18275   */\n      dup3\n        /* \"#utility.yul\":18183:18276   */\n      tag_364\n      jump\t// in\n    tag_562:\n        /* \"#utility.yul\":18301:18303   */\n      0x40\n        /* \"#utility.yul\":18296:18299   */\n      dup3\n        /* \"#utility.yul\":18292:18304   */\n      add\n        /* \"#utility.yul\":18285:18304   */\n      swap1\n      pop\n        /* \"#utility.yul\":17944:18310   */\n      swap2\n      swap1\n      pop\n      jump\t// out\n        /* \"#utility.yul\":18316:18735   */\n    tag_267:\n        /* \"#utility.yul\":18482:18486   */\n      0x00\n        /* \"#utility.yul\":18520:18522   */\n      0x20\n        /* \"#utility.yul\":18509:18518   */\n      dup3\n        /* \"#utility.yul\":18505:18523   */\n      add\n        /* \"#utility.yul\":18497:18523   */\n      swap1\n      pop\n        /* \"#utility.yul\":18569:18578   */\n      dup2\n        /* \"#utility.yul\":18563:18567   */\n      dup2\n        /* \"#utility.yul\":18559:18579   */\n      sub\n        /* \"#utility.yul\":18555:18556   */\n      0x00\n        /* \"#utility.yul\":18544:18553   */\n      dup4\n        /* \"#utility.yul\":18540:18557   */\n      add\n        /* \"#utility.yul\":18533:18580   */\n      mstore\n        /* \"#utility.yul\":18597:18728   */\n      tag_564\n        /* \"#utility.yul\":18723:18727   */\n      dup2\n        /* \"#utility.yul\":18597:18728   */\n      tag_365\n      jump\t// in\n    tag_564:\n        /* \"#utility.yul\":18589:18728   */\n      swap1\n      pop\n        /* \"#utility.yul\":18316:18735   */\n      swap2\n      swap1\n      pop\n      jump\t// out\n        /* \"#utility.yul\":18741:18964   */\n    tag_366:\n        /* \"#utility.yul\":18881:18915   */\n      0x45524332303a20617070726f76652066726f6d20746865207a65726f20616464\n        /* \"#utility.yul\":18877:18878   */\n      0x00\n        /* \"#utility.yul\":18869:18875   */\n      dup3\n        /* \"#utility.yul\":18865:18879   */\n      add\n        /* \"#utility.yul\":18858:18916   */\n      mstore\n        /* \"#utility.yul\":18950:18956   */\n      0x7265737300000000000000000000000000000000000000000000000000000000\n        /* \"#utility.yul\":18945:18947   */\n      0x20\n        /* \"#utility.yul\":18937:18943   */\n      dup3\n        /* \"#utility.yul\":18933:18948   */\n      add\n        /* \"#utility.yul\":18926:18957   */\n      mstore\n        /* \"#utility.yul\":18741:18964   */\n      pop\n      jump\t// out\n        /* \"#utility.yul\":18970:19336   */\n    tag_367:\n        /* \"#utility.yul\":19112:19115   */\n      0x00\n        /* \"#utility.yul\":19133:19200   */\n      tag_567\n        /* \"#utility.yul\":19197:19199   */\n      0x24\n        /* \"#utility.yul\":19192:19195   */\n      dup4\n        /* \"#utility.yul\":19133:19200   */\n      tag_331\n      jump\t// in\n    tag_567:\n        /* \"#utility.yul\":19126:19200   */\n      swap2\n      pop\n        /* \"#utility.yul\":19209:19302   */\n      tag_568\n        /* \"#utility.yul\":19298:19301   */\n      dup3\n        /* \"#utility.yul\":19209:19302   */\n      tag_366\n      jump\t// in\n    tag_568:\n        /* \"#utility.yul\":19327:19329   */\n      0x40\n        /* \"#utility.yul\":19322:19325   */\n      dup3\n        /* \"#utility.yul\":19318:19330   */\n      add\n        /* \"#utility.yul\":19311:19330   */\n      swap1\n      pop\n        /* \"#utility.yul\":18970:19336   */\n      swap2\n      swap1\n      pop\n      jump\t// out\n        /* \"#utility.yul\":19342:19761   */\n    tag_277:\n        /* \"#utility.yul\":19508:19512   */\n      0x00\n        /* \"#utility.yul\":19546:19548   */\n      0x20\n        /* \"#utility.yul\":19535:19544   */\n      dup3\n        /* \"#utility.yul\":19531:19549   */\n      add\n        /* \"#utility.yul\":19523:19549   */\n      swap1\n      pop\n        /* \"#utility.yul\":19595:19604   */\n      dup2\n        /* \"#utility.yul\":19589:19593   */\n      dup2\n        /* \"#utility.yul\":19585:19605   */\n      sub\n        /* \"#utility.yul\":19581:19582   */\n      0x00\n        /* \"#utility.yul\":19570:19579   */\n      dup4\n        /* \"#utility.yul\":19566:19583   */\n      add\n        /* \"#utility.yul\":19559:19606   */\n      mstore\n        /* \"#utility.yul\":19623:19754   */\n      tag_570\n        /* \"#utility.yul\":19749:19753   */\n      dup2\n        /* \"#utility.yul\":19623:19754   */\n      tag_367\n      jump\t// in\n    tag_570:\n        /* \"#utility.yul\":19615:19754   */\n      swap1\n      pop\n        /* \"#utility.yul\":19342:19761   */\n      swap2\n      swap1\n      pop\n      jump\t// out\n        /* \"#utility.yul\":19767:19988   */\n    tag_368:\n        /* \"#utility.yul\":19907:19941   */\n      0x45524332303a20617070726f766520746f20746865207a65726f206164647265\n        /* \"#utility.yul\":19903:19904   */\n      0x00\n        /* \"#utility.yul\":19895:19901   */\n      dup3\n        /* \"#utility.yul\":19891:19905   */\n      add\n        /* \"#utility.yul\":19884:19942   */\n      mstore\n        /* \"#utility.yul\":19976:19980   */\n      0x7373000000000000000000000000000000000000000000000000000000000000\n        /* \"#utility.yul\":19971:19973   */\n      0x20\n        /* \"#utility.yul\":19963:19969   */\n      dup3\n        /* \"#utility.yul\":19959:19974   */\n      add\n        /* \"#utility.yul\":19952:19981   */\n      mstore\n        /* \"#utility.yul\":19767:19988   */\n      pop\n      jump\t// out\n        /* \"#utility.yul\":19994:20360   */\n    tag_369:\n        /* \"#utility.yul\":20136:20139   */\n      0x00\n        /* \"#utility.yul\":20157:20224   */\n      tag_573\n        /* \"#utility.yul\":20221:20223   */\n      0x22\n        /* \"#utility.yul\":20216:20219   */\n      dup4\n        /* \"#utility.yul\":20157:20224   */\n      tag_331\n      jump\t// in\n    tag_573:\n        /* \"#utility.yul\":20150:20224   */\n      swap2\n      pop\n        /* \"#utility.yul\":20233:20326   */\n      tag_574\n        /* \"#utility.yul\":20322:20325   */\n      dup3\n        /* \"#utility.yul\":20233:20326   */\n      tag_368\n      jump\t// in\n    tag_574:\n        /* \"#utility.yul\":20351:20353   */\n      0x40\n        /* \"#utility.yul\":20346:20349   */\n      dup3\n        /* \"#utility.yul\":20342:20354   */\n      add\n        /* \"#utility.yul\":20335:20354   */\n      swap1\n      pop\n        /* \"#utility.yul\":19994:20360   */\n      swap2\n      swap1\n      pop\n      jump\t// out\n        /* \"#utility.yul\":20366:20785   */\n    tag_280:\n        /* \"#utility.yul\":20532:20536   */\n      0x00\n        /* \"#utility.yul\":20570:20572   */\n      0x20\n        /* \"#utility.yul\":20559:20568   */\n      dup3\n        /* \"#utility.yul\":20555:20573   */\n      add\n        /* \"#utility.yul\":20547:20573   */\n      swap1\n      pop\n        /* \"#utility.yul\":20619:20628   */\n      dup2\n        /* \"#utility.yul\":20613:20617   */\n      dup2\n        /* \"#utility.yul\":20609:20629   */\n      sub\n        /* \"#utility.yul\":20605:20606   */\n      0x00\n        /* \"#utility.yul\":20594:20603   */\n      dup4\n        /* \"#utility.yul\":20590:20607   */\n      add\n        /* \"#utility.yul\":20583:20630   */\n      mstore\n        /* \"#utility.yul\":20647:20778   */\n      tag_576\n        /* \"#utility.yul\":20773:20777   */\n      dup2\n        /* \"#utility.yul\":20647:20778   */\n      tag_369\n      jump\t// in\n    tag_576:\n        /* \"#utility.yul\":20639:20778   */\n      swap1\n      pop\n        /* \"#utility.yul\":20366:20785   */\n      swap2\n      swap1\n      pop\n      jump\t// out\n        /* \"#utility.yul\":20791:20970   */\n    tag_370:\n        /* \"#utility.yul\":20931:20962   */\n      0x45524332303a20696e73756666696369656e7420616c6c6f77616e6365000000\n        /* \"#utility.yul\":20927:20928   */\n      0x00\n        /* \"#utility.yul\":20919:20925   */\n      dup3\n        /* \"#utility.yul\":20915:20929   */\n      add\n        /* \"#utility.yul\":20908:20963   */\n      mstore\n        /* \"#utility.yul\":20791:20970   */\n      pop\n      jump\t// out\n        /* \"#utility.yul\":20976:21342   */\n    tag_371:\n        /* \"#utility.yul\":21118:21121   */\n      0x00\n        /* \"#utility.yul\":21139:21206   */\n      tag_579\n        /* \"#utility.yul\":21203:21205   */\n      0x1d\n        /* \"#utility.yul\":21198:21201   */\n      dup4\n        /* \"#utility.yul\":21139:21206   */\n      tag_331\n      jump\t// in\n    tag_579:\n        /* \"#utility.yul\":21132:21206   */\n      swap2\n      pop\n        /* \"#utility.yul\":21215:21308   */\n      tag_580\n        /* \"#utility.yul\":21304:21307   */\n      dup3\n        /* \"#utility.yul\":21215:21308   */\n      tag_370\n      jump\t// in\n    tag_580:\n        /* \"#utility.yul\":21333:21335   */\n      0x20\n        /* \"#utility.yul\":21328:21331   */\n      dup3\n        /* \"#utility.yul\":21324:21336   */\n      add\n        /* \"#utility.yul\":21317:21336   */\n      swap1\n      pop\n        /* \"#utility.yul\":20976:21342   */\n      swap2\n      swap1\n      pop\n      jump\t// out\n        /* \"#utility.yul\":21348:21767   */\n    tag_287:\n        /* \"#utility.yul\":21514:21518   */\n      0x00\n        /* \"#utility.yul\":21552:21554   */\n      0x20\n        /* \"#utility.yul\":21541:21550   */\n      dup3\n        /* \"#utility.yul\":21537:21555   */\n      add\n        /* \"#utility.yul\":21529:21555   */\n      swap1\n      pop\n        /* \"#utility.yul\":21601:21610   */\n      dup2\n        /* \"#utility.yul\":21595:21599   */\n      dup2\n        /* \"#utility.yul\":21591:21611   */\n      sub\n        /* \"#utility.yul\":21587:21588   */\n      0x00\n        /* \"#utility.yul\":21576:21585   */\n      dup4\n        /* \"#utility.yul\":21572:21589   */\n      add\n        /* \"#utility.yul\":21565:21612   */\n      mstore\n        /* \"#utility.yul\":21629:21760   */\n      tag_582\n        /* \"#utility.yul\":21755:21759   */\n      dup2\n        /* \"#utility.yul\":21629:21760   */\n      tag_371\n      jump\t// in\n    tag_582:\n        /* \"#utility.yul\":21621:21760   */\n      swap1\n      pop\n        /* \"#utility.yul\":21348:21767   */\n      swap2\n      swap1\n      pop\n      jump\t// out\n        /* \"#utility.yul\":21773:21997   */\n    tag_372:\n        /* \"#utility.yul\":21913:21947   */\n      0x45524332303a207472616e736665722066726f6d20746865207a65726f206164\n        /* \"#utility.yul\":21909:21910   */\n      0x00\n        /* \"#utility.yul\":21901:21907   */\n      dup3\n        /* \"#utility.yul\":21897:21911   */\n      add\n        /* \"#utility.yul\":21890:21948   */\n      mstore\n        /* \"#utility.yul\":21982:21989   */\n      0x6472657373000000000000000000000000000000000000000000000000000000\n        /* \"#utility.yul\":21977:21979   */\n      0x20\n        /* \"#utility.yul\":21969:21975   */\n      dup3\n        /* \"#utility.yul\":21965:21980   */\n      add\n        /* \"#utility.yul\":21958:21990   */\n      mstore\n        /* \"#utility.yul\":21773:21997   */\n      pop\n      jump\t// out\n        /* \"#utility.yul\":22003:22369   */\n    tag_373:\n        /* \"#utility.yul\":22145:22148   */\n      0x00\n        /* \"#utility.yul\":22166:22233   */\n      tag_585\n        /* \"#utility.yul\":22230:22232   */\n      0x25\n        /* \"#utility.yul\":22225:22228   */\n      dup4\n        /* \"#utility.yul\":22166:22233   */\n      tag_331\n      jump\t// in\n    tag_585:\n        /* \"#utility.yul\":22159:22233   */\n      swap2\n      pop\n        /* \"#utility.yul\":22242:22335   */\n      tag_586\n        /* \"#utility.yul\":22331:22334   */\n      dup3\n        /* \"#utility.yul\":22242:22335   */\n      tag_372\n      jump\t// in\n    tag_586:\n        /* \"#utility.yul\":22360:22362   */\n      0x40\n        /* \"#utility.yul\":22355:22358   */\n      dup3\n        /* \"#utility.yul\":22351:22363   */\n      add\n        /* \"#utility.yul\":22344:22363   */\n      swap1\n      pop\n        /* \"#utility.yul\":22003:22369   */\n      swap2\n      swap1\n      pop\n      jump\t// out\n        /* \"#utility.yul\":22375:22794   */\n    tag_292:\n        /* \"#utility.yul\":22541:22545   */\n      0x00\n        /* \"#utility.yul\":22579:22581   */\n      0x20\n        /* \"#utility.yul\":22568:22577   */\n      dup3\n        /* \"#utility.yul\":22564:22582   */\n      add\n        /* \"#utility.yul\":22556:22582   */\n      swap1\n      pop\n        /* \"#utility.yul\":22628:22637   */\n      dup2\n        /* \"#utility.yul\":22622:22626   */\n      dup2\n        /* \"#utility.yul\":22618:22638   */\n      sub\n        /* \"#utility.yul\":22614:22615   */\n      0x00\n        /* \"#utility.yul\":22603:22612   */\n      dup4\n        /* \"#utility.yul\":22599:22616   */\n      add\n        /* \"#utility.yul\":22592:22639   */\n      mstore\n        /* \"#utility.yul\":22656:22787   */\n      tag_588\n        /* \"#utility.yul\":22782:22786   */\n      dup2\n        /* \"#utility.yul\":22656:22787   */\n      tag_373\n      jump\t// in\n    tag_588:\n        /* \"#utility.yul\":22648:22787   */\n      swap1\n      pop\n        /* \"#utility.yul\":22375:22794   */\n      swap2\n      swap1\n      pop\n      jump\t// out\n        /* \"#utility.yul\":22800:23022   */\n    tag_374:\n        /* \"#utility.yul\":22940:22974   */\n      0x45524332303a207472616e7366657220746f20746865207a65726f2061646472\n        /* \"#utility.yul\":22936:22937   */\n      0x00\n        /* \"#utility.yul\":22928:22934   */\n      dup3\n        /* \"#utility.yul\":22924:22938   */\n      add\n        /* \"#utility.yul\":22917:22975   */\n      mstore\n        /* \"#utility.yul\":23009:23014   */\n      0x6573730000000000000000000000000000000000000000000000000000000000\n        /* \"#utility.yul\":23004:23006   */\n      0x20\n        /* \"#utility.yul\":22996:23002   */\n      dup3\n        /* \"#utility.yul\":22992:23007   */\n      add\n        /* \"#utility.yul\":22985:23015   */\n      mstore\n        /* \"#utility.yul\":22800:23022   */\n      pop\n      jump\t// out\n        /* \"#utility.yul\":23028:23394   */\n    tag_375:\n        /* \"#utility.yul\":23170:23173   */\n      0x00\n        /* \"#utility.yul\":23191:23258   */\n      tag_591\n        /* \"#utility.yul\":23255:23257   */\n      0x23\n        /* \"#utility.yul\":23250:23253   */\n      dup4\n        /* \"#utility.yul\":23191:23258   */\n      tag_331\n      jump\t// in\n    tag_591:\n        /* \"#utility.yul\":23184:23258   */\n      swap2\n      pop\n        /* \"#utility.yul\":23267:23360   */\n      tag_592\n        /* \"#utility.yul\":23356:23359   */\n      dup3\n        /* \"#utility.yul\":23267:23360   */\n      tag_374\n      jump\t// in\n    tag_592:\n        /* \"#utility.yul\":23385:23387   */\n      0x40\n        /* \"#utility.yul\":23380:23383   */\n      dup3\n        /* \"#utility.yul\":23376:23388   */\n      add\n        /* \"#utility.yul\":23369:23388   */\n      swap1\n      pop\n        /* \"#utility.yul\":23028:23394   */\n      swap2\n      swap1\n      pop\n      jump\t// out\n        /* \"#utility.yul\":23400:23819   */\n    tag_295:\n        /* \"#utility.yul\":23566:23570   */\n      0x00\n        /* \"#utility.yul\":23604:23606   */\n      0x20\n        /* \"#utility.yul\":23593:23602   */\n      dup3\n        /* \"#utility.yul\":23589:23607   */\n      add\n        /* \"#utility.yul\":23581:23607   */\n      swap1\n      pop\n        /* \"#utility.yul\":23653:23662   */\n      dup2\n        /* \"#utility.yul\":23647:23651   */\n      dup2\n        /* \"#utility.yul\":23643:23663   */\n      sub\n        /* \"#utility.yul\":23639:23640   */\n      0x00\n        /* \"#utility.yul\":23628:23637   */\n      dup4\n        /* \"#utility.yul\":23624:23641   */\n      add\n        /* \"#utility.yul\":23617:23664   */\n      mstore\n        /* \"#utility.yul\":23681:23812   */\n      tag_594\n        /* \"#utility.yul\":23807:23811   */\n      dup2\n        /* \"#utility.yul\":23681:23812   */\n      tag_375\n      jump\t// in\n    tag_594:\n        /* \"#utility.yul\":23673:23812   */\n      swap1\n      pop\n        /* \"#utility.yul\":23400:23819   */\n      swap2\n      swap1\n      pop\n      jump\t// out\n        /* \"#utility.yul\":23825:24050   */\n    tag_376:\n        /* \"#utility.yul\":23965:23999   */\n      0x45524332303a207472616e7366657220616d6f756e7420657863656564732062\n        /* \"#utility.yul\":23961:23962   */\n      0x00\n        /* \"#utility.yul\":23953:23959   */\n      dup3\n        /* \"#utility.yul\":23949:23963   */\n      add\n        /* \"#utility.yul\":23942:24000   */\n      mstore\n        /* \"#utility.yul\":24034:24042   */\n      0x616c616e63650000000000000000000000000000000000000000000000000000\n        /* \"#utility.yul\":24029:24031   */\n      0x20\n        /* \"#utility.yul\":24021:24027   */\n      dup3\n        /* \"#utility.yul\":24017:24032   */\n      add\n        /* \"#utility.yul\":24010:24043   */\n      mstore\n        /* \"#utility.yul\":23825:24050   */\n      pop\n      jump\t// out\n        /* \"#utility.yul\":24056:24422   */\n    tag_377:\n        /* \"#utility.yul\":24198:24201   */\n      0x00\n        /* \"#utility.yul\":24219:24286   */\n      tag_597\n        /* \"#utility.yul\":24283:24285   */\n      0x26\n        /* \"#utility.yul\":24278:24281   */\n      dup4\n        /* \"#utility.yul\":24219:24286   */\n      tag_331\n      jump\t// in\n    tag_597:\n        /* \"#utility.yul\":24212:24286   */\n      swap2\n      pop\n        /* \"#utility.yul\":24295:24388   */\n      tag_598\n        /* \"#utility.yul\":24384:24387   */\n      dup3\n        /* \"#utility.yul\":24295:24388   */\n      tag_376\n      jump\t// in\n    tag_598:\n        /* \"#utility.yul\":24413:24415   */\n      0x40\n        /* \"#utility.yul\":24408:24411   */\n      dup3\n        /* \"#utility.yul\":24404:24416   */\n      add\n        /* \"#utility.yul\":24397:24416   */\n      swap1\n      pop\n        /* \"#utility.yul\":24056:24422   */\n      swap2\n      swap1\n      pop\n      jump\t// out\n        /* \"#utility.yul\":24428:24847   */\n    tag_300:\n        /* \"#utility.yul\":24594:24598   */\n      0x00\n        /* \"#utility.yul\":24632:24634   */\n      0x20\n        /* \"#utility.yul\":24621:24630   */\n      dup3\n        /* \"#utility.yul\":24617:24635   */\n      add\n        /* \"#utility.yul\":24609:24635   */\n      swap1\n      pop\n        /* \"#utility.yul\":24681:24690   */\n      dup2\n        /* \"#utility.yul\":24675:24679   */\n      dup2\n        /* \"#utility.yul\":24671:24691   */\n      sub\n        /* \"#utility.yul\":24667:24668   */\n      0x00\n        /* \"#utility.yul\":24656:24665   */\n      dup4\n        /* \"#utility.yul\":24652:24669   */\n      add\n        /* \"#utility.yul\":24645:24692   */\n      mstore\n        /* \"#utility.yul\":24709:24840   */\n      tag_600\n        /* \"#utility.yul\":24835:24839   */\n      dup2\n        /* \"#utility.yul\":24709:24840   */\n      tag_377\n      jump\t// in\n    tag_600:\n        /* \"#utility.yul\":24701:24840   */\n      swap1\n      pop\n        /* \"#utility.yul\":24428:24847   */\n      swap2\n      swap1\n      pop\n      jump\t// out\n        /* \"#utility.yul\":24853:25034   */\n    tag_378:\n        /* \"#utility.yul\":24993:25026   */\n      0x45524332303a206d696e7420746f20746865207a65726f206164647265737300\n        /* \"#utility.yul\":24989:24990   */\n      0x00\n        /* \"#utility.yul\":24981:24987   */\n      dup3\n        /* \"#utility.yul\":24977:24991   */\n      add\n        /* \"#utility.yul\":24970:25027   */\n      mstore\n        /* \"#utility.yul\":24853:25034   */\n      pop\n      jump\t// out\n        /* \"#utility.yul\":25040:25406   */\n    tag_379:\n        /* \"#utility.yul\":25182:25185   */\n      0x00\n        /* \"#utility.yul\":25203:25270   */\n      tag_603\n        /* \"#utility.yul\":25267:25269   */\n      0x1f\n        /* \"#utility.yul\":25262:25265   */\n      dup4\n        /* \"#utility.yul\":25203:25270   */\n      tag_331\n      jump\t// in\n    tag_603:\n        /* \"#utility.yul\":25196:25270   */\n      swap2\n      pop\n        /* \"#utility.yul\":25279:25372   */\n      tag_604\n        /* \"#utility.yul\":25368:25371   */\n      dup3\n        /* \"#utility.yul\":25279:25372   */\n      tag_378\n      jump\t// in\n    tag_604:\n        /* \"#utility.yul\":25397:25399   */\n      0x20\n        /* \"#utility.yul\":25392:25395   */\n      dup3\n        /* \"#utility.yul\":25388:25400   */\n      add\n        /* \"#utility.yul\":25381:25400   */\n      swap1\n      pop\n        /* \"#utility.yul\":25040:25406   */\n      swap2\n      swap1\n      pop\n      jump\t// out\n        /* \"#utility.yul\":25412:25831   */\n    tag_307:\n        /* \"#utility.yul\":25578:25582   */\n      0x00\n        /* \"#utility.yul\":25616:25618   */\n      0x20\n        /* \"#utility.yul\":25605:25614   */\n      dup3\n        /* \"#utility.yul\":25601:25619   */\n      add\n        /* \"#utility.yul\":25593:25619   */\n      swap1\n      pop\n        /* \"#utility.yul\":25665:25674   */\n      dup2\n        /* \"#utility.yul\":25659:25663   */\n      dup2\n        /* \"#utility.yul\":25655:25675   */\n      sub\n        /* \"#utility.yul\":25651:25652   */\n      0x00\n        /* \"#utility.yul\":25640:25649   */\n      dup4\n        /* \"#utility.yul\":25636:25653   */\n      add\n        /* \"#utility.yul\":25629:25676   */\n      mstore\n        /* \"#utility.yul\":25693:25824   */\n      tag_606\n        /* \"#utility.yul\":25819:25823   */\n      dup2\n        /* \"#utility.yul\":25693:25824   */\n      tag_379\n      jump\t// in\n    tag_606:\n        /* \"#utility.yul\":25685:25824   */\n      swap1\n      pop\n        /* \"#utility.yul\":25412:25831   */\n      swap2\n      swap1\n      pop\n      jump\t// out\n        /* \"#utility.yul\":25837:26057   */\n    tag_380:\n        /* \"#utility.yul\":25977:26011   */\n      0x45524332303a206275726e2066726f6d20746865207a65726f20616464726573\n        /* \"#utility.yul\":25973:25974   */\n      0x00\n        /* \"#utility.yul\":25965:25971   */\n      dup3\n        /* \"#utility.yul\":25961:25975   */\n      add\n        /* \"#utility.yul\":25954:26012   */\n      mstore\n        /* \"#utility.yul\":26046:26049   */\n      0x7300000000000000000000000000000000000000000000000000000000000000\n        /* \"#utility.yul\":26041:26043   */\n      0x20\n        /* \"#utility.yul\":26033:26039   */\n      dup3\n        /* \"#utility.yul\":26029:26044   */\n      add\n        /* \"#utility.yul\":26022:26050   */\n      mstore\n        /* \"#utility.yul\":25837:26057   */\n      pop\n      jump\t// out\n        /* \"#utility.yul\":26063:26429   */\n    tag_381:\n        /* \"#utility.yul\":26205:26208   */\n      0x00\n        /* \"#utility.yul\":26226:26293   */\n      tag_609\n        /* \"#utility.yul\":26290:26292   */\n      0x21\n        /* \"#utility.yul\":26285:26288   */\n      dup4\n        /* \"#utility.yul\":26226:26293   */\n      tag_331\n      jump\t// in\n    tag_609:\n        /* \"#utility.yul\":26219:26293   */\n      swap2\n      pop\n        /* \"#utility.yul\":26302:26395   */\n      tag_610\n        /* \"#utility.yul\":26391:26394   */\n      dup3\n        /* \"#utility.yul\":26302:26395   */\n      tag_380\n      jump\t// in\n    tag_610:\n        /* \"#utility.yul\":26420:26422   */\n      0x40\n        /* \"#utility.yul\":26415:26418   */\n      dup3\n        /* \"#utility.yul\":26411:26423   */\n      add\n        /* \"#utility.yul\":26404:26423   */\n      swap1\n      pop\n        /* \"#utility.yul\":26063:26429   */\n      swap2\n      swap1\n      pop\n      jump\t// out\n        /* \"#utility.yul\":26435:26854   */\n    tag_315:\n        /* \"#utility.yul\":26601:26605   */\n      0x00\n        /* \"#utility.yul\":26639:26641   */\n      0x20\n        /* \"#utility.yul\":26628:26637   */\n      dup3\n        /* \"#utility.yul\":26624:26642   */\n      add\n        /* \"#utility.yul\":26616:26642   */\n      swap1\n      pop\n        /* \"#utility.yul\":26688:26697   */\n      dup2\n        /* \"#utility.yul\":26682:26686   */\n      dup2\n        /* \"#utility.yul\":26678:26698   */\n      sub\n        /* \"#utility.yul\":26674:26675   */\n      0x00\n        /* \"#utility.yul\":26663:26672   */\n      dup4\n        /* \"#utility.yul\":26659:26676   */\n      add\n        /* \"#utility.yul\":26652:26699   */\n      mstore\n        /* \"#utility.yul\":26716:26847   */\n      tag_612\n        /* \"#utility.yul\":26842:26846   */\n      dup2\n        /* \"#utility.yul\":26716:26847   */\n      tag_381\n      jump\t// in\n    tag_612:\n        /* \"#utility.yul\":26708:26847   */\n      swap1\n      pop\n        /* \"#utility.yul\":26435:26854   */\n      swap2\n      swap1\n      pop\n      jump\t// out\n        /* \"#utility.yul\":26860:27081   */\n    tag_382:\n        /* \"#utility.yul\":27000:27034   */\n      0x45524332303a206275726e20616d6f756e7420657863656564732062616c616e\n        /* \"#utility.yul\":26996:26997   */\n      0x00\n        /* \"#utility.yul\":26988:26994   */\n      dup3\n        /* \"#utility.yul\":26984:26998   */\n      add\n        /* \"#utility.yul\":26977:27035   */\n      mstore\n        /* \"#utility.yul\":27069:27073   */\n      0x6365000000000000000000000000000000000000000000000000000000000000\n        /* \"#utility.yul\":27064:27066   */\n      0x20\n        /* \"#utility.yul\":27056:27062   */\n      dup3\n        /* \"#utility.yul\":27052:27067   */\n      add\n        /* \"#utility.yul\":27045:27074   */\n      mstore\n        /* \"#utility.yul\":26860:27081   */\n      pop\n      jump\t// out\n        /* \"#utility.yul\":27087:27453   */\n    tag_383:\n        /* \"#utility.yul\":27229:27232   */\n      0x00\n        /* \"#utility.yul\":27250:27317   */\n      tag_615\n        /* \"#utility.yul\":27314:27316   */\n      0x22\n        /* \"#utility.yul\":27309:27312   */\n      dup4\n        /* \"#utility.yul\":27250:27317   */\n      tag_331\n      jump\t// in\n    tag_615:\n        /* \"#utility.yul\":27243:27317   */\n      swap2\n      pop\n        /* \"#utility.yul\":27326:27419   */\n      tag_616\n        /* \"#utility.yul\":27415:27418   */\n      dup3\n        /* \"#utility.yul\":27326:27419   */\n      tag_382\n      jump\t// in\n    tag_616:\n        /* \"#utility.yul\":27444:27446   */\n      0x40\n        /* \"#utility.yul\":27439:27442   */\n      dup3\n        /* \"#utility.yul\":27435:27447   */\n      add\n        /* \"#utility.yul\":27428:27447   */\n      swap1\n      pop\n        /* \"#utility.yul\":27087:27453   */\n      swap2\n      swap1\n      pop\n      jump\t// out\n        /* \"#utility.yul\":27459:27878   */\n    tag_319:\n        /* \"#utility.yul\":27625:27629   */\n      0x00\n        /* \"#utility.yul\":27663:27665   */\n      0x20\n        /* \"#utility.yul\":27652:27661   */\n      dup3\n        /* \"#utility.yul\":27648:27666   */\n      add\n        /* \"#utility.yul\":27640:27666   */\n      swap1\n      pop\n        /* \"#utility.yul\":27712:27721   */\n      dup2\n        /* \"#utility.yul\":27706:27710   */\n      dup2\n        /* \"#utility.yul\":27702:27722   */\n      sub\n        /* \"#utility.yul\":27698:27699   */\n      0x00\n        /* \"#utility.yul\":27687:27696   */\n      dup4\n        /* \"#utility.yul\":27683:27700   */\n      add\n        /* \"#utility.yul\":27676:27723   */\n      mstore\n        /* \"#utility.yul\":27740:27871   */\n      tag_618\n        /* \"#utility.yul\":27866:27870   */\n      dup2\n        /* \"#utility.yul\":27740:27871   */\n      tag_383\n      jump\t// in\n    tag_618:\n        /* \"#utility.yul\":27732:27871   */\n      swap1\n      pop\n        /* \"#utility.yul\":27459:27878   */\n      swap2\n      swap1\n      pop\n      jump\t// out\n\n    auxdata: 0xa26469706673582212201c7c27f43c50d0d17e8fcce01ac0c722ff65653a9a8d32fd3bbf9f64a7d9052964736f6c63430008130033\n}\n",
				"bytecode": {
					"linkReferences": {},
					"object": "60806040523480156200001157600080fd5b5060405162002dd538038062002dd58339818101604052810190620000379190620001e2565b6040518060400160405280600e81526020017f54474f4c44204c5020546f6b656e0000000000000000000000000000000000008152506040518060400160405280600481526020017f54474c50000000000000000000000000000000000000000000000000000000008152508160039081620000b491906200048e565b508060049081620000c691906200048e565b505050600073ffffffffffffffffffffffffffffffffffffffff168173ffffffffffffffffffffffffffffffffffffffff160362000130576040517f92863bea00000000000000000000000000000000000000000000000000000000815260040160405180910390fd5b80600560006101000a81548173ffffffffffffffffffffffffffffffffffffffff021916908373ffffffffffffffffffffffffffffffffffffffff1602179055505062000575565b600080fd5b600073ffffffffffffffffffffffffffffffffffffffff82169050919050565b6000620001aa826200017d565b9050919050565b620001bc816200019d565b8114620001c857600080fd5b50565b600081519050620001dc81620001b1565b92915050565b600060208284031215620001fb57620001fa62000178565b5b60006200020b84828501620001cb565b91505092915050565b600081519050919050565b7f4e487b7100000000000000000000000000000000000000000000000000000000600052604160045260246000fd5b7f4e487b7100000000000000000000000000000000000000000000000000000000600052602260045260246000fd5b600060028204905060018216806200029657607f821691505b602082108103620002ac57620002ab6200024e565b5b50919050565b60008190508160005260206000209050919050565b60006020601f8301049050919050565b600082821b905092915050565b600060088302620003167fffffffffffffffffffffffffffffffffffffffffffffffffffffffffffffffff82620002d7565b620003228683620002d7565b95508019841693508086168417925050509392505050565b6000819050919050565b6000819050919050565b60006200036f6200036962000363846200033a565b62000344565b6200033a565b9050919050565b6000819050919050565b6200038b836200034e565b620003a36200039a8262000376565b848454620002e4565b825550505050565b600090565b620003ba620003ab565b620003c781848462000380565b505050565b5b81811015620003ef57620003e3600082620003b0565b600181019050620003cd565b5050565b601f8211156200043e576200040881620002b2565b6200041384620002c7565b8101602085101562000423578190505b6200043b6200043285620002c7565b830182620003cc565b50505b505050565b600082821c905092915050565b6000620004636000198460080262000443565b1980831691505092915050565b60006200047e838362000450565b9150826002028217905092915050565b620004998262000214565b67ffffffffffffffff811115620004b557620004b46200021f565b5b620004c182546200027d565b620004ce828285620003f3565b600060209050601f831160018114620005065760008415620004f1578287015190505b620004fd858262000470565b8655506200056d565b601f1984166200051686620002b2565b60005b82811015620005405784890151825560018201915060208501945060208101905062000519565b868310156200056057848901516200055c601f89168262000450565b8355505b6001600288020188555050505b505050505050565b61285080620005856000396000f3fe6080604052600436106101095760003560e01c806351c6590a1161009557806395d89b411161006457806395d89b411461038b5780639c8f9f23146103b6578063a457c2d7146103f4578063a9059cbb14610431578063dd62ed3e1461046e57610109565b806351c6590a146102b657806359bf5d39146102e657806370a08231146103115780637386479e1461034e57610109565b80631ffa582d116100dc5780631ffa582d146101ca57806323b872dd146101e6578063313ce56714610223578063395093511461024e5780633ee12bd11461028b57610109565b80630465b2f51461010e57806306fdde0314610137578063095ea7b31461016257806318160ddd1461019f575b600080fd5b34801561011a57600080fd5b5061013560048036038101906101309190611990565b6104ab565b005b34801561014357600080fd5b5061014c610708565b6040516101599190611a60565b60405180910390f35b34801561016e57600080fd5b5061018960048036038101906101849190611ae0565b61079a565b6040516101969190611b3b565b60405180910390f35b3480156101ab57600080fd5b506101b46107bd565b6040516101c19190611b65565b60405180910390f35b6101e460048036038101906101df9190611b80565b6107c7565b005b3480156101f257600080fd5b5061020d60048036038101906102089190611bad565b6108dd565b60405161021a9190611b3b565b60405180910390f35b34801561022f57600080fd5b5061023861090c565b6040516102459190611c1c565b60405180910390f35b34801561025a57600080fd5b5061027560048036038101906102709190611ae0565b610915565b6040516102829190611b3b565b60405180910390f35b34801561029757600080fd5b506102a061094c565b6040516102ad9190611c46565b60405180910390f35b6102d060048036038101906102cb9190611b80565b610972565b6040516102dd9190611b65565b60405180910390f35b3480156102f257600080fd5b506102fb610c0b565b6040516103089190611b65565b60405180910390f35b34801561031d57600080fd5b5061033860048036038101906103339190611c61565b610cae565b6040516103459190611b65565b60405180910390f35b34801561035a57600080fd5b5061037560048036038101906103709190611c8e565b610cf6565b6040516103829190611b65565b60405180910390f35b34801561039757600080fd5b506103a0610d9b565b6040516103ad9190611a60565b60405180910390f35b3480156103c257600080fd5b506103dd60048036038101906103d89190611b80565b610e2d565b6040516103eb929190611ce1565b60405180910390f35b34801561040057600080fd5b5061041b60048036038101906104169190611ae0565b611034565b6040516104289190611b3b565b60405180910390f35b34801561043d57600080fd5b5061045860048036038101906104539190611ae0565b6110ab565b6040516104659190611b3b565b60405180910390f35b34801561047a57600080fd5b5061049560048036038101906104909190611d0a565b6110ce565b6040516104a29190611b65565b60405180910390f35b60006104bf836104b9610c0b565b47610cf6565b905081811015610504576040517f08c379a00000000000000000000000000000000000000000000000000000000081526004016104fb90611dbc565b60405180910390fd5b600560009054906101000a900473ffffffffffffffffffffffffffffffffffffffff1673ffffffffffffffffffffffffffffffffffffffff1663095ea7b330856040518363ffffffff1660e01b8152600401610561929190611ddc565b6020604051808303816000875af1158015610580573d6000803e3d6000fd5b505050506040513d601f19601f820116820180604052508101906105a49190611e31565b50600560009054906101000a900473ffffffffffffffffffffffffffffffffffffffff1673ffffffffffffffffffffffffffffffffffffffff166323b872dd6105eb611155565b30866040518463ffffffff1660e01b815260040161060b93929190611e5e565b6020604051808303816000875af115801561062a573d6000803e3d6000fd5b505050506040513d601f19601f8201168201806040525081019061064e9190611e31565b506000610659611155565b73ffffffffffffffffffffffffffffffffffffffff168260405161067c90611ec6565b60006040518083038185875af1925050503d80600081146106b9576040519150601f19603f3d011682016040523d82523d6000602084013e6106be565b606091505b5050905080610702576040517f08c379a00000000000000000000000000000000000000000000000000000000081526004016106f990611f27565b60405180910390fd5b50505050565b60606003805461071790611f76565b80601f016020809104026020016040519081016040528092919081815260200182805461074390611f76565b80156107905780601f1061076557610100808354040283529160200191610790565b820191906000526020600020905b81548152906001019060200180831161077357829003601f168201915b5050505050905090565b6000806107a5611155565b90506107b281858561115d565b600191505092915050565b6000600254905090565b60006107d1610c0b565b905060006107eb3434476107e59190611fd6565b84610cf6565b905082811015610830576040517f08c379a000000000000000000000000000000000000000000000000000000000815260040161082790611dbc565b60405180910390fd5b600560009054906101000a900473ffffffffffffffffffffffffffffffffffffffff1673ffffffffffffffffffffffffffffffffffffffff1663a9059cbb610876611155565b836040518363ffffffff1660e01b8152600401610894929190611ddc565b6020604051808303816000875af11580156108b3573d6000803e3d6000fd5b505050506040513d601f19601f820116820180604052508101906108d79190611e31565b50505050565b6000806108e8611155565b90506108f5858285611326565b6109008585856113b2565b60019150509392505050565b60006012905090565b600080610920611155565b905061094181858561093285896110ce565b61093c919061200a565b61115d565b600191505092915050565b600560009054906101000a900473ffffffffffffffffffffffffffffffffffffffff1681565b60008060004790506000610984610c0b565b90506000600560009054906101000a900473ffffffffffffffffffffffffffffffffffffffff16905060008203610ad5578073ffffffffffffffffffffffffffffffffffffffff1663095ea7b330886040518363ffffffff1660e01b81526004016109f0929190611ddc565b6020604051808303816000875af1158015610a0f573d6000803e3d6000fd5b505050506040513d601f19601f82011682018060405250810190610a339190611e31565b508073ffffffffffffffffffffffffffffffffffffffff166323b872dd610a58611155565b30896040518463ffffffff1660e01b8152600401610a7893929190611e5e565b6020604051808303816000875af1158015610a97573d6000803e3d6000fd5b505050506040513d601f19601f82011682018060405250810190610abb9190611e31565b50829350610ad0610aca611155565b85611628565b610bff565b60003484610ae39190611fd6565b90506000838234610af4919061206d565b610afe919061209e565b905080881015610b43576040517f08c379a0000000000000000000000000000000000000000000000000000000008152600401610b3a90612152565b60405180910390fd5b8273ffffffffffffffffffffffffffffffffffffffff166323b872dd610b67611155565b30846040518463ffffffff1660e01b8152600401610b8793929190611e5e565b6020604051808303816000875af1158015610ba6573d6000803e3d6000fd5b505050506040513d601f19601f82011682018060405250810190610bca9190611e31565b508134610bd7919061206d565b610bdf6107bd565b610be9919061209e565b9550610bfc610bf6611155565b87611628565b50505b83945050505050919050565b6000600560009054906101000a900473ffffffffffffffffffffffffffffffffffffffff1673ffffffffffffffffffffffffffffffffffffffff166370a08231306040518263ffffffff1660e01b8152600401610c689190611c46565b602060405180830381865afa158015610c85573d6000803e3d6000fd5b505050506040513d601f19601f82011682018060405250810190610ca99190612187565b905090565b60008060008373ffffffffffffffffffffffffffffffffffffffff1673ffffffffffffffffffffffffffffffffffffffff168152602001908152602001600020549050919050565b60008083118015610d075750600082115b610d46576040517f08c379a0000000000000000000000000000000000000000000000000000000008152600401610d3d90612200565b60405180910390fd5b60006064606386610d57919061209e565b610d61919061206d565b905060008184610d71919061209e565b905060008286610d81919061200a565b90508082610d8f919061206d565b93505050509392505050565b606060048054610daa90611f76565b80601f0160208091040260200160405190810160405280929190818152602001828054610dd690611f76565b8015610e235780601f10610df857610100808354040283529160200191610e23565b820191906000526020600020905b815481529060010190602001808311610e0657829003601f168201915b5050505050905090565b60008060008311610e73576040517f08c379a0000000000000000000000000000000000000000000000000000000008152600401610e6a90612292565b60405180910390fd5b60004790506000610e826107bd565b90506000818684610e93919061209e565b610e9d919061206d565b905060008287610eab610c0b565b610eb5919061209e565b610ebf919061206d565b9050610ed2610ecc611155565b8861177e565b6000610edc611155565b73ffffffffffffffffffffffffffffffffffffffff1683604051610eff90611ec6565b60006040518083038185875af1925050503d8060008114610f3c576040519150601f19603f3d011682016040523d82523d6000602084013e610f41565b606091505b5050905080610f7c576040517f81063e5100000000000000000000000000000000000000000000000000000000815260040160405180910390fd5b600560009054906101000a900473ffffffffffffffffffffffffffffffffffffffff1673ffffffffffffffffffffffffffffffffffffffff1663a9059cbb610fc2611155565b846040518363ffffffff1660e01b8152600401610fe0929190611ddc565b6020604051808303816000875af1158015610fff573d6000803e3d6000fd5b505050506040513d601f19601f820116820180604052508101906110239190611e31565b508282965096505050505050915091565b60008061103f611155565b9050600061104d82866110ce565b905083811015611092576040517f08c379a000000000000000000000000000000000000000000000000000000000815260040161108990612324565b60405180910390fd5b61109f828686840361115d565b60019250505092915050565b6000806110b6611155565b90506110c38185856113b2565b600191505092915050565b6000600160008473ffffffffffffffffffffffffffffffffffffffff1673ffffffffffffffffffffffffffffffffffffffff16815260200190815260200160002060008373ffffffffffffffffffffffffffffffffffffffff1673ffffffffffffffffffffffffffffffffffffffff16815260200190815260200160002054905092915050565b600033905090565b600073ffffffffffffffffffffffffffffffffffffffff168373ffffffffffffffffffffffffffffffffffffffff16036111cc576040517f08c379a00000000000000000000000000000000000000000000000000000000081526004016111c3906123b6565b60405180910390fd5b600073ffffffffffffffffffffffffffffffffffffffff168273ffffffffffffffffffffffffffffffffffffffff160361123b576040517f08c379a000000000000000000000000000000000000000000000000000000000815260040161123290612448565b60405180910390fd5b80600160008573ffffffffffffffffffffffffffffffffffffffff1673ffffffffffffffffffffffffffffffffffffffff16815260200190815260200160002060008473ffffffffffffffffffffffffffffffffffffffff1673ffffffffffffffffffffffffffffffffffffffff168152602001908152602001600020819055508173ffffffffffffffffffffffffffffffffffffffff168373ffffffffffffffffffffffffffffffffffffffff167f8c5be1e5ebec7d5bd14f71427d1e84f3dd0314c0f7b2291e5b200ac8c7c3b925836040516113199190611b65565b60405180910390a3505050565b600061133284846110ce565b90507fffffffffffffffffffffffffffffffffffffffffffffffffffffffffffffffff81146113ac578181101561139e576040517f08c379a0000000000000000000000000000000000000000000000000000000008152600401611395906124b4565b60405180910390fd5b6113ab848484840361115d565b5b50505050565b600073ffffffffffffffffffffffffffffffffffffffff168373ffffffffffffffffffffffffffffffffffffffff1603611421576040517f08c379a000000000000000000000000000000000000000000000000000000000815260040161141890612546565b60405180910390fd5b600073ffffffffffffffffffffffffffffffffffffffff168273ffffffffffffffffffffffffffffffffffffffff1603611490576040517f08c379a0000000000000000000000000000000000000000000000000000000008152600401611487906125d8565b60405180910390fd5b61149b83838361194b565b60008060008573ffffffffffffffffffffffffffffffffffffffff1673ffffffffffffffffffffffffffffffffffffffff16815260200190815260200160002054905081811015611521576040517f08c379a00000000000000000000000000000000000000000000000000000000081526004016115189061266a565b60405180910390fd5b8181036000808673ffffffffffffffffffffffffffffffffffffffff1673ffffffffffffffffffffffffffffffffffffffff16815260200190815260200160002081905550816000808573ffffffffffffffffffffffffffffffffffffffff1673ffffffffffffffffffffffffffffffffffffffff168152602001908152602001600020600082825401925050819055508273ffffffffffffffffffffffffffffffffffffffff168473ffffffffffffffffffffffffffffffffffffffff167fddf252ad1be2c89b69c2b068fc378daa952ba7f163c4a11628f55a4df523b3ef8460405161160f9190611b65565b60405180910390a3611622848484611950565b50505050565b600073ffffffffffffffffffffffffffffffffffffffff168273ffffffffffffffffffffffffffffffffffffffff1603611697576040517f08c379a000000000000000000000000000000000000000000000000000000000815260040161168e906126d6565b60405180910390fd5b6116a36000838361194b565b80600260008282546116b5919061200a565b92505081905550806000808473ffffffffffffffffffffffffffffffffffffffff1673ffffffffffffffffffffffffffffffffffffffff168152602001908152602001600020600082825401925050819055508173ffffffffffffffffffffffffffffffffffffffff16600073ffffffffffffffffffffffffffffffffffffffff167fddf252ad1be2c89b69c2b068fc378daa952ba7f163c4a11628f55a4df523b3ef836040516117669190611b65565b60405180910390a361177a60008383611950565b5050565b600073ffffffffffffffffffffffffffffffffffffffff168273ffffffffffffffffffffffffffffffffffffffff16036117ed576040517f08c379a00000000000000000000000000000000000000000000000000000000081526004016117e490612768565b60405180910390fd5b6117f98260008361194b565b60008060008473ffffffffffffffffffffffffffffffffffffffff1673ffffffffffffffffffffffffffffffffffffffff1681526020019081526020016000205490508181101561187f576040517f08c379a0000000000000000000000000000000000000000000000000000000008152600401611876906127fa565b60405180910390fd5b8181036000808573ffffffffffffffffffffffffffffffffffffffff1673ffffffffffffffffffffffffffffffffffffffff1681526020019081526020016000208190555081600260008282540392505081905550600073ffffffffffffffffffffffffffffffffffffffff168373ffffffffffffffffffffffffffffffffffffffff167fddf252ad1be2c89b69c2b068fc378daa952ba7f163c4a11628f55a4df523b3ef846040516119329190611b65565b60405180910390a361194683600084611950565b505050565b505050565b505050565b600080fd5b6000819050919050565b61196d8161195a565b811461197857600080fd5b50565b60008135905061198a81611964565b92915050565b600080604083850312156119a7576119a6611955565b5b60006119b58582860161197b565b92505060206119c68582860161197b565b9150509250929050565b600081519050919050565b600082825260208201905092915050565b60005b83811015611a0a5780820151818401526020810190506119ef565b60008484015250505050565b6000601f19601f8301169050919050565b6000611a32826119d0565b611a3c81856119db565b9350611a4c8185602086016119ec565b611a5581611a16565b840191505092915050565b60006020820190508181036000830152611a7a8184611a27565b905092915050565b600073ffffffffffffffffffffffffffffffffffffffff82169050919050565b6000611aad82611a82565b9050919050565b611abd81611aa2565b8114611ac857600080fd5b50565b600081359050611ada81611ab4565b92915050565b60008060408385031215611af757611af6611955565b5b6000611b0585828601611acb565b9250506020611b168582860161197b565b9150509250929050565b60008115159050919050565b611b3581611b20565b82525050565b6000602082019050611b506000830184611b2c565b92915050565b611b5f8161195a565b82525050565b6000602082019050611b7a6000830184611b56565b92915050565b600060208284031215611b9657611b95611955565b5b6000611ba48482850161197b565b91505092915050565b600080600060608486031215611bc657611bc5611955565b5b6000611bd486828701611acb565b9350506020611be586828701611acb565b9250506040611bf68682870161197b565b9150509250925092565b600060ff82169050919050565b611c1681611c00565b82525050565b6000602082019050611c316000830184611c0d565b92915050565b611c4081611aa2565b82525050565b6000602082019050611c5b6000830184611c37565b92915050565b600060208284031215611c7757611c76611955565b5b6000611c8584828501611acb565b91505092915050565b600080600060608486031215611ca757611ca6611955565b5b6000611cb58682870161197b565b9350506020611cc68682870161197b565b9250506040611cd78682870161197b565b9150509250925092565b6000604082019050611cf66000830185611b56565b611d036020830184611b56565b9392505050565b60008060408385031215611d2157611d20611955565b5b6000611d2f85828601611acb565b9250506020611d4085828601611acb565b9150509250929050565b7f496e73756666696369656e74206f757470757420616d6f756e742c206173207060008201527f6572207768617420796f75206578706563740000000000000000000000000000602082015250565b6000611da66032836119db565b9150611db182611d4a565b604082019050919050565b60006020820190508181036000830152611dd581611d99565b9050919050565b6000604082019050611df16000830185611c37565b611dfe6020830184611b56565b9392505050565b611e0e81611b20565b8114611e1957600080fd5b50565b600081519050611e2b81611e05565b92915050565b600060208284031215611e4757611e46611955565b5b6000611e5584828501611e1c565b91505092915050565b6000606082019050611e736000830186611c37565b611e806020830185611c37565b611e8d6040830184611b56565b949350505050565b600081905092915050565b50565b6000611eb0600083611e95565b9150611ebb82611ea0565b600082019050919050565b6000611ed182611ea3565b9150819050919050565b7f457468205472616e73666572204661696c656400000000000000000000000000600082015250565b6000611f116013836119db565b9150611f1c82611edb565b602082019050919050565b60006020820190508181036000830152611f4081611f04565b9050919050565b7f4e487b7100000000000000000000000000000000000000000000000000000000600052602260045260246000fd5b60006002820490506001821680611f8e57607f821691505b602082108103611fa157611fa0611f47565b5b50919050565b7f4e487b7100000000000000000000000000000000000000000000000000000000600052601160045260246000fd5b6000611fe18261195a565b9150611fec8361195a565b925082820390508181111561200457612003611fa7565b5b92915050565b60006120158261195a565b91506120208361195a565b925082820190508082111561203857612037611fa7565b5b92915050565b7f4e487b7100000000000000000000000000000000000000000000000000000000600052601260045260246000fd5b60006120788261195a565b91506120838361195a565b9250826120935761209261203e565b5b828204905092915050565b60006120a98261195a565b91506120b48361195a565b92508282026120c28161195a565b915082820484148315176120d9576120d8611fa7565b5b5092915050565b7f416d6f756e74206f6620746f6b656e732073656e74206973206c65737320746860008201527f616e20746865206d696e696d756d20746f6b656e732072657175697265640000602082015250565b600061213c603e836119db565b9150612147826120e0565b604082019050919050565b6000602082019050818103600083015261216b8161212f565b9050919050565b60008151905061218181611964565b92915050565b60006020828403121561219d5761219c611955565b5b60006121ab84828501612172565b91505092915050565b7f496e76616c696420726573657276657300000000000000000000000000000000600082015250565b60006121ea6010836119db565b91506121f5826121b4565b602082019050919050565b60006020820190508181036000830152612219816121dd565b9050919050565b7f5f616d6f756e742073686f756c642062652067726561746572207468616e207a60008201527f65726f0000000000000000000000000000000000000000000000000000000000602082015250565b600061227c6023836119db565b915061228782612220565b604082019050919050565b600060208201905081810360008301526122ab8161226f565b9050919050565b7f45524332303a2064656372656173656420616c6c6f77616e63652062656c6f7760008201527f207a65726f000000000000000000000000000000000000000000000000000000602082015250565b600061230e6025836119db565b9150612319826122b2565b604082019050919050565b6000602082019050818103600083015261233d81612301565b9050919050565b7f45524332303a20617070726f76652066726f6d20746865207a65726f2061646460008201527f7265737300000000000000000000000000000000000000000000000000000000602082015250565b60006123a06024836119db565b91506123ab82612344565b604082019050919050565b600060208201905081810360008301526123cf81612393565b9050919050565b7f45524332303a20617070726f766520746f20746865207a65726f20616464726560008201527f7373000000000000000000000000000000000000000000000000000000000000602082015250565b60006124326022836119db565b915061243d826123d6565b604082019050919050565b6000602082019050818103600083015261246181612425565b9050919050565b7f45524332303a20696e73756666696369656e7420616c6c6f77616e6365000000600082015250565b600061249e601d836119db565b91506124a982612468565b602082019050919050565b600060208201905081810360008301526124cd81612491565b9050919050565b7f45524332303a207472616e736665722066726f6d20746865207a65726f20616460008201527f6472657373000000000000000000000000000000000000000000000000000000602082015250565b60006125306025836119db565b915061253b826124d4565b604082019050919050565b6000602082019050818103600083015261255f81612523565b9050919050565b7f45524332303a207472616e7366657220746f20746865207a65726f206164647260008201527f6573730000000000000000000000000000000000000000000000000000000000602082015250565b60006125c26023836119db565b91506125cd82612566565b604082019050919050565b600060208201905081810360008301526125f1816125b5565b9050919050565b7f45524332303a207472616e7366657220616d6f756e742065786365656473206260008201527f616c616e63650000000000000000000000000000000000000000000000000000602082015250565b60006126546026836119db565b915061265f826125f8565b604082019050919050565b6000602082019050818103600083015261268381612647565b9050919050565b7f45524332303a206d696e7420746f20746865207a65726f206164647265737300600082015250565b60006126c0601f836119db565b91506126cb8261268a565b602082019050919050565b600060208201905081810360008301526126ef816126b3565b9050919050565b7f45524332303a206275726e2066726f6d20746865207a65726f2061646472657360008201527f7300000000000000000000000000000000000000000000000000000000000000602082015250565b60006127526021836119db565b915061275d826126f6565b604082019050919050565b6000602082019050818103600083015261278181612745565b9050919050565b7f45524332303a206275726e20616d6f756e7420657863656564732062616c616e60008201527f6365000000000000000000000000000000000000000000000000000000000000602082015250565b60006127e46022836119db565b91506127ef82612788565b604082019050919050565b60006020820190508181036000830152612813816127d7565b905091905056fea26469706673582212201c7c27f43c50d0d17e8fcce01ac0c722ff65653a9a8d32fd3bbf9f64a7d9052964736f6c63430008130033",
					"opcodes": "PUSH1 0x80 PUSH1 0x40 MSTORE CALLVALUE DUP1 ISZERO PUSH3 0x11 JUMPI PUSH1 0x0 DUP1 REVERT JUMPDEST POP PUSH1 0x40 MLOAD PUSH3 0x2DD5 CODESIZE SUB DUP1 PUSH3 0x2DD5 DUP4 CODECOPY DUP2 DUP2 ADD PUSH1 0x40 MSTORE DUP2 ADD SWAP1 PUSH3 0x37 SWAP2 SWAP1 PUSH3 0x1E2 JUMP JUMPDEST PUSH1 0x40 MLOAD DUP1 PUSH1 0x40 ADD PUSH1 0x40 MSTORE DUP1 PUSH1 0xE DUP2 MSTORE PUSH1 0x20 ADD PUSH32 0x54474F4C44204C5020546F6B656E000000000000000000000000000000000000 DUP2 MSTORE POP PUSH1 0x40 MLOAD DUP1 PUSH1 0x40 ADD PUSH1 0x40 MSTORE DUP1 PUSH1 0x4 DUP2 MSTORE PUSH1 0x20 ADD PUSH32 0x54474C5000000000000000000000000000000000000000000000000000000000 DUP2 MSTORE POP DUP2 PUSH1 0x3 SWAP1 DUP2 PUSH3 0xB4 SWAP2 SWAP1 PUSH3 0x48E JUMP JUMPDEST POP DUP1 PUSH1 0x4 SWAP1 DUP2 PUSH3 0xC6 SWAP2 SWAP1 PUSH3 0x48E JUMP JUMPDEST POP POP POP PUSH1 0x0 PUSH20 0xFFFFFFFFFFFFFFFFFFFFFFFFFFFFFFFFFFFFFFFF AND DUP2 PUSH20 0xFFFFFFFFFFFFFFFFFFFFFFFFFFFFFFFFFFFFFFFF AND SUB PUSH3 0x130 JUMPI PUSH1 0x40 MLOAD PUSH32 0x92863BEA00000000000000000000000000000000000000000000000000000000 DUP2 MSTORE PUSH1 0x4 ADD PUSH1 0x40 MLOAD DUP1 SWAP2 SUB SWAP1 REVERT JUMPDEST DUP1 PUSH1 0x5 PUSH1 0x0 PUSH2 0x100 EXP DUP2 SLOAD DUP2 PUSH20 0xFFFFFFFFFFFFFFFFFFFFFFFFFFFFFFFFFFFFFFFF MUL NOT AND SWAP1 DUP4 PUSH20 0xFFFFFFFFFFFFFFFFFFFFFFFFFFFFFFFFFFFFFFFF AND MUL OR SWAP1 SSTORE POP POP PUSH3 0x575 JUMP JUMPDEST PUSH1 0x0 DUP1 REVERT JUMPDEST PUSH1 0x0 PUSH20 0xFFFFFFFFFFFFFFFFFFFFFFFFFFFFFFFFFFFFFFFF DUP3 AND SWAP1 POP SWAP2 SWAP1 POP JUMP JUMPDEST PUSH1 0x0 PUSH3 0x1AA DUP3 PUSH3 0x17D JUMP JUMPDEST SWAP1 POP SWAP2 SWAP1 POP JUMP JUMPDEST PUSH3 0x1BC DUP2 PUSH3 0x19D JUMP JUMPDEST DUP2 EQ PUSH3 0x1C8 JUMPI PUSH1 0x0 DUP1 REVERT JUMPDEST POP JUMP JUMPDEST PUSH1 0x0 DUP2 MLOAD SWAP1 POP PUSH3 0x1DC DUP2 PUSH3 0x1B1 JUMP JUMPDEST SWAP3 SWAP2 POP POP JUMP JUMPDEST PUSH1 0x0 PUSH1 0x20 DUP3 DUP5 SUB SLT ISZERO PUSH3 0x1FB JUMPI PUSH3 0x1FA PUSH3 0x178 JUMP JUMPDEST JUMPDEST PUSH1 0x0 PUSH3 0x20B DUP5 DUP3 DUP6 ADD PUSH3 0x1CB JUMP JUMPDEST SWAP2 POP POP SWAP3 SWAP2 POP POP JUMP JUMPDEST PUSH1 0x0 DUP2 MLOAD SWAP1 POP SWAP2 SWAP1 POP JUMP JUMPDEST PUSH32 0x4E487B7100000000000000000000000000000000000000000000000000000000 PUSH1 0x0 MSTORE PUSH1 0x41 PUSH1 0x4 MSTORE PUSH1 0x24 PUSH1 0x0 REVERT JUMPDEST PUSH32 0x4E487B7100000000000000000000000000000000000000000000000000000000 PUSH1 0x0 MSTORE PUSH1 0x22 PUSH1 0x4 MSTORE PUSH1 0x24 PUSH1 0x0 REVERT JUMPDEST PUSH1 0x0 PUSH1 0x2 DUP3 DIV SWAP1 POP PUSH1 0x1 DUP3 AND DUP1 PUSH3 0x296 JUMPI PUSH1 0x7F DUP3 AND SWAP2 POP JUMPDEST PUSH1 0x20 DUP3 LT DUP2 SUB PUSH3 0x2AC JUMPI PUSH3 0x2AB PUSH3 0x24E JUMP JUMPDEST JUMPDEST POP SWAP2 SWAP1 POP JUMP JUMPDEST PUSH1 0x0 DUP2 SWAP1 POP DUP2 PUSH1 0x0 MSTORE PUSH1 0x20 PUSH1 0x0 KECCAK256 SWAP1 POP SWAP2 SWAP1 POP JUMP JUMPDEST PUSH1 0x0 PUSH1 0x20 PUSH1 0x1F DUP4 ADD DIV SWAP1 POP SWAP2 SWAP1 POP JUMP JUMPDEST PUSH1 0x0 DUP3 DUP3 SHL SWAP1 POP SWAP3 SWAP2 POP POP JUMP JUMPDEST PUSH1 0x0 PUSH1 0x8 DUP4 MUL PUSH3 0x316 PUSH32 0xFFFFFFFFFFFFFFFFFFFFFFFFFFFFFFFFFFFFFFFFFFFFFFFFFFFFFFFFFFFFFFFF DUP3 PUSH3 0x2D7 JUMP JUMPDEST PUSH3 0x322 DUP7 DUP4 PUSH3 0x2D7 JUMP JUMPDEST SWAP6 POP DUP1 NOT DUP5 AND SWAP4 POP DUP1 DUP7 AND DUP5 OR SWAP3 POP POP POP SWAP4 SWAP3 POP POP POP JUMP JUMPDEST PUSH1 0x0 DUP2 SWAP1 POP SWAP2 SWAP1 POP JUMP JUMPDEST PUSH1 0x0 DUP2 SWAP1 POP SWAP2 SWAP1 POP JUMP JUMPDEST PUSH1 0x0 PUSH3 0x36F PUSH3 0x369 PUSH3 0x363 DUP5 PUSH3 0x33A JUMP JUMPDEST PUSH3 0x344 JUMP JUMPDEST PUSH3 0x33A JUMP JUMPDEST SWAP1 POP SWAP2 SWAP1 POP JUMP JUMPDEST PUSH1 0x0 DUP2 SWAP1 POP SWAP2 SWAP1 POP JUMP JUMPDEST PUSH3 0x38B DUP4 PUSH3 0x34E JUMP JUMPDEST PUSH3 0x3A3 PUSH3 0x39A DUP3 PUSH3 0x376 JUMP JUMPDEST DUP5 DUP5 SLOAD PUSH3 0x2E4 JUMP JUMPDEST DUP3 SSTORE POP POP POP POP JUMP JUMPDEST PUSH1 0x0 SWAP1 JUMP JUMPDEST PUSH3 0x3BA PUSH3 0x3AB JUMP JUMPDEST PUSH3 0x3C7 DUP2 DUP5 DUP5 PUSH3 0x380 JUMP JUMPDEST POP POP POP JUMP JUMPDEST JUMPDEST DUP2 DUP2 LT ISZERO PUSH3 0x3EF JUMPI PUSH3 0x3E3 PUSH1 0x0 DUP3 PUSH3 0x3B0 JUMP JUMPDEST PUSH1 0x1 DUP2 ADD SWAP1 POP PUSH3 0x3CD JUMP JUMPDEST POP POP JUMP JUMPDEST PUSH1 0x1F DUP3 GT ISZERO PUSH3 0x43E JUMPI PUSH3 0x408 DUP2 PUSH3 0x2B2 JUMP JUMPDEST PUSH3 0x413 DUP5 PUSH3 0x2C7 JUMP JUMPDEST DUP2 ADD PUSH1 0x20 DUP6 LT ISZERO PUSH3 0x423 JUMPI DUP2 SWAP1 POP JUMPDEST PUSH3 0x43B PUSH3 0x432 DUP6 PUSH3 0x2C7 JUMP JUMPDEST DUP4 ADD DUP3 PUSH3 0x3CC JUMP JUMPDEST POP POP JUMPDEST POP POP POP JUMP JUMPDEST PUSH1 0x0 DUP3 DUP3 SHR SWAP1 POP SWAP3 SWAP2 POP POP JUMP JUMPDEST PUSH1 0x0 PUSH3 0x463 PUSH1 0x0 NOT DUP5 PUSH1 0x8 MUL PUSH3 0x443 JUMP JUMPDEST NOT DUP1 DUP4 AND SWAP2 POP POP SWAP3 SWAP2 POP POP JUMP JUMPDEST PUSH1 0x0 PUSH3 0x47E DUP4 DUP4 PUSH3 0x450 JUMP JUMPDEST SWAP2 POP DUP3 PUSH1 0x2 MUL DUP3 OR SWAP1 POP SWAP3 SWAP2 POP POP JUMP JUMPDEST PUSH3 0x499 DUP3 PUSH3 0x214 JUMP JUMPDEST PUSH8 0xFFFFFFFFFFFFFFFF DUP2 GT ISZERO PUSH3 0x4B5 JUMPI PUSH3 0x4B4 PUSH3 0x21F JUMP JUMPDEST JUMPDEST PUSH3 0x4C1 DUP3 SLOAD PUSH3 0x27D JUMP JUMPDEST PUSH3 0x4CE DUP3 DUP3 DUP6 PUSH3 0x3F3 JUMP JUMPDEST PUSH1 0x0 PUSH1 0x20 SWAP1 POP PUSH1 0x1F DUP4 GT PUSH1 0x1 DUP2 EQ PUSH3 0x506 JUMPI PUSH1 0x0 DUP5 ISZERO PUSH3 0x4F1 JUMPI DUP3 DUP8 ADD MLOAD SWAP1 POP JUMPDEST PUSH3 0x4FD DUP6 DUP3 PUSH3 0x470 JUMP JUMPDEST DUP7 SSTORE POP PUSH3 0x56D JUMP JUMPDEST PUSH1 0x1F NOT DUP5 AND PUSH3 0x516 DUP7 PUSH3 0x2B2 JUMP JUMPDEST PUSH1 0x0 JUMPDEST DUP3 DUP2 LT ISZERO PUSH3 0x540 JUMPI DUP5 DUP10 ADD MLOAD DUP3 SSTORE PUSH1 0x1 DUP3 ADD SWAP2 POP PUSH1 0x20 DUP6 ADD SWAP5 POP PUSH1 0x20 DUP2 ADD SWAP1 POP PUSH3 0x519 JUMP JUMPDEST DUP7 DUP4 LT ISZERO PUSH3 0x560 JUMPI DUP5 DUP10 ADD MLOAD PUSH3 0x55C PUSH1 0x1F DUP10 AND DUP3 PUSH3 0x450 JUMP JUMPDEST DUP4 SSTORE POP JUMPDEST PUSH1 0x1 PUSH1 0x2 DUP9 MUL ADD DUP9 SSTORE POP POP POP JUMPDEST POP POP POP POP POP POP JUMP JUMPDEST PUSH2 0x2850 DUP1 PUSH3 0x585 PUSH1 0x0 CODECOPY PUSH1 0x0 RETURN INVALID PUSH1 0x80 PUSH1 0x40 MSTORE PUSH1 0x4 CALLDATASIZE LT PUSH2 0x109 JUMPI PUSH1 0x0 CALLDATALOAD PUSH1 0xE0 SHR DUP1 PUSH4 0x51C6590A GT PUSH2 0x95 JUMPI DUP1 PUSH4 0x95D89B41 GT PUSH2 0x64 JUMPI DUP1 PUSH4 0x95D89B41 EQ PUSH2 0x38B JUMPI DUP1 PUSH4 0x9C8F9F23 EQ PUSH2 0x3B6 JUMPI DUP1 PUSH4 0xA457C2D7 EQ PUSH2 0x3F4 JUMPI DUP1 PUSH4 0xA9059CBB EQ PUSH2 0x431 JUMPI DUP1 PUSH4 0xDD62ED3E EQ PUSH2 0x46E JUMPI PUSH2 0x109 JUMP JUMPDEST DUP1 PUSH4 0x51C6590A EQ PUSH2 0x2B6 JUMPI DUP1 PUSH4 0x59BF5D39 EQ PUSH2 0x2E6 JUMPI DUP1 PUSH4 0x70A08231 EQ PUSH2 0x311 JUMPI DUP1 PUSH4 0x7386479E EQ PUSH2 0x34E JUMPI PUSH2 0x109 JUMP JUMPDEST DUP1 PUSH4 0x1FFA582D GT PUSH2 0xDC JUMPI DUP1 PUSH4 0x1FFA582D EQ PUSH2 0x1CA JUMPI DUP1 PUSH4 0x23B872DD EQ PUSH2 0x1E6 JUMPI DUP1 PUSH4 0x313CE567 EQ PUSH2 0x223 JUMPI DUP1 PUSH4 0x39509351 EQ PUSH2 0x24E JUMPI DUP1 PUSH4 0x3EE12BD1 EQ PUSH2 0x28B JUMPI PUSH2 0x109 JUMP JUMPDEST DUP1 PUSH4 0x465B2F5 EQ PUSH2 0x10E JUMPI DUP1 PUSH4 0x6FDDE03 EQ PUSH2 0x137 JUMPI DUP1 PUSH4 0x95EA7B3 EQ PUSH2 0x162 JUMPI DUP1 PUSH4 0x18160DDD EQ PUSH2 0x19F JUMPI JUMPDEST PUSH1 0x0 DUP1 REVERT JUMPDEST CALLVALUE DUP1 ISZERO PUSH2 0x11A JUMPI PUSH1 0x0 DUP1 REVERT JUMPDEST POP PUSH2 0x135 PUSH1 0x4 DUP1 CALLDATASIZE SUB DUP2 ADD SWAP1 PUSH2 0x130 SWAP2 SWAP1 PUSH2 0x1990 JUMP JUMPDEST PUSH2 0x4AB JUMP JUMPDEST STOP JUMPDEST CALLVALUE DUP1 ISZERO PUSH2 0x143 JUMPI PUSH1 0x0 DUP1 REVERT JUMPDEST POP PUSH2 0x14C PUSH2 0x708 JUMP JUMPDEST PUSH1 0x40 MLOAD PUSH2 0x159 SWAP2 SWAP1 PUSH2 0x1A60 JUMP JUMPDEST PUSH1 0x40 MLOAD DUP1 SWAP2 SUB SWAP1 RETURN JUMPDEST CALLVALUE DUP1 ISZERO PUSH2 0x16E JUMPI PUSH1 0x0 DUP1 REVERT JUMPDEST POP PUSH2 0x189 PUSH1 0x4 DUP1 CALLDATASIZE SUB DUP2 ADD SWAP1 PUSH2 0x184 SWAP2 SWAP1 PUSH2 0x1AE0 JUMP JUMPDEST PUSH2 0x79A JUMP JUMPDEST PUSH1 0x40 MLOAD PUSH2 0x196 SWAP2 SWAP1 PUSH2 0x1B3B JUMP JUMPDEST PUSH1 0x40 MLOAD DUP1 SWAP2 SUB SWAP1 RETURN JUMPDEST CALLVALUE DUP1 ISZERO PUSH2 0x1AB JUMPI PUSH1 0x0 DUP1 REVERT JUMPDEST POP PUSH2 0x1B4 PUSH2 0x7BD JUMP JUMPDEST PUSH1 0x40 MLOAD PUSH2 0x1C1 SWAP2 SWAP1 PUSH2 0x1B65 JUMP JUMPDEST PUSH1 0x40 MLOAD DUP1 SWAP2 SUB SWAP1 RETURN JUMPDEST PUSH2 0x1E4 PUSH1 0x4 DUP1 CALLDATASIZE SUB DUP2 ADD SWAP1 PUSH2 0x1DF SWAP2 SWAP1 PUSH2 0x1B80 JUMP JUMPDEST PUSH2 0x7C7 JUMP JUMPDEST STOP JUMPDEST CALLVALUE DUP1 ISZERO PUSH2 0x1F2 JUMPI PUSH1 0x0 DUP1 REVERT JUMPDEST POP PUSH2 0x20D PUSH1 0x4 DUP1 CALLDATASIZE SUB DUP2 ADD SWAP1 PUSH2 0x208 SWAP2 SWAP1 PUSH2 0x1BAD JUMP JUMPDEST PUSH2 0x8DD JUMP JUMPDEST PUSH1 0x40 MLOAD PUSH2 0x21A SWAP2 SWAP1 PUSH2 0x1B3B JUMP JUMPDEST PUSH1 0x40 MLOAD DUP1 SWAP2 SUB SWAP1 RETURN JUMPDEST CALLVALUE DUP1 ISZERO PUSH2 0x22F JUMPI PUSH1 0x0 DUP1 REVERT JUMPDEST POP PUSH2 0x238 PUSH2 0x90C JUMP JUMPDEST PUSH1 0x40 MLOAD PUSH2 0x245 SWAP2 SWAP1 PUSH2 0x1C1C JUMP JUMPDEST PUSH1 0x40 MLOAD DUP1 SWAP2 SUB SWAP1 RETURN JUMPDEST CALLVALUE DUP1 ISZERO PUSH2 0x25A JUMPI PUSH1 0x0 DUP1 REVERT JUMPDEST POP PUSH2 0x275 PUSH1 0x4 DUP1 CALLDATASIZE SUB DUP2 ADD SWAP1 PUSH2 0x270 SWAP2 SWAP1 PUSH2 0x1AE0 JUMP JUMPDEST PUSH2 0x915 JUMP JUMPDEST PUSH1 0x40 MLOAD PUSH2 0x282 SWAP2 SWAP1 PUSH2 0x1B3B JUMP JUMPDEST PUSH1 0x40 MLOAD DUP1 SWAP2 SUB SWAP1 RETURN JUMPDEST CALLVALUE DUP1 ISZERO PUSH2 0x297 JUMPI PUSH1 0x0 DUP1 REVERT JUMPDEST POP PUSH2 0x2A0 PUSH2 0x94C JUMP JUMPDEST PUSH1 0x40 MLOAD PUSH2 0x2AD SWAP2 SWAP1 PUSH2 0x1C46 JUMP JUMPDEST PUSH1 0x40 MLOAD DUP1 SWAP2 SUB SWAP1 RETURN JUMPDEST PUSH2 0x2D0 PUSH1 0x4 DUP1 CALLDATASIZE SUB DUP2 ADD SWAP1 PUSH2 0x2CB SWAP2 SWAP1 PUSH2 0x1B80 JUMP JUMPDEST PUSH2 0x972 JUMP JUMPDEST PUSH1 0x40 MLOAD PUSH2 0x2DD SWAP2 SWAP1 PUSH2 0x1B65 JUMP JUMPDEST PUSH1 0x40 MLOAD DUP1 SWAP2 SUB SWAP1 RETURN JUMPDEST CALLVALUE DUP1 ISZERO PUSH2 0x2F2 JUMPI PUSH1 0x0 DUP1 REVERT JUMPDEST POP PUSH2 0x2FB PUSH2 0xC0B JUMP JUMPDEST PUSH1 0x40 MLOAD PUSH2 0x308 SWAP2 SWAP1 PUSH2 0x1B65 JUMP JUMPDEST PUSH1 0x40 MLOAD DUP1 SWAP2 SUB SWAP1 RETURN JUMPDEST CALLVALUE DUP1 ISZERO PUSH2 0x31D JUMPI PUSH1 0x0 DUP1 REVERT JUMPDEST POP PUSH2 0x338 PUSH1 0x4 DUP1 CALLDATASIZE SUB DUP2 ADD SWAP1 PUSH2 0x333 SWAP2 SWAP1 PUSH2 0x1C61 JUMP JUMPDEST PUSH2 0xCAE JUMP JUMPDEST PUSH1 0x40 MLOAD PUSH2 0x345 SWAP2 SWAP1 PUSH2 0x1B65 JUMP JUMPDEST PUSH1 0x40 MLOAD DUP1 SWAP2 SUB SWAP1 RETURN JUMPDEST CALLVALUE DUP1 ISZERO PUSH2 0x35A JUMPI PUSH1 0x0 DUP1 REVERT JUMPDEST POP PUSH2 0x375 PUSH1 0x4 DUP1 CALLDATASIZE SUB DUP2 ADD SWAP1 PUSH2 0x370 SWAP2 SWAP1 PUSH2 0x1C8E JUMP JUMPDEST PUSH2 0xCF6 JUMP JUMPDEST PUSH1 0x40 MLOAD PUSH2 0x382 SWAP2 SWAP1 PUSH2 0x1B65 JUMP JUMPDEST PUSH1 0x40 MLOAD DUP1 SWAP2 SUB SWAP1 RETURN JUMPDEST CALLVALUE DUP1 ISZERO PUSH2 0x397 JUMPI PUSH1 0x0 DUP1 REVERT JUMPDEST POP PUSH2 0x3A0 PUSH2 0xD9B JUMP JUMPDEST PUSH1 0x40 MLOAD PUSH2 0x3AD SWAP2 SWAP1 PUSH2 0x1A60 JUMP JUMPDEST PUSH1 0x40 MLOAD DUP1 SWAP2 SUB SWAP1 RETURN JUMPDEST CALLVALUE DUP1 ISZERO PUSH2 0x3C2 JUMPI PUSH1 0x0 DUP1 REVERT JUMPDEST POP PUSH2 0x3DD PUSH1 0x4 DUP1 CALLDATASIZE SUB DUP2 ADD SWAP1 PUSH2 0x3D8 SWAP2 SWAP1 PUSH2 0x1B80 JUMP JUMPDEST PUSH2 0xE2D JUMP JUMPDEST PUSH1 0x40 MLOAD PUSH2 0x3EB SWAP3 SWAP2 SWAP1 PUSH2 0x1CE1 JUMP JUMPDEST PUSH1 0x40 MLOAD DUP1 SWAP2 SUB SWAP1 RETURN JUMPDEST CALLVALUE DUP1 ISZERO PUSH2 0x400 JUMPI PUSH1 0x0 DUP1 REVERT JUMPDEST POP PUSH2 0x41B PUSH1 0x4 DUP1 CALLDATASIZE SUB DUP2 ADD SWAP1 PUSH2 0x416 SWAP2 SWAP1 PUSH2 0x1AE0 JUMP JUMPDEST PUSH2 0x1034 JUMP JUMPDEST PUSH1 0x40 MLOAD PUSH2 0x428 SWAP2 SWAP1 PUSH2 0x1B3B JUMP JUMPDEST PUSH1 0x40 MLOAD DUP1 SWAP2 SUB SWAP1 RETURN JUMPDEST CALLVALUE DUP1 ISZERO PUSH2 0x43D JUMPI PUSH1 0x0 DUP1 REVERT JUMPDEST POP PUSH2 0x458 PUSH1 0x4 DUP1 CALLDATASIZE SUB DUP2 ADD SWAP1 PUSH2 0x453 SWAP2 SWAP1 PUSH2 0x1AE0 JUMP JUMPDEST PUSH2 0x10AB JUMP JUMPDEST PUSH1 0x40 MLOAD PUSH2 0x465 SWAP2 SWAP1 PUSH2 0x1B3B JUMP JUMPDEST PUSH1 0x40 MLOAD DUP1 SWAP2 SUB SWAP1 RETURN JUMPDEST CALLVALUE DUP1 ISZERO PUSH2 0x47A JUMPI PUSH1 0x0 DUP1 REVERT JUMPDEST POP PUSH2 0x495 PUSH1 0x4 DUP1 CALLDATASIZE SUB DUP2 ADD SWAP1 PUSH2 0x490 SWAP2 SWAP1 PUSH2 0x1D0A JUMP JUMPDEST PUSH2 0x10CE JUMP JUMPDEST PUSH1 0x40 MLOAD PUSH2 0x4A2 SWAP2 SWAP1 PUSH2 0x1B65 JUMP JUMPDEST PUSH1 0x40 MLOAD DUP1 SWAP2 SUB SWAP1 RETURN JUMPDEST PUSH1 0x0 PUSH2 0x4BF DUP4 PUSH2 0x4B9 PUSH2 0xC0B JUMP JUMPDEST SELFBALANCE PUSH2 0xCF6 JUMP JUMPDEST SWAP1 POP DUP2 DUP2 LT ISZERO PUSH2 0x504 JUMPI PUSH1 0x40 MLOAD PUSH32 0x8C379A000000000000000000000000000000000000000000000000000000000 DUP2 MSTORE PUSH1 0x4 ADD PUSH2 0x4FB SWAP1 PUSH2 0x1DBC JUMP JUMPDEST PUSH1 0x40 MLOAD DUP1 SWAP2 SUB SWAP1 REVERT JUMPDEST PUSH1 0x5 PUSH1 0x0 SWAP1 SLOAD SWAP1 PUSH2 0x100 EXP SWAP1 DIV PUSH20 0xFFFFFFFFFFFFFFFFFFFFFFFFFFFFFFFFFFFFFFFF AND PUSH20 0xFFFFFFFFFFFFFFFFFFFFFFFFFFFFFFFFFFFFFFFF AND PUSH4 0x95EA7B3 ADDRESS DUP6 PUSH1 0x40 MLOAD DUP4 PUSH4 0xFFFFFFFF AND PUSH1 0xE0 SHL DUP2 MSTORE PUSH1 0x4 ADD PUSH2 0x561 SWAP3 SWAP2 SWAP1 PUSH2 0x1DDC JUMP JUMPDEST PUSH1 0x20 PUSH1 0x40 MLOAD DUP1 DUP4 SUB DUP2 PUSH1 0x0 DUP8 GAS CALL ISZERO DUP1 ISZERO PUSH2 0x580 JUMPI RETURNDATASIZE PUSH1 0x0 DUP1 RETURNDATACOPY RETURNDATASIZE PUSH1 0x0 REVERT JUMPDEST POP POP POP POP PUSH1 0x40 MLOAD RETURNDATASIZE PUSH1 0x1F NOT PUSH1 0x1F DUP3 ADD AND DUP3 ADD DUP1 PUSH1 0x40 MSTORE POP DUP2 ADD SWAP1 PUSH2 0x5A4 SWAP2 SWAP1 PUSH2 0x1E31 JUMP JUMPDEST POP PUSH1 0x5 PUSH1 0x0 SWAP1 SLOAD SWAP1 PUSH2 0x100 EXP SWAP1 DIV PUSH20 0xFFFFFFFFFFFFFFFFFFFFFFFFFFFFFFFFFFFFFFFF AND PUSH20 0xFFFFFFFFFFFFFFFFFFFFFFFFFFFFFFFFFFFFFFFF AND PUSH4 0x23B872DD PUSH2 0x5EB PUSH2 0x1155 JUMP JUMPDEST ADDRESS DUP7 PUSH1 0x40 MLOAD DUP5 PUSH4 0xFFFFFFFF AND PUSH1 0xE0 SHL DUP2 MSTORE PUSH1 0x4 ADD PUSH2 0x60B SWAP4 SWAP3 SWAP2 SWAP1 PUSH2 0x1E5E JUMP JUMPDEST PUSH1 0x20 PUSH1 0x40 MLOAD DUP1 DUP4 SUB DUP2 PUSH1 0x0 DUP8 GAS CALL ISZERO DUP1 ISZERO PUSH2 0x62A JUMPI RETURNDATASIZE PUSH1 0x0 DUP1 RETURNDATACOPY RETURNDATASIZE PUSH1 0x0 REVERT JUMPDEST POP POP POP POP PUSH1 0x40 MLOAD RETURNDATASIZE PUSH1 0x1F NOT PUSH1 0x1F DUP3 ADD AND DUP3 ADD DUP1 PUSH1 0x40 MSTORE POP DUP2 ADD SWAP1 PUSH2 0x64E SWAP2 SWAP1 PUSH2 0x1E31 JUMP JUMPDEST POP PUSH1 0x0 PUSH2 0x659 PUSH2 0x1155 JUMP JUMPDEST PUSH20 0xFFFFFFFFFFFFFFFFFFFFFFFFFFFFFFFFFFFFFFFF AND DUP3 PUSH1 0x40 MLOAD PUSH2 0x67C SWAP1 PUSH2 0x1EC6 JUMP JUMPDEST PUSH1 0x0 PUSH1 0x40 MLOAD DUP1 DUP4 SUB DUP2 DUP6 DUP8 GAS CALL SWAP3 POP POP POP RETURNDATASIZE DUP1 PUSH1 0x0 DUP2 EQ PUSH2 0x6B9 JUMPI PUSH1 0x40 MLOAD SWAP2 POP PUSH1 0x1F NOT PUSH1 0x3F RETURNDATASIZE ADD AND DUP3 ADD PUSH1 0x40 MSTORE RETURNDATASIZE DUP3 MSTORE RETURNDATASIZE PUSH1 0x0 PUSH1 0x20 DUP5 ADD RETURNDATACOPY PUSH2 0x6BE JUMP JUMPDEST PUSH1 0x60 SWAP2 POP JUMPDEST POP POP SWAP1 POP DUP1 PUSH2 0x702 JUMPI PUSH1 0x40 MLOAD PUSH32 0x8C379A000000000000000000000000000000000000000000000000000000000 DUP2 MSTORE PUSH1 0x4 ADD PUSH2 0x6F9 SWAP1 PUSH2 0x1F27 JUMP JUMPDEST PUSH1 0x40 MLOAD DUP1 SWAP2 SUB SWAP1 REVERT JUMPDEST POP POP POP POP JUMP JUMPDEST PUSH1 0x60 PUSH1 0x3 DUP1 SLOAD PUSH2 0x717 SWAP1 PUSH2 0x1F76 JUMP JUMPDEST DUP1 PUSH1 0x1F ADD PUSH1 0x20 DUP1 SWAP2 DIV MUL PUSH1 0x20 ADD PUSH1 0x40 MLOAD SWAP1 DUP2 ADD PUSH1 0x40 MSTORE DUP1 SWAP3 SWAP2 SWAP1 DUP2 DUP2 MSTORE PUSH1 0x20 ADD DUP3 DUP1 SLOAD PUSH2 0x743 SWAP1 PUSH2 0x1F76 JUMP JUMPDEST DUP1 ISZERO PUSH2 0x790 JUMPI DUP1 PUSH1 0x1F LT PUSH2 0x765 JUMPI PUSH2 0x100 DUP1 DUP4 SLOAD DIV MUL DUP4 MSTORE SWAP2 PUSH1 0x20 ADD SWAP2 PUSH2 0x790 JUMP JUMPDEST DUP3 ADD SWAP2 SWAP1 PUSH1 0x0 MSTORE PUSH1 0x20 PUSH1 0x0 KECCAK256 SWAP1 JUMPDEST DUP2 SLOAD DUP2 MSTORE SWAP1 PUSH1 0x1 ADD SWAP1 PUSH1 0x20 ADD DUP1 DUP4 GT PUSH2 0x773 JUMPI DUP3 SWAP1 SUB PUSH1 0x1F AND DUP3 ADD SWAP2 JUMPDEST POP POP POP POP POP SWAP1 POP SWAP1 JUMP JUMPDEST PUSH1 0x0 DUP1 PUSH2 0x7A5 PUSH2 0x1155 JUMP JUMPDEST SWAP1 POP PUSH2 0x7B2 DUP2 DUP6 DUP6 PUSH2 0x115D JUMP JUMPDEST PUSH1 0x1 SWAP2 POP POP SWAP3 SWAP2 POP POP JUMP JUMPDEST PUSH1 0x0 PUSH1 0x2 SLOAD SWAP1 POP SWAP1 JUMP JUMPDEST PUSH1 0x0 PUSH2 0x7D1 PUSH2 0xC0B JUMP JUMPDEST SWAP1 POP PUSH1 0x0 PUSH2 0x7EB CALLVALUE CALLVALUE SELFBALANCE PUSH2 0x7E5 SWAP2 SWAP1 PUSH2 0x1FD6 JUMP JUMPDEST DUP5 PUSH2 0xCF6 JUMP JUMPDEST SWAP1 POP DUP3 DUP2 LT ISZERO PUSH2 0x830 JUMPI PUSH1 0x40 MLOAD PUSH32 0x8C379A000000000000000000000000000000000000000000000000000000000 DUP2 MSTORE PUSH1 0x4 ADD PUSH2 0x827 SWAP1 PUSH2 0x1DBC JUMP JUMPDEST PUSH1 0x40 MLOAD DUP1 SWAP2 SUB SWAP1 REVERT JUMPDEST PUSH1 0x5 PUSH1 0x0 SWAP1 SLOAD SWAP1 PUSH2 0x100 EXP SWAP1 DIV PUSH20 0xFFFFFFFFFFFFFFFFFFFFFFFFFFFFFFFFFFFFFFFF AND PUSH20 0xFFFFFFFFFFFFFFFFFFFFFFFFFFFFFFFFFFFFFFFF AND PUSH4 0xA9059CBB PUSH2 0x876 PUSH2 0x1155 JUMP JUMPDEST DUP4 PUSH1 0x40 MLOAD DUP4 PUSH4 0xFFFFFFFF AND PUSH1 0xE0 SHL DUP2 MSTORE PUSH1 0x4 ADD PUSH2 0x894 SWAP3 SWAP2 SWAP1 PUSH2 0x1DDC JUMP JUMPDEST PUSH1 0x20 PUSH1 0x40 MLOAD DUP1 DUP4 SUB DUP2 PUSH1 0x0 DUP8 GAS CALL ISZERO DUP1 ISZERO PUSH2 0x8B3 JUMPI RETURNDATASIZE PUSH1 0x0 DUP1 RETURNDATACOPY RETURNDATASIZE PUSH1 0x0 REVERT JUMPDEST POP POP POP POP PUSH1 0x40 MLOAD RETURNDATASIZE PUSH1 0x1F NOT PUSH1 0x1F DUP3 ADD AND DUP3 ADD DUP1 PUSH1 0x40 MSTORE POP DUP2 ADD SWAP1 PUSH2 0x8D7 SWAP2 SWAP1 PUSH2 0x1E31 JUMP JUMPDEST POP POP POP POP JUMP JUMPDEST PUSH1 0x0 DUP1 PUSH2 0x8E8 PUSH2 0x1155 JUMP JUMPDEST SWAP1 POP PUSH2 0x8F5 DUP6 DUP3 DUP6 PUSH2 0x1326 JUMP JUMPDEST PUSH2 0x900 DUP6 DUP6 DUP6 PUSH2 0x13B2 JUMP JUMPDEST PUSH1 0x1 SWAP2 POP POP SWAP4 SWAP3 POP POP POP JUMP JUMPDEST PUSH1 0x0 PUSH1 0x12 SWAP1 POP SWAP1 JUMP JUMPDEST PUSH1 0x0 DUP1 PUSH2 0x920 PUSH2 0x1155 JUMP JUMPDEST SWAP1 POP PUSH2 0x941 DUP2 DUP6 DUP6 PUSH2 0x932 DUP6 DUP10 PUSH2 0x10CE JUMP JUMPDEST PUSH2 0x93C SWAP2 SWAP1 PUSH2 0x200A JUMP JUMPDEST PUSH2 0x115D JUMP JUMPDEST PUSH1 0x1 SWAP2 POP POP SWAP3 SWAP2 POP POP JUMP JUMPDEST PUSH1 0x5 PUSH1 0x0 SWAP1 SLOAD SWAP1 PUSH2 0x100 EXP SWAP1 DIV PUSH20 0xFFFFFFFFFFFFFFFFFFFFFFFFFFFFFFFFFFFFFFFF AND DUP2 JUMP JUMPDEST PUSH1 0x0 DUP1 PUSH1 0x0 SELFBALANCE SWAP1 POP PUSH1 0x0 PUSH2 0x984 PUSH2 0xC0B JUMP JUMPDEST SWAP1 POP PUSH1 0x0 PUSH1 0x5 PUSH1 0x0 SWAP1 SLOAD SWAP1 PUSH2 0x100 EXP SWAP1 DIV PUSH20 0xFFFFFFFFFFFFFFFFFFFFFFFFFFFFFFFFFFFFFFFF AND SWAP1 POP PUSH1 0x0 DUP3 SUB PUSH2 0xAD5 JUMPI DUP1 PUSH20 0xFFFFFFFFFFFFFFFFFFFFFFFFFFFFFFFFFFFFFFFF AND PUSH4 0x95EA7B3 ADDRESS DUP9 PUSH1 0x40 MLOAD DUP4 PUSH4 0xFFFFFFFF AND PUSH1 0xE0 SHL DUP2 MSTORE PUSH1 0x4 ADD PUSH2 0x9F0 SWAP3 SWAP2 SWAP1 PUSH2 0x1DDC JUMP JUMPDEST PUSH1 0x20 PUSH1 0x40 MLOAD DUP1 DUP4 SUB DUP2 PUSH1 0x0 DUP8 GAS CALL ISZERO DUP1 ISZERO PUSH2 0xA0F JUMPI RETURNDATASIZE PUSH1 0x0 DUP1 RETURNDATACOPY RETURNDATASIZE PUSH1 0x0 REVERT JUMPDEST POP POP POP POP PUSH1 0x40 MLOAD RETURNDATASIZE PUSH1 0x1F NOT PUSH1 0x1F DUP3 ADD AND DUP3 ADD DUP1 PUSH1 0x40 MSTORE POP DUP2 ADD SWAP1 PUSH2 0xA33 SWAP2 SWAP1 PUSH2 0x1E31 JUMP JUMPDEST POP DUP1 PUSH20 0xFFFFFFFFFFFFFFFFFFFFFFFFFFFFFFFFFFFFFFFF AND PUSH4 0x23B872DD PUSH2 0xA58 PUSH2 0x1155 JUMP JUMPDEST ADDRESS DUP10 PUSH1 0x40 MLOAD DUP5 PUSH4 0xFFFFFFFF AND PUSH1 0xE0 SHL DUP2 MSTORE PUSH1 0x4 ADD PUSH2 0xA78 SWAP4 SWAP3 SWAP2 SWAP1 PUSH2 0x1E5E JUMP JUMPDEST PUSH1 0x20 PUSH1 0x40 MLOAD DUP1 DUP4 SUB DUP2 PUSH1 0x0 DUP8 GAS CALL ISZERO DUP1 ISZERO PUSH2 0xA97 JUMPI RETURNDATASIZE PUSH1 0x0 DUP1 RETURNDATACOPY RETURNDATASIZE PUSH1 0x0 REVERT JUMPDEST POP POP POP POP PUSH1 0x40 MLOAD RETURNDATASIZE PUSH1 0x1F NOT PUSH1 0x1F DUP3 ADD AND DUP3 ADD DUP1 PUSH1 0x40 MSTORE POP DUP2 ADD SWAP1 PUSH2 0xABB SWAP2 SWAP1 PUSH2 0x1E31 JUMP JUMPDEST POP DUP3 SWAP4 POP PUSH2 0xAD0 PUSH2 0xACA PUSH2 0x1155 JUMP JUMPDEST DUP6 PUSH2 0x1628 JUMP JUMPDEST PUSH2 0xBFF JUMP JUMPDEST PUSH1 0x0 CALLVALUE DUP5 PUSH2 0xAE3 SWAP2 SWAP1 PUSH2 0x1FD6 JUMP JUMPDEST SWAP1 POP PUSH1 0x0 DUP4 DUP3 CALLVALUE PUSH2 0xAF4 SWAP2 SWAP1 PUSH2 0x206D JUMP JUMPDEST PUSH2 0xAFE SWAP2 SWAP1 PUSH2 0x209E JUMP JUMPDEST SWAP1 POP DUP1 DUP9 LT ISZERO PUSH2 0xB43 JUMPI PUSH1 0x40 MLOAD PUSH32 0x8C379A000000000000000000000000000000000000000000000000000000000 DUP2 MSTORE PUSH1 0x4 ADD PUSH2 0xB3A SWAP1 PUSH2 0x2152 JUMP JUMPDEST PUSH1 0x40 MLOAD DUP1 SWAP2 SUB SWAP1 REVERT JUMPDEST DUP3 PUSH20 0xFFFFFFFFFFFFFFFFFFFFFFFFFFFFFFFFFFFFFFFF AND PUSH4 0x23B872DD PUSH2 0xB67 PUSH2 0x1155 JUMP JUMPDEST ADDRESS DUP5 PUSH1 0x40 MLOAD DUP5 PUSH4 0xFFFFFFFF AND PUSH1 0xE0 SHL DUP2 MSTORE PUSH1 0x4 ADD PUSH2 0xB87 SWAP4 SWAP3 SWAP2 SWAP1 PUSH2 0x1E5E JUMP JUMPDEST PUSH1 0x20 PUSH1 0x40 MLOAD DUP1 DUP4 SUB DUP2 PUSH1 0x0 DUP8 GAS CALL ISZERO DUP1 ISZERO PUSH2 0xBA6 JUMPI RETURNDATASIZE PUSH1 0x0 DUP1 RETURNDATACOPY RETURNDATASIZE PUSH1 0x0 REVERT JUMPDEST POP POP POP POP PUSH1 0x40 MLOAD RETURNDATASIZE PUSH1 0x1F NOT PUSH1 0x1F DUP3 ADD AND DUP3 ADD DUP1 PUSH1 0x40 MSTORE POP DUP2 ADD SWAP1 PUSH2 0xBCA SWAP2 SWAP1 PUSH2 0x1E31 JUMP JUMPDEST POP DUP2 CALLVALUE PUSH2 0xBD7 SWAP2 SWAP1 PUSH2 0x206D JUMP JUMPDEST PUSH2 0xBDF PUSH2 0x7BD JUMP JUMPDEST PUSH2 0xBE9 SWAP2 SWAP1 PUSH2 0x209E JUMP JUMPDEST SWAP6 POP PUSH2 0xBFC PUSH2 0xBF6 PUSH2 0x1155 JUMP JUMPDEST DUP8 PUSH2 0x1628 JUMP JUMPDEST POP POP JUMPDEST DUP4 SWAP5 POP POP POP POP POP SWAP2 SWAP1 POP JUMP JUMPDEST PUSH1 0x0 PUSH1 0x5 PUSH1 0x0 SWAP1 SLOAD SWAP1 PUSH2 0x100 EXP SWAP1 DIV PUSH20 0xFFFFFFFFFFFFFFFFFFFFFFFFFFFFFFFFFFFFFFFF AND PUSH20 0xFFFFFFFFFFFFFFFFFFFFFFFFFFFFFFFFFFFFFFFF AND PUSH4 0x70A08231 ADDRESS PUSH1 0x40 MLOAD DUP3 PUSH4 0xFFFFFFFF AND PUSH1 0xE0 SHL DUP2 MSTORE PUSH1 0x4 ADD PUSH2 0xC68 SWAP2 SWAP1 PUSH2 0x1C46 JUMP JUMPDEST PUSH1 0x20 PUSH1 0x40 MLOAD DUP1 DUP4 SUB DUP2 DUP7 GAS STATICCALL ISZERO DUP1 ISZERO PUSH2 0xC85 JUMPI RETURNDATASIZE PUSH1 0x0 DUP1 RETURNDATACOPY RETURNDATASIZE PUSH1 0x0 REVERT JUMPDEST POP POP POP POP PUSH1 0x40 MLOAD RETURNDATASIZE PUSH1 0x1F NOT PUSH1 0x1F DUP3 ADD AND DUP3 ADD DUP1 PUSH1 0x40 MSTORE POP DUP2 ADD SWAP1 PUSH2 0xCA9 SWAP2 SWAP1 PUSH2 0x2187 JUMP JUMPDEST SWAP1 POP SWAP1 JUMP JUMPDEST PUSH1 0x0 DUP1 PUSH1 0x0 DUP4 PUSH20 0xFFFFFFFFFFFFFFFFFFFFFFFFFFFFFFFFFFFFFFFF AND PUSH20 0xFFFFFFFFFFFFFFFFFFFFFFFFFFFFFFFFFFFFFFFF AND DUP2 MSTORE PUSH1 0x20 ADD SWAP1 DUP2 MSTORE PUSH1 0x20 ADD PUSH1 0x0 KECCAK256 SLOAD SWAP1 POP SWAP2 SWAP1 POP JUMP JUMPDEST PUSH1 0x0 DUP1 DUP4 GT DUP1 ISZERO PUSH2 0xD07 JUMPI POP PUSH1 0x0 DUP3 GT JUMPDEST PUSH2 0xD46 JUMPI PUSH1 0x40 MLOAD PUSH32 0x8C379A000000000000000000000000000000000000000000000000000000000 DUP2 MSTORE PUSH1 0x4 ADD PUSH2 0xD3D SWAP1 PUSH2 0x2200 JUMP JUMPDEST PUSH1 0x40 MLOAD DUP1 SWAP2 SUB SWAP1 REVERT JUMPDEST PUSH1 0x0 PUSH1 0x64 PUSH1 0x63 DUP7 PUSH2 0xD57 SWAP2 SWAP1 PUSH2 0x209E JUMP JUMPDEST PUSH2 0xD61 SWAP2 SWAP1 PUSH2 0x206D JUMP JUMPDEST SWAP1 POP PUSH1 0x0 DUP2 DUP5 PUSH2 0xD71 SWAP2 SWAP1 PUSH2 0x209E JUMP JUMPDEST SWAP1 POP PUSH1 0x0 DUP3 DUP7 PUSH2 0xD81 SWAP2 SWAP1 PUSH2 0x200A JUMP JUMPDEST SWAP1 POP DUP1 DUP3 PUSH2 0xD8F SWAP2 SWAP1 PUSH2 0x206D JUMP JUMPDEST SWAP4 POP POP POP POP SWAP4 SWAP3 POP POP POP JUMP JUMPDEST PUSH1 0x60 PUSH1 0x4 DUP1 SLOAD PUSH2 0xDAA SWAP1 PUSH2 0x1F76 JUMP JUMPDEST DUP1 PUSH1 0x1F ADD PUSH1 0x20 DUP1 SWAP2 DIV MUL PUSH1 0x20 ADD PUSH1 0x40 MLOAD SWAP1 DUP2 ADD PUSH1 0x40 MSTORE DUP1 SWAP3 SWAP2 SWAP1 DUP2 DUP2 MSTORE PUSH1 0x20 ADD DUP3 DUP1 SLOAD PUSH2 0xDD6 SWAP1 PUSH2 0x1F76 JUMP JUMPDEST DUP1 ISZERO PUSH2 0xE23 JUMPI DUP1 PUSH1 0x1F LT PUSH2 0xDF8 JUMPI PUSH2 0x100 DUP1 DUP4 SLOAD DIV MUL DUP4 MSTORE SWAP2 PUSH1 0x20 ADD SWAP2 PUSH2 0xE23 JUMP JUMPDEST DUP3 ADD SWAP2 SWAP1 PUSH1 0x0 MSTORE PUSH1 0x20 PUSH1 0x0 KECCAK256 SWAP1 JUMPDEST DUP2 SLOAD DUP2 MSTORE SWAP1 PUSH1 0x1 ADD SWAP1 PUSH1 0x20 ADD DUP1 DUP4 GT PUSH2 0xE06 JUMPI DUP3 SWAP1 SUB PUSH1 0x1F AND DUP3 ADD SWAP2 JUMPDEST POP POP POP POP POP SWAP1 POP SWAP1 JUMP JUMPDEST PUSH1 0x0 DUP1 PUSH1 0x0 DUP4 GT PUSH2 0xE73 JUMPI PUSH1 0x40 MLOAD PUSH32 0x8C379A000000000000000000000000000000000000000000000000000000000 DUP2 MSTORE PUSH1 0x4 ADD PUSH2 0xE6A SWAP1 PUSH2 0x2292 JUMP JUMPDEST PUSH1 0x40 MLOAD DUP1 SWAP2 SUB SWAP1 REVERT JUMPDEST PUSH1 0x0 SELFBALANCE SWAP1 POP PUSH1 0x0 PUSH2 0xE82 PUSH2 0x7BD JUMP JUMPDEST SWAP1 POP PUSH1 0x0 DUP2 DUP7 DUP5 PUSH2 0xE93 SWAP2 SWAP1 PUSH2 0x209E JUMP JUMPDEST PUSH2 0xE9D SWAP2 SWAP1 PUSH2 0x206D JUMP JUMPDEST SWAP1 POP PUSH1 0x0 DUP3 DUP8 PUSH2 0xEAB PUSH2 0xC0B JUMP JUMPDEST PUSH2 0xEB5 SWAP2 SWAP1 PUSH2 0x209E JUMP JUMPDEST PUSH2 0xEBF SWAP2 SWAP1 PUSH2 0x206D JUMP JUMPDEST SWAP1 POP PUSH2 0xED2 PUSH2 0xECC PUSH2 0x1155 JUMP JUMPDEST DUP9 PUSH2 0x177E JUMP JUMPDEST PUSH1 0x0 PUSH2 0xEDC PUSH2 0x1155 JUMP JUMPDEST PUSH20 0xFFFFFFFFFFFFFFFFFFFFFFFFFFFFFFFFFFFFFFFF AND DUP4 PUSH1 0x40 MLOAD PUSH2 0xEFF SWAP1 PUSH2 0x1EC6 JUMP JUMPDEST PUSH1 0x0 PUSH1 0x40 MLOAD DUP1 DUP4 SUB DUP2 DUP6 DUP8 GAS CALL SWAP3 POP POP POP RETURNDATASIZE DUP1 PUSH1 0x0 DUP2 EQ PUSH2 0xF3C JUMPI PUSH1 0x40 MLOAD SWAP2 POP PUSH1 0x1F NOT PUSH1 0x3F RETURNDATASIZE ADD AND DUP3 ADD PUSH1 0x40 MSTORE RETURNDATASIZE DUP3 MSTORE RETURNDATASIZE PUSH1 0x0 PUSH1 0x20 DUP5 ADD RETURNDATACOPY PUSH2 0xF41 JUMP JUMPDEST PUSH1 0x60 SWAP2 POP JUMPDEST POP POP SWAP1 POP DUP1 PUSH2 0xF7C JUMPI PUSH1 0x40 MLOAD PUSH32 0x81063E5100000000000000000000000000000000000000000000000000000000 DUP2 MSTORE PUSH1 0x4 ADD PUSH1 0x40 MLOAD DUP1 SWAP2 SUB SWAP1 REVERT JUMPDEST PUSH1 0x5 PUSH1 0x0 SWAP1 SLOAD SWAP1 PUSH2 0x100 EXP SWAP1 DIV PUSH20 0xFFFFFFFFFFFFFFFFFFFFFFFFFFFFFFFFFFFFFFFF AND PUSH20 0xFFFFFFFFFFFFFFFFFFFFFFFFFFFFFFFFFFFFFFFF AND PUSH4 0xA9059CBB PUSH2 0xFC2 PUSH2 0x1155 JUMP JUMPDEST DUP5 PUSH1 0x40 MLOAD DUP4 PUSH4 0xFFFFFFFF AND PUSH1 0xE0 SHL DUP2 MSTORE PUSH1 0x4 ADD PUSH2 0xFE0 SWAP3 SWAP2 SWAP1 PUSH2 0x1DDC JUMP JUMPDEST PUSH1 0x20 PUSH1 0x40 MLOAD DUP1 DUP4 SUB DUP2 PUSH1 0x0 DUP8 GAS CALL ISZERO DUP1 ISZERO PUSH2 0xFFF JUMPI RETURNDATASIZE PUSH1 0x0 DUP1 RETURNDATACOPY RETURNDATASIZE PUSH1 0x0 REVERT JUMPDEST POP POP POP POP PUSH1 0x40 MLOAD RETURNDATASIZE PUSH1 0x1F NOT PUSH1 0x1F DUP3 ADD AND DUP3 ADD DUP1 PUSH1 0x40 MSTORE POP DUP2 ADD SWAP1 PUSH2 0x1023 SWAP2 SWAP1 PUSH2 0x1E31 JUMP JUMPDEST POP DUP3 DUP3 SWAP7 POP SWAP7 POP POP POP POP POP POP SWAP2 POP SWAP2 JUMP JUMPDEST PUSH1 0x0 DUP1 PUSH2 0x103F PUSH2 0x1155 JUMP JUMPDEST SWAP1 POP PUSH1 0x0 PUSH2 0x104D DUP3 DUP7 PUSH2 0x10CE JUMP JUMPDEST SWAP1 POP DUP4 DUP2 LT ISZERO PUSH2 0x1092 JUMPI PUSH1 0x40 MLOAD PUSH32 0x8C379A000000000000000000000000000000000000000000000000000000000 DUP2 MSTORE PUSH1 0x4 ADD PUSH2 0x1089 SWAP1 PUSH2 0x2324 JUMP JUMPDEST PUSH1 0x40 MLOAD DUP1 SWAP2 SUB SWAP1 REVERT JUMPDEST PUSH2 0x109F DUP3 DUP7 DUP7 DUP5 SUB PUSH2 0x115D JUMP JUMPDEST PUSH1 0x1 SWAP3 POP POP POP SWAP3 SWAP2 POP POP JUMP JUMPDEST PUSH1 0x0 DUP1 PUSH2 0x10B6 PUSH2 0x1155 JUMP JUMPDEST SWAP1 POP PUSH2 0x10C3 DUP2 DUP6 DUP6 PUSH2 0x13B2 JUMP JUMPDEST PUSH1 0x1 SWAP2 POP POP SWAP3 SWAP2 POP POP JUMP JUMPDEST PUSH1 0x0 PUSH1 0x1 PUSH1 0x0 DUP5 PUSH20 0xFFFFFFFFFFFFFFFFFFFFFFFFFFFFFFFFFFFFFFFF AND PUSH20 0xFFFFFFFFFFFFFFFFFFFFFFFFFFFFFFFFFFFFFFFF AND DUP2 MSTORE PUSH1 0x20 ADD SWAP1 DUP2 MSTORE PUSH1 0x20 ADD PUSH1 0x0 KECCAK256 PUSH1 0x0 DUP4 PUSH20 0xFFFFFFFFFFFFFFFFFFFFFFFFFFFFFFFFFFFFFFFF AND PUSH20 0xFFFFFFFFFFFFFFFFFFFFFFFFFFFFFFFFFFFFFFFF AND DUP2 MSTORE PUSH1 0x20 ADD SWAP1 DUP2 MSTORE PUSH1 0x20 ADD PUSH1 0x0 KECCAK256 SLOAD SWAP1 POP SWAP3 SWAP2 POP POP JUMP JUMPDEST PUSH1 0x0 CALLER SWAP1 POP SWAP1 JUMP JUMPDEST PUSH1 0x0 PUSH20 0xFFFFFFFFFFFFFFFFFFFFFFFFFFFFFFFFFFFFFFFF AND DUP4 PUSH20 0xFFFFFFFFFFFFFFFFFFFFFFFFFFFFFFFFFFFFFFFF AND SUB PUSH2 0x11CC JUMPI PUSH1 0x40 MLOAD PUSH32 0x8C379A000000000000000000000000000000000000000000000000000000000 DUP2 MSTORE PUSH1 0x4 ADD PUSH2 0x11C3 SWAP1 PUSH2 0x23B6 JUMP JUMPDEST PUSH1 0x40 MLOAD DUP1 SWAP2 SUB SWAP1 REVERT JUMPDEST PUSH1 0x0 PUSH20 0xFFFFFFFFFFFFFFFFFFFFFFFFFFFFFFFFFFFFFFFF AND DUP3 PUSH20 0xFFFFFFFFFFFFFFFFFFFFFFFFFFFFFFFFFFFFFFFF AND SUB PUSH2 0x123B JUMPI PUSH1 0x40 MLOAD PUSH32 0x8C379A000000000000000000000000000000000000000000000000000000000 DUP2 MSTORE PUSH1 0x4 ADD PUSH2 0x1232 SWAP1 PUSH2 0x2448 JUMP JUMPDEST PUSH1 0x40 MLOAD DUP1 SWAP2 SUB SWAP1 REVERT JUMPDEST DUP1 PUSH1 0x1 PUSH1 0x0 DUP6 PUSH20 0xFFFFFFFFFFFFFFFFFFFFFFFFFFFFFFFFFFFFFFFF AND PUSH20 0xFFFFFFFFFFFFFFFFFFFFFFFFFFFFFFFFFFFFFFFF AND DUP2 MSTORE PUSH1 0x20 ADD SWAP1 DUP2 MSTORE PUSH1 0x20 ADD PUSH1 0x0 KECCAK256 PUSH1 0x0 DUP5 PUSH20 0xFFFFFFFFFFFFFFFFFFFFFFFFFFFFFFFFFFFFFFFF AND PUSH20 0xFFFFFFFFFFFFFFFFFFFFFFFFFFFFFFFFFFFFFFFF AND DUP2 MSTORE PUSH1 0x20 ADD SWAP1 DUP2 MSTORE PUSH1 0x20 ADD PUSH1 0x0 KECCAK256 DUP2 SWAP1 SSTORE POP DUP2 PUSH20 0xFFFFFFFFFFFFFFFFFFFFFFFFFFFFFFFFFFFFFFFF AND DUP4 PUSH20 0xFFFFFFFFFFFFFFFFFFFFFFFFFFFFFFFFFFFFFFFF AND PUSH32 0x8C5BE1E5EBEC7D5BD14F71427D1E84F3DD0314C0F7B2291E5B200AC8C7C3B925 DUP4 PUSH1 0x40 MLOAD PUSH2 0x1319 SWAP2 SWAP1 PUSH2 0x1B65 JUMP JUMPDEST PUSH1 0x40 MLOAD DUP1 SWAP2 SUB SWAP1 LOG3 POP POP POP JUMP JUMPDEST PUSH1 0x0 PUSH2 0x1332 DUP5 DUP5 PUSH2 0x10CE JUMP JUMPDEST SWAP1 POP PUSH32 0xFFFFFFFFFFFFFFFFFFFFFFFFFFFFFFFFFFFFFFFFFFFFFFFFFFFFFFFFFFFFFFFF DUP2 EQ PUSH2 0x13AC JUMPI DUP2 DUP2 LT ISZERO PUSH2 0x139E JUMPI PUSH1 0x40 MLOAD PUSH32 0x8C379A000000000000000000000000000000000000000000000000000000000 DUP2 MSTORE PUSH1 0x4 ADD PUSH2 0x1395 SWAP1 PUSH2 0x24B4 JUMP JUMPDEST PUSH1 0x40 MLOAD DUP1 SWAP2 SUB SWAP1 REVERT JUMPDEST PUSH2 0x13AB DUP5 DUP5 DUP5 DUP5 SUB PUSH2 0x115D JUMP JUMPDEST JUMPDEST POP POP POP POP JUMP JUMPDEST PUSH1 0x0 PUSH20 0xFFFFFFFFFFFFFFFFFFFFFFFFFFFFFFFFFFFFFFFF AND DUP4 PUSH20 0xFFFFFFFFFFFFFFFFFFFFFFFFFFFFFFFFFFFFFFFF AND SUB PUSH2 0x1421 JUMPI PUSH1 0x40 MLOAD PUSH32 0x8C379A000000000000000000000000000000000000000000000000000000000 DUP2 MSTORE PUSH1 0x4 ADD PUSH2 0x1418 SWAP1 PUSH2 0x2546 JUMP JUMPDEST PUSH1 0x40 MLOAD DUP1 SWAP2 SUB SWAP1 REVERT JUMPDEST PUSH1 0x0 PUSH20 0xFFFFFFFFFFFFFFFFFFFFFFFFFFFFFFFFFFFFFFFF AND DUP3 PUSH20 0xFFFFFFFFFFFFFFFFFFFFFFFFFFFFFFFFFFFFFFFF AND SUB PUSH2 0x1490 JUMPI PUSH1 0x40 MLOAD PUSH32 0x8C379A000000000000000000000000000000000000000000000000000000000 DUP2 MSTORE PUSH1 0x4 ADD PUSH2 0x1487 SWAP1 PUSH2 0x25D8 JUMP JUMPDEST PUSH1 0x40 MLOAD DUP1 SWAP2 SUB SWAP1 REVERT JUMPDEST PUSH2 0x149B DUP4 DUP4 DUP4 PUSH2 0x194B JUMP JUMPDEST PUSH1 0x0 DUP1 PUSH1 0x0 DUP6 PUSH20 0xFFFFFFFFFFFFFFFFFFFFFFFFFFFFFFFFFFFFFFFF AND PUSH20 0xFFFFFFFFFFFFFFFFFFFFFFFFFFFFFFFFFFFFFFFF AND DUP2 MSTORE PUSH1 0x20 ADD SWAP1 DUP2 MSTORE PUSH1 0x20 ADD PUSH1 0x0 KECCAK256 SLOAD SWAP1 POP DUP2 DUP2 LT ISZERO PUSH2 0x1521 JUMPI PUSH1 0x40 MLOAD PUSH32 0x8C379A000000000000000000000000000000000000000000000000000000000 DUP2 MSTORE PUSH1 0x4 ADD PUSH2 0x1518 SWAP1 PUSH2 0x266A JUMP JUMPDEST PUSH1 0x40 MLOAD DUP1 SWAP2 SUB SWAP1 REVERT JUMPDEST DUP2 DUP2 SUB PUSH1 0x0 DUP1 DUP7 PUSH20 0xFFFFFFFFFFFFFFFFFFFFFFFFFFFFFFFFFFFFFFFF AND PUSH20 0xFFFFFFFFFFFFFFFFFFFFFFFFFFFFFFFFFFFFFFFF AND DUP2 MSTORE PUSH1 0x20 ADD SWAP1 DUP2 MSTORE PUSH1 0x20 ADD PUSH1 0x0 KECCAK256 DUP2 SWAP1 SSTORE POP DUP2 PUSH1 0x0 DUP1 DUP6 PUSH20 0xFFFFFFFFFFFFFFFFFFFFFFFFFFFFFFFFFFFFFFFF AND PUSH20 0xFFFFFFFFFFFFFFFFFFFFFFFFFFFFFFFFFFFFFFFF AND DUP2 MSTORE PUSH1 0x20 ADD SWAP1 DUP2 MSTORE PUSH1 0x20 ADD PUSH1 0x0 KECCAK256 PUSH1 0x0 DUP3 DUP3 SLOAD ADD SWAP3 POP POP DUP2 SWAP1 SSTORE POP DUP3 PUSH20 0xFFFFFFFFFFFFFFFFFFFFFFFFFFFFFFFFFFFFFFFF AND DUP5 PUSH20 0xFFFFFFFFFFFFFFFFFFFFFFFFFFFFFFFFFFFFFFFF AND PUSH32 0xDDF252AD1BE2C89B69C2B068FC378DAA952BA7F163C4A11628F55A4DF523B3EF DUP5 PUSH1 0x40 MLOAD PUSH2 0x160F SWAP2 SWAP1 PUSH2 0x1B65 JUMP JUMPDEST PUSH1 0x40 MLOAD DUP1 SWAP2 SUB SWAP1 LOG3 PUSH2 0x1622 DUP5 DUP5 DUP5 PUSH2 0x1950 JUMP JUMPDEST POP POP POP POP JUMP JUMPDEST PUSH1 0x0 PUSH20 0xFFFFFFFFFFFFFFFFFFFFFFFFFFFFFFFFFFFFFFFF AND DUP3 PUSH20 0xFFFFFFFFFFFFFFFFFFFFFFFFFFFFFFFFFFFFFFFF AND SUB PUSH2 0x1697 JUMPI PUSH1 0x40 MLOAD PUSH32 0x8C379A000000000000000000000000000000000000000000000000000000000 DUP2 MSTORE PUSH1 0x4 ADD PUSH2 0x168E SWAP1 PUSH2 0x26D6 JUMP JUMPDEST PUSH1 0x40 MLOAD DUP1 SWAP2 SUB SWAP1 REVERT JUMPDEST PUSH2 0x16A3 PUSH1 0x0 DUP4 DUP4 PUSH2 0x194B JUMP JUMPDEST DUP1 PUSH1 0x2 PUSH1 0x0 DUP3 DUP3 SLOAD PUSH2 0x16B5 SWAP2 SWAP1 PUSH2 0x200A JUMP JUMPDEST SWAP3 POP POP DUP2 SWAP1 SSTORE POP DUP1 PUSH1 0x0 DUP1 DUP5 PUSH20 0xFFFFFFFFFFFFFFFFFFFFFFFFFFFFFFFFFFFFFFFF AND PUSH20 0xFFFFFFFFFFFFFFFFFFFFFFFFFFFFFFFFFFFFFFFF AND DUP2 MSTORE PUSH1 0x20 ADD SWAP1 DUP2 MSTORE PUSH1 0x20 ADD PUSH1 0x0 KECCAK256 PUSH1 0x0 DUP3 DUP3 SLOAD ADD SWAP3 POP POP DUP2 SWAP1 SSTORE POP DUP2 PUSH20 0xFFFFFFFFFFFFFFFFFFFFFFFFFFFFFFFFFFFFFFFF AND PUSH1 0x0 PUSH20 0xFFFFFFFFFFFFFFFFFFFFFFFFFFFFFFFFFFFFFFFF AND PUSH32 0xDDF252AD1BE2C89B69C2B068FC378DAA952BA7F163C4A11628F55A4DF523B3EF DUP4 PUSH1 0x40 MLOAD PUSH2 0x1766 SWAP2 SWAP1 PUSH2 0x1B65 JUMP JUMPDEST PUSH1 0x40 MLOAD DUP1 SWAP2 SUB SWAP1 LOG3 PUSH2 0x177A PUSH1 0x0 DUP4 DUP4 PUSH2 0x1950 JUMP JUMPDEST POP POP JUMP JUMPDEST PUSH1 0x0 PUSH20 0xFFFFFFFFFFFFFFFFFFFFFFFFFFFFFFFFFFFFFFFF AND DUP3 PUSH20 0xFFFFFFFFFFFFFFFFFFFFFFFFFFFFFFFFFFFFFFFF AND SUB PUSH2 0x17ED JUMPI PUSH1 0x40 MLOAD PUSH32 0x8C379A000000000000000000000000000000000000000000000000000000000 DUP2 MSTORE PUSH1 0x4 ADD PUSH2 0x17E4 SWAP1 PUSH2 0x2768 JUMP JUMPDEST PUSH1 0x40 MLOAD DUP1 SWAP2 SUB SWAP1 REVERT JUMPDEST PUSH2 0x17F9 DUP3 PUSH1 0x0 DUP4 PUSH2 0x194B JUMP JUMPDEST PUSH1 0x0 DUP1 PUSH1 0x0 DUP5 PUSH20 0xFFFFFFFFFFFFFFFFFFFFFFFFFFFFFFFFFFFFFFFF AND PUSH20 0xFFFFFFFFFFFFFFFFFFFFFFFFFFFFFFFFFFFFFFFF AND DUP2 MSTORE PUSH1 0x20 ADD SWAP1 DUP2 MSTORE PUSH1 0x20 ADD PUSH1 0x0 KECCAK256 SLOAD SWAP1 POP DUP2 DUP2 LT ISZERO PUSH2 0x187F JUMPI PUSH1 0x40 MLOAD PUSH32 0x8C379A000000000000000000000000000000000000000000000000000000000 DUP2 MSTORE PUSH1 0x4 ADD PUSH2 0x1876 SWAP1 PUSH2 0x27FA JUMP JUMPDEST PUSH1 0x40 MLOAD DUP1 SWAP2 SUB SWAP1 REVERT JUMPDEST DUP2 DUP2 SUB PUSH1 0x0 DUP1 DUP6 PUSH20 0xFFFFFFFFFFFFFFFFFFFFFFFFFFFFFFFFFFFFFFFF AND PUSH20 0xFFFFFFFFFFFFFFFFFFFFFFFFFFFFFFFFFFFFFFFF AND DUP2 MSTORE PUSH1 0x20 ADD SWAP1 DUP2 MSTORE PUSH1 0x20 ADD PUSH1 0x0 KECCAK256 DUP2 SWAP1 SSTORE POP DUP2 PUSH1 0x2 PUSH1 0x0 DUP3 DUP3 SLOAD SUB SWAP3 POP POP DUP2 SWAP1 SSTORE POP PUSH1 0x0 PUSH20 0xFFFFFFFFFFFFFFFFFFFFFFFFFFFFFFFFFFFFFFFF AND DUP4 PUSH20 0xFFFFFFFFFFFFFFFFFFFFFFFFFFFFFFFFFFFFFFFF AND PUSH32 0xDDF252AD1BE2C89B69C2B068FC378DAA952BA7F163C4A11628F55A4DF523B3EF DUP5 PUSH1 0x40 MLOAD PUSH2 0x1932 SWAP2 SWAP1 PUSH2 0x1B65 JUMP JUMPDEST PUSH1 0x40 MLOAD DUP1 SWAP2 SUB SWAP1 LOG3 PUSH2 0x1946 DUP4 PUSH1 0x0 DUP5 PUSH2 0x1950 JUMP JUMPDEST POP POP POP JUMP JUMPDEST POP POP POP JUMP JUMPDEST POP POP POP JUMP JUMPDEST PUSH1 0x0 DUP1 REVERT JUMPDEST PUSH1 0x0 DUP2 SWAP1 POP SWAP2 SWAP1 POP JUMP JUMPDEST PUSH2 0x196D DUP2 PUSH2 0x195A JUMP JUMPDEST DUP2 EQ PUSH2 0x1978 JUMPI PUSH1 0x0 DUP1 REVERT JUMPDEST POP JUMP JUMPDEST PUSH1 0x0 DUP2 CALLDATALOAD SWAP1 POP PUSH2 0x198A DUP2 PUSH2 0x1964 JUMP JUMPDEST SWAP3 SWAP2 POP POP JUMP JUMPDEST PUSH1 0x0 DUP1 PUSH1 0x40 DUP4 DUP6 SUB SLT ISZERO PUSH2 0x19A7 JUMPI PUSH2 0x19A6 PUSH2 0x1955 JUMP JUMPDEST JUMPDEST PUSH1 0x0 PUSH2 0x19B5 DUP6 DUP3 DUP7 ADD PUSH2 0x197B JUMP JUMPDEST SWAP3 POP POP PUSH1 0x20 PUSH2 0x19C6 DUP6 DUP3 DUP7 ADD PUSH2 0x197B JUMP JUMPDEST SWAP2 POP POP SWAP3 POP SWAP3 SWAP1 POP JUMP JUMPDEST PUSH1 0x0 DUP2 MLOAD SWAP1 POP SWAP2 SWAP1 POP JUMP JUMPDEST PUSH1 0x0 DUP3 DUP3 MSTORE PUSH1 0x20 DUP3 ADD SWAP1 POP SWAP3 SWAP2 POP POP JUMP JUMPDEST PUSH1 0x0 JUMPDEST DUP4 DUP2 LT ISZERO PUSH2 0x1A0A JUMPI DUP1 DUP3 ADD MLOAD DUP2 DUP5 ADD MSTORE PUSH1 0x20 DUP2 ADD SWAP1 POP PUSH2 0x19EF JUMP JUMPDEST PUSH1 0x0 DUP5 DUP5 ADD MSTORE POP POP POP POP JUMP JUMPDEST PUSH1 0x0 PUSH1 0x1F NOT PUSH1 0x1F DUP4 ADD AND SWAP1 POP SWAP2 SWAP1 POP JUMP JUMPDEST PUSH1 0x0 PUSH2 0x1A32 DUP3 PUSH2 0x19D0 JUMP JUMPDEST PUSH2 0x1A3C DUP2 DUP6 PUSH2 0x19DB JUMP JUMPDEST SWAP4 POP PUSH2 0x1A4C DUP2 DUP6 PUSH1 0x20 DUP7 ADD PUSH2 0x19EC JUMP JUMPDEST PUSH2 0x1A55 DUP2 PUSH2 0x1A16 JUMP JUMPDEST DUP5 ADD SWAP2 POP POP SWAP3 SWAP2 POP POP JUMP JUMPDEST PUSH1 0x0 PUSH1 0x20 DUP3 ADD SWAP1 POP DUP2 DUP2 SUB PUSH1 0x0 DUP4 ADD MSTORE PUSH2 0x1A7A DUP2 DUP5 PUSH2 0x1A27 JUMP JUMPDEST SWAP1 POP SWAP3 SWAP2 POP POP JUMP JUMPDEST PUSH1 0x0 PUSH20 0xFFFFFFFFFFFFFFFFFFFFFFFFFFFFFFFFFFFFFFFF DUP3 AND SWAP1 POP SWAP2 SWAP1 POP JUMP JUMPDEST PUSH1 0x0 PUSH2 0x1AAD DUP3 PUSH2 0x1A82 JUMP JUMPDEST SWAP1 POP SWAP2 SWAP1 POP JUMP JUMPDEST PUSH2 0x1ABD DUP2 PUSH2 0x1AA2 JUMP JUMPDEST DUP2 EQ PUSH2 0x1AC8 JUMPI PUSH1 0x0 DUP1 REVERT JUMPDEST POP JUMP JUMPDEST PUSH1 0x0 DUP2 CALLDATALOAD SWAP1 POP PUSH2 0x1ADA DUP2 PUSH2 0x1AB4 JUMP JUMPDEST SWAP3 SWAP2 POP POP JUMP JUMPDEST PUSH1 0x0 DUP1 PUSH1 0x40 DUP4 DUP6 SUB SLT ISZERO PUSH2 0x1AF7 JUMPI PUSH2 0x1AF6 PUSH2 0x1955 JUMP JUMPDEST JUMPDEST PUSH1 0x0 PUSH2 0x1B05 DUP6 DUP3 DUP7 ADD PUSH2 0x1ACB JUMP JUMPDEST SWAP3 POP POP PUSH1 0x20 PUSH2 0x1B16 DUP6 DUP3 DUP7 ADD PUSH2 0x197B JUMP JUMPDEST SWAP2 POP POP SWAP3 POP SWAP3 SWAP1 POP JUMP JUMPDEST PUSH1 0x0 DUP2 ISZERO ISZERO SWAP1 POP SWAP2 SWAP1 POP JUMP JUMPDEST PUSH2 0x1B35 DUP2 PUSH2 0x1B20 JUMP JUMPDEST DUP3 MSTORE POP POP JUMP JUMPDEST PUSH1 0x0 PUSH1 0x20 DUP3 ADD SWAP1 POP PUSH2 0x1B50 PUSH1 0x0 DUP4 ADD DUP5 PUSH2 0x1B2C JUMP JUMPDEST SWAP3 SWAP2 POP POP JUMP JUMPDEST PUSH2 0x1B5F DUP2 PUSH2 0x195A JUMP JUMPDEST DUP3 MSTORE POP POP JUMP JUMPDEST PUSH1 0x0 PUSH1 0x20 DUP3 ADD SWAP1 POP PUSH2 0x1B7A PUSH1 0x0 DUP4 ADD DUP5 PUSH2 0x1B56 JUMP JUMPDEST SWAP3 SWAP2 POP POP JUMP JUMPDEST PUSH1 0x0 PUSH1 0x20 DUP3 DUP5 SUB SLT ISZERO PUSH2 0x1B96 JUMPI PUSH2 0x1B95 PUSH2 0x1955 JUMP JUMPDEST JUMPDEST PUSH1 0x0 PUSH2 0x1BA4 DUP5 DUP3 DUP6 ADD PUSH2 0x197B JUMP JUMPDEST SWAP2 POP POP SWAP3 SWAP2 POP POP JUMP JUMPDEST PUSH1 0x0 DUP1 PUSH1 0x0 PUSH1 0x60 DUP5 DUP7 SUB SLT ISZERO PUSH2 0x1BC6 JUMPI PUSH2 0x1BC5 PUSH2 0x1955 JUMP JUMPDEST JUMPDEST PUSH1 0x0 PUSH2 0x1BD4 DUP7 DUP3 DUP8 ADD PUSH2 0x1ACB JUMP JUMPDEST SWAP4 POP POP PUSH1 0x20 PUSH2 0x1BE5 DUP7 DUP3 DUP8 ADD PUSH2 0x1ACB JUMP JUMPDEST SWAP3 POP POP PUSH1 0x40 PUSH2 0x1BF6 DUP7 DUP3 DUP8 ADD PUSH2 0x197B JUMP JUMPDEST SWAP2 POP POP SWAP3 POP SWAP3 POP SWAP3 JUMP JUMPDEST PUSH1 0x0 PUSH1 0xFF DUP3 AND SWAP1 POP SWAP2 SWAP1 POP JUMP JUMPDEST PUSH2 0x1C16 DUP2 PUSH2 0x1C00 JUMP JUMPDEST DUP3 MSTORE POP POP JUMP JUMPDEST PUSH1 0x0 PUSH1 0x20 DUP3 ADD SWAP1 POP PUSH2 0x1C31 PUSH1 0x0 DUP4 ADD DUP5 PUSH2 0x1C0D JUMP JUMPDEST SWAP3 SWAP2 POP POP JUMP JUMPDEST PUSH2 0x1C40 DUP2 PUSH2 0x1AA2 JUMP JUMPDEST DUP3 MSTORE POP POP JUMP JUMPDEST PUSH1 0x0 PUSH1 0x20 DUP3 ADD SWAP1 POP PUSH2 0x1C5B PUSH1 0x0 DUP4 ADD DUP5 PUSH2 0x1C37 JUMP JUMPDEST SWAP3 SWAP2 POP POP JUMP JUMPDEST PUSH1 0x0 PUSH1 0x20 DUP3 DUP5 SUB SLT ISZERO PUSH2 0x1C77 JUMPI PUSH2 0x1C76 PUSH2 0x1955 JUMP JUMPDEST JUMPDEST PUSH1 0x0 PUSH2 0x1C85 DUP5 DUP3 DUP6 ADD PUSH2 0x1ACB JUMP JUMPDEST SWAP2 POP POP SWAP3 SWAP2 POP POP JUMP JUMPDEST PUSH1 0x0 DUP1 PUSH1 0x0 PUSH1 0x60 DUP5 DUP7 SUB SLT ISZERO PUSH2 0x1CA7 JUMPI PUSH2 0x1CA6 PUSH2 0x1955 JUMP JUMPDEST JUMPDEST PUSH1 0x0 PUSH2 0x1CB5 DUP7 DUP3 DUP8 ADD PUSH2 0x197B JUMP JUMPDEST SWAP4 POP POP PUSH1 0x20 PUSH2 0x1CC6 DUP7 DUP3 DUP8 ADD PUSH2 0x197B JUMP JUMPDEST SWAP3 POP POP PUSH1 0x40 PUSH2 0x1CD7 DUP7 DUP3 DUP8 ADD PUSH2 0x197B JUMP JUMPDEST SWAP2 POP POP SWAP3 POP SWAP3 POP SWAP3 JUMP JUMPDEST PUSH1 0x0 PUSH1 0x40 DUP3 ADD SWAP1 POP PUSH2 0x1CF6 PUSH1 0x0 DUP4 ADD DUP6 PUSH2 0x1B56 JUMP JUMPDEST PUSH2 0x1D03 PUSH1 0x20 DUP4 ADD DUP5 PUSH2 0x1B56 JUMP JUMPDEST SWAP4 SWAP3 POP POP POP JUMP JUMPDEST PUSH1 0x0 DUP1 PUSH1 0x40 DUP4 DUP6 SUB SLT ISZERO PUSH2 0x1D21 JUMPI PUSH2 0x1D20 PUSH2 0x1955 JUMP JUMPDEST JUMPDEST PUSH1 0x0 PUSH2 0x1D2F DUP6 DUP3 DUP7 ADD PUSH2 0x1ACB JUMP JUMPDEST SWAP3 POP POP PUSH1 0x20 PUSH2 0x1D40 DUP6 DUP3 DUP7 ADD PUSH2 0x1ACB JUMP JUMPDEST SWAP2 POP POP SWAP3 POP SWAP3 SWAP1 POP JUMP JUMPDEST PUSH32 0x496E73756666696369656E74206F757470757420616D6F756E742C2061732070 PUSH1 0x0 DUP3 ADD MSTORE PUSH32 0x6572207768617420796F75206578706563740000000000000000000000000000 PUSH1 0x20 DUP3 ADD MSTORE POP JUMP JUMPDEST PUSH1 0x0 PUSH2 0x1DA6 PUSH1 0x32 DUP4 PUSH2 0x19DB JUMP JUMPDEST SWAP2 POP PUSH2 0x1DB1 DUP3 PUSH2 0x1D4A JUMP JUMPDEST PUSH1 0x40 DUP3 ADD SWAP1 POP SWAP2 SWAP1 POP JUMP JUMPDEST PUSH1 0x0 PUSH1 0x20 DUP3 ADD SWAP1 POP DUP2 DUP2 SUB PUSH1 0x0 DUP4 ADD MSTORE PUSH2 0x1DD5 DUP2 PUSH2 0x1D99 JUMP JUMPDEST SWAP1 POP SWAP2 SWAP1 POP JUMP JUMPDEST PUSH1 0x0 PUSH1 0x40 DUP3 ADD SWAP1 POP PUSH2 0x1DF1 PUSH1 0x0 DUP4 ADD DUP6 PUSH2 0x1C37 JUMP JUMPDEST PUSH2 0x1DFE PUSH1 0x20 DUP4 ADD DUP5 PUSH2 0x1B56 JUMP JUMPDEST SWAP4 SWAP3 POP POP POP JUMP JUMPDEST PUSH2 0x1E0E DUP2 PUSH2 0x1B20 JUMP JUMPDEST DUP2 EQ PUSH2 0x1E19 JUMPI PUSH1 0x0 DUP1 REVERT JUMPDEST POP JUMP JUMPDEST PUSH1 0x0 DUP2 MLOAD SWAP1 POP PUSH2 0x1E2B DUP2 PUSH2 0x1E05 JUMP JUMPDEST SWAP3 SWAP2 POP POP JUMP JUMPDEST PUSH1 0x0 PUSH1 0x20 DUP3 DUP5 SUB SLT ISZERO PUSH2 0x1E47 JUMPI PUSH2 0x1E46 PUSH2 0x1955 JUMP JUMPDEST JUMPDEST PUSH1 0x0 PUSH2 0x1E55 DUP5 DUP3 DUP6 ADD PUSH2 0x1E1C JUMP JUMPDEST SWAP2 POP POP SWAP3 SWAP2 POP POP JUMP JUMPDEST PUSH1 0x0 PUSH1 0x60 DUP3 ADD SWAP1 POP PUSH2 0x1E73 PUSH1 0x0 DUP4 ADD DUP7 PUSH2 0x1C37 JUMP JUMPDEST PUSH2 0x1E80 PUSH1 0x20 DUP4 ADD DUP6 PUSH2 0x1C37 JUMP JUMPDEST PUSH2 0x1E8D PUSH1 0x40 DUP4 ADD DUP5 PUSH2 0x1B56 JUMP JUMPDEST SWAP5 SWAP4 POP POP POP POP JUMP JUMPDEST PUSH1 0x0 DUP2 SWAP1 POP SWAP3 SWAP2 POP POP JUMP JUMPDEST POP JUMP JUMPDEST PUSH1 0x0 PUSH2 0x1EB0 PUSH1 0x0 DUP4 PUSH2 0x1E95 JUMP JUMPDEST SWAP2 POP PUSH2 0x1EBB DUP3 PUSH2 0x1EA0 JUMP JUMPDEST PUSH1 0x0 DUP3 ADD SWAP1 POP SWAP2 SWAP1 POP JUMP JUMPDEST PUSH1 0x0 PUSH2 0x1ED1 DUP3 PUSH2 0x1EA3 JUMP JUMPDEST SWAP2 POP DUP2 SWAP1 POP SWAP2 SWAP1 POP JUMP JUMPDEST PUSH32 0x457468205472616E73666572204661696C656400000000000000000000000000 PUSH1 0x0 DUP3 ADD MSTORE POP JUMP JUMPDEST PUSH1 0x0 PUSH2 0x1F11 PUSH1 0x13 DUP4 PUSH2 0x19DB JUMP JUMPDEST SWAP2 POP PUSH2 0x1F1C DUP3 PUSH2 0x1EDB JUMP JUMPDEST PUSH1 0x20 DUP3 ADD SWAP1 POP SWAP2 SWAP1 POP JUMP JUMPDEST PUSH1 0x0 PUSH1 0x20 DUP3 ADD SWAP1 POP DUP2 DUP2 SUB PUSH1 0x0 DUP4 ADD MSTORE PUSH2 0x1F40 DUP2 PUSH2 0x1F04 JUMP JUMPDEST SWAP1 POP SWAP2 SWAP1 POP JUMP JUMPDEST PUSH32 0x4E487B7100000000000000000000000000000000000000000000000000000000 PUSH1 0x0 MSTORE PUSH1 0x22 PUSH1 0x4 MSTORE PUSH1 0x24 PUSH1 0x0 REVERT JUMPDEST PUSH1 0x0 PUSH1 0x2 DUP3 DIV SWAP1 POP PUSH1 0x1 DUP3 AND DUP1 PUSH2 0x1F8E JUMPI PUSH1 0x7F DUP3 AND SWAP2 POP JUMPDEST PUSH1 0x20 DUP3 LT DUP2 SUB PUSH2 0x1FA1 JUMPI PUSH2 0x1FA0 PUSH2 0x1F47 JUMP JUMPDEST JUMPDEST POP SWAP2 SWAP1 POP JUMP JUMPDEST PUSH32 0x4E487B7100000000000000000000000000000000000000000000000000000000 PUSH1 0x0 MSTORE PUSH1 0x11 PUSH1 0x4 MSTORE PUSH1 0x24 PUSH1 0x0 REVERT JUMPDEST PUSH1 0x0 PUSH2 0x1FE1 DUP3 PUSH2 0x195A JUMP JUMPDEST SWAP2 POP PUSH2 0x1FEC DUP4 PUSH2 0x195A JUMP JUMPDEST SWAP3 POP DUP3 DUP3 SUB SWAP1 POP DUP2 DUP2 GT ISZERO PUSH2 0x2004 JUMPI PUSH2 0x2003 PUSH2 0x1FA7 JUMP JUMPDEST JUMPDEST SWAP3 SWAP2 POP POP JUMP JUMPDEST PUSH1 0x0 PUSH2 0x2015 DUP3 PUSH2 0x195A JUMP JUMPDEST SWAP2 POP PUSH2 0x2020 DUP4 PUSH2 0x195A JUMP JUMPDEST SWAP3 POP DUP3 DUP3 ADD SWAP1 POP DUP1 DUP3 GT ISZERO PUSH2 0x2038 JUMPI PUSH2 0x2037 PUSH2 0x1FA7 JUMP JUMPDEST JUMPDEST SWAP3 SWAP2 POP POP JUMP JUMPDEST PUSH32 0x4E487B7100000000000000000000000000000000000000000000000000000000 PUSH1 0x0 MSTORE PUSH1 0x12 PUSH1 0x4 MSTORE PUSH1 0x24 PUSH1 0x0 REVERT JUMPDEST PUSH1 0x0 PUSH2 0x2078 DUP3 PUSH2 0x195A JUMP JUMPDEST SWAP2 POP PUSH2 0x2083 DUP4 PUSH2 0x195A JUMP JUMPDEST SWAP3 POP DUP3 PUSH2 0x2093 JUMPI PUSH2 0x2092 PUSH2 0x203E JUMP JUMPDEST JUMPDEST DUP3 DUP3 DIV SWAP1 POP SWAP3 SWAP2 POP POP JUMP JUMPDEST PUSH1 0x0 PUSH2 0x20A9 DUP3 PUSH2 0x195A JUMP JUMPDEST SWAP2 POP PUSH2 0x20B4 DUP4 PUSH2 0x195A JUMP JUMPDEST SWAP3 POP DUP3 DUP3 MUL PUSH2 0x20C2 DUP2 PUSH2 0x195A JUMP JUMPDEST SWAP2 POP DUP3 DUP3 DIV DUP5 EQ DUP4 ISZERO OR PUSH2 0x20D9 JUMPI PUSH2 0x20D8 PUSH2 0x1FA7 JUMP JUMPDEST JUMPDEST POP SWAP3 SWAP2 POP POP JUMP JUMPDEST PUSH32 0x416D6F756E74206F6620746F6B656E732073656E74206973206C657373207468 PUSH1 0x0 DUP3 ADD MSTORE PUSH32 0x616E20746865206D696E696D756D20746F6B656E732072657175697265640000 PUSH1 0x20 DUP3 ADD MSTORE POP JUMP JUMPDEST PUSH1 0x0 PUSH2 0x213C PUSH1 0x3E DUP4 PUSH2 0x19DB JUMP JUMPDEST SWAP2 POP PUSH2 0x2147 DUP3 PUSH2 0x20E0 JUMP JUMPDEST PUSH1 0x40 DUP3 ADD SWAP1 POP SWAP2 SWAP1 POP JUMP JUMPDEST PUSH1 0x0 PUSH1 0x20 DUP3 ADD SWAP1 POP DUP2 DUP2 SUB PUSH1 0x0 DUP4 ADD MSTORE PUSH2 0x216B DUP2 PUSH2 0x212F JUMP JUMPDEST SWAP1 POP SWAP2 SWAP1 POP JUMP JUMPDEST PUSH1 0x0 DUP2 MLOAD SWAP1 POP PUSH2 0x2181 DUP2 PUSH2 0x1964 JUMP JUMPDEST SWAP3 SWAP2 POP POP JUMP JUMPDEST PUSH1 0x0 PUSH1 0x20 DUP3 DUP5 SUB SLT ISZERO PUSH2 0x219D JUMPI PUSH2 0x219C PUSH2 0x1955 JUMP JUMPDEST JUMPDEST PUSH1 0x0 PUSH2 0x21AB DUP5 DUP3 DUP6 ADD PUSH2 0x2172 JUMP JUMPDEST SWAP2 POP POP SWAP3 SWAP2 POP POP JUMP JUMPDEST PUSH32 0x496E76616C696420726573657276657300000000000000000000000000000000 PUSH1 0x0 DUP3 ADD MSTORE POP JUMP JUMPDEST PUSH1 0x0 PUSH2 0x21EA PUSH1 0x10 DUP4 PUSH2 0x19DB JUMP JUMPDEST SWAP2 POP PUSH2 0x21F5 DUP3 PUSH2 0x21B4 JUMP JUMPDEST PUSH1 0x20 DUP3 ADD SWAP1 POP SWAP2 SWAP1 POP JUMP JUMPDEST PUSH1 0x0 PUSH1 0x20 DUP3 ADD SWAP1 POP DUP2 DUP2 SUB PUSH1 0x0 DUP4 ADD MSTORE PUSH2 0x2219 DUP2 PUSH2 0x21DD JUMP JUMPDEST SWAP1 POP SWAP2 SWAP1 POP JUMP JUMPDEST PUSH32 0x5F616D6F756E742073686F756C642062652067726561746572207468616E207A PUSH1 0x0 DUP3 ADD MSTORE PUSH32 0x65726F0000000000000000000000000000000000000000000000000000000000 PUSH1 0x20 DUP3 ADD MSTORE POP JUMP JUMPDEST PUSH1 0x0 PUSH2 0x227C PUSH1 0x23 DUP4 PUSH2 0x19DB JUMP JUMPDEST SWAP2 POP PUSH2 0x2287 DUP3 PUSH2 0x2220 JUMP JUMPDEST PUSH1 0x40 DUP3 ADD SWAP1 POP SWAP2 SWAP1 POP JUMP JUMPDEST PUSH1 0x0 PUSH1 0x20 DUP3 ADD SWAP1 POP DUP2 DUP2 SUB PUSH1 0x0 DUP4 ADD MSTORE PUSH2 0x22AB DUP2 PUSH2 0x226F JUMP JUMPDEST SWAP1 POP SWAP2 SWAP1 POP JUMP JUMPDEST PUSH32 0x45524332303A2064656372656173656420616C6C6F77616E63652062656C6F77 PUSH1 0x0 DUP3 ADD MSTORE PUSH32 0x207A65726F000000000000000000000000000000000000000000000000000000 PUSH1 0x20 DUP3 ADD MSTORE POP JUMP JUMPDEST PUSH1 0x0 PUSH2 0x230E PUSH1 0x25 DUP4 PUSH2 0x19DB JUMP JUMPDEST SWAP2 POP PUSH2 0x2319 DUP3 PUSH2 0x22B2 JUMP JUMPDEST PUSH1 0x40 DUP3 ADD SWAP1 POP SWAP2 SWAP1 POP JUMP JUMPDEST PUSH1 0x0 PUSH1 0x20 DUP3 ADD SWAP1 POP DUP2 DUP2 SUB PUSH1 0x0 DUP4 ADD MSTORE PUSH2 0x233D DUP2 PUSH2 0x2301 JUMP JUMPDEST SWAP1 POP SWAP2 SWAP1 POP JUMP JUMPDEST PUSH32 0x45524332303A20617070726F76652066726F6D20746865207A65726F20616464 PUSH1 0x0 DUP3 ADD MSTORE PUSH32 0x7265737300000000000000000000000000000000000000000000000000000000 PUSH1 0x20 DUP3 ADD MSTORE POP JUMP JUMPDEST PUSH1 0x0 PUSH2 0x23A0 PUSH1 0x24 DUP4 PUSH2 0x19DB JUMP JUMPDEST SWAP2 POP PUSH2 0x23AB DUP3 PUSH2 0x2344 JUMP JUMPDEST PUSH1 0x40 DUP3 ADD SWAP1 POP SWAP2 SWAP1 POP JUMP JUMPDEST PUSH1 0x0 PUSH1 0x20 DUP3 ADD SWAP1 POP DUP2 DUP2 SUB PUSH1 0x0 DUP4 ADD MSTORE PUSH2 0x23CF DUP2 PUSH2 0x2393 JUMP JUMPDEST SWAP1 POP SWAP2 SWAP1 POP JUMP JUMPDEST PUSH32 0x45524332303A20617070726F766520746F20746865207A65726F206164647265 PUSH1 0x0 DUP3 ADD MSTORE PUSH32 0x7373000000000000000000000000000000000000000000000000000000000000 PUSH1 0x20 DUP3 ADD MSTORE POP JUMP JUMPDEST PUSH1 0x0 PUSH2 0x2432 PUSH1 0x22 DUP4 PUSH2 0x19DB JUMP JUMPDEST SWAP2 POP PUSH2 0x243D DUP3 PUSH2 0x23D6 JUMP JUMPDEST PUSH1 0x40 DUP3 ADD SWAP1 POP SWAP2 SWAP1 POP JUMP JUMPDEST PUSH1 0x0 PUSH1 0x20 DUP3 ADD SWAP1 POP DUP2 DUP2 SUB PUSH1 0x0 DUP4 ADD MSTORE PUSH2 0x2461 DUP2 PUSH2 0x2425 JUMP JUMPDEST SWAP1 POP SWAP2 SWAP1 POP JUMP JUMPDEST PUSH32 0x45524332303A20696E73756666696369656E7420616C6C6F77616E6365000000 PUSH1 0x0 DUP3 ADD MSTORE POP JUMP JUMPDEST PUSH1 0x0 PUSH2 0x249E PUSH1 0x1D DUP4 PUSH2 0x19DB JUMP JUMPDEST SWAP2 POP PUSH2 0x24A9 DUP3 PUSH2 0x2468 JUMP JUMPDEST PUSH1 0x20 DUP3 ADD SWAP1 POP SWAP2 SWAP1 POP JUMP JUMPDEST PUSH1 0x0 PUSH1 0x20 DUP3 ADD SWAP1 POP DUP2 DUP2 SUB PUSH1 0x0 DUP4 ADD MSTORE PUSH2 0x24CD DUP2 PUSH2 0x2491 JUMP JUMPDEST SWAP1 POP SWAP2 SWAP1 POP JUMP JUMPDEST PUSH32 0x45524332303A207472616E736665722066726F6D20746865207A65726F206164 PUSH1 0x0 DUP3 ADD MSTORE PUSH32 0x6472657373000000000000000000000000000000000000000000000000000000 PUSH1 0x20 DUP3 ADD MSTORE POP JUMP JUMPDEST PUSH1 0x0 PUSH2 0x2530 PUSH1 0x25 DUP4 PUSH2 0x19DB JUMP JUMPDEST SWAP2 POP PUSH2 0x253B DUP3 PUSH2 0x24D4 JUMP JUMPDEST PUSH1 0x40 DUP3 ADD SWAP1 POP SWAP2 SWAP1 POP JUMP JUMPDEST PUSH1 0x0 PUSH1 0x20 DUP3 ADD SWAP1 POP DUP2 DUP2 SUB PUSH1 0x0 DUP4 ADD MSTORE PUSH2 0x255F DUP2 PUSH2 0x2523 JUMP JUMPDEST SWAP1 POP SWAP2 SWAP1 POP JUMP JUMPDEST PUSH32 0x45524332303A207472616E7366657220746F20746865207A65726F2061646472 PUSH1 0x0 DUP3 ADD MSTORE PUSH32 0x6573730000000000000000000000000000000000000000000000000000000000 PUSH1 0x20 DUP3 ADD MSTORE POP JUMP JUMPDEST PUSH1 0x0 PUSH2 0x25C2 PUSH1 0x23 DUP4 PUSH2 0x19DB JUMP JUMPDEST SWAP2 POP PUSH2 0x25CD DUP3 PUSH2 0x2566 JUMP JUMPDEST PUSH1 0x40 DUP3 ADD SWAP1 POP SWAP2 SWAP1 POP JUMP JUMPDEST PUSH1 0x0 PUSH1 0x20 DUP3 ADD SWAP1 POP DUP2 DUP2 SUB PUSH1 0x0 DUP4 ADD MSTORE PUSH2 0x25F1 DUP2 PUSH2 0x25B5 JUMP JUMPDEST SWAP1 POP SWAP2 SWAP1 POP JUMP JUMPDEST PUSH32 0x45524332303A207472616E7366657220616D6F756E7420657863656564732062 PUSH1 0x0 DUP3 ADD MSTORE PUSH32 0x616C616E63650000000000000000000000000000000000000000000000000000 PUSH1 0x20 DUP3 ADD MSTORE POP JUMP JUMPDEST PUSH1 0x0 PUSH2 0x2654 PUSH1 0x26 DUP4 PUSH2 0x19DB JUMP JUMPDEST SWAP2 POP PUSH2 0x265F DUP3 PUSH2 0x25F8 JUMP JUMPDEST PUSH1 0x40 DUP3 ADD SWAP1 POP SWAP2 SWAP1 POP JUMP JUMPDEST PUSH1 0x0 PUSH1 0x20 DUP3 ADD SWAP1 POP DUP2 DUP2 SUB PUSH1 0x0 DUP4 ADD MSTORE PUSH2 0x2683 DUP2 PUSH2 0x2647 JUMP JUMPDEST SWAP1 POP SWAP2 SWAP1 POP JUMP JUMPDEST PUSH32 0x45524332303A206D696E7420746F20746865207A65726F206164647265737300 PUSH1 0x0 DUP3 ADD MSTORE POP JUMP JUMPDEST PUSH1 0x0 PUSH2 0x26C0 PUSH1 0x1F DUP4 PUSH2 0x19DB JUMP JUMPDEST SWAP2 POP PUSH2 0x26CB DUP3 PUSH2 0x268A JUMP JUMPDEST PUSH1 0x20 DUP3 ADD SWAP1 POP SWAP2 SWAP1 POP JUMP JUMPDEST PUSH1 0x0 PUSH1 0x20 DUP3 ADD SWAP1 POP DUP2 DUP2 SUB PUSH1 0x0 DUP4 ADD MSTORE PUSH2 0x26EF DUP2 PUSH2 0x26B3 JUMP JUMPDEST SWAP1 POP SWAP2 SWAP1 POP JUMP JUMPDEST PUSH32 0x45524332303A206275726E2066726F6D20746865207A65726F20616464726573 PUSH1 0x0 DUP3 ADD MSTORE PUSH32 0x7300000000000000000000000000000000000000000000000000000000000000 PUSH1 0x20 DUP3 ADD MSTORE POP JUMP JUMPDEST PUSH1 0x0 PUSH2 0x2752 PUSH1 0x21 DUP4 PUSH2 0x19DB JUMP JUMPDEST SWAP2 POP PUSH2 0x275D DUP3 PUSH2 0x26F6 JUMP JUMPDEST PUSH1 0x40 DUP3 ADD SWAP1 POP SWAP2 SWAP1 POP JUMP JUMPDEST PUSH1 0x0 PUSH1 0x20 DUP3 ADD SWAP1 POP DUP2 DUP2 SUB PUSH1 0x0 DUP4 ADD MSTORE PUSH2 0x2781 DUP2 PUSH2 0x2745 JUMP JUMPDEST SWAP1 POP SWAP2 SWAP1 POP JUMP JUMPDEST PUSH32 0x45524332303A206275726E20616D6F756E7420657863656564732062616C616E PUSH1 0x0 DUP3 ADD MSTORE PUSH32 0x6365000000000000000000000000000000000000000000000000000000000000 PUSH1 0x20 DUP3 ADD MSTORE POP JUMP JUMPDEST PUSH1 0x0 PUSH2 0x27E4 PUSH1 0x22 DUP4 PUSH2 0x19DB JUMP JUMPDEST SWAP2 POP PUSH2 0x27EF DUP3 PUSH2 0x2788 JUMP JUMPDEST PUSH1 0x40 DUP3 ADD SWAP1 POP SWAP2 SWAP1 POP JUMP JUMPDEST PUSH1 0x0 PUSH1 0x20 DUP3 ADD SWAP1 POP DUP2 DUP2 SUB PUSH1 0x0 DUP4 ADD MSTORE PUSH2 0x2813 DUP2 PUSH2 0x27D7 JUMP JUMPDEST SWAP1 POP SWAP2 SWAP1 POP JUMP INVALID LOG2 PUSH5 0x6970667358 0x22 SLT KECCAK256 SHR PUSH29 0x27F43C50D0D17E8FCCE01AC0C722FF65653A9A8D32FD3BBF9F64A7D905 0x29 PUSH5 0x736F6C6343 STOP ADDMOD SGT STOP CALLER "
				},
				"gasEstimates": {
					"creation": {
						"codeDepositCost": "2064000",
						"executionCost": "infinite",
						"totalCost": "infinite"
					},
					"external": {
						"TGOLDTokenAddress()": "2625",
						"TGOLDTokensToEth(uint256,uint256)": "infinite",
						"addLiquidity(uint256)": "infinite",
						"allowance(address,address)": "infinite",
						"approve(address,uint256)": "infinite",
						"balanceOf(address)": "2908",
						"decimals()": "410",
						"decreaseAllowance(address,uint256)": "infinite",
						"ethToTGOLDTokens(uint256)": "infinite",
						"getAmountOfTokens(uint256,uint256,uint256)": "infinite",
						"getReserve()": "infinite",
						"increaseAllowance(address,uint256)": "infinite",
						"name()": "infinite",
						"removeLiquidity(uint256)": "infinite",
						"symbol()": "infinite",
						"totalSupply()": "2527",
						"transfer(address,uint256)": "infinite",
						"transferFrom(address,address,uint256)": "infinite"
					}
				},
				"methodIdentifiers": {
					"TGOLDTokenAddress()": "3ee12bd1",
					"TGOLDTokensToEth(uint256,uint256)": "0465b2f5",
					"addLiquidity(uint256)": "51c6590a",
					"allowance(address,address)": "dd62ed3e",
					"approve(address,uint256)": "095ea7b3",
					"balanceOf(address)": "70a08231",
					"decimals()": "313ce567",
					"decreaseAllowance(address,uint256)": "a457c2d7",
					"ethToTGOLDTokens(uint256)": "1ffa582d",
					"getAmountOfTokens(uint256,uint256,uint256)": "7386479e",
					"getReserve()": "59bf5d39",
					"increaseAllowance(address,uint256)": "39509351",
					"name()": "06fdde03",
					"removeLiquidity(uint256)": "9c8f9f23",
					"symbol()": "95d89b41",
					"totalSupply()": "18160ddd",
					"transfer(address,uint256)": "a9059cbb",
					"transferFrom(address,address,uint256)": "23b872dd"
				}
			},
			"storageLayout": {
				"storage": [
					{
						"astId": 15,
						"contract": "contracts/Exchange.sol:Exchange",
						"label": "_balances",
						"offset": 0,
						"slot": "0",
						"type": "t_mapping(t_address,t_uint256)"
					},
					{
						"astId": 21,
						"contract": "contracts/Exchange.sol:Exchange",
						"label": "_allowances",
						"offset": 0,
						"slot": "1",
						"type": "t_mapping(t_address,t_mapping(t_address,t_uint256))"
					},
					{
						"astId": 23,
						"contract": "contracts/Exchange.sol:Exchange",
						"label": "_totalSupply",
						"offset": 0,
						"slot": "2",
						"type": "t_uint256"
					},
					{
						"astId": 25,
						"contract": "contracts/Exchange.sol:Exchange",
						"label": "_name",
						"offset": 0,
						"slot": "3",
						"type": "t_string_storage"
					},
					{
						"astId": 27,
						"contract": "contracts/Exchange.sol:Exchange",
						"label": "_symbol",
						"offset": 0,
						"slot": "4",
						"type": "t_string_storage"
					},
					{
						"astId": 722,
						"contract": "contracts/Exchange.sol:Exchange",
						"label": "TGOLDTokenAddress",
						"offset": 0,
						"slot": "5",
						"type": "t_address"
					}
				],
				"types": {
					"t_address": {
						"encoding": "inplace",
						"label": "address",
						"numberOfBytes": "20"
					},
					"t_mapping(t_address,t_mapping(t_address,t_uint256))": {
						"encoding": "mapping",
						"key": "t_address",
						"label": "mapping(address => mapping(address => uint256))",
						"numberOfBytes": "32",
						"value": "t_mapping(t_address,t_uint256)"
					},
					"t_mapping(t_address,t_uint256)": {
						"encoding": "mapping",
						"key": "t_address",
						"label": "mapping(address => uint256)",
						"numberOfBytes": "32",
						"value": "t_uint256"
					},
					"t_string_storage": {
						"encoding": "bytes",
						"label": "string",
						"numberOfBytes": "32"
					},
					"t_uint256": {
						"encoding": "inplace",
						"label": "uint256",
						"numberOfBytes": "32"
					}
				}
			},
			"userdoc": {
				"kind": "user",
				"methods": {},
				"version": 1
			}
		}
	}
}